:020000040800F2
:10000000500C0020110500089128000893280008D2
:10001000972800089B2800089F280008000000007F
:10002000000000000000000000000000A3280008FD
:10003000A528000800000000A72800080D2C0008D3
:100040002B0500082B0500082B0500082B050008D0
:100050002B0500082B050008A9280008C128000866
:100060002B0500082B0500082B0500082B050008B0
:100070002B0500082B0500082B0500082B050008A0
:100080002B050008DB4400082B0500082B050008A1
:100090002B0500082B0500082B0500082B05000880
:1000A0002B0500082B050008652A00082B05000811
:1000B000D9280008EF280008092900082B050008A6
:1000C0002B0500082B0500082B0500082B05000850
:1000D0002B050008A94800080F4A0008894A0008B3
:1000E0002B0500082B0500082B050008A92A00088D
:1000F0003D2A00082B0500082B0500082B050008E9
:100100002B0500082B050008C32900082B05000853
:10011000AF4B00082B050008FF2900081D2A000826
:100120002B0500082B0500082B0500082B050008EF
:100130002B0500082B0500082B0500082B050008DF
:100140002B0500082B0500082B0500082B050008CF
:100150002B0500082B0500082B050008294C00087A
:100160002B0500082B0500082B0500082B050008AF
:100170002B0500082B0500082B0500082B0500089F
:100180002B0500082B05000800F002F800F0B2F87B
:100190000AA090E8000C82448344AAF10107DA45E2
:1001A00001D100F0A7F8AFF2090EBAE80F0013F082
:1001B000010F18BFFB1A43F001031847106C000031
:1001C000306C00000A444FF0000C10F8013B13F0B3
:1001D000070408BF10F8014B1D1108BF10F8015BA0
:1001E000641E05D010F8016B641E01F8016BF9D193
:1001F00013F0080F1EBF10F8014BAD1C0C1B09D1EA
:100200006D1E58BF01F801CBFAD505E014F8016B5B
:1002100001F8016B6D1EF9D59142D6D370470000ED
:100220000023002400250026103A28BF78C1FBD8FF
:10023000520728BF30C148BF0B6070476E2904F0D9
:100240006087702905F0CA82662906F05285652903
:1002500006F04F85672906F04C856129AFF30080D1
:1002600003681B0A28BF41F08001692904F07A85E0
:10027000642904F07785752904F074856F2905F0E9
:100280005582782905F09682E92905F0ED81E42967
:1002900005F0EA81F52905F0E781EF2905F05282A2
:1002A000F82905F095820368DB0928BF41F0800139
:1002B000632905F03383732905F03883E32905F0BA
:1002C0004383F32905F04883002070471FB506F0EB
:1002D00006FD05F08FFA04000020002106F03EF82C
:1002E000401C60600020002106F022F8E0601FBD85
:1002F00010B510BD05F0CEFB1146FFF7E7FF02F089
:100300002BFA05F0F5FB03B4FFF7F2FF03BC04F092
:100310000DF8000000210020724A126842F4803279
:10032000704B1A6000BF6F4A126802F40030491C1B
:1003300010B9B1F5A06FF6D16A4A126812F4003F05
:1003400001D0012000E00020012845D1654A40325B
:10035000126842F08052634B40331A60624A12685E
:1003600042F48042604B1A605E4A083212685D4B6C
:1003700008331A601A46126842F400421A601A469C
:10038000126842F4A0521A60584A1B1F1A601A1FC2
:10039000126842F080721B1F1A6000BF514A126837
:1003A00012F0007FFAD040F20562514B1A604D4ABC
:1003B0000832126822F003024A4B08331A601A46C8
:1003C000126842F002021A6000BF464A0832126800
:1003D00002F00C02082AF8D1704710B545480068B1
:1003E00040F47000434908603E48006840F0010056
:1003F0003C49086000203B490831086039480068E2
:100400003D490840374908603C48091D0860081FFD
:10041000006820F48020091F0860002031490C3159
:100420000860FFF777FF4FF00060324980390860BD
:1004300010BD30B500200022022384460221294C41
:100440000834246804F00C0020B1042806D00828E1
:1004500036D107E02A4C2B4D2C6035E02A4C294D33
:100460002C6031E01F4C241D2468C4F3805C1D4CBB
:10047000241D246804F03F01BCF1000F0AD0224C77
:10048000B4FBF1F4174D2D1D2D68C5F3881504FB41
:1004900005F209E01A4CB4FBF1F4124D2D1D2D6844
:1004A000C5F3881504FB05F20E4C241D2468C4F323
:1004B0000144641C6300B2FBF3F4124D2C6003E0B2
:1004C0000F4C104D2C6000BF00BF064C0834246850
:1004D000C4F303140D4D285D0A4C2468C440094D33
:1004E0002C6030BD0038024000700040042A4004F7
:1004F000003C024088ED00E0FFFFF6FE10300024D3
:100500000024F4000000002000127A000400002003
:100510000948804709480047FEE7FEE7FEE7FEE797
:10052000FEE7FEE7FEE7FEE7FEE7FEE704480549D3
:10053000054A064B70470000DB03000889010008EC
:1005400050060020500C00205008002050080020C9
:1005500033490143334A1160704770B500210023CD
:100560000F22C47824B32F4C246804F4E064C4F54B
:10057000E064C4F30721C1F10404E3B20A41447802
:100580009C40E1B28478144021430C07210E264C94
:1005900005786155047804F01F050124AC40057806
:1005A0006D114FF0E02606EB8505C5F8004109E026
:1005B000047804F01F050124AC401C4D0678761128
:1005C00045F8264070BD1A4A0A400243154B1B1FCE
:1005D0001A60704739B1134A121D12680243114B59
:1005E0001B1D1A6006E00F4A121D126882430D4B54
:1005F0001B1D1A607047042808D14FF0E0210969DB
:1006000041F004014FF0E022116107E04FF0E021DA
:10061000096921F004014FF0E022116170470000E8
:100620000000FA050CED00E000E400E080E100E0ED
:1006300080FFFF1F016821F00101016000210160BE
:1006400041608160C160016121214161DD498842D1
:1006500004D13D21DB4A103A91608CE0D949183130
:10066000884205D14FF47461D64A103A916082E015
:10067000D4493031884205D14FF47411D14A103A2F
:10068000916078E0CF494831884205D14FF07461DC
:10069000CC4A103A91606EE0CA496031884204D178
:1006A000C949C84A103AD16065E0C64978318842E4
:1006B00004D1C649C34A103AD1605CE0C1499031C7
:1006C000884204D1C249BF4A103AD16053E0BD49C3
:1006D000A831884205D14FF03D51BA4A103AD16055
:1006E00049E0BC49884204D13D21BA4A083A116028
:1006F00041E0B8491831884205D14FF47461B54AD8
:10070000083A116037E0B3493031884205D14FF4DF
:100710007411B04A083A11602DE0AE494831884260
:1007200005D14FF07461AB4A083A116023E0A94942
:100730006031884204D1A449A64A121F11601AE010
:10074000A4497831884204D1A049A24A121F1160FD
:1007500011E0A0499031884204D19D499D4A121F61
:10076000116008E09B49A831884204D14FF03D5107
:10077000984A121F1160704710B500220268964B0C
:100780001A40CC680B6823434C6923438C6923438C
:10079000CC6923430C6A23434C6A23438C6A23436A
:1007A0004C6B23438C6B23431A430260426922F053
:1007B0000702D1E90B3423431A4342610B694360BA
:1007C0004B6883608B68C36010BD0021016041608D
:1007D0008160C160016141618161C1610162416209
:1007E0008162C162016341638163704721B1026824
:1007F00042F00102026003E0026822F0010202609E
:10080000704721B1026842F40042026003E00268CE
:1008100022F400420260704721B1026842F02002D7
:10082000026003E0026822F020020260704741602B
:1008300070470146486880B2704722B1036843F4AC
:100840000023036003E0036823F4002303600161D5
:10085000704721B1026842F48022026003E002681E
:1008600022F48022026070470AB1016100E0C16099
:100870007047014600200A6812F4002F01D00120C1
:1008800000E000207047014600200A6812F0010FC6
:1008900001D0012000E000207047014600204A6995
:1008A00002F03800704710B503460A46002084461F
:1008B000484CA34202D24349103901E0454910395E
:1008C00012F0005F02D0D1F804C001E0D1F800C0FE
:1008D000424C0CEA040C1CEA020F01D0012000E09B
:1008E000002010BD02463B4B9A4202D235481038D8
:1008F00001E03848103811F0005F03D0374B0B404F
:10090000C36002E0354B0B408360704710B511F0B7
:10091000800F09D022B1436943F08003436103E0B3
:10092000436923F08003436180290BD02AB1036817
:1009300001F01E042343036004E0036801F01E0479
:10094000A343036010BD30B5024600200024844656
:10095000204DAA4202D21B4B103B01E01D4B103B25
:100960001F4D294206D01E2505EAD124156805EA47
:10097000040C02E0556905F0800C11F0005F01D015
:100980005C6800E01C68154D2C400C4204D0BCF1A2
:10099000000F01D0012000E0002030BD02460D4BC9
:1009A0009A4202D20748103801E00A48103811F084
:1009B000005F03D0094B0B40C36002E0074B0B40C4
:1009C00083607047106002403D000020400F00200F
:1009D00000003D20106402403F801CF07D0F7D0F21
:1009E0003C0F3C0F002044490860091D0860091DA8
:1009F0000860091D086041483F491431086070478C
:100A000000213D498279002A3AD00A4612680368DB
:100A10009A430B461A600A1D126803689A430B1D1D
:100A20001A60027911440A6803681A430A60324A5C
:100A30000832126803689A432F4B08331A601A1D54
:100A4000126803689A432C4B0C331A604279102ABF
:100A50000ED11A1F126803681A43274B08331A6015
:100A60001A1D126803681A43234B0C331A600DE0F9
:100A70002149427911440A6803681A430A6005E073
:100A8000027911440A6803689A430A60704700219A
:100A9000016001710C21417100218171704716497B
:100AA000103109680143144A103211607047014641
:100AB0000020114A143212680A4201D0012000E0DD
:100AC000002070470C49143108607047014600202F
:100AD0000022094B1B6803EA0102074B14331B6811
:100AE0000B4202D00AB1012000E000207047024909
:100AF0001431086070470000003C0140FFFF7F0098
:100B000010B504468848844208D10121084600F007
:100B1000F1FA0021012000F0EDFA5EE08348844202
:100B200008D10121022000F0E5FA0021022000F0A6
:100B3000E1FA52E07E48844208D10121042000F00D
:100B4000D9FA0021042000F0D5FA46E07948844221
:100B500008D10121082000F0CDFA0021082000F082
:100B6000C9FA3AE07448844208D10121102000F00B
:100B7000C1FA0021102000F0BDFA2EE06F48844237
:100B800008D10121202000F0B5FA0021202000F03A
:100B9000B1FA22E06A48844208D10121402000F0E5
:100BA000A9FA0021402000F0A5FA16E06548844229
:100BB00008D10121802000F09DFA0021802000F062
:100BC00099FA0AE06048844207D10121801500F0BB
:100BD00091FA0021A01500F08DFA10BD70B50A46FB
:100BE000002100238C4600BF3DE0012404FA01F3FC
:100BF000146804EA030C9C4534D104684E000325B4
:100C0000B540AC43046014794D00AC4005682C43FA
:100C100004601479012C02D01479022C16D1846856
:100C20004E000325B540AC43846054794D00AC4080
:100C300085682C438460446801258D40AC43446042
:100C4000446895798D40ADB22C434460C4684E0031
:100C50000325B540AC43C460D4794D00AC40C568B1
:100C60002C43C460491C1029BFD370BD4FF6FF71DF
:100C700001600021017141718171C17170474FF4B0
:100C800080320A43C261C161C261C269C2697047F0
:100C90000246002013690B4201D0012000E0002031
:100CA00070470146086980B27047024600205369C8
:100CB0000B4201D0012000E0002070470146486946
:100CC00080B2704701837047418370470AB1018346
:100CD00000E0418370474161704742694A40426188
:100CE000704770B500239C464C07E40E02FA04F3EB
:100CF000CD1000F1200454F825404D07EE0E0F25CD
:100D0000B540AC43CE1000F1200545F82640CD108B
:100D100000F1200454F8254044EA030CCD1000F102
:100D2000200444F825C070BD0000024000040240C9
:100D300000080240000C0240001002400014024073
:100D400000180240001C024000200240FA480068DF
:100D500040F00100F84908600020F74908310860B8
:100D6000F5480068F5490840F3490860F448091D52
:100D70000860081F006820F48020091F0860002018
:100D8000ED490C31086070470021EB4A921C11704C
:100D900011460870704710B501460022002300205C
:100DA0004A11012A02D1E44C236808E0022A03D147
:100DB000E14C7034236802E0DF4C7434236801F0A6
:100DC0001F02012494401C4201D0012000E00020B9
:100DD00010BD70B500240025002600BF3120FFF7AC
:100DE000DAFF0646641CB4F5A06F01D0002EF5D0E2
:100DF0003120FFF7D0FF08B1012500E0002528468B
:100E000070BD01460020CC4A106820F0F80040EA8E
:100E1000C10010607047CB49086070470021C64A86
:100E2000703211701170012802D004280AD104E038
:100E30000121C14A7032117005E00521BE4A7032AD
:100E4000117000E000BF00BF7047BF4908607047E5
:100E500030B5DDF80CC041EA82140125C5EB53051D
:100E600044EA0544044344EA0C64B34D2D1D2C6050
:100E700030BDB44908667047820142EA0172AE4B48
:100E800084331A607047AF4988667047AD49C864BB
:100E9000704702460020A84B0833186820F0EC6029
:100EA00042EA01031843A44B083318607047024616
:100EB0000020A14B0833186820F0784042EA010373
:100EC00018439D4B083318607047014600209A4A2A
:100ED0000832106820F003000843106070479648FD
:100EE0000830006800F00C00704701460020924A6C
:100EF0000832106820F0F000084310607047014687
:100F000000208D4A0832106820F4E0500843106039
:100F1000704701460020884A0832106820F460407B
:100F200040EAC10010607047F0B5002100220024A3
:100F300002258C460223804E0836366806F00C01E6
:100F400021B1042905D0082933D105E07F4E066080
:100F500032E07F4E06602FE0774E361D3668C6F3CE
:100F6000805C754E361D366806F03F03BCF1000FFD
:100F70000AD0774EB6FBF3F66F4F3F1D3F68C7F3BD
:100F8000881706FB07F409E0704EB6FBF3F66A4FCC
:100F90003F1D3F68C7F3881706FB07F4664E361DF2
:100FA0003668C6F30146761C7500B4FBF5F606609C
:100FB00002E0664E066000BF00BF5F4E083636682E
:100FC00006F0F0010909634E725C0668D64046607F
:100FD000594E0836366806F4E051890A5D4E725C57
:100FE0004668D6408660544E0836366806F460413E
:100FF000490B584E725C4668D640C660F0BD002171
:1010000000F44072B2F5407F0AD14B4A08321168B1
:1010100021F4F811504A02401143474A0832116046
:10102000454A70321268C0F30B031A43424B7033C7
:101030001A60704744494439086070474249403952
:101040000860704745490860704739B13A4A303204
:1010500012680243384B30331A6006E0364A3032A9
:1010600012688243344B30331A60704739B1324AC8
:10107000343212680243304B34331A6006E02E4A91
:101080003432126882432C4B34331A60704739B1C2
:10109000294A383212680243274B38331A6006E077
:1010A000254A383212688243234B38331A6070471E
:1010B00039B1214A4032126802431F4B40331A6053
:1010C00006E01D4A4032126882431B4B40331A60CF
:1010D000704739B1184A443212680243164B443300
:1010E0001A6006E0144A443212688243124B4433B9
:1010F0001A60704739B1104A1032126802430E4B21
:1011000010331A6006E00C4A1032126882430A4B10
:1011100010331A60704739B1074A1432126802431B
:10112000054B14331A6006E0034A143212688243F6
:10113000014B14331A60704700380240FFFFF6FE7F
:101140001030002400004742800E47420024F40083
:1011500000127A0014000020FFFCFF0F5C014742E0
:1011600029B1574A12680243554B1A6004E0544AA9
:1011700012688243524B1A60704739B1504A0832A4
:10118000126802434E4B08331A6006E04C4A08329C
:10119000126882434A4B08331A60704739B1484A93
:1011A0000C3212680243464B0C331A6006E0444A84
:1011B0000C3212688243424B0C331A60704739B1CB
:1011C0003F4A3832126802433D4B38331A6006E01A
:1011D0003B4A383212688243394B38331A607047C1
:1011E00039B1374A3C3212680243354B3C331A60FE
:1011F00006E0334A3C3212688243314B3C331A607A
:10120000704739B12E4A4032126802432C4B4033AA
:101210001A6006E02A4A403212688243284B403363
:101220001A60704739B1264A483212680243244B8B
:1012300048331A6006E0224A483212688243204B43
:1012400048331A60704739B11D4A4C321268024364
:101250001B4B4C331A6006E0194A4C321268824329
:10126000174B4C331A60704739B1154A0B3A127854
:101270000243134B0B3B1A7008E0114A0B3A1278E9
:10128000C343DBB21A400E4B0B3B1A7070470C483D
:101290005C30006840F0807009495C31086070473C
:1012A00001460020064A0C3A12680A4201D0012089
:1012B00000E00020704702490A39087070470000BA
:1012C0001838024010B50446F948844208D101217B
:1012D0008014FFF763FF0021A014FFF75FFF16E003
:1012E000F448844208D101210014FFF746FF002191
:1012F0002014FFF742FF0AE0EF48844207D10121A2
:10130000C013FFF73AFF0021E013FFF736FF10BDCF
:1013100010B50022028802F441520B884C88234306
:101320008C882343CC8823430C8923434C89234353
:101330008C892343CC8923431A430280838B4FF249
:10134000FF74234083830B8A038210BD2DE9F04F85
:1013500000250223002401270022002694469046FF
:101360009146B0F81CA04FF2400B0AEA0B0AA0F815
:101370001CA04FF0020AA0F820A0858BD1F808A08D
:10138000BAF1020F01D100BF67E0B1F804A0BAF1D1
:10139000000F01D1012700E00227DFF820A3DAF8CF
:1013A00000A01AF4000F09D0DFF810A3DAF800A0AB
:1013B0002AF4000ADFF804B3CBF800A0DFF8FCA29F
:1013C0000AF17C0ADAF800A0CAF38818DFF8ECA268
:1013D0000AF17C0ADAF800A0CAF30279DFF8DCA28D
:1013E000AAF1040ADAF800A00AF03F0CDFF8D0A254
:1013F000BAFBFCFA0AFB08FABAFBF9F6B1F806A048
:10140000BAF5007F0ED14FEA162A0AEB8A0A4FEA94
:101410004A0AD1F808B0BAFBFBFA0AF1050A1FFA2A
:101420008AF20FE04FEA471AB6FBFAFA0AEB8A0A89
:101430004FEA4A0AD1F808B0BAFBFBFA0AF1050AEA
:101440001FFA8AF24FF00A0AB2FBFAF202F0010424
:10145000A2EB040ACAF34F032402022B01DBFF2B89
:1014600001DD02230024B1F806A04AEA040A4AEA90
:10147000030AA0F820A0B1F804A0B1F80CB04AEA21
:101480000B0AB1F802B04AEA0B0AB1F800B04AEA16
:101490000B0A4AF4006A4AEA05058583BDE8F08F25
:1014A0000021018041808180C18001814181818151
:1014B000C181072101827047002101804180818024
:1014C000C1800221816000218181704721B10288A1
:1014D00042F04002028004E002884FF6BF731A40D7
:1014E0000280704721B1828B42F48062828304E0E3
:1014F000828B4FF6FF331A408283704702884FF287
:10150000FF731A40028002880A4302807047B1F5D7
:10151000804F04D1028842F48042028004E00288B5
:101520004BF6FF731A4002807047A1F57E42FF3AE6
:1015300004D0028842F48072028004E002884FF6F0
:10154000FF631A400280704721B1828842F0040292
:10155000828004E082884FF6FB731A4082807047D5
:1015600021B1828842F01002828004E082884FF626
:10157000EF731A408280704730B500220023848BBD
:101580004FF240052C40848302240484828B0C8813
:10159000B4F5007F01D00C8814B94FF4807308E0D3
:1015A0000C88B4F5407F03D00C88B4F5807F00D15F
:1015B00000238C888D892C434D882C431C4344F494
:1015C00000642243828330BD01468889704781814F
:1015D000704721B1028842F40052028004E0028880
:1015E0004DF6FF731A4002807047018841F4805124
:1015F0000180704702460020012901D0108B00E0D5
:10160000908A70470146088A704710B51AB18388DE
:101610000B43838004E08388CC43A4B223408380BF
:1016200010BD30B54FF0000C00234FEA211C0124FF
:1016300004FA0CF4A3B21AB184881C43848004E039
:101640008488DD43ADB22C40848030BD024600204A
:1016500013890B4201D0012000E000207047CA43EB
:101660000281704770B502460020002400238446A2
:1016700001F00F060125B540ACB20B1101259D40CC
:10168000ABB2958805EA030C1589254204D0BCF15C
:10169000000F01D0012000E0002070BD10B5002235
:1016A00001F00F040123A3409AB2D343038110BD7C
:1016B0000030014000380040003C00400838024043
:1016C00000127A0010B50446FE48844208D1012178
:1016D0000846FFF763FD00210120FFF75FFD9DE055
:1016E000B4F1804F08D101210846FFF746FD0021E3
:1016F0000120FFF742FD91E0F348844208D1012127
:101700000220FFF73AFD00210220FFF736FD85E0B9
:10171000EE48844208D101210420FFF72EFD00216C
:101720000420FFF72AFD79E0E948844208D101212D
:101730000820FFF722FD00210820FFF71EFD6DE0C5
:10174000E448844208D101211020FFF716FD002152
:101750001020FFF712FD61E0DF48844208D101212B
:101760002020FFF70AFD00212020FFF706FD55E0AD
:10177000DA48844208D101210220FFF70FFD002141
:101780000220FFF70BFD49E0D548844209D1012131
:101790000804FFF703FD00214FF48030FFF7FEFC43
:1017A0003CE0D048844209D101214804FFF7F6FC0F
:1017B00000214FF40030FFF7F1FC2FE0CA488442CB
:1017C00009D101218804FFF7E9FC00214FF48020B2
:1017D000FFF7E4FC22E0C548844208D10121402003
:1017E000FFF7CBFC00214020FFF7C7FC16E0C04804
:1017F000844208D101218020FFF7BFFC0021802016
:10180000FFF7BBFC0AE0BB48844207D101218015E9
:10181000FFF7B3FC0021A015FFF7AFFC10BD0022BD
:101820000288A84B98420ED0AC4B98420BD0B0F136
:10183000804F08D0A44B984205D0A44B984202D0C8
:10184000A34B984204D14FF68F731A404B881A432A
:10185000A04B984207D0A04B984204D04FF6FF43CC
:101860001A400B891A4302804B68C3620B880385B8
:10187000944B984202D0994B984201D18B7A0386BF
:101880000123838270474FF0FF31416000210180C6
:1018900001814180817270470185828270470A46CA
:1018A000002101884FF68F73194011430180704762
:1018B00041627047C16270470146486A70470146FD
:1018C000088D704721B1028842F00202028004E0D4
:1018D00002884FF6FD731A400280704721B10288DA
:1018E00042F00402028004E002884FF6FB731A40C3
:1018F0000280704721B1028842F08002028004E039
:1019000002884FF67F731A400280704702884FF6B4
:10191000F7731A40028002880A43028070470288E7
:101920004FF6FF431A40028002880A430280704744
:1019300021B1028842F00102028004E002884FF6E1
:10194000FE731A400280704730B54FF0000C002241
:101950000023048C4FF6FE752C400484028C83888F
:10196000B0F818C04FF68F740CEA040CAC1E0CEAE9
:10197000040C0C8844EA0C0C6C1E22408C89224317
:101980004C8822434F4CA04202D0544CA04213D169
:101990004FF6F7742240CC8922434FF6FB74224065
:1019A0008C8822434FF6FF6423404FF6FF542340B8
:1019B0000C8A23434C8A23438380A0F818C08C6888
:1019C0004463028430BD30B54FF0000C0022002388
:1019D000048C4FF6EF752C400484028C8388B0F899
:1019E00018C048F6FF740CEA040C4FF6FF440CEAEA
:1019F000040C0C8824064CEA144C4FF6DF74224089
:101A00008C89240542EA14424C88240542EA144297
:101A10002C4CA04202D0314CA0421BD14FF67F7417
:101A20002240CC89240542EA14424FF6BF7422407A
:101A30008C88240542EA14424FF6FF3423404FF2CB
:101A4000FF7423400C8AA40443EA14434C8AA40480
:101A500043EA14438380A0F818C08C68846302842E
:101A600030BD30B54FF0000C00220023048C4FF63F
:101A7000FF652C400484028C8388B0F81CC04FF6AC
:101A80008F740CEA040C4FF6FC740CEA040C0C88FE
:101A900044EA0C0C4FF6FF5422408C89240642EA9B
:101AA00014424C88240642EA1442064CA04202D05A
:101AB0000A4CA04237D14FF2FF742240CC89240651
:101AC0001AE000000000014000040040000800404F
:101AD000000C0040001000400014004000040140D1
:101AE000004001400044014000480140001800400F
:101AF000001C00400020004042EA14424FF6FF3430
:101B000022408C88240642EA14424EF6FF74234099
:101B10004DF6FF7423400C8A240543EA14434C8A93
:101B2000240543EA14438380A0F81CC08C68C46376
:101B3000028430BD30B5002200239446048C4EF65A
:101B4000FF752C400484038CB0F804C0828B48F6E7
:101B5000FF7422404FF6FF4422400C88240642EADC
:101B600014424DF6FF7423408C89240743EA144342
:101B70004C88240743EA1443FE4CA04202D0FE4C9A
:101B8000A04207D14BF6FF740CEA040C0C8AA405A2
:101B90004CEA144CA0F804C082838C68046403846B
:101BA00030BD002101804180818081608181C181BF
:101BB00001824182704730B50346002084461846B2
:101BC000183001248C401FFA84FC1C8C6FEA0C0531
:101BD000ADB22C401C8409B108290AD100EB610088
:101BE00004684FF68F752C40046004681443046049
:101BF0000DE00C1FA4B200EB6400046848F6FF750A
:101C00002C4004600468150644EA1544046030BDA5
:101C10004163704781637047C163704701647047D7
:101C20000A460021018B4FF68F731940114301833F
:101C300070470A460021018B48F6FF7319401306CE
:101C400041EA1341018370470A460021818B4FF618
:101C50008F7319401143818370470A460021818B9D
:101C600048F6FF731940130641EA13418183704718
:101C70000A460021018B4FF6F77319401143018387
:101C800070470A460021018B4FF2FF73194013067B
:101C900041EA1341018370470A460021818B4FF6C8
:101CA000F77319401143818370470A460021818BE5
:101CB0004FF2FF731940130641EA134181837047C5
:101CC0000A460021018B4FF6FB7319401143018333
:101CD00070470A460021018B4FF6FF331940130667
:101CE00041EA1341018370470A460021818B4FF678
:101CF000FB7319401143818370470A460021818B91
:101D00004FF6FF331940130641EA134181837047B0
:101D10000A460021018B4FF67F731940114301835E
:101D200070470A460021018BC1F30E01130641EAF8
:101D30001341018370470A460021818B4FF67F7360
:101D400019401143818370470A460021818BC1F3FA
:101D50000E01130641EA1341818370470A460021B0
:101D6000018C4FF6FD7319401143018470470A46F8
:101D70000021018C4FF6F77319401143018470471D
:101D80000A460021018C4FF6DF731940130541EA22
:101D90001341018470470A460021018C4FF67F737E
:101DA0001940130541EA1341018470470A46002196
:101DB000018C4FF6FF531940130641EA1341018489
:101DC00070470A460021018C4FF2FF731940130639
:101DD00041EA1341018470470A460021018C4DF607
:101DE000FF731940130741EA13410184704730B56E
:101DF000002301248C40A3B2048CDD43ADB22C40FF
:101E00000484048C02FA01F5ADB22C43048430BD85
:101E100030B5002304248C40A3B2048CDD43ADB262
:101E20002C400484048C02FA01F5ADB22C430484E6
:101E300030BD828B4FF2FF331A408283828B0B06B8
:101E400042EA134282837047F0B50C4615460021E2
:101E500000228C46068C4EF6FF773E400684818B2E
:101E6000028C26074FEA164C40F6FF4631402E06FC
:101E700041EA16411E0741EA164145F6FF76324017
:101E80004CF48056324381830284F0BD828B4FF63E
:101E9000F3731A408283828B0A4382837047F0B5C2
:101EA0000C461546002100228C46068C4FF6FF6733
:101EB0003E400684818B028C26064FEA164C4FF674
:101EC0000C7631401E0545EA164631434FF2FF5667
:101ED00032404CF48076324381830284F0BD028B21
:101EE0004FF2FF331A400283028B0B0642EA134281
:101EF00002837047F0B50C461546002100228C463F
:101F0000068C4FF6EF773E400684018B028C260547
:101F10004FEA164C40F6FF4631401E0741EA164193
:101F20002E0641EA16414FF65F7632404CF010061D
:101F3000324301830284F0BD028B4FF6F3731A40E3
:101F40000283028B0A430283704770B58C461446A5
:101F500000210022058C4FF6FE7635400584018B6A
:101F6000028C4FF60C7529401D0544EA154529439E
:101F700004E0000000000140000401404FF6F57548
:101F80002A404CF001052A430183028470BD70B5DC
:101F900005460C46208850B92389A28861882846C6
:101FA000FFF7D3FFE1882846FFF7C6FF25E020882A
:101FB00004280AD12389A28861882846FFF79AFF5E
:101FC000E1882846FFF78BFF17E0208808280AD110
:101FD0002389A28861882846FFF761FFE1882846A7
:101FE000FFF754FF09E02389A28861882846FFF79C
:101FF0002BFFE1882846FFF71CFF70BD0021018000
:102000004180012181800021C180018170472DE93B
:10201000F04105460C4600260127608808B90226D3
:1020200000E00026A088012801D1022700E0012756
:102030002088A0B92389A28861882846FFF785FFF8
:10204000E1882846FFF778FF23893A46314628463B
:10205000FFF750FFE1882846FFF741FF13E023898F
:10206000A28861882846FFF745FFE1882846FFF7E8
:1020700036FF23893A4631462846FFF766FFE18856
:102080002846FFF759FFBDE8F0810146486B7047CD
:102090000146886B70470146C86B70470146086C63
:1020A00070470A884B881A438B881A43CB881A4397
:1020B0000B891A434B891A438B891A43A0F8442091
:1020C00070470021018041808180C1800181418170
:1020D0008181704731B1B0F8442042F40042A0F849
:1020E000442005E0B0F84420C2F30E02A0F84420DA
:1020F000704721B1828842F00402828004E0828825
:102100004FF6FB731A408280704721B1828842F0FB
:102110000102828004E082884FF6FE731A408280BA
:10212000704710B51AB183890B43838104E083891A
:10213000CC43A4B22340838110BD81827047024604
:102140000020138A0B4201D0012000E000207047DC
:10215000CA430282704710B502460020002384461D
:10216000148A04EA0103948904EA010C23B1BCF146
:10217000000F01D0012000E0002010BDCA43028200
:10218000704741EA0203A0F84830704710B51AB111
:1021900083890B43838104E08389CC43A4B2234029
:1021A000838110BD21B1828842F00802828004E060
:1021B00082884FF6F7731A408280704701894FF684
:1021C000F8721140018170470A46002101894FF6DB
:1021D0008F73194011430181704730B504460D4695
:1021E00029462046FFF7F0FF208940F007002081B4
:1021F00030BD2DE9F04104460D4616461F46602DC0
:1022000006D13B46012231462046FFF773FE05E02A
:102210003B46012231462046FFF797FE29462046DD
:10222000FFF7D2FF208940F007002081BDE8F08150
:1022300010B58C4600210189C9B21C0642EA14443B
:1022400044EA0C042143018110BD2DE9F04105460B
:102250000E4617469846002443463A4631462846DD
:10226000FFF7E6FF2C894FF6F870044044F00704AE
:102270004FF68F70044044F070042C81BDE8F0816B
:10228000F0B504460D4616461F463B4632462946E3
:102290002046FFF7CDFF208940F480402081F0BD2B
:1022A00082884FF68F731A40828082880A43828028
:1022B000704702894FF6F8731A40028102890A4377
:1022C0000281704702894FF67F731A4002810289AA
:1022D0000A430281704770B58C4614461D460021A2
:1022E000002200230189028B038C4FF6F8763140DF
:1022F00041EA0C014FF6FC46324040F201163243EF
:102300004FF6DD7633402E0544EA1646334301810D
:102310000283038470BD21B1828842F080028280F2
:1023200004E082884FF67F731A4082807047A0F8DD
:102330005010704710B50446F848844208D1012176
:102340001020FEF72BFF00211020FEF727FF3EE0B4
:10235000F348844209D101214804FEF70EFF002111
:102360004FF40030FEF709FF31E0EE48844209D116
:1023700001218804FEF701FF00214FF48020FEF7C1
:10238000FCFE24E0E848844209D10121C804FEF79C
:10239000F4FE00214FF40020FEF7EFFE17E0E348C3
:1023A000844209D101210805FEF7E7FE00214FF420
:1023B0008010FEF7E2FE0AE0DD48844207D10121E9
:1023C0002020FEF7EBFE00212020FEF7E7FE10BDE7
:1023D0002DE9FF4705460E460024A14600BFA04652
:1023E000B08900B100BF2C8A24F44054F088044323
:1023F0002C82AC8941F20C608443B0883189084357
:10240000718908430443AC81AC8A24F44074B089D8
:102410000443AC826846FEF787FDC048854202D07F
:10242000C348854202D1DDF80C9001E0DDF8089048
:10243000A88910F4004F08D009EBC90000EB09107F
:1024400031684900B0FBF1F707E009EBC90000EB88
:10245000091031688900B0FBF1F76420B7FBF0F098
:1024600004012009642101FB1078A88910F4004FB1
:1024700008D0322000EBC800B0FBF1F000F00700FC
:10248000044308E0322000EB08106421B0FBF1F0B7
:1024900000F00F0004432C81BDE8FF874FF4165174
:1024A000016000218180C18001810C2141810021D6
:1024B0008181704710B502460020108A20F47060B8
:1024C0000B884C8823438C882343CC8823431843B0
:1024D000108210BD0021018041808180C180704741
:1024E00021B1828942F40052828104E082894DF652
:1024F000FF731A4082817047028B02F47F4202838D
:10250000028B0A430283704721B1828942F4004260
:10251000828103E08289C2F30E028281704721B179
:10252000828A42F40062828204E0828A4FF2FF7360
:102530001A4082827047C1F30802828070470146C8
:102540008888C0F308007047028A4FF6F0731A407B
:102550000282028A0A430282704721B1828942F0D4
:102560000202828104E082894FF6FD731A40828163
:10257000704782894FF2FF731A40828182890A4331
:1025800082817047028A4FF6DF731A400282028A04
:102590000A430282704721B1028A42F480420282D9
:1025A00004E0028A4BF6FF731A4002827047818969
:1025B00041F001018181704721B1828A42F0080215
:1025C000828204E0828A4FF6F7731A408282704753
:1025D000028BD2B20283028B42EA0122028370474D
:1025E00021B1828A42F02002828204E0828A4FF680
:1025F000DF731A408282704721B1828A42F0100252
:10260000828204E0828A4FF6EF731A40828270471A
:10261000828A4FF6FB731A408282828A0A43828240
:10262000704721B1828A42F00202828204E0828AEB
:102630004FF6FD731A408282704710B51AB1838A33
:102640000B43838204E0838ACC43A4B22340838279
:1026500010BD70B503460024A44600250020A1F556
:1026600010666A3E00D100BF1846C1F3421401F063
:102670001F0C012606FA0CF5012C01D10C3004E0E8
:10268000022C01D1103000E014301AB106682E433C
:10269000066002E00668AE43066070BD0246002098
:1026A000B1F5007F00D100BF13880B4201D001209B
:1026B00000E00020704701F40072B2F5007F00D105
:1026C00000BFCA430280704730B502460024002391
:1026D0009C460020A1F510656A3D00D100BFC1F302
:1026E000421C01F01F03012505FA03F3BCF1010FA1
:1026F00002D195892B4007E0BCF1020F02D1158A67
:102700002B4001E0958A2B400C12012505FA04F4B8
:1027100015882C4073B16CB101200CE00010014011
:102720000044004000480040004C00400050004081
:1027300000140140002030BD10B500220023A1F597
:1027400010646A3C00D100BF0A1201249440A3B275
:10275000DC43048010BD0000FDF73FFE4FF4A06095
:10276000FDF7F6FE00F038FEC82000F086FA4FF4C0
:102770007A3001F092FB01F0D6FB4FF47A3001F091
:10278000EEFB01F031FC4FF47A3001F0BCFC01F0BB
:1027900055FF4FF4FA7000F0CCFD012000F0ACFAC8
:1027A000022000F0DDFA4FF4FA7000F081FB0A20FD
:1027B00000F084FC4FF47A7000F0B6FC002026494B
:1027C0000870642000F0FDFF40F2FF3001F03AF89D
:1027D000012000F0DEFF4FF4E13001F09BFA01F040
:1027E000DFFA1E4801F0F7FA01F03AFB33E01A482D
:1027F0000078022802D1012000F0CBFF16480078B3
:10280000032802D1642000F0DCFF1348007804287C
:1028100007D14FF4AF7000F0D4FF40F2FF3001F069
:1028200011F80D48007806280BDB40F2FF3000F06D
:10283000C8FF40F2FF3001F005F800210848FFF71B
:1028400077F80848016808A002F056FA05480168C0
:1028500009A002F051FACAE72B00002040420F0005
:102860000014004024000020766F6C7461676520BE
:102870003D2025640D0A0000766F6C746167655F0A
:1028800075696E743332203D2025640D0A00000006
:10289000704700BFFEE700BFFEE700BFFEE700BFD6
:1028A000FEE770477047704710B50120FEF70EF93C
:1028B00028B10120FEF71BF90120FEF703F910BD36
:1028C00010B50220FEF702F928B10220FEF70FF939
:1028D0000220FEF7F7F810BD10B501218807FFF7B9
:1028E0003AFC18B101218807FFF748FC10BD10B56C
:1028F0000121AB48FFF72FFC28B10121A848FFF7C1
:102900003DFC00F0C6FF10BD10B50121A548FFF742
:1029100022FC002854D00121A248FFF72FFCA24935
:10292000087800EBD0714910B0EB410103D10120D0
:1029300000F021FE35E09C480078012803D10220F8
:1029400000F019FE2DE098480078032802D100F02D
:1029500012FE26E094480078052803D1042000F0F8
:102960000AFE1EE090480078072803D1052000F0F9
:1029700002FE16E08C480078092803D1062000F0FA
:10298000FAFD0EE0884800780B2803D1072000F0FC
:10299000F2FD06E0844800780D2802D1082000F0FE
:1029A000EAFD814800780D2805DA7F480078401C50
:1029B0007D49087002E000207B49087000F03DFE70
:1029C00010BD10B501217948FFF7C5FBB0B1012159
:1029D0007648FFF7D3FB002407E0754830F8141061
:1029E00074A002F089F9601CC4B2142CF5DB72A04B
:1029F00002F082F900F080FD00F0B8FD10BD10B5C6
:102A000001216E48FFF7A7FB38B101216B48FFF7A2
:102A1000B5FB00F028FE00F07FFE10BD10B50121CF
:102A20006748FFF798FB40B101216548FFF7A6FB17
:102A300064480078401C6349087010BD10B501213E
:102A40006148FFF788FB60B101215F48FFF796FB03
:102A500000215D48FEF76CFF002201215A48FFF774
:102A600060FB10BD10B501215848FFF774FBD0B1D1
:102A700001215648FFF782FB55480078012804D110
:102A80004FF47A7000F0EAFE02E0002000F0E6FE6B
:102A90004F480078401C4E490870084600780128CD
:102AA00001DD0020087010BD10B52DED088B01214F
:102AB0004848FFF750FB00286ED001214548FFF73A
:102AC0005DFB45480088401C434908800846008853
:102AD00001280BD101214148FEF7F6F802213F48B9
:102AE000FEF7F2F8002000F060FE55E03A4800885A
:102AF00002284ED101213948FEF7E4F80221374877
:102B0000FEF7E0F8012000F050FE00203249088076
:102B10003348006803F06AFE41EC100BB0EE40AAA7
:102B2000F0EE60AA9FED2F0B53EC102B51EC1A0B1B
:102B300003F004FD41EC100BB0EE409AF0EE609A09
:102B40009FED2A0B53EC102B51EC190B03F062FE96
:102B500041EC100BB0EE408AF0EE608A9FED230B43
:102B600053EC102B51EC180B03F052FF41EC100BFF
:102B7000B0EE40BAF0EE60BA51EC1B0B03F004FC6F
:102B80001C49086001201C49087000201449086095
:102B900002E0002010490880BDEC088B10BD000049
:102BA000000400400008004038000020000C0040F5
:102BB00004030020256420000D0A000000100040DE
:102BC000001400402B000020000401400048014098
:102BD00039000020001800403600002000040240A8
:102BE000400000200000000079D862410000000091
:102BF0000000594048000020440000200246002107
:102C000000E0491C9142FCD388B270470120FE4984
:102C10000870704770B503460020FB490870A82073
:102C200003FB00F1B1F1807F00D31DE021F07F4074
:102C3000401E4FF0E022506150170F22002807DAA3
:102C40001407260EF14C00F00F052D1F665503E00A
:102C50001407250EEE4C255400BF00204FF0E02253
:102C600090610720106100BF00BFE748007800288E
:102C7000FBD00020E449087070BD30B50446002543
:102C800000BF04E04FF47A70FFF7C4FF6D1CA5424B
:102C9000F8D330BD1FB504461C208DF80C00012070
:102CA0008DF80D008DF80E008DF80F0003A8FDF7CC
:102CB00054FC01210846FEF7FBF94FF08040FEF777
:102CC00001FD01940020ADF80000ADF80800ADF85A
:102CD000020069464FF08040FEF7A1FD0121880700
:102CE000FFF736FA012211469007FFF71AFA012181
:102CF0008807FEF71DFE1FBD1FB504461D208DF879
:102D00000C0002208DF80D008DF80E0001208DF8CA
:102D10000F0003A8FDF721FC01210220FEF7C8F9EE
:102D2000BC48FEF7CFFC600001904AF20F40ADF8BE
:102D300000000020ADF80800ADF802006946B54873
:102D4000FEF76DFD0121B348FFF702FA012211469B
:102D5000B048FFF7E6F90121AE48FEF7E9FD1FBDD7
:102D60001FB504461E208DF80C0001208DF80D00C3
:102D70008DF80E008DF80F0003A8FDF7EEFB012182
:102D80000420FEF795F9A448FEF79CFC04EB8400B0
:102D90004000019042F2CF00ADF800000020ADF8F5
:102DA0000800ADF8020069469B48FEF738FD012196
:102DB0009948FFF7CDF9012211469748FFF7B1F97D
:102DC00001219548FEF7B4FD1FBD08B51E208DF802
:102DD000000003208DF8010000208DF80200012082
:102DE0008DF803006846FDF7B8FB012211468A48BA
:102DF000FFF797F901218848FEF79AFD08BD30B525
:102E00008BB004460D4601210420FEF751F982489B
:102E1000FEF758FC0794681E80B2ADF81800002039
:102E2000ADF82000ADF81A0006A97B48FEF7F7FCC4
:102E300001A8FEF7B6FE6020ADF804000120ADF851
:102E400006004FF4FA7003900020ADF8100001A9BD
:102E50007148FEF779FD08216F48FEF709FF01214F
:102E60006D48FEF747FD01216B48FFF771F901221C
:102E700011466948FFF755F901216748FEF758FDEB
:102E8000022206216548FDF72CFF40200990022010
:102E90008DF8280000208DF829008DF82A000120E7
:102EA0008DF82B0009A95D48FDF798FE0BB030BDE9
:102EB0001FB5044632208DF80C0003208DF80D005C
:102EC0008DF80E0001208DF80F0003A8FDF745FBDB
:102ED00001210820FEF7ECF85148FEF7F3FB6000F3
:102EE00001904AF20F40ADF800000020ADF8080054
:102EF000ADF8020069464A48FEF791FC01214848B6
:102F0000FFF726F9012211464548FFF70AF901218A
:102F10004348FEF70DFD0020424908704249087001
:102F2000424908701FBD08B532208DF8000003200B
:102F30008DF8010000208DF8020001208DF80300BB
:102F40006846FDF70AFB012211463548FFF7E9F80C
:102F500001213348FEF7ECFC08BD30B58BB00446C8
:102F60000D4601210820FEF7A3F82D48FEF7AAFB25
:102F70000794681E80B2ADF818000020ADF820005C
:102F8000ADF81A0006A92648FEF749FC01A8FEF78D
:102F900008FE6020ADF804000120ADF80600C8204E
:102FA00003900020ADF8100001A91D48FEF7CCFCED
:102FB00008211B48FEF75CFE01A91948FEF703FD36
:102FC00008211748FEF75DFE01A91548FEF749FDE7
:102FD00008211348FEF760FE01A91148FEF7AAFD7B
:102FE00008210F48FEF761FE01210D48FEF782FC23
:102FF00001210B48FFF7ACF8012211460848FFF702
:1030000090F80121064813E03A00002018ED00E096
:1030100000E400E00004004000080040000402401A
:10302000000C00403B0000203C0000203D00002040
:10303000FEF77EFC02220021D948FDF752FE022253
:103040000121D748FDF74DFE02221146D448FDF775
:1030500048FE02220321D248FDF743FE0F200990CB
:1030600002208DF8280000208DF829008DF82A0014
:1030700001208DF82B0009A9C948FDF7AFFD0BB061
:1030800030BDC8480078401CC64908700846007822
:103090003C2806D100200870C3480078401CC24973
:1030A0000870C14800783C2807D10020BE4908704C
:1030B000BE480078401CBD49087070471FB50446E3
:1030C00036208DF80C0002208DF80D008DF80E00D2
:1030D00001208DF80F0003A8FDF73FFA0121102011
:1030E000FDF7E6FFB248FEF7EDFA04EB840040007E
:1030F000019042F2CF00ADF800000020ADF80800CA
:10310000ADF802006946AA48FEF789FB0121A848EC
:10311000FFF71EF801221146A548FFF702F801212A
:10312000A348FEF705FC1FBD1FB5044637208DF8E8
:103130000C0002208DF80D008DF80E0001208DF896
:103140000F0003A8FDF709FA01212020FDF7B0FFC9
:103150009848FEF7B7FA600001904AF20F40ADF8C8
:1031600000000020ADF80800ADF802006946914863
:10317000FEF755FB01218F48FEF7EAFF01221146B9
:103180008C48FEF7CEFF01218A48FEF7D1FB1FBD18
:103190001FB504462C208DF80C0001208DF80D0081
:1031A0008DF80E008DF80F0003A8FDF7D6F9012168
:1031B0000220FDF78EFF8048FEF784FA0194A720D5
:1031C000ADF800000020ADF80800ADF80200694637
:1031D0007948FEF724FB01217748FEF7B9FF012269
:1031E00011467548FEF79DFF00217348FEF7A0FBCE
:1031F0001FBD1FB5044618208DF80C0002208DF865
:103200000D008DF80E0001208DF80F0003A8FDF7CA
:10321000A4F901210804FDF75CFF6848FEF752FAA3
:1032200004EB84004000019044F29F10ADF80000D0
:103230000020ADF80800ADF8020069465F48FEF7CF
:10324000EEFA01215D48FEF783FF012211465B483B
:10325000FEF767FF01215948FEF76AFB1FBD1FB546
:10326000044619208DF80C0001208DF80D008DF812
:103270000E008DF80F0003A8FDF76FF90121480437
:10328000FDF727FF4E48FEF71DFA04EB84004000CF
:10329000019044F29F10ADF800000020ADF8080046
:1032A000ADF8020069464648FEF7B9FA01214448E4
:1032B000FEF74EFF012211464148FEF732FF012181
:1032C0003F48FEF735FB1FBD1FB504461A208DF899
:1032D0000C0001208DF80D008DF80E008DF80F0008
:1032E00003A8FDF73AF901218804FDF7F2FE3548FD
:1032F000FEF7E8F904EB84004000019044F29F10CF
:10330000ADF800000020ADF80800ADF802006946F5
:103310002C48FEF784FA01212A48FEF719FF012202
:1033200011462848FEF7FDFE01212648FEF700FB66
:103330001FBD1FB504462B208DF80C0003208DF80F
:103340000D0001208DF80E008DF80F0003A8FDF789
:1033500004F901214020FDF7ABFE1B48FEF7B2F94E
:1033600004EB84004000019042F2CF00ADF8000071
:103370000020ADF80800ADF8020069461248FEF7DB
:103380004EFA01211048FEF7E3FE012211460E48D5
:10339000FEF7C7FE01210C48FEF7CAFA1FBD000068
:1033A000000002403B0000203C0000203D000020C7
:1033B00000100040001400400004014000400140A3
:1033C00000440140004801400018004010B50121B0
:1033D0007F20FDF73AFE10BD1CB501210220FDF74C
:1033E00034FE01208DF8040000208DF806008DF8D1
:1033F00005008DF80700032000906946F748FDF7A7
:10340000EDFB0121F548FDF75DFC0221F348FDF7D6
:1034100059FC1CBD10B5F248007838B10020F049C5
:1034200008700121ED48FDF74FFC06E00120EC4952
:1034300008700121E948FDF745FC10BD10B5E948C9
:10344000007838B10020E74908700221E348FDF711
:103450003BFC06E00120E34908700221DF48FDF74C
:1034600031FC10BD10B502460023002000BF28E04B
:10347000184621E002EB8004D4ED000A441C02EB64
:10348000840494ED001AF4EEC10AF1EE10FA11DD95
:1034900002EB800494ED000A441C02EB8404D4ED9A
:1034A000000A02EB8004C4ED000A441C02EB840411
:1034B00084ED000A441CE0B24C1E8442DADC5C1C41
:1034C000E3B28B42D4DB10BD70B504460D4600213B
:1034D0008C460020294603E0665CB4444E1CF1B2E1
:1034E0009142F9DD6FEA0C00060E1E70060C5E704C
:1034F000060A9E70D87070BD18B500241220BA4913
:10350000087034204870562088707820C870B748FA
:103510000068000E0871B5480068000C4871B34897
:103520000068000A8871B1480068C871082404E086
:103530000020AD490855601CC4B2182CF8DB6B465E
:1035400017220021A848FFF7BFFF9DF80000A649F9
:1035500008769DF8010048769DF8020088769DF86F
:103560000300C8761C20A249087018BD9E48007848
:10357000A04908807047F8B50446002500271220AE
:103580009D49087034204870562088707820C87093
:10359000200E0871200C4871200A8871CC71012C12
:1035A00007D1002008724872887294480078C87267
:1035B000934E022C00D1934E032C00D1924E042C3A
:1035C00000D1924E052C00D1914E062C00D1914E87
:1035D000072C00D1904E082C00D1904E00250C27CE
:1035E0000EE036F8150000128349C85536F815006C
:1035F000C1B2814A781C1154B81CC7B2681CC5B24C
:10360000142DEEDB6B46352200217B48FFF75CFF73
:103610009DF80000784981F836009DF8010081F896
:1036200037009DF8020081F838009DF8030081F80A
:1036300039003A207A490870F8BD6F480078794916
:103640000880704710B503468C4600200CF0FF013F
:1036500004E05C5C0444E0B24C1CE1B29142F8DD51
:10366000C443E0B210BD00B5EE206F490870487049
:10367000502088706D480078C8706C484078087198
:103680006A48807848716948C078887167480079CD
:10369000C871664840790872654800784872644885
:1036A0004078887262488078C8726148C078087330
:1036B0005F48007948735E48407988730E22032181
:1036C0005948FFF7BFFF5849C8735A480078087433
:1036D0005848407848745748807888745548C0786E
:1036E000C8745448007908755248407948750020DC
:1036F00088751920C875172210214B48FFF7A2FFC3
:1037000049490876412048764F2088760020C876BF
:103710001C204949087000BD43480078474988800B
:103720004148007846490880704730B503460C464A
:1037300000218C460020214603E05D5CAC444D1C1A
:10374000E9B29142F9DD6FEA0C0030BD1FB50246C7
:103750000020535C1B0600934B1CD35C1B0401939D
:103760008B1CD35C1B020293CB1CD35C0393DDE95F
:1037700000342343029C2343039C43EA040004B027
:1037800010BD020E0A70020C4A70020A8A70C870DC
:1037900070470146002000BF04E01D4A22F81010C7
:1037A000421CD0B21428F8DB70470146002000BF4D
:1037B00004E0164A22F81010421CD0B21428F8DB9C
:1037C00070470146002000BF04E00E4A22F81010A6
:1037D000421CD0B21428F8DB7047000000040240FD
:1037E0004C0000204D000020740200202400002026
:1037F00028000020044C0040900200202C000020F3
:1038000004030020400300207C030020B8030020B4
:10381000F4030020300400206C040020A8040020E1
:103820002900002004440040CA0200206600002055
:10383000600000206C0000202A00002000100140E1
:10384000041401400146002000BF04E0FE4A22F8B3
:103850001010421CD0B21428F8DB7047014600203B
:1038600000BF04E0F94A22F81010421CD0B214281C
:10387000F8DB704730B50146C1F340330BB9084659
:1038800006E08CB2641E43F6FF7525EA040250423E
:1038900030BD10B52DED068B90B01822ECA10AA812
:1038A00001F062FB00241FE04FF48051EE48FDF769
:1038B0000BFA4FF4FA70FFF7A1F90AA9085D00F0BE
:1038C0003DFF04A90855641C0AA9085D00F036FFF5
:1038D00004A908554FF48051E348FDF7F3F94FF47C
:1038E000FA70FFF78BF9641C152CDDDD9DF81200D2
:1038F000000200B29DF813100843DC4908809DF8CF
:103900001400000200B29DF815100843D749488002
:103910009DF81600000200B29DF817100843D34925
:1039200088809DF81800000200B29DF81910084325
:10393000CF4908809DF81A00000200B29DF81B10C4
:103940000843CB4948809DF81C00000200B29DF856
:103950001D100843C64988809DF81E00000200B271
:103960009DF81F100843C34908809DF820000002FD
:1039700000B29DF821100843BE4948809DF82200FE
:10398000000200B29DF823100843BA498880B84865
:103990000088C0F30D00B649088008464088C0F38F
:1039A0000D00488008468088C0F30D008880AF482D
:1039B0000088C0F30D00AD49088008464088C0F378
:1039C0000D00488008468088C0F30D008880A94813
:1039D0000088C0F30D00A749088008464088C0F35E
:1039E0000D00488008468088C0F30D008880A049FB
:1039F000B1F90000FFF73EFF9D490880B1F90200D0
:103A0000FFF738FF9A494880B1F90400FFF732FF09
:103A1000974988809549B1F90000FFF72BFF93493A
:103A20000880B1F90200FFF725FF90494880B1F9FD
:103A30000400FFF71FFF8D4988808E49B1F900000F
:103A4000FFF718FF8B490880B1F90200FFF712FF5A
:103A500088494880B1F90400FFF70CFF8549888048
:103A600083480088000A84490870814800884870AB
:103A70007F484088000A88707D484088C8707C482C
:103A80008088000A08717A488088487177480088E1
:103A9000000A7A4908707548008848707348408861
:103AA000000A887071484088C87070488088000A91
:103AB00008716E48808848716E480088000A704915
:103AC00008706C480088000A48706A484088000AFC
:103AD000887068484088000AC87066488088000A74
:103AE000087164488088000A48716148B0F9000094
:103AF00000EE100AB8EEC00ADFED620A80EE201A6E
:103B00009FED610A21EE000A604880ED000A5848E6
:103B1000B0F9020000EE100AB8EEC00ADFED590A53
:103B200080EE201A9FED580A21EE000A574880EDDA
:103B3000010A4F48B0F9040000EE100AB8EEC00ABE
:103B4000DFED500A80EE201A9FED4F0A21EE000AA9
:103B50004E4880ED020A4548B0F9000000EE100A18
:103B6000B8EEC00ADFED4A0A20EE200A494880ED8F
:103B7000000A3E48B0F9020000EE100AB8EEC00A92
:103B8000DFED430A20EE200A424880ED010A374863
:103B9000B0F9040000EE100AB8EEC00ADFED3C0AEE
:103BA00020EE200A3B4880ED020A3848816808462A
:103BB00003F024F841EC100BB0EE408AF0EE608A7E
:103BC00032484168084603F019F841EC100BB0EE9A
:103BD000409AF0EE609A2D480168084603F00EF80E
:103BE00041EC100BB0EE40AAF0EE60AA8DED028B16
:103BF0008DED009B53EC1A2B27A001F07DF8254892
:103C00008168084602F0FAFF41EC100BB0EE408AE2
:103C1000F0EE608A1F484168084602F0EFFF41EC71
:103C2000100BB0EE409AF0EE609A1A480168084610
:103C300002F0E4FF41EC100BB0EE40AAF0EE60AAF7
:103C40008DED028B42E000007C0300200403002085
:103C50000400060008000A000C000E00100012000C
:103C600014003C000000000000040240540000204A
:103C70004E0000205A000020600000206600002056
:103C80006C00002000007A4473682140E4040020A6
:103C90005709963DF004002061636378797A203DEE
:103CA0002025352E33663B2061636378797A203D89
:103CB0002025352E33663B2061636378797A203D79
:103CC0002025352E33663B200D0A00008DED009B2C
:103CD00053EC1A2B03A001F00FF810B0BDEC068BCB
:103CE00010BD00006779726F78203D2025352E3396
:103CF000663B206779726F79203D2025352E33662B
:103D00003B206779726F7A203D2025352E33663B44
:103D1000200D0A0010B586B0044601210846FDF7C3
:103D200094F901211020FDF7D4F907220921FE485A
:103D3000FCF7D7FF07220A21FB48FCF7D2FF4FF41C
:103D4000C060049000208DF8150001208DF8160049
:103D50008DF8170002208DF8140004A9F248FCF732
:103D60003DFF00940020ADF80400ADF80600ADF86A
:103D70000800ADF80C000C20ADF80A006946EB48CD
:103D8000FEF726FB0121E948FEF7AAFB4021E748A0
:103D9000FEF791FC2021E548FEF78DFC06B010BD32
:103DA00008B525208DF8000001208DF801008DF860
:103DB00002008DF803006846FCF7CFFB012240F2B9
:103DC0002661DA48FEF745FC012240F22551D7482A
:103DD000FEF73FFC08BD10B586B004460121084639
:103DE000FDF733F901214804FDF762F907220221AA
:103DF000CD48FCF776FF07220321CB48FCF771FF83
:103E00000C20049000208DF815008DF8160001207C
:103E10008DF8170002208DF8140004A9C248FCF7A1
:103E2000DDFE00940020ADF80400ADF80600ADF80A
:103E30000800ADF80C000C20ADF80A006946BC483B
:103E4000FEF7C6FA0121BA48FEF74AFB4021B848FE
:103E5000FEF731FC2021B648FEF72DFC06B010BD60
:103E600008B526208DF8000001208DF80100022001
:103E70008DF8020001208DF803006846FCF76DFB09
:103E8000012240F22661AA48FEF7E3FB002240F23D
:103E90002551A748FEF7DDFB08BD10B586B00446E6
:103EA00001210846FDF7D1F801218804FDF700F94A
:103EB00007220A219F48FCF714FF07220B219D4887
:103EC000FCF70FFF4FF44060049000208DF81500C0
:103ED0008DF8160001208DF8170002208DF81400CF
:103EE00004A99448FCF77AFE00940020ADF8040081
:103EF000ADF80600ADF80800ADF80C000C20ADF8E8
:103F00000A0069468C48FEF763FA01218A48FEF7E9
:103F1000E7FA40218848FEF7CEFB20218648FEF7CD
:103F2000CAFB06B010BD08B527208DF8000002209E
:103F30008DF8010001208DF802008DF8030068461D
:103F4000FCF70BFB002240F226617B48FEF781FB69
:103F5000012240F225517848FEF77BFB08BD10B5E1
:103F600086B0044601210846FDF76FF80121C80418
:103F7000FDF79EF8082200216B48FCF7B2FE0822EC
:103F800001216948FCF7ADFE0320049000208DF864
:103F900015008DF8160001208DF8170002208DF80D
:103FA000140004A96048FCF719FE00940020ADF845
:103FB0000400ADF80600ADF80800ADF80C000C20C8
:103FC000ADF80A0069465D48FEF702FA01215B4838
:103FD000FEF786FA40215948FEF76DFB202157482D
:103FE000FEF769FB06B010BD08B534208DF800005F
:103FF00002208DF8010001208DF802008DF80300E9
:104000006846FCF7AAFA012240F226614B48FEF707
:1040100020FB002240F225514848FEF71AFB08BD5C
:1040200010B586B0044601210846FDF70EF80121BF
:10403000C804FDF73DF808220C214148FCF751FE69
:10404000082202213F48FCF74CFE4FF480500490B8
:1040500000208DF815008DF8160001208DF817004E
:1040600002208DF8140004A93548FCF7B7FD0420A0
:10407000049000208DF815008DF8160001208DF8B1
:10408000170002208DF8140004A92E48FCF7A6FDA5
:1040900000940020ADF80400ADF80600ADF808006B
:1040A000ADF80C000C20ADF80A0069462648FEF772
:1040B0008FF901212448FEF713FA40212248FEF728
:1040C000FAFA20212048FEF7F6FA06B010BD08B52E
:1040D00035208DF8000000208DF801008DF80200D9
:1040E00001208DF803006846FCF737FA012240F200
:1040F00026611548FEF7ADFA012240F2255112481B
:10410000FEF7A7FA08BD10B586B0044601210420C9
:10411000FCF79BFF01212020FCF7DBFF0822062192
:104120000748FCF7DEFD11E00000024000100140EE
:10413000004400400004024000480040004C0040A1
:1041400000080240000C02400050004008220721F5
:10415000E948FCF7C6FDC020049000208DF815004A
:1041600001208DF816008DF8170002208DF814003C
:1041700004A9E148FCF732FD00940020ADF80400EA
:10418000ADF80600ADF80800ADF80C000C20ADF855
:104190000A006946D948FEF71BF90121D748FEF706
:1041A0009FF94021D548FEF786FA2021D348FEF733
:1041B00082FA06B010BD08B547208DF80000012036
:1041C0008DF8010003208DF8020001208DF8030016
:1041D0006846FCF7C2F9002240F22661C748FEF7A4
:1041E00038FA002240F22551C448FEF732FA08BDE1
:1041F00010B50446C248848000BF4021C048FEF785
:104200004DFA0028F9D010BD10B50446BD48048011
:1042100000BF4021BB48001FFEF740FA0028F8D03D
:1042200010BD10B50446B848048000BF4021B64810
:10423000001FFEF733FA0028F8D010BD10B5044671
:10424000B248048000BF4021B048001FFEF726FAA4
:104250000028F8D010BD10B50446AD48848000BFDA
:104260004021AB48FEF71AFA0028F9D010BD10B56E
:104270000446A248001D048000BF40219F48FEF76D
:104280000DFA0028F9D010BD10B500BF20219C48C0
:10429000FEF704FA0028F9D099488088C4B2204675
:1042A00010BD10B500BF20219648001FFEF7F6F99B
:1042B0000028F8D093480088C4B2204610BD10B53D
:1042C00000BF20219048001FFEF7E8F90028F8D031
:1042D0008D480088C4B2204610BD10B500BF202113
:1042E0008A48001FFEF7DAF90028F8D087480088CE
:1042F000C4B2204610BD10B500BF20218448FEF78F
:10430000CDF90028F9D082488088C4B2204610BD7B
:1043100010B500BF20217948FEF7C0F90028F9D078
:104320007648001D0088C4B2204610BD014600BF7B
:10433000704770B504460D4600BF40216F48FEF738
:10434000ADF90028F9D0E0B26C49091D088020467B
:1043500070BD70B505460E46002400BF04E0285D20
:10436000FFF746FF601C84B2B442F8DB70BD70B545
:1043700005460E46002400BF04E0285DFFF744FF19
:10438000601C84B2B442F8DB70BD70B505460E46C1
:10439000002400BF04E0285DFFF743FF601C84B2E7
:1043A000B442F8DB70BD70B505460E46002400BF70
:1043B00004E0285DFFF742FF601C84B2B442F8DBE2
:1043C00070BD70B505460E46002400BF04E0285DB0
:1043D000FFF741FF601C84B2B442F8DB70BD70B5DA
:1043E00005460E46002400BF04E0285DFFF73FFFAE
:1043F000601C84B2B442F8DB70BD0FB410B59AB043
:104400001DA8009001A8009A1C9900F063FC0446C6
:1044100000200090A1B201A8FFF7E1FF20461AB0EA
:1044200010BC5DF814FB00B591B001214805FCF704
:104430000CFE3848FCF7FEF802A8FCF7C6F94FF06E
:10444000006002902F48039033480490402005906C
:1044500032200690002007904FF4806008900020E2
:1044600009900A900B904FF400300C9000200D90B2
:1044700001200E9000200F90109002A92548FCF713
:104480007BF901212348FCF7B1F9012210212148D1
:10449000FCF73CFA11208DF8040002208DF805008D
:1044A00000208DF8060001208DF8070001A8FCF718
:1044B00054F802A91748FCF75FF901211548FCF7E9
:1044C00095F9012280210F48001FFEF7B6F8134925
:1044D0001048FCF707FA11B000BD10B510490D489F
:1044E000FCF731FA38B10D490A48FCF7FBF9002115
:1044F0000848FCF77BF910BD000802400014014099
:10450000001001400444004004480040044C0040B6
:1045100000500040A06002407400002000002020F5
:104520000080202000B587B001210803FCF7D1FDF1
:1045300001210846FCF789FD05221146D448FCF705
:10454000D0FB05220621D248FCF7CBFB0522072130
:10455000CF48FCF7C6FB02208DF8180000208DF82C
:104560001A0001208DF81B0002208DF81900E020B0
:10457000059005A9C648FCF731FB01208DF818000D
:1045800000208DF81A008DF81B0002208DF819000C
:104590001020059005A9BE48FCF720FB1021BC485F
:1045A000FCF790FBBB48FCF78DFE0020ADF8000047
:1045B000ADF804000220ADF806000120ADF80800B7
:1045C0004002ADF80A001820ADF80C000020ADF84C
:1045D0000E000720ADF810004FF48270ADF8020015
:1045E0006946AC48FCF794FE0121AA48FCF76EFF2F
:1045F00007B000BD08B523208DF8000001208DF81C
:10460000010000208DF8020001208DF803006846AB
:10461000FBF7A3FF08BD014600BF9E48008910F0CC
:10462000020FFAD09B48818100BF9A48008910F0A0
:10463000010FFAD097488089C0B2704700B587B0A3
:1046400001218803FCF734FD01210220FCF7FDFC69
:1046500005220D219048FCF744FB05220E218E48CF
:10466000FCF73FFB05220F218B48FCF73AFB0220A9
:104670008DF8180000208DF81A0001208DF81B001D
:1046800002208DF819004FF46040059005A982487A
:10469000FCF7A4FA01208DF8180000208DF81A000C
:1046A00001208DF81B0002208DF81900C002059032
:1046B00005A97948FCF792FA4FF480517648FCF747
:1046C00001FB7648FCF7FEFD0020ADF80000ADF8D8
:1046D00004000220ADF806000120ADF808004002F9
:1046E000ADF80A002820ADF80C000020ADF80E004F
:1046F0000720ADF810004FF48270ADF80200694653
:104700006648FCF705FE01216448FCF7DFFE07B0B0
:1047100000BD08B524208DF8000002208DF80100AE
:104720008DF8020001208DF803006846FBF715FFA5
:10473000012260215948FCF774FF08BD014600BF03
:1047400056480830008810F0020FF9D053480C305A
:10475000018000BF51480830008810F0010FF9D0E7
:104760004E480C300088C0B2704700B587B00121B8
:10477000C803FCF79DFC01210420FCF766FC06221F
:104780000A214748FCF7ADFA06220B214448FCF702
:10479000A8FA06220C214248FCF7A3FA02208DF861
:1047A000180000208DF81A0001208DF81B0002204F
:1047B0008DF819004FF4E050059005A93848FCF732
:1047C0000DFA01208DF8180000208DF81A00012044
:1047D0008DF81B0002208DF819000003059005A933
:1047E0002F48FCF7FBF94FF400512D48FCF76AFA0B
:1047F0002C48FCF767FD0020ADF80000ADF8040080
:10480000ADF80600ADF808004FF40070ADF80A00EE
:104810003820ADF80C000020ADF80E000720ADF8F0
:1048200010004FF48270ADF8020069461D48FCF795
:104830006FFD01211B48FCF749FE07B000BD08B51C
:1048400033208DF8000000208DF8010002208DF843
:10485000020001208DF803006846FBF77EFE08BDCC
:10486000014600BF0F480830008810F0020FF9D051
:104870000C480C30018000BF0A480830008810F056
:10488000010FF9D007480C300088C0B27047000013
:1048900000000240003001400004024000380040A7
:1048A00000080240003C00402DE9F04100250024B2
:1048B000002640F22661F048FDF706FF08B340F2FB
:1048C0002661ED48FDF738FF4021EB48FDF7F3FE88
:1048D000EA480078EA49097888420ADAE748017824
:1048E0000078401CE54A1070E648475CE248878043
:1048F00007E00120E1490870E3480088401CE249D4
:10490000088040F22551DC48FDF7DEFE002874D017
:1049100040F22551D848FDF70FFF2021D648FDF77A
:10492000CAFED5488088C5B2D8480078022809DA7E
:10493000D64801780078401CD44A1070D4484554B9
:10494000BDE8F081D148007802281CD1D048007819
:10495000FF280ED1CE484078FF280AD1012D08D17A
:10496000CA4801780078401CC84A1070C8484554AD
:1049700008E0C7484078C649087008468078487003
:1049800008468570DCE7C1480078022835DDBF485D
:1049900000782D2831DABD4801780078401CBB4AE8
:1049A0001070BB484554104600782D2825DB0024A4
:1049B00004261DE0122C09D0B549701C085C895DE5
:1049C00040EA0120B34921F814000AE0122C08D172
:1049D000AF49701C085C895D40EA0120AD4921F8AF
:1049E0001400B01CC6B20120AB490870601CC4B2F0
:1049F000142CDFDB0020A549087008219E48FDF734
:104A00004DFE10B19C48FDF79AFD00BF98E710B528
:104A100040F22661A148FDF757FEE8B140F2266159
:104A20009E48FDF789FE40219C48FDF744FE9C48C6
:104A300000789C49097888420BDA99480178007817
:104A4000401C974A10709848445C9448001D0480AC
:104A500002E001209249087040F225518F48FDF78D
:104A600033FE40B140F225518C48FDF765FE202110
:104A70008A48FDF720FE08218848FDF70FFE10B197
:104A80008648FDF75CFD10BD70B5002400250026AA
:104A900040F226618548FDF717FE48B140F22661D5
:104AA0008248FDF749FE40218048FDF704FE70BDB5
:104AB00040F225517D48FDF707FE00286DD040F2F9
:104AC00025517A48FDF738FE20217848FDF7F3FD9F
:104AD0007648001D0088C4B275480078042808DABA
:104AE000734801780078401C714A10707148445432
:104AF000DDE76F480078042825D16E480078122839
:104B000014D16C484078342810D16A4880785628EF
:104B10000CD16848C078782808D1654801780078B9
:104B2000401C634A1070634844540BE0614840786D
:104B3000604908700846807848700846C0788870D8
:104B40000846C470B3E75A480078042825DD584861
:104B500000781C2821DA564801780078401C544A15
:104B6000107054484454104600781C2815D1172260
:104B700000215048FEF7D9FD054618214D48FEF7A3
:104B8000E5FD0646B54205D104214A48FEF7DEFDA3
:104B90004949086000204649087008214348FDF74C
:104BA0007DFD10B14148FDF7CAFC00BF7FE710B59D
:104BB00040F226614148FDF787FDE8B140F22661E9
:104BC0003E48FDF7B9FD40213C48FDF774FD3C48E7
:104BD00000783C49097888420BDA39480178007836
:104BE000401C374A10703848405C3449091D088021
:104BF00002E001203249087040F225512F48FDF7AC
:104C000063FD40B140F225512C48FDF795FD202170
:104C10002A48FDF750FD08212848FDF73FFD10B157
:104C20002648FDF78CFC10BD10B540F226612748E0
:104C3000FDF74AFD40B140F226612448FDF77CFDB6
:104C400040212248FDF737FD40F225511F48FDF76E
:104C50003BFD40B140F225511C48FDF76DFD202180
:104C60001A48FDF728FD08211848FDF717FD10B177
:104C70001648FDF764FC10BD001001406D020020D5
:104C80002A000020CA0200202E0000206C02002012
:104C900008050020040300202C00002000440040F0
:104CA0006E020020290000209002002000480040F1
:104CB0006F020020D005002024000020004C00409E
:104CC000700200202800002074020020001401401F
:104CD000704700001CB50C46064B7B4469460090AB
:104CE000204600F038FC04460020694600F046FCEF
:104CF00020461CBD9F0800000FB4044910B503AA4C
:104D0000029800F041FC10BC5DF814FB6802002022
:104D100070B5044685690068C10601D5302600E0FB
:104D20002026C00708D070BDD4E901213046904745
:104D3000206A00F1010020626D1EF5D570BD70B5CE
:104D4000044685690068C00708D170BDD4E9012117
:104D500020209047206A00F1010020626D1EF5D5E9
:104D600070BD00002DE9F041074600251068752947
:104D7000394616A411D000F02DF9002803DAC0F14D
:104D8000000013A407E039688A0701D511A402E0E6
:104D9000490704D510A4012501E000F024F9002101
:104DA0000A2307F1240607E0B0FBF3F203FB12002D
:104DB000303070541046491C0028F5D12B4622464D
:104DC0003846BDE8F04100F040B9000000000000A6
:104DD0002D0000002B000000200000002DE9F05FF6
:104DE000044689464FF0000ADFF878B1FB44C0F86A
:104DF00020A02046E1688847002875D0252806D0E5
:104E0000D4E901219047206A401C2062F1E7002686
:104E10005F462046E16888472028054608DB312D9B
:104E200006D207EB050010F8200C08B10643F0E7A6
:104E3000B00701D526F00406C4F81CA00027C4F86A
:104E400018A02A2D09D0284601F06BFA38B304EBDC
:104E50008708303DC8F8185019E059F8041B20465F
:104E600004EB87029161E1688847012F054618D15C
:104E7000E069002820DA26F020061DE0D8F81800A6
:104E800000EB800005EB40003038C8F818002046E1
:104E9000E1688847054601F044FA0028EED1012F69
:104EA0000AD02E2D08D12046E16888477F1C054690
:104EB000022F46F02006C4DBA069002803DA404236
:104EC00046F00106A061F00701D026F010066C2D17
:104ED0000BD0682D09D04C2D39D06A2D35D0742DCA
:104EE00035D07A2D33D016E038E0E1682F462046E1
:104EF0008847B842054609D16C2F26D04FF4806010
:104F0000E168064320468847054604E06C2F1AD026
:104F10004FF4807006430DB3A5F14100192802D863
:104F2000203546F400664A462946204626604E460D
:104F3000FBF784F980B101280BD0F61D26F007009D
:104F400000F1080955E74020E4E78020D8E7002079
:104F5000D6E706F104094CE7284651E7206ABDE888
:104F6000F09F0000061F000010B5203AC0F00B8033
:104F7000B1E81850203AA0E81850B1E81850A0E85D
:104F80001850BFF4F5AF5FEA027C24BFB1E81850B7
:104F9000A0E8185044BF18C918C0BDE810405FEA27
:104FA000827C24BF51F8043B40F8043B08BF7047A3
:104FB000D20728BF31F8023B48BF11F8012B28BFA8
:104FC00020F8023B48BF00F8012B7047704770473C
:104FD0007047704709684A0501D540B27047C90556
:104FE000FCD500B2704709684A0501D5C0B27047C8
:104FF000C905FCD580B2704770B505460C46012A3C
:1050000005D02868800600D5EA69002302E0012364
:1050100005E05B1C934202D2E05C0028F9D1A8694C
:10502000E618C01AA861286A184428622846FFF7C3
:105030006FFE04E0D5E9012114F8010B9047B4425A
:10504000F8D32846FFF77BFE70BD2DE9F0470D46EB
:1050500004469246994600F124080168880604D562
:10506000E06921F01001216000E00120A84202DD8A
:10507000A0EB050700E00027A16907EB050202EBA2
:105080000900A1EB0000A0612068C00602D4204600
:10509000FFF73EFE002608E0D4E901211AF80600D9
:1050A0009047206A401C761C20624E45F4DB206845
:1050B000C0060AD52046FFF72BFE06E0D4E9012101
:1050C00030209047206A401C2062381EA7F101075B
:1050D000F4DC07E0D4E9012118F805009047206AC4
:1050E000401C2062281EA5F10105F3DC2046FFF7D5
:1050F00026FE2068000602D50220BDE8F0870120C8
:10510000FBE711680268006A530501D508700BE0DF
:10511000D30501D5088007E0130603D5C217C1E9FE
:10512000000201E0520608600120704770472DE937
:10513000FF4F0C461E464FF0FF378BB0D2E90001FF
:10514000DDF860800A908A46C1F30A5505B93D46EC
:10515000002108464FF00000BAF1000F00F44000B3
:1051600005DA00EB80004FF4400101EA50004FEAFD
:105170009059B9F1010F00DDB9460A9850EA4A008A
:105180000FD044F61050A5F2FF3545432F14B8F167
:10519000000F1FD07542291E1FDD4846C9F10002CD
:1051A0001CE0B8F1010F4FF0000001D1F24307E01D
:1051B000302101E02154401CB042FBDB304600228C
:1051C000002121540B99C1F80880C1E900200FB0DB
:1051D000BDE8F08FBD1B6D1CDDE74A4600DA694271
:1051E00006A800F0BDFB06AB07CB03AB07C35046D8
:1051F0000A9900F0C3FC8DE80700A0F500501F38A5
:1052000000900398002D09DD42F21F014A46084430
:1052100003A90390684600F022FF08E0A0F50050C3
:105220004A461F3803A90390684600F02CFF8DE81A
:1052300007000004000C03D04FF0FF30410800E0ED
:105240001046B8F1000F03D00022009215461FE06F
:10525000751E06D400F0D2FA02F1300262556D1EBE
:10526000F8D5B3460122084302D000227F1C04E097
:105270002078302801D100227F1E002A099786D08D
:105280001DE0112D07DA00F0B9FA303262556D1CBD
:1052900050EA0102F5D108430FD10021681E05E054
:1052A000235C625C6354491C2254401E8142F7DB3C
:1052B000AB46A81B401E099001E0009848B10020B1
:1052C00004F80B000B98099AC0F80880C0E9002B7D
:1052D0007DE711264FF0000859E72DE9F04F884689
:1052E0000446D21D22F0070191B0D1E90001CDE9B9
:1052F0000A0100F0FEFF02460B98C00F01D02D20DE
:1053000007E02068810701D52B2002E0202101EA77
:10531000C000032A099001D0072A05DB0346414655
:10532000204600F0B1FA0EE12068800601D5E06960
:1053300000E00620B8F1650F814606D0B8F1660F8F
:1053400018D0B8F1670F72D132E00020B9F1110F17
:10535000009001DB112301E009F101030AAA01A970
:105360000CA8FFF7E4FEDDE90C70002609F1010549
:10537000834648E001204B4600904FF000470AAAC0
:1053800001A90CA8FFF7D3FEDDE90C050E99002654
:10539000AB4619B909F1010100EB0105B9EB0500B4
:1053A00003D4C0F1FF3609F10105A5EB09002BE09C
:1053B000B9F1010F01DA4FF001090020B9F1110F25
:1053C0000090484601DD112300E003460AAA01A926
:1053D0000CA8FFF7ACFEDDE90C704D4600268346B5
:1053E000206800070AD4AB4500DA5D4601A8012D0C
:1053F00004DD411911F8011C302907D04F4502DAAC
:1054000017F1040F04DA0120824610E06D1EEEE76A
:10541000002F02DCED1B3E4403E0781CA84200DDB7
:105420000546A7EB060000F1010A4FF0004720688F
:10543000000703D4AA4501DB4FF0FF3A0021B7F182
:10544000004F0DF143088DF8431022D002202B238A
:10545000002F01DA7F422D230A22011EA0F1010054
:1054600000DC4FB197FBF2F102FB117C0F460CF10F
:10547000300C08F801CDF0E7A8F1010003702168B5
:10548000090501D5452100E06521A0F1010800F8DA
:10549000011C09980FA9A1EB080707F1070700B144
:1054A000012000EB050101EBEA70A1693844A1EB92
:1054B0000000A0F10100A0612068C00602D42046CF
:1054C000FFF726FC099830B1D4E901219047206A02
:1054D00000F1010020622068C00620D52046FFF7B9
:1054E00017FC1CE0002E04DBB34502DD01A8805D43
:1054F00000E03020D4E901219047206A761C401C4E
:10550000BAF1010A20620AD100F074F9C06801689A
:10551000405CD4E901219047206A401C2062281E8B
:10552000A5F10105DEDC07E0D4E9012118F8010B43
:105530009047206A401C2062381EA7F10107F3DC67
:105540002046FFF7FCFB022011B041E601694A1C2E
:1055500002610878704700B58FB0CDE901310021B4
:10556000059105497944CDE9031011466846FFF7D6
:1055700035FC0FB000BD0000E5FFFFFF0A6802F830
:10558000010B0A6070470000074B70B50C467B4466
:10559000FFF7E1FF0546204600F054FA10B14FF046
:1055A000FF3070BD284670BDA1EDFFFF2DE9FF5F04
:1055B00004468A461546DFF8AC80F8440027D8E94F
:1055C00000103E46CDE9001011E03AF816106A4688
:1055D00002A800F03BFA411C07D02168890603D5D8
:1055E000E269391891420ED8074406F10106206895
:1055F000800602D5E069B84205DDAE42E5DB3AF847
:1056000016000028E1D1A069C01BA0612046FFF769
:105610007FFBD8E90010CDE90010002016E03AF831
:1056200018106A4602A800F011FA8146401C0BD0FF
:1056300000250DF1080B05E0D4E901211BF8050058
:1056400090476D1C4D45F7D308F10100B0428046EC
:10565000E5DB206A384420622046FFF770FBBDE896
:10566000FF9F00004A1700002DE9F0418046D21D3F
:1056700022F007020026D2E90002F52914A512D073
:10568000002A06DA0023D0EB030063EB020211A527
:1056900008E0D8F800108B0701D50FA502E04907F4
:1056A00001D50EA501261146002408F1240704E0C7
:1056B00000F0A4F830323A55641C50EA0102F7D1E8
:1056C00033462A4621464046BDE8F041FFF7BDBCBF
:1056D000000000002D0000002B0000002000000052
:1056E00030B4002100F124040CE002F0070505F1BC
:1056F00030054FEAD20242EA4372655401F10101DA
:105700004FEAD30352EA0305EFD10468002310A245
:10571000250708D504F020040C4304D0C4690123F4
:105720000CA2641EC46130BCFFF78FBC10B50446E8
:1057300021461068FFF757FC02462046BDE810409E
:105740000023CDE7D21D22F00701D1E90023C7E7EE
:105750000000000030000000F0B40F4601680905A9
:1057600002D5234C7C4402E0214C7C440E340021C1
:1057700000F124050BE002F00F064FEA1212A65DBD
:1057800042EA03724FEA13136E5401F1010152EA27
:105790000306F0D1224604680023240704D5702FA5
:1057A00005D009B111320223F0BCFFF74EBC103214
:1057B0000123F9E770B504460D4621461068FFF74E
:1057C00012FC024629462046BDE870400023C3E78C
:1057D000D21D22F00703D3E90023BDE70368126856
:1057E00043F0200303600823C3610023B4E70000F3
:1057F000A8150000004870470C06002030B5B0F135
:105800000A024FEA900E71F100034EEA817EB0EB7E
:105810000E0061EB91014FEA101E4EEA017E10EB83
:105820000E0041EB11114FEA102E4EEA016E10EB03
:105830000E0041EB11214FEA104E4EEA014E10EBE3
:105840000E0041EB1141401841F100014FEAD00038
:1058500040EA41704FEAD10110EB80054FEA810424
:1058600044EA907444EB01046D1944EB0404521BA8
:10587000A3414FF0000348BF0A3200D530BD401CA1
:1058800041F1000130BD00002DE9F04104461F4602
:1058900003260168072A01F4006004DB08B116A59D
:1058A00005E016A503E008B115A500E015A521F057
:1058B00010002060A069C01EA0610FB1401EA06151
:1058C0002046FFF725FA4FB1D4E901213846904729
:1058D000206A401C2062C01C206206E0206AFAE7B1
:1058E000D4E9012115F8010B9047761EF8D2204625
:1058F000FFF725FABDE8F0814E414E006E616E0063
:10590000494E4600696E660010B5436913B1AFF3A6
:10591000008001E0FFF770FB012010BD126800F16C
:1059200024010A7000224A700122EDE711684FF04D
:10593000FF32E9E710B5436913B1AFF3008001E02E
:10594000FFF734FE012010BD126800F124018284AB
:105950000022C2840122EDE711684FF0FF32E9E72F
:105960002DE9F047814616468AB035487844D0E99B
:10597000002380680092CDE90130314878440C382A
:10598000D0E90223006903924FF03702CDE90430D9
:1059900041F69B30014491FBF2F0A0F1800502FB3F
:1059A00010141B3C02D56442012000E00020DFF807
:1059B00090A080460027FA44AAF1C60A0DE0E0074D
:1059C00009D03246684607EB47010AEB810100F037
:1059D0005AFB8DE8070064107F1C002CEFD1184F94
:1059E0007F44B43F17E0E80713D007EB04100DF134
:1059F000180A90E80E00AAE80E00C068F04201D133
:105A000098190890324606A903A800F03CFB03ABA6
:105A100007C36D10641C002DE5D132466946B8F10C
:105A2000000F03A802D000F01AFB01E000F02BFBEE
:105A3000C9E90001C9F808200AB0BDE8F0870000F4
:105A400044140000C06800F08000704770B505463F
:105A50000C46164600F044F8036893F8010101284B
:105A600006D0FF2C0FD8185D68B101202C7070BDD6
:105A7000D3F807013246214603442846BDE870406A
:105A800003F2071318474FF0FF3070BD004870470E
:105A9000EC0500207546FFF7F9FFAE4605006946A4
:105AA000534620F00700854618B020B5FAF73EFDB2
:105AB000BDE820404FF000064FF000074FF000080F
:105AC0004FF0000B21F00701AC46ACE8C009ACE890
:105AD000C009ACE8C009ACE8C0098D4670470000B9
