:020000040800F2
:10000000100700203D0400083523000837230008AE
:100010003B2300083F2300084323000800000000A2
:10002000000000000000000000000000472300085E
:1000300049230008000000004B230008EB260008BD
:100040005704000857040008570400085704000824
:1000500057040008570400084D23000865230008D2
:100060005704000857040008570400085704000804
:1000700057040008570400085704000857040008F4
:1000800057040008570400085704000857040008E4
:1000900057040008570400085704000857040008D4
:1000A00057040008570400085704000857040008C4
:1000B000570400087D23000857040008570400086F
:1000C00057040008570400085704000857040008A4
:1000D0005704000857040008D534000857040008E6
:1000E000570400085704000857040008D5230008E7
:1000F0005704000857040008570400085704000874
:100100005704000857040008570400085704000863
:10011000570400085704000897230008B523000877
:100120005704000857040008570400085704000843
:100130005704000857040008570400085704000833
:100140005704000857040008570400085704000823
:100150005704000857040008570400084F350008EA
:100160005704000857040008570400085704000803
:1001700057040008570400085704000857040008F3
:10018000570400085704000800F002F800F049F88E
:100190000AA090E8000C82448344AAF10107DA45E2
:1001A00001D100F03EF8AFF2090EBAE80F0013F0EB
:1001B000010F18BFFB1A43F001031847184F000046
:1001C000384F0000103A24BF78C878C1FAD85207D7
:1001D00024BF30C830C144BF04680C6070470000C1
:1001E0000023002400250026103A28BF78C1FBD840
:1001F000520728BF30C148BF0B607047662904F022
:100200001C87002070471FB504F00DFF03F0E8FCC9
:1002100004000020002104F045FAE0601FBD10B585
:1002200010BD03F0F9FD1146FFF7EDFF02F052F8A3
:1002300003F017FE03B4FFF7F2FF03BC02F06CFFFC
:1002400000210020724A126842F48032704B1A601A
:1002500000BF6F4A126802F40030491C10B9B1F5B2
:10026000A06FF6D16A4A126812F4003F01D0012053
:1002700000E00020012845D1654A4032126842F072
:100280008052634B40331A60624A126842F48042E3
:10029000604B1A605E4A083212685D4B08331A6080
:1002A0001A46126842F400421A601A46126842F472
:1002B000A0521A60584A1B1F1A601A1F126842F097
:1002C00080721B1F1A6000BF514A126812F0007F33
:1002D000FAD040F20562514B1A604D4A083212685A
:1002E00022F003024A4B08331A601A46126842F0A1
:1002F00002021A6000BF464A0832126802F00C027D
:10030000082AF8D1704710B54548006840F47000DD
:10031000434908603E48006840F001003C490860DD
:1003200000203B4908310860394800683D490840D1
:10033000374908603C48091D0860081F006820F420
:100340008020091F0860002031490C310860FFF748
:1003500077FF4FF0006032498039086010BD30B53A
:1003600000200022022384460221294C08342468FC
:1003700004F00C0020B1042806D0082836D107E08C
:100380002A4C2B4D2C6035E02A4C294D2C6031E055
:100390001F4C241D2468C4F3805C1D4C241D24685C
:1003A00004F03F01BCF1000F0AD0224CB4FBF1F481
:1003B000174D2D1D2D68C5F3881504FB05F209E0C6
:1003C0001A4CB4FBF1F4124D2D1D2D68C5F38815A0
:1003D00004FB05F20E4C241D2468C4F30144641C84
:1003E0006300B2FBF3F4124D2C6003E00F4C104D90
:1003F0002C6000BF00BF064C08342468C4F303140B
:100400000D4D285D0A4C2468C440094D2C6030BD58
:100410000038024000700040042A4004003C0240C2
:1004200088ED00E0FFFFF6FE103000240024F40009
:100430000000002000127A000400002009488047D4
:1004400009480047FEE7FEE7FEE7FEE7FEE7FEE7B6
:10045000FEE7FEE7FEE7FEE704480549054A064BCE
:100460007047000007030008890100081001002000
:10047000100700201003002010030020334901431F
:10048000334A1160704770B5002100230F22C478F1
:1004900024B32F4C246804F4E064C4F5E064C4F38E
:1004A0000721C1F10404E3B20A4144789C40E1B25F
:1004B0008478144021430C07210E264C05786155A1
:1004C000047804F01F050124AC4005786D114FF04D
:1004D000E02606EB8505C5F8004109E0047804F044
:1004E0001F050124AC401C4D0678761145F82640C6
:1004F00070BD1A4A0A400243154B1B1F1A60704711
:1005000039B1134A121D12680243114B1B1D1A60A8
:1005100006E00F4A121D126882430D4B1B1D1A6024
:100520007047042808D14FF0E021096941F0040127
:100530004FF0E022116107E04FF0E021096921F05E
:1005400004014FF0E0221161704700000000FA053D
:100550000CED00E000E400E080E100E080FFFF1F20
:10056000002044490860091D0860091D0860091D34
:10057000086041483F4914310860704700213D49F7
:100580008279002A3AD00A46126803689A430B46D9
:100590001A600A1D126803689A430B1D1A600279DB
:1005A00011440A6803681A430A60324A0832126822
:1005B00003689A432F4B08331A601A1D12680368A8
:1005C0009A432C4B0C331A604279102A0ED11A1F11
:1005D000126803681A43274B08331A601A1D126801
:1005E00003681A43234B0C331A600DE0214942790A
:1005F00011440A6803681A430A6005E0027911444D
:100600000A6803689A430A6070470021016001711B
:100610000C21417100218171704716491031096820
:100620000143144A10321160704701460020114AFC
:10063000143212680A4201D0012000E00020704705
:100640000C49143108607047014600200022094B14
:100650001B6803EA0102074B14331B680B4202D0EC
:100660000AB1012000E000207047024914310860FF
:1006700070470000003C0140FFFF7F0010B50446BA
:100680008848844208D10121084600F0F1FA00218F
:10069000012000F0EDFA5EE08348844208D1012198
:1006A000022000F0E5FA0021022000F0E1FA52E019
:1006B0007E48844208D10121042000F0D9FA0021AB
:1006C000042000F0D5FA46E07948844208D101219F
:1006D000082000F0CDFA0021082000F0C9FA3AE025
:1006E0007448844208D10121102000F0C1FA002191
:1006F000102000F0BDFA2EE06F48844208D101219D
:10070000202000F0B5FA0021202000F0B1FA22E00C
:100710006A48844208D10121402000F0A9FA002152
:10072000402000F0A5FA16E06548844208D1012176
:10073000802000F09DFA0021802000F099FA0AE064
:100740006048844207D10121801500F091FA002110
:10075000A01500F08DFA10BD70B50A4600210023E7
:100760008C4600BF3DE0012404FA01F3146804EA5A
:10077000030C9C4534D104684E000325B540AC43BE
:10078000046014794D00AC4005682C430460147972
:10079000012C02D01479022C16D184684E00032556
:1007A000B540AC43846054794D00AC4085682C431F
:1007B0008460446801258D40AC4344604468957969
:1007C0008D40ADB22C434460C4684E000325B54053
:1007D000AC43C460D4794D00AC40C5682C43C460C0
:1007E000491C1029BFD370BD4FF6FF710160002175
:1007F000017141718171C17170474FF480320A43B8
:10080000C261C161C261C269C2697047024600200B
:1008100013690B4201D0012000E00020704701461F
:10082000086980B270470246002053690B4201D02C
:10083000012000E0002070470146486980B27047FF
:1008400001837047418370470AB1018300E041830F
:1008500070474161704742694A404261704770B5D4
:1008600000239C464C07E40E02FA04F3CD1000F17D
:10087000200454F825404D07EE0E0F25B540AC433B
:10088000CE1000F1200545F82640CD1000F12004DF
:1008900054F8254044EA030CCD1000F1200444F83C
:1008A00025C070BD00000240000402400008024064
:1008B000000C0240001002400014024000180240E8
:1008C000001C024000200240FA48006840F001008D
:1008D000F84908600020F74908310860F5480068C9
:1008E000F5490840F3490860F448091D0860081FED
:1008F000006820F48020091F08600020ED490C31B9
:10090000086070470021EB4A921C11701146087074
:10091000704710B501460022002300204A11012A29
:1009200002D1E44C236808E0022A03D1E14C703480
:10093000236802E0DF4C7434236801F01F020124B5
:1009400094401C4201D0012000E0002010BD70B591
:1009500000240025002600BF3120FFF7DAFF0646FD
:10096000641CB4F5A06F01D0002EF5D03120FFF744
:10097000D0FF08B1012500E00025284670BD0146E2
:100980000020CC4A106820F0F80040EAC100106056
:100990007047CB49086070470021C64A7032117019
:1009A0001170012802D004280AD104E00121C14AB3
:1009B0007032117005E00521BE4A7032117000E0FE
:1009C00000BF00BF7047BF490860704730B5DDF811
:1009D0000CC041EA82140125C5EB530544EA0544E5
:1009E000044344EA0C64B34D2D1D2C6030BDB44962
:1009F00008667047820142EA0172AE4B84331A6086
:100A00007047AF4988667047AD49C8647047024671
:100A10000020A84B0833186820F0EC6042EA01037C
:100A20001843A44B08331860704702460020A14BBE
:100A30000833186820F0784042EA010318439D4BC0
:100A4000083318607047014600209A4A083210683F
:100A500020F0030008431060704796480830006893
:100A600000F00C00704701460020924A08321068DE
:100A700020F0F000084310607047014600208D4AC6
:100A80000832106820F4E0500843106070470146B7
:100A90000020884A0832106820F4604040EAC10013
:100AA00010607047F0B500210022002402258C461A
:100AB0000223804E0836366806F00C0121B1042965
:100AC00005D0082933D105E07F4E066032E07F4E25
:100AD00006602FE0774E361D3668C6F3805C754E93
:100AE000361D366806F03F03BCF1000F0AD0774E82
:100AF000B6FBF3F66F4F3F1D3F68C7F3881706FB41
:100B000007F409E0704EB6FBF3F66A4F3F1D3F68ED
:100B1000C7F3881706FB07F4664E361D3668C6F322
:100B20000146761C7500B4FBF5F6066002E0664EE1
:100B3000066000BF00BF5F4E0836366806F0F00161
:100B40000909634E725C0668D6404660594E083605
:100B5000366806F4E051890A5D4E725C4668D640FC
:100B60008660544E0836366806F46041490B584E8C
:100B7000725C4668D640C660F0BD002100F4407249
:100B8000B2F5407F0AD14B4A0832116821F4F811BE
:100B9000504A02401143474A08321160454A7032B8
:100BA0001268C0F30B031A43424B70331A6070474C
:100BB00044494439086070474249403908607047E9
:100BC00045490860704739B13A4A303212680243E9
:100BD000384B30331A6006E0364A303212688243AE
:100BE000344B30331A60704739B1324A34321268AC
:100BF0000243304B34331A6006E02E4A3432126816
:100C000082432C4B34331A60704739B1294A383249
:100C100012680243274B38331A6006E0254A3832FF
:100C200012688243234B38331A60704739B1214A26
:100C30004032126802431F4B40331A6006E01D4ADF
:100C40004032126882431B4B40331A60704739B1FF
:100C5000184A443212680243164B44331A6006E0C5
:100C6000144A443212688243124B44331A6070476C
:100C700039B1104A1032126802430E4B10331A6019
:100C800006E00C4A1032126882430A4B10331A6095
:100C9000704739B1074A143212680243054B1433C6
:100CA0001A6006E0034A143212688243014B14337F
:100CB0001A60704700380240FFFFF6FE1030002433
:100CC00000004742800E47420024F40000127A00E0
:100CD00014000020FFFCFF0F5C01474229B1574A76
:100CE00012680243554B1A6004E0544A126882436A
:100CF000524B1A60704739B1504A083212680243A9
:100D00004E4B08331A6006E04C4A083212688243A0
:100D10004A4B08331A60704739B1484A0C3212689E
:100D20000243464B0C331A6006E0444A0C32126808
:100D30008243424B0C331A60704739B13F4A383214
:100D4000126802433D4B38331A6006E03B4A3832A2
:100D500012688243394B38331A60704739B1374AC9
:100D60003C3212680243354B3C331A6006E0334A8A
:100D70003C3212688243314B3C331A60704739B1C0
:100D80002E4A4032126802432C4B40331A6006E070
:100D90002A4A403212688243284B40331A60704717
:100DA00039B1264A483212680243244B48331A604C
:100DB00006E0224A483212688243204B48331A60C8
:100DC000704739B11D4A4C32126802431B4B4C33F9
:100DD0001A6006E0194A4C3212688243174B4C33B2
:100DE0001A60704739B1154A0B3A12780243134B17
:100DF0000B3B1A7008E0114A0B3A1278C343DBB27E
:100E00001A400E4B0B3B1A7070470C485C30006860
:100E100040F0807009495C3108607047014600204D
:100E2000064A0C3A12680A4201D0012000E0002074
:100E3000704702490A3908707047000018380240AC
:100E400010B50446F948844208D101218014FFF707
:100E500063FF0021A014FFF75FFF16E0F44884420F
:100E600008D101210014FFF746FF00212014FFF7ED
:100E700042FF0AE0EF48844207D10121C013FFF787
:100E80003AFF0021E013FFF736FF10BD10B5002236
:100E9000028802F441520B884C8823438C882343F8
:100EA000CC8823430C8923434C8923438C892343D7
:100EB000CC8923431A430280838B4FF2FF74234073
:100EC00083830B8A038210BD2DE9F04F0025022396
:100ED0000024012700220026944690469146B0F84F
:100EE0001CA04FF2400B0AEA0B0AA0F81CA04FF01E
:100EF000020AA0F820A0858BD1F808A0BAF1020F51
:100F000001D100BF67E0B1F804A0BAF1000F01D130
:100F1000012700E00227DFF820A3DAF800A01AF486
:100F2000000F09D0DFF810A3DAF800A02AF4000AB5
:100F3000DFF804B3CBF800A0DFF8FCA20AF17C0ACA
:100F4000DAF800A0CAF38818DFF8ECA20AF17C0AEC
:100F5000DAF800A0CAF30279DFF8DCA2AAF1040AE9
:100F6000DAF800A00AF03F0CDFF8D0A2BAFBFCFAD6
:100F70000AFB08FABAFBF9F6B1F806A0BAF5007F49
:100F80000ED14FEA162A0AEB8A0A4FEA4A0AD1F82A
:100F900008B0BAFBFBFA0AF1050A1FFA8AF20FE061
:100FA0004FEA471AB6FBFAFA0AEB8A0A4FEA4A0AEC
:100FB000D1F808B0BAFBFBFA0AF1050A1FFA8AF267
:100FC0004FF00A0AB2FBFAF202F00104A2EB040AA3
:100FD000CAF34F032402022B01DBFF2B01DD0223A6
:100FE0000024B1F806A04AEA040A4AEA030AA0F873
:100FF00020A0B1F804A0B1F80CB04AEA0B0AB1F88D
:1010000002B04AEA0B0AB1F800B04AEA0B0A4AF405
:10101000006A4AEA05058583BDE8F08F002101805A
:1010200041808180C180018141818181C18107210D
:10103000018270470021018041808180C1800221AE
:10104000816000218181704721B1028842F0400215
:10105000028004E002884FF6BF731A400280704796
:1010600021B1828B42F48062828304E0828B4FF64E
:10107000FF331A408283704702884FF2FF731A4091
:10108000028002880A4302807047B1F5804F04D184
:10109000028842F48042028004E002884BF6FF732B
:1010A0001A4002807047A1F57E42FF3A04D00288C0
:1010B00042F48072028004E002884FF6FF631A4017
:1010C0000280704721B1828842F00402828004E0ED
:1010D00082884FF6FB731A408280704721B1828864
:1010E00042F01002828004E082884FF6EF731A40CB
:1010F0008280704730B500220023848B4FF2400578
:101100002C40848302240484828B0C88B4F5007FF5
:1011100001D00C8814B94FF4807308E00C88B4F542
:10112000407F03D00C88B4F5807F00D100238C88E9
:101130008D892C434D882C431C4344F40064224386
:10114000828330BD0146888970478181704721B113
:10115000028842F40052028004E002884DF6FF73D8
:101160001A4002807047018841F480510180704725
:1011700002460020012901D0108B00E0908A7047C0
:101180000146088A704710B51AB183880B438380E3
:1011900004E08388CC43A4B22340838010BD30B5E3
:1011A0004FF0000C00234FEA211C012404FA0CF438
:1011B000A3B21AB184881C43848004E08488DD4390
:1011C000ADB22C40848030BD0246002013890B4212
:1011D00001D0012000E000207047CA43028170471F
:1011E00070B50246002000240023844601F00F065B
:1011F0000125B540ACB20B1101259D40ABB29588DD
:1012000005EA030C1589254204D0BCF1000F01D07A
:10121000012000E0002070BD10B5002201F00F0495
:101220000123A3409AB2D343038110BD0030014093
:1012300000380040003C00400838024000127A00AC
:1012400010B50446FE48844208D101210846FFF744
:1012500063FD00210120FFF75FFD9DE0B4F1804FA9
:1012600008D101210846FFF746FD00210120FFF7C4
:1012700042FD91E0F348844208D101210220FFF7AA
:101280003AFD00210220FFF736FD85E0EE4884425A
:1012900008D101210420FFF72EFD00210420FFF7D3
:1012A0002AFD79E0E948844208D101210820FFF7AE
:1012B00022FD00210820FFF71EFD6DE0E448844276
:1012C00008D101211020FFF716FD00211020FFF7A3
:1012D00012FD61E0DF48844208D101212020FFF7A0
:1012E0000AFD00212020FFF706FD55E0DA48844280
:1012F00008D101210220FFF70FFD00210220FFF796
:101300000BFD49E0D548844209D101210804FFF7CB
:1013100003FD00214FF48030FFF7FEFC3CE0D04895
:10132000844209D101214804FFF7F6FC00214FF463
:101330000030FFF7F1FC2FE0CA48844209D10121B7
:101340008804FFF7E9FC00214FF48020FFF7E4FC5C
:1013500022E0C548844208D101214020FFF7CBFCA0
:1013600000214020FFF7C7FC16E0C048844208D1A6
:1013700001218020FFF7BFFC00218020FFF7BBFC8C
:101380000AE0BB48844207D101218015FFF7B3FC76
:101390000021A015FFF7AFFC10BD00220288A84B6A
:1013A00098420ED0AC4B98420BD0B0F1804F08D091
:1013B000A44B984205D0A44B984202D0A34B98422C
:1013C00004D14FF68F731A404B881A43A04B9842B2
:1013D00007D0A04B984204D04FF6FF431A400B8928
:1013E0001A4302804B68C3620B880385944B984272
:1013F00002D0994B984201D18B7A038601238382D4
:1014000070474FF0FF314160002101800181418030
:10141000817270470185828270470A4600210188E7
:101420004FF68F7319401143018070474162704736
:10143000C16270470146486A70470146088D70478F
:1014400021B1028842F00202028004E002884FF6D5
:10145000FD731A400280704721B1028842F00402F5
:10146000028004E002884FF6FB731A400280704746
:1014700021B1028842F08002028004E002884FF627
:101480007F731A400280704702884FF6F7731A4044
:10149000028002880A430280704702884FF6FF43A9
:1014A0001A40028002880A430280704721B10288F4
:1014B00042F00102028004E002884FF6FE731A40F7
:1014C0000280704730B54FF0000C00220023048CDE
:1014D0004FF6FE752C400484028C8388B0F818C047
:1014E0004FF68F740CEA040CAC1E0CEA040C0C884A
:1014F00044EA0C0C6C1E22408C8922434C88224307
:101500004F4CA04202D0544CA04213D14FF6F77476
:101510002240CC8922434FF6FB7422408C88224320
:101520004FF6FF6423404FF6FF5423400C8A2343B9
:101530004C8A23438380A0F818C08C6844630284DB
:1015400030BD30B54FF0000C00220023048C4FF664
:10155000EF752C400484028C8388B0F818C048F6DC
:10156000FF740CEA040C4FF6FF440CEA040C0C88E0
:1015700024064CEA144C4FF6DF7422408C89240573
:1015800042EA14424C88240542EA14422C4CA04200
:1015900002D0314CA0421BD14FF67F742240CC893F
:1015A000240542EA14424FF6BF7422408C88240579
:1015B00042EA14424FF6FF3423404FF2FF742340B7
:1015C0000C8AA40443EA14434C8AA40443EA144357
:1015D0008380A0F818C08C688463028430BD30B565
:1015E0004FF0000C00220023048C4FF6FF652C40C6
:1015F0000484028C8388B0F81CC04FF68F740CEA08
:10160000040C4FF6FC740CEA040C0C8844EA0C0C35
:101610004FF6FF5422408C89240642EA14424C883B
:10162000240642EA1442064CA04202D00A4CA042D0
:1016300037D14FF2FF742240CC8924061AE0000013
:10164000000001400004004000080040000C004081
:101650000010004000140040000401400040014020
:10166000004401400048014000180040001C0040B8
:101670000020004042EA14424FF6FF3422408C889A
:10168000240642EA14424EF6FF7423404DF6FF74DE
:1016900023400C8A240543EA14434C8A240543EA78
:1016A00014438380A0F81CC08C68C463028430BDDE
:1016B00030B5002200239446048C4EF6FF752C4072
:1016C0000484038CB0F804C0828B48F6FF74224077
:1016D0004FF6FF4422400C88240642EA14424DF69D
:1016E000FF7423408C89240743EA14434C88240761
:1016F00043EA1443FE4CA04202D0FE4CA04207D164
:101700004BF6FF740CEA040C0C8AA4054CEA144C4A
:10171000A0F804C082838C680464038430BD002177
:1017200001804180818081608181C181018241820B
:10173000704730B50346002084461846183001240F
:101740008C401FFA84FC1C8C6FEA0C05ADB22C4057
:101750001C8409B108290AD100EB610004684FF626
:101760008F752C4004600468144304600DE00C1F66
:10177000A4B200EB6400046848F6FF752C400460D6
:101780000468150644EA1544046030BD416370479F
:1017900081637047C1637047016470470A46002146
:1017A000018B4FF68F7319401143018370470A462E
:1017B0000021018B48F6FF731940130641EA1341DB
:1017C000018370470A460021818B4FF68F731940C1
:1017D0001143818370470A460021818B48F6FF73CD
:1017E0001940130641EA1341818370470A460021DC
:1017F000018B4FF6F77319401143018370470A4676
:101800000021018B4FF2FF731940130641EA134187
:10181000018370470A460021818B4FF6F773194008
:101820001143818370470A460021818B4FF2FF7379
:101830001940130641EA1341818370470A4600218B
:10184000018B4FF6FB7319401143018370470A4621
:101850000021018B4FF6FF331940130641EA134173
:10186000018370470A460021818B4FF6FB731940B4
:101870001143818370470A460021818B4FF6FF3365
:101880001940130641EA1341818370470A4600213B
:10189000018B4FF67F7319401143018370470A464D
:1018A0000021018BC1F30E01130641EA13410183AC
:1018B00070470A460021818B4FF67F731940114310
:1018C000818370470A460021818BC1F30E01130604
:1018D00041EA1341818370470A460021018C4FF68B
:1018E000FD7319401143018470470A460021018CA1
:1018F0004FF6F77319401143018470470A460021DF
:10190000018C4FF6DF731940130541EA134101843E
:1019100070470A460021018C4FF67F73194013056A
:1019200041EA1341018470470A460021018C4FF6B9
:10193000FF531940130641EA1341018470470A46D8
:101940000021018C4FF2FF731940130641EA134145
:10195000018470470A460021018C4DF6FF7319403F
:10196000130741EA13410184704730B50023012475
:101970008C40A3B2048CDD43ADB22C400484048CB3
:1019800002FA01F5ADB22C43048430BD30B500231A
:1019900004248C40A3B2048CDD43ADB22C400484FB
:1019A000048C02FA01F5ADB22C43048430BD828B65
:1019B0004FF2FF331A408283828B0B0642EA1342B6
:1019C00082837047F0B50C461546002100228C46F4
:1019D000068C4EF6FF773E400684818B028C2607EC
:1019E0004FEA164C40F6FF4631402E0641EA1641BA
:1019F0001E0741EA164145F6FF7632404CF4805608
:101A0000324381830284F0BD828B4FF6F3731A4018
:101A10008283828B0A4382837047F0B50C46154659
:101A2000002100228C46068C4FF6FF673E4006845C
:101A3000818B028C26064FEA164C4FF60C7631400D
:101A40001E0545EA164631434FF2FF5632404CF42C
:101A50008076324381830284F0BD028B4FF2FF33E4
:101A60001A400283028B0B0642EA1342028370473C
:101A7000F0B50C461546002100228C46068C4FF628
:101A8000EF773E400684018B028C26054FEA164C08
:101A900040F6FF4631401E0741EA16412E0641EA54
:101AA00016414FF65F7632404CF010063243018308
:101AB0000284F0BD028B4FF6F3731A400283028B4F
:101AC0000A430283704770B58C46144600210022F9
:101AD000058C4FF6FE7635400584018B028C4FF65F
:101AE0000C7529401D0544EA1545294304E0000012
:101AF00000000140000401404FF6F5752A404CF00B
:101B000001052A430183028470BD70B505460C4669
:101B1000208850B92389A28861882846FFF7D3FF1F
:101B2000E1882846FFF7C6FF25E0208804280AD16F
:101B30002389A28861882846FFF79AFFE188284612
:101B4000FFF78BFF17E0208808280AD12389A28895
:101B500061882846FFF761FFE1882846FFF754FFB8
:101B600009E02389A28861882846FFF72BFFE188D6
:101B70002846FFF71CFF70BD002101804180012134
:101B800081800021C180018170472DE9F041054627
:101B90000C4600260127608808B9022600E00026CE
:101BA000A088012801D1022700E001272088A0B9E0
:101BB0002389A28861882846FFF785FFE1882846A7
:101BC000FFF778FF23893A4631462846FFF750FF52
:101BD000E1882846FFF741FF13E02389A288618846
:101BE0002846FFF745FFE1882846FFF736FF23899F
:101BF0003A4631462846FFF766FFE1882846FFF758
:101C000059FFBDE8F0810146486B70470146886B7B
:101C100070470146C86B70470146086C70470A88D8
:101C20004B881A438B881A43CB881A430B891A4373
:101C30004B891A438B891A43A0F84420704700212E
:101C4000018041808180C180018141818181704713
:101C500031B1B0F8442042F40042A0F8442005E03D
:101C6000B0F84420C2F30E02A0F84420704721B11E
:101C7000828842F00402828004E082884FF6FB737F
:101C80001A408280704721B1828842F0010282802E
:101C900004E082884FF6FE731A408280704710B5C8
:101CA0001AB183890B43838104E08389CC43A4B2B6
:101CB0002340838110BD8182704702460020138A31
:101CC0000B4201D0012000E000207047CA4302828D
:101CD000704710B50246002000238446148A04EAA7
:101CE0000103948904EA010C23B1BCF1000F01D077
:101CF000012000E0002010BDCA430282704741EA83
:101D00000203A0F84830704710B51AB183890B431D
:101D1000838104E08389CC43A4B22340838110BD36
:101D200021B1828842F00802828004E082884FF666
:101D3000F7731A408280704701894FF6F87211409C
:101D4000018170470A46002101894FF68F731940BF
:101D500011430181704730B504460D46294620469F
:101D6000FFF7F0FF208940F00700208130BD2DE90A
:101D7000F04104460D4616461F46602D06D13B46EF
:101D8000012231462046FFF773FE05E03B46012263
:101D900031462046FFF797FE29462046FFF7D2FF3F
:101DA000208940F007002081BDE8F08110B58C4605
:101DB00000210189C9B21C0642EA144444EA0C0419
:101DC0002143018110BD2DE9F04105460E4617461D
:101DD0009846002443463A4631462846FFF7E6FF38
:101DE0002C894FF6F870044044F007044FF68F70CA
:101DF000044044F070042C81BDE8F081F0B5044645
:101E00000D4616461F463B46324629462046FFF7FA
:101E1000CDFF208940F480402081F0BD82884FF6BC
:101E20008F731A40828082880A43828070470289B9
:101E30004FF6F8731A40028102890A430281704703
:101E400002894FF67F731A40028102890A43028198
:101E5000704770B58C4614461D46002100220023B1
:101E60000189028B038C4FF6F876314041EA0C0170
:101E70004FF6FC46324040F2011632434FF6DD7613
:101E800033402E0544EA164633430181028303841E
:101E900070BD21B1828842F08002828004E0828895
:101EA0004FF67F731A4082807047A0F85010704739
:101EB00010B50446F848844208D101211020FEF7ED
:101EC0002BFF00211020FEF727FF3EE0F34884425D
:101ED00009D101214804FEF70EFF00214FF4003024
:101EE000FEF709FF31E0EE48844209D10121880460
:101EF000FEF701FF00214FF48020FEF7FCFE24E0F6
:101F0000E848844209D10121C804FEF7F4FE00210B
:101F10004FF40020FEF7EFFE17E0E348844209D1BA
:101F200001210805FEF7E7FE00214FF48010FEF7BF
:101F3000E2FE0AE0DD48844207D101212020FEF7BD
:101F4000EBFE00212020FEF7E7FE10BD2DE9FF4744
:101F500005460E460024A14600BFA046B08900B148
:101F600000BF2C8A24F44054F08804432C82AC89AE
:101F700041F20C608443B088318908437189084379
:101F80000443AC81AC8A24F44074B0890443AC822D
:101F90006846FEF787FDC048854202D0C3488542A7
:101FA00002D1DDF80C9001E0DDF80890A88910F46A
:101FB000004F08D009EBC90000EB09103168490057
:101FC000B0FBF1F707E009EBC90000EB091031683D
:101FD0008900B0FBF1F76420B7FBF0F004012009A1
:101FE000642101FB1078A88910F4004F08D032203A
:101FF00000EBC800B0FBF1F000F00700044308E07C
:10200000322000EB08106421B0FBF1F000F00F006B
:1020100004432C81BDE8FF874FF416510160002175
:102020008180C18001810C21418100218181704723
:1020300010B502460020108A20F470600B884C888E
:1020400023438C882343CC8823431843108210BD3C
:102050000021018041808180C180704721B1828947
:1020600042F40052828104E082894DF6FF731A40E7
:1020700082817047028B02F47F420283028B0A4303
:102080000283704721B1828942F40042828103E0D9
:102090008289C2F30E028281704721B1828A42F4A2
:1020A0000062828204E0828A4FF2FF731A408282C9
:1020B0007047C1F308028280704701468888C0F3E8
:1020C00008007047028A4FF6F0731A400282028AB3
:1020D0000A430282704721B1828942F00202828162
:1020E00004E082894FF6FD731A408281704782892D
:1020F0004FF2FF731A40828182890A4382817047BE
:10210000028A4FF6DF731A400282028A0A43028271
:10211000704721B1028A42F48042028204E0028ABE
:102120004BF6FF731A4002827047818941F001012A
:102130008181704721B1828A42F00802828204E0E4
:10214000828A4FF6F7731A4082827047028BD2B2AE
:102150000283028B42EA01220283704721B1828A04
:1021600042F02002828204E0828A4FF6DF731A4036
:102170008282704721B1828A42F01002828204E09A
:10218000828A4FF6EF731A4082827047828A4FF636
:10219000FB731A408282828A0A438282704721B18D
:1021A000828A42F00202828204E0828A4FF6FD7344
:1021B0001A408282704710B51AB1838A0B4383821A
:1021C00004E0838ACC43A4B22340838210BD70B55F
:1021D00003460024A44600250020A1F510666A3EAF
:1021E00000D100BF1846C1F3421401F01F0C0126B4
:1021F00006FA0CF5012C01D10C3004E0022C01D1BF
:10220000103000E014301AB106682E43066002E078
:102210000668AE43066070BD02460020B1F5007F3F
:1022200000D100BF13880B4201D0012000E0002044
:10223000704701F40072B2F5007F00D100BFCA43BD
:102240000280704730B50246002400239C460020DF
:10225000A1F510656A3D00D100BFC1F3421C01F039
:102260001F03012505FA03F3BCF1010F02D1958983
:102270002B4007E0BCF1020F02D1158A2B4001E090
:10228000958A2B400C12012505FA04F415882C4080
:1022900073B16CB101200CE000100140004400401B
:1022A00000480040004C0040005000400014014035
:1022B000002030BD10B500220023A1F510646A3C57
:1022C00000D100BF0A1201249440A3B2DC43048071
:1022D00010BD0000FEF717F84FF4A060FEF7CEF82F
:1022E00000F062FAC82000F037FA4FF4FA7000F0FC
:1022F000BEF94FF47A3000F0AEFE00F0B5FF01F009
:102300001EF8052000F0F8F80A2000F046F94FF416
:102310007A7000F078F9002004490870044800F051
:1023200039FE00F07CFE00BFFEE700002500002023
:1023300000CA0800704700BFFEE700BFFEE700BF0D
:10234000FEE700BFFEE770477047704710B50120F9
:10235000FEF77AF928B10120FEF787F90120FEF790
:102360006FF910BD10B50220FEF76EF928B10220FA
:10237000FEF77BF90220FEF763F910BD10B50121CD
:102380004F48FFF7A6FC28B101214D48FFF7B4FCE8
:1023900000F018FB10BD10B501214A48FFF799FC69
:1023A00038B101214748FFF7A7FC00F086FA00F09A
:1023B000DDFA10BD10B501214348FFF78AFC40B19A
:1023C00001214148FFF798FC40480078401C3F49F4
:1023D000087010BD10B52DED088B01213C48FFF7AA
:1023E00078FC002868D001213948FFF785FC39487E
:1023F0000088401C3749088008460088012808D119
:1024000001213548FEF71EFA02213348FEF71AFA79
:1024100052E03048008802284BD101212E48FEF7B7
:102420000FFA02212C48FEF70BFA002029490880F8
:102430002A48006802F07EFB41EC100BB0EE40AA87
:10244000F0EE60AA9FED260B53EC102B51EC1A0B0B
:1024500002F018FA41EC100BB0EE409AF0EE609AE0
:102460009FED210B53EC102B51EC190B02F076FB76
:1024700041EC100BB0EE408AF0EE608A9FED1A0B33
:1024800053EC102B51EC180B02F066FC41EC100BD6
:10249000B0EE40BAF0EE60BA51EC1B0B02F018F946
:1024A0001349086001201349087000200B49086097
:1024B00002E0002007490880BDEC088B10BD000039
:1024C00000040040001000400014004025000020DF
:1024D000001800402E0000200004024034000020BC
:1024E0000000000079D8624100000000000059405F
:1024F0003C000020380000201FB504461D208DF848
:102500000C0002208DF80D008DF80E0001208DF8D2
:102510000F0003A8FDF7B7FF01210220FEF786FB9D
:102520009448FEF78DFE600001904AF20F40ADF82E
:1025300000000020ADF80800ADF8020069468D48A3
:10254000FEF72BFF01218B48FFF7C0FB012211464C
:102550008848FFF7A4FB01218648FEF7A7FF1FBDAF
:1025600085480078401C84490870084600783C285B
:1025700006D10020087081480078401C7F4908700F
:102580007E4800783C2807D100207C4908707C48B0
:102590000078401C7A49087070471FB50446362001
:1025A0008DF80C0002208DF80D008DF80E00012032
:1025B0008DF80F0003A8FDF766FF01211020FEF73C
:1025C00035FB7048FEF73CFE04EB840040000190B0
:1025D00042F2CF00ADF800000020ADF80800ADF8E1
:1025E000020069466748FEF7D8FE01216548FFF7FB
:1025F0006DFB012211466348FFF751FB0121614841
:10260000FEF754FF1FBD1FB5044637208DF80C00A0
:1026100002208DF80D008DF80E0001208DF80F00BE
:1026200003A8FDF730FF01212020FEF7FFFA5648EE
:10263000FEF706FE600001904AF20F40ADF8000080
:102640000020ADF80800ADF8020069464E48FEF7DC
:10265000A4FE01214C48FFF739FB012211464A48EC
:10266000FFF71DFB01214848FEF720FF1FBD1FB5E6
:1026700004462B208DF80C0003208DF80D0001205E
:102680008DF80E008DF80F0003A8FDF7FCFE012168
:102690004020FEF7CBFA3D48FEF7D2FD04EB840064
:1026A0004000019042F2CF00ADF800000020ADF8EC
:1026B0000800ADF8020069463448FEF76EFE0121BD
:1026C0003248FFF703FB012211463048FFF7E7FAD3
:1026D00001212E48FEF7EAFE1FBD0246002100E060
:1026E000491C9142FCD388B27047012028490870E8
:1026F000704770B50346002025490870A82003FBE9
:1027000000F1B1F1807F00D31DE021F07F40401E39
:102710004FF0E022506150170F22002807DA14070B
:10272000260E1C4C00F00F052D1F665503E0140704
:10273000250E194C255400BF00204FF0E022906177
:102740000720106100BF00BF114800780028FBD0AF
:1027500000200F49087070BD30B50446002500BF49
:1027600004E04FF47A70FFF7C4FF6D1CA542F8D364
:1027700030BD000000040040310000203200002085
:1027800033000020001000400014004000180040FA
:102790003000002018ED00E000E400E010B5012159
:1027A0007F20FEF710FA10BD1CB501210220FEF7B4
:1027B0000AFA01208DF8040000208DF806008DF83B
:1027C00005008DF80700032000906946FE48FDF7DC
:1027D000C3FF0121FC48FEF733F80221FA48FEF757
:1027E0002FF81CBD10B5F948007838B10020F74922
:1027F00008700121F448FEF725F806E00120F349AE
:1028000008700121F048FEF71BF810BD10B5F04824
:10281000007838B10020EE4908700221EA48FEF73E
:1028200011F806E00120EA4908700221E648FEF7A7
:1028300007F810BD10B502460023002000BF28E0B5
:10284000184621E002EB8004D4ED000A441C02EBA0
:10285000840494ED001AF4EEC10AF1EE10FA11DDD1
:1028600002EB800494ED000A441C02EB8404D4EDD6
:10287000000A02EB8004C4ED000A441C02EB84044D
:1028800084ED000A441CE0B24C1E8442DADC5C1C7D
:10289000E3B28B42D4DB10BD10B503468C4600205A
:1028A0000CF0FF0104E05C5C0444E0B24C1CE1B2BB
:1028B0009142F8DDC443E0B210BD00B5EE20C54939
:1028C0000870487050208870C3480078C870C248AB
:1028D00040780871C04880784871BF48C0788871D6
:1028E000BD480079C871BC4840790872BB4800787F
:1028F0004872BA4840788872B8488078C872B74839
:10290000C0780873B54800794873B4484079887333
:102910000E220321AF48FFF7BFFFAE49C873B0488E
:1029200000780874AE4840784874AD488078887460
:10293000AB48C078C874AA4800790875A84840799F
:102940004875002088751920C87517221021A148E4
:10295000FFF7A2FF9F490876412048764F208876EE
:102960000020C8761C209F49087000BD9948007857
:102970009D490880704770B504460D4600218C467D
:102980000020294603E0665CB4444E1CF1B291423B
:10299000F9DD6FEA0C00060E1E70060C5E70060A6A
:1029A0009E70D87070BD30B50146C1F340330BB98D
:1029B000084606E08CB2641E43F6FF7525EA040261
:1029C000504230BD10B52DED068B90B0182287A176
:1029D0000AA800F0ADFE00241FE04FF480517A48B1
:1029E000FDF730FF4FF4FA70FFF777FE0AA9085D94
:1029F00000F0BBFC04A90855641C0AA9085D00F09E
:102A0000B4FC04A908554FF480516F48FDF718FF36
:102A10004FF4FA70FFF761FE641C152CDDDD9DF8A4
:102A20001200000200B29DF8131008437549088097
:102A30009DF81400000200B29DF81510084371497A
:102A400048809DF81600000200B29DF81710084358
:102A50006C4988809DF81800000200B29DF819109A
:102A60000843694908809DF81A00000200B29DF8E9
:102A70001B100843644948809DF81C00000200B206
:102A80009DF81D100843604988809DF81E000002D3
:102A900000B29DF81F1008435C4908809DF8200093
:102AA000000200B29DF821100843584948809DF863
:102AB0002200000200B29DF8231008435349888089
:102AC00050480088C0F30D004E49088008464088F1
:102AD000C0F30D00488008468088C0F30D00888050
:102AE00049480088C0F30D004749088008464088DF
:102AF000C0F30D00488008468088C0F30D00888030
:102B000042480088C0F30D004049088008464088CC
:102B1000C0F30D00488008468088C0F30D0088800F
:102B20003849B1F90000FFF73EFF36490880B1F996
:102B30000200FFF738FF33494880B1F90400FFF77E
:102B400032FF304988803049B1F90000FFF72BFF90
:102B50002D490880B1F90200FFF725FF2A49488076
:102B6000B1F90400FFF71FFF274988802749B1F911
:102B70000000FFF718FF25490880B1F90200FFF7B0
:102B800012FF22494880B1F90400FFF70CFF1F49EA
:102B900088801C480088000A0F490870194800887E
:102BA000487018484088000A887016484088C870E5
:102BB00014488088000A08711248808848711248B9
:102BC0000088000A054923E000040240400000207C
:102BD00041000020700000205A0000205400002016
:102BE000600000202400002004440040040006008F
:102BF00008000A000C000E001000120014003C0037
:102C00000000000048000020420000204E0000208C
:102C10000870A74800884870A5484088000A887056
:102C2000A3484088C870A2488088000A0871A0485C
:102C3000808848719F480088000A9F4908709D4815
:102C40000088000A48709B484088000A88709948AC
:102C50004088000AC87097488088000A0871954823
:102C60008088000A48719548B0F9000000EE100A0B
:102C7000B8EEC00ADFED920A20EE200A9FED911A0D
:102C8000C0EE010A9FED900A20EE800A8F4880ED89
:102C9000000A8A48B0F9020000EE100AB8EEC00A35
:102CA000DFED870A20EE200ADFED860A80EE201A8B
:102CB0009FED850A21EE000A844880ED010A7F48D5
:102CC000B0F9040000EE100AB8EEC00ADFED7C0A8D
:102CD00020EE200ADFED7B0A80EE201A9FED7A0AB3
:102CE00021EE000A794880ED020A7148B0F900002F
:102CF00000EE100AB8EEC00ADFED750A80EE201A69
:102D00009FED740A21EE000A734880ED000A6848BE
:102D1000B0F9020000EE100AB8EEC00ADFED6C0A4E
:102D200080EE201A9FED6B0A21EE000A6A4880EDC2
:102D3000010A5F48B0F9040000EE100AB8EEC00ABC
:102D4000DFED630A80EE201A9FED620A21EE000A91
:102D5000614880ED020A5748B0F9000000EE100A01
:102D6000B8EEC00AF6EE000A80EE201A5B4880ED4D
:102D7000001A5048B0F9020000EE100AB8EEC00A7E
:102D8000F6EE000A80EE201A544880ED011A4948F8
:102D9000B0F9040000EE100AB8EEC00AF6EE000A20
:102DA00080EE201A4D4880ED021A4B488168084693
:102DB00002F0C8F841EC100BB0EE409AF0EE609AC9
:102DC00045484168084602F0BDF841EC100BB0EEF2
:102DD000408AF0EE608A40480168084602F0B2F886
:102DE00041EC100BB0EE40AAF0EE60AA8DED029B14
:102DF0008DED008B53EC1A2B39A000F0DDFB33482E
:102E00008168084602F09EF841EC100BB0EE409A43
:102E1000F0EE609A2D484168084602F093F841ECC4
:102E2000100BB0EE408AF0EE608A28480168084630
:102E300002F088F841EC100BB0EE40AAF0EE60AA68
:102E40008DED029B8DED008B53EC1A2B33A000F01F
:102E5000B3FB22488168084602F074F841EC100B7D
:102E6000B0EE408AF0EE608A1C484168084602F0E5
:102E700069F841EC100BB0EE409AF0EE609A1748FA
:102E80000168084602F05EF841EC100BB0EE40AA73
:102E9000F0EE60AA8DED028B8DED009B53EC1A2BAA
:102EA0002DA000F089FB10B0BDEC068B10BD00001A
:102EB000420000204E00002060000020480000205A
:102EC000CDCC4C3D00003443DA0F4940980000203F
:102ED000CDCC1C41213C5A3B8C000020A40000209A
:102EE0006163637820203D2025352E336620202025
:102EF000202020202061636379203D2025352E335A
:102F00006620202020202020206163637A203D203D
:102F100025352E33663B200D0A0000006779726F5D
:102F200078203D2025352E336620202020202020AB
:102F3000206779726F79203D2025352E3366202059
:102F400020202020206779726F7A203D2025352EA1
:102F500033663B200D0A00006D61676E78203D20CE
:102F600025352E336620202020202020206D61670B
:102F70006E79203D2025352E33662020202020200C
:102F8000206D61676E7A203D2025352E33663B200B
:102F90000D0A000010B586B0044601210846FDF771
:102FA00012FE01214804FDF741FE07220221644878
:102FB000FDF755FC072203216148FDF750FC0C206A
:102FC000049000208DF815008DF8160001208DF872
:102FD000170002208DF8140004A95948FDF7BCFB26
:102FE00000940020ADF80400ADF80600ADF808002C
:102FF000ADF80C000C20ADF80A0069465148FEF708
:10300000A5FF01214F48FFF729F840214D48FFF760
:1030100010F920214B48FFF70CF906B010BD08B598
:1030200026208DF8000002208DF8010001208DF887
:1030300002008DF803006846FDF725FA012240F2F0
:1030400026614048FFF7C3F8002240F225513D4871
:10305000FFF7BDF808BD10B586B004460121042075
:10306000FDF7B1FD01212020FDF7F1FD0822062129
:103070003548FDF7F4FB082207213348FDF7EFFB45
:10308000C020049000208DF8150001208DF8160056
:103090008DF8170002208DF8140004A92A48FDF7C6
:1030A0005BFB00940020ADF80400ADF80600ADF81D
:1030B0000800ADF80C000C20ADF80A006946234862
:1030C000FEF744FF01212148FEF7C8FF40211F48B9
:1030D000FFF7AFF820211D48FFF7ABF806B010BD91
:1030E00008B547208DF8000003208DF801008DF809
:1030F000020001208DF803006846FDF7C4F90022A4
:1031000040F226611148FFF762F8002240F2255193
:103110000E48FFF75CF808BD014600BF704770B568
:1031200004460D4600BF40210848FFF775F8002807
:10313000F9D0E0B20549091D0880204670BD0000A5
:10314000000002400044004000080240001401401A
:1031500000B587B001210803FDF779FD012108467C
:10316000FDF731FD05221146D448FDF778FB052215
:103170000621D248FDF773FB05220721CF48FDF752
:103180006EFB02208DF8180000208DF81A00012037
:103190008DF81B0002208DF81900E020059005A98C
:1031A000C648FDF7D9FA01208DF8180000208DF8E7
:1031B0001A008DF81B0002208DF8190010200590D0
:1031C00005A9BE48FDF7C8FA1021BC48FDF738FB39
:1031D000BB48FDF735FE0020ADF80000ADF8040057
:1031E0000220ADF806000120ADF808004002ADF85D
:1031F0000A001820ADF80C000020ADF80E000720E2
:10320000ADF810004FF48270ADF802006946AC488A
:10321000FDF73CFE0121AA48FDF716FF07B000BDEF
:1032200008B523208DF8000001208DF80100002052
:103230008DF8020001208DF803006846FDF723F9A0
:1032400008BD014600BF9E48008910F0020FFAD069
:103250009B48818100BF9A48008910F0010FFAD085
:1032600097488089C0B2704700B587B001218803B4
:10327000FDF7DCFC01210220FDF7A5FC05220D2154
:103280009048FDF7ECFA05220E218E48FDF7E7FA8B
:1032900005220F218B48FDF7E2FA02208DF8180075
:1032A00000208DF81A0001208DF81B0002208DF8F7
:1032B00019004FF46040059005A98248FDF74CFACB
:1032C00001208DF8180000208DF81A0001208DF8DB
:1032D0001B0002208DF81900C002059005A979484D
:1032E000FDF73AFA4FF480517648FDF7A9FA76488F
:1032F000FDF7A6FD0020ADF80000ADF804000220A7
:10330000ADF806000120ADF808004002ADF80A0053
:103310002820ADF80C000020ADF80E000720ADF815
:1033200010004FF48270ADF8020069466648FDF760
:10333000ADFD01216448FDF787FE07B000BD08B56B
:1033400024208DF8000001208DF8010000208DF868
:10335000020001208DF803006846FDF794F8012271
:1033600060215948FDF71BFF08BD014600BF5648C4
:103370000830008810F0020FF9D053480C3001805B
:1033800000BF51480830008810F0010FF9D04E48B6
:103390000C300088C0B2704700B587B00121C80367
:1033A000FDF744FC01210420FDF70DFC06220A2153
:1033B0004648FDF754FA06220B214448FDF74FFA20
:1033C00006220C214148FDF74AFA02208DF8180028
:1033D00000208DF81A0001208DF81B0002208DF8C6
:1033E00019004FF4E050059005A93848FDF7B4F9ED
:1033F00001208DF8180000208DF81A0001208DF8AA
:103400001B0002208DF819000003059005A92F4824
:10341000FDF7A2F94FF400512C48FDF711FA2C48A2
:10342000FDF70EFD0020ADF80000ADF80400ADF88A
:103430000600ADF808004FF40070ADF80A0038201F
:10344000ADF80C000020ADF80E000720ADF810001C
:103450004FF48270ADF8020069461D48FDF716FD75
:1034600001211B48FDF7F0FD07B000BD08B5332072
:103470008DF8000000208DF8010002208DF8020078
:1034800001208DF803006846FCF7FDFF08BD0146EA
:1034900000BF0F480830008810F0020FF9D00C4828
:1034A0000C30018000BF0A480830008810F0010F7E
:1034B000F9D007480C300088C0B2704700000240C5
:1034C0000030014000040240003800400008024083
:1034D000003C004010B540F226613148FEF7B2FED4
:1034E000E8B140F226612E48FEF7E4FE40212C4868
:1034F000FEF79FFE2B4800782B49097888420BDAAB
:10350000284801780078401C264A10702748445CFF
:103510002348001D048002E001202249087040F287
:1035200025511F48FEF78EFE40B140F225511C4840
:10353000FEF7C0FE20211A48FEF77BFE082118483E
:10354000FEF76AFE10B11648FEF7B7FD10BD10B5C4
:1035500040F226611648FEF775FE40B140F2266142
:103560001348FEF7A7FE40211148FEF762FE40F225
:1035700025510F48FEF766FE40B140F225510C4838
:10358000FEF798FE20210A48FEF753FE082108485E
:10359000FEF742FE10B10648FEF78FFD10BD000099
:1035A000004400406C000020240000207000002037
:1035B00000140140704700000FB4044910B503AA7D
:1035C000029800F0FBFA10BC5DF814FB68000020C4
:1035D00070B5044685690068C10601D5302600E053
:1035E0002026C00708D070BDD4E90121304690479D
:1035F000206A00F1010020626D1EF5D570BD70B526
:10360000044685690068C00708D170BDD4E901216E
:1036100020209047206A00F1010020626D1EF5D540
:1036200070BD2DE9F0474FF0000A04468946C0F806
:1036300020A02046E1688847002876D0252806D0BB
:10364000D4E901219047206A401C2062F1E7E1683B
:10365000204600258847C4F81CA006460027C4F869
:1036600018A02A2E09D0304601F015F838B304EB23
:103670008708303EC8F8186019E059F8041B204646
:1036800004EB87029161E1688847012F064618D153
:10369000E069002820DA25F020051DE0D8F81800A0
:1036A00000EB800006EB40003038C8F818002046D8
:1036B000E1688847064600F0EEFF0028EED1012FB2
:1036C0000AD02E2E08D12046E16888477F1C064686
:1036D000022F45F02005C4DBA069002803DA404230
:1036E00045F00105A061E80701D025F01005B6B14D
:1036F000A6F14100192802D8203645F400654A4653
:103700003146204625604D46FCF778FD58B101282A
:1037100006D0ED1D25F0070000F1080989E704E057
:1037200005F1040985E730468AE7206ABDE8F0879D
:1037300010B5203AC0F00B80B1E81850203AA0E84C
:103740001850B1E81850A0E81850BFF4F5AF5FEA80
:10375000027C24BFB1E81850A0E8185044BF18C933
:1037600018C0BDE810405FEA827C24BF51F8043BDA
:1037700040F8043B08BF7047D20728BF31F8023B2E
:1037800048BF11F8012B28BF20F8023B48BF00F8C2
:10379000012B7047704770477047704770472DE99D
:1037A000FF4F0C461E464FF0FF378BB0D2E90001A9
:1037B000DDF860800A908A46C1F30A5505B93D4696
:1037C000002108464FF00000BAF1000F00F440005D
:1037D00005DA00EB80004FF4400101EA50004FEAA7
:1037E0009059B9F1010F00DDB9460A9850EA4A0034
:1037F0000FD044F61050A5F2FF3545432F14B8F111
:10380000000F1FD07542291E1FDD4846C9F1000276
:103810001CE0B8F1010F4FF0000001D1F24307E0C6
:10382000302101E02154401CB042FBDB3046002235
:10383000002121540B99C1F80880C1E900200FB084
:10384000BDE8F08FBD1B6D1CDDE74A4600DA69421A
:1038500006A800F067FA06AB07CB03AB07C35046D8
:103860000A9900F045FB8DE80700A0F500501F38CD
:1038700000900398002D09DD42F21F014A460844DA
:1038800003A90390684600F0A4FD08E0A0F50050ED
:103890004A461F3803A90390684600F0AEFD8DE844
:1038A00007000004000C03D04FF0FF30410800E097
:1038B0001046B8F1000F03D00022009215461FE019
:1038C000751E06D400F090F902F1300262556D1EAB
:1038D000F8D5B3460122084302D000227F1C04E041
:1038E0002078302801D100227F1E002A099786D037
:1038F0001DE0112D07DA00F077F9303262556D1CAA
:1039000050EA0102F5D108430FD10021681E05E0FD
:10391000235C625C6354491C2254401E8142F7DBE5
:10392000AB46A81B401E099001E0009848B100205A
:1039300004F80B000B98099AC0F80880C0E9002B26
:103940007DE711264FF0000859E72DE9F04F884632
:103950000446D21D22F0070191B0D1E90001CDE962
:103960000A0100F080FE02460B98C00F01D02D2006
:1039700007E02068810701D52B2002E0202101EA21
:10398000C000032A099001D0072A05DB03464146FF
:10399000204600F087F90EE12068800601D5E06935
:1039A00000E00620B8F1650F814606D0B8F1660F39
:1039B00018D0B8F1670F72D132E00020B9F1110FC1
:1039C000009001DB112301E009F101030AAA01A91A
:1039D0000CA8FFF7E4FEDDE90C70002609F10105F3
:1039E000834648E001204B4600904FF000470AAA6A
:1039F00001A90CA8FFF7D3FEDDE90C050E990026FE
:103A0000AB4619B909F1010100EB0105B9EB05005D
:103A100003D4C0F1FF3609F10105A5EB09002BE045
:103A2000B9F1010F01DA4FF001090020B9F1110FCE
:103A30000090484601DD112300E003460AAA01A9CF
:103A40000CA8FFF7ACFEDDE90C704D46002683465E
:103A5000206800070AD4AB4500DA5D4601A8012DB5
:103A600004DD411911F8011C302907D04F4502DA55
:103A700017F1040F04DA0120824610E06D1EEEE714
:103A8000002F02DCED1B3E4403E0781CA84200DD61
:103A90000546A7EB060000F1010A4FF00047206839
:103AA000000703D4AA4501DB4FF0FF3A0021B7F12C
:103AB000004F0DF143088DF8431022D002202B2334
:103AC000002F01DA7F422D230A22011EA0F10100FE
:103AD00000DC4FB197FBF2F102FB117C0F460CF1B9
:103AE000300C08F801CDF0E7A8F10100037021685F
:103AF000090501D5452100E06521A0F1010800F884
:103B0000011C09980FA9A1EB080707F1070700B1ED
:103B1000012000EB050101EBEA70A1693844A1EB3B
:103B20000000A0F10100A0612068C00602D4204678
:103B3000FFF74EFD099830B1D4E901219047206A82
:103B400000F1010020622068C00620D52046FFF762
:103B50003FFD1CE0002E04DBB34502DD01A8805DC3
:103B600000E03020D4E901219047206A761C401CF7
:103B7000BAF1010A20620AD100F032F8C068016887
:103B8000405CD4E901219047206A401C2062281E35
:103B9000A5F10105DEDC07E0D4E9012118F8010BED
:103BA0009047206A401C2062381EA7F10107F3DC11
:103BB0002046FFF724FD022011B041E6074B70B507
:103BC0000C467B4400F05BF80546204600F01CF9EB
:103BD00010B14FF0FF3070BD284670BD59F5FFFFA2
:103BE00000487047D000002030B5B0F10A024FEA1B
:103BF000900E71F100034EEA817EB0EB0E0061EB96
:103C000091014FEA101E4EEA017E10EB0E0041EBCF
:103C100011114FEA102E4EEA016E10EB0E0041EB2F
:103C200011214FEA104E4EEA014E10EB0E0041EB0F
:103C30001141401841F100014FEAD00040EA4170C3
:103C40004FEAD10110EB80054FEA810444EA9074F9
:103C500044EB01046D1944EB0404521BA3414FF0E3
:103C6000000348BF0A3200D530BD401C41F10001BD
:103C700030BD000001694A1C02610878704700B538
:103C80008FB0CDE901310021059105497944CDE995
:103C9000031011466846FFF7C4FC0FB000BD0000DA
:103CA000E5FFFFFF2DE9F04104461F4603260168AA
:103CB000072A01F4006004DB08B116A505E016A58B
:103CC00003E008B115A500E015A521F01000206063
:103CD000A069C01EA0610FB1401EA0612046FFF781
:103CE00077FC4FB1D4E9012138469047206A401C47
:103CF0002062C01C206206E0206AFAE7D4E90121B4
:103D000015F8010B9047761EF8D22046FFF777FC96
:103D1000BDE8F0814E414E006E616E00494E460096
:103D2000696E66002DE9F047814616468AB035482F
:103D30007844D0E9002380680092CDE90130314811
:103D400078440C38D0E90223006903924FF037021F
:103D5000CDE9043041F69B30014491FBF2F0A0F133
:103D6000800502FB10141B3C02D56442012000E0D8
:103D70000020DFF890A080460027FA44AAF1C60A86
:103D80000DE0E00709D03246684607EB47010AEB31
:103D9000810100F032FB8DE8070064107F1C002CCD
:103DA000EFD1184F7F44B43F17E0E80713D007EB7B
:103DB00004100DF1180A90E80E00AAE80E00C06881
:103DC000F04201D198190890324606A903A800F0E4
:103DD00014FB03AB07C36D10641C002DE5D1324604
:103DE0006946B8F1000F03A802D000F0F2FA01E032
:103DF00000F003FBC9E90001C9F808200AB0BDE8DA
:103E0000F087000088130000C06800F08000704751
:103E100000487047B00000207546FFF7F9FFAE4636
:103E200005006946534620F00700854618B020B5C6
:103E3000FCF712FBBDE820404FF000064FF00007F2
:103E40004FF000084FF0000B21F00701AC46ACE842
:103E5000C009ACE8C009ACE8C009ACE8C0098D46AF
:103E600070470446AFF300802046FCF7E3F90000FA
:103E70004FF0013C50F8042B51F8043B9A4221D1F9
:103E8000A2EB0C03934313EACC1317D150F8042B85
:103E900051F8043B9A4215D1A2EB0C03934313EA69
:103EA000CC130BD150F8042B51F8043B9A4209D1A2
:103EB000A2EB0C03934313EACC13DBD04FF00000CA
:103EC000704700BFD01A01BAB1FA81F101F01801B0
:103ED00022FA01F0CB40C1F12001DBB2C0B2C01A1E
:103EE0002CFA01F3D11A914311EAC311E6D17047BC
:103EF0005FEA400C08BF91F0000F4FEA8C234FEAB5
:103F0000C12243EA51514FEA1C5018BF00F5F0405E
:103F10004FEA300018BF41F000415FEA6C5C00F0EE
:103F20002980BCF1FF3F08BF40F080407047130C70
:103F300006BF12044FF0100C4FF0000C130E04BF1C
:103F400012020CF1080C130F04BF12010CF1040C47
:103F5000930F04BF92000CF1020CD30F04BF520068
:103F60000CF1010C11464FF00002A0F11F00A0EB74
:103F70000C00704711F0004F08BF704731F000414E
:103F80003FF4D5AF0B0C06BF09044FF0100C4FF0F7
:103F9000000C0B0E04BF09020CF1080C0B0F04BF40
:103FA00009010CF1040C8B0F04BF89000CF1020C09
:103FB000CB0F04BF49000CF1010CCCF12003A0EBA6
:103FC0000C0022FA03F302FA0CF241EA030100F1B9
:103FD0000100704720F07F4C80EA030023F07F4708
:103FE000ACEB070303F57C5300F0004003F1FF0343
:103FF0002DE980494FEA154B09B44FEA144325EAED
:104000000B4E24EA03480FF2042606EB1327490857
:104010003E785FEA320203FB0667C7F5000707FB3D
:1040200006F64FEA54374FEAD64606F1020607FB7A
:10403000066CCCF1005C4FEA1C472CEA074C07FBEE
:1040400006F40CFB06F504EB15464FEA961634BF52
:1040500000204FF000404FEAD13706FB07FC4FEA43
:104060001C4C0CFB0BF7D21B03FB0CF761EB07019D
:104070000CFB0EF7B0EB074072EB17420CFB08F796
:1040800034BFA2EB0742B2EB074261EB17414FEAA4
:104090000C444FEA910706FB07FC4FEA1C4C0CFB53
:1040A0000BF7B0EBC74072EB573203FB0CF734BF92
:1040B000A2EBC742B2EBC74261EB57310CFB0EF7E4
:1040C000B0EBC70072EB57720CFB08F734BFA2EBE2
:1040D000C702B2EBC70261EB5771039F4FEA8161E0
:1040E00041EA921104EBCC044FEAD1374FEA8262E5
:1040F00006FB07FC42EA90124FEA80604FEA1C4C34
:104100000CFB0BF7D21B03FB0CF761EB07010CFB5D
:104110000EF7B0EB074072EB17420CFB08F734BF09
:10412000A2EB0742B2EB074261EB17414FEA8C5515
:104130004FEA910704EB9C2406FB07FC4FEA1C4C5A
:104140000CFB0BF7B0EBC74072EB573203FB0CF7DD
:1041500034BFA2EBC742B2EBC74261EB57310CFB55
:104160000EF7B0EBC70072EB57720CFB08F734BFC9
:10417000A2EBC702B2EBC70261EB577115EB4C25FE
:104180004FEA816141EA92114FEA82624FEAD137E8
:1041900042EA901206FB07FC44F100044FEA8060FB
:1041A0004FEA1C4C0CFB0BF7D21B03FB0CF761EB2B
:1041B00007010CFB0EF7B0EB074072EB17420CFB4C
:1041C00008F734BFA2EB0742B2EB074261EB17419D
:1041D00015EB1C154FEA813141EA92414FEA8232D8
:1041E00042EA90424FEA80304FEA0C7644F10004F4
:1041F00048EA03434EEA0B484FF0000EB2EB080CBE
:1042000071EB030724BF624639464EEB0E0E4FF0AA
:10421000000B0018524149414BEB0B0BB2EB080C61
:1042200071EB03077BF1000B24BF624639464EEB6E
:104230000E0E4FF0000B0018524149414BEB0B0B97
:10424000B2EB080C71EB03077BF1000B24BF624655
:1042500039464EEB0E0E51EA020718BF46F0010632
:1042600016EB0E7655F1000254F1000103D5BDE8BE
:104270008901BDE80088BDE88901BDE80048B6199C
:10428000524141EB0101A3F10103704780807F7E21
:104290007D7C7B7A797877767675747372717170BC
:1042A0006F6E6E6D6C6C6B6A6A696868676666656E
:1042B0006464636362616160605F5F5E5E5D5D5CFC
:1042C0005C5B5B5A5A59595858575756565555556D
:1042D0005454535352525251515050504F4F4F4ECD
:1042E0004E4D4D4D4C4C4C4B4B4B4A4A4A4949491B
:1042F000484848474747474646464545454444445D
:10430000444343434342424242414141002B26D46D
:10431000770021D01CB54FEA370703B44FF01000E7
:104320004FF010014FF000000FBCBDE810400BF142
:10433000010BBBF1010F08BF5FEA170722BF12F1A3
:10434000010211F101014FF0004143F1000300F0BF
:10435000004043EA00007047F9D35708DAE746EA1D
:10436000064613F1400F4FEA16461FDD13F1200FEA
:10437000DFBF16430A46002120335B42C8D0C3F199
:10438000200746EA064602FA07F74FEA164646EACB
:104390000706C3F1200722FA03F201FA07F721FA10
:1043A00003F14FF0000342EA0702B1E746EA0206D2
:1043B00046EA06464FEA164646EA0106BCBF46EA0A
:1043C0000646360C4FF000034FF000024FF000019C
:1043D0009EE72DE9C048934630B491E8380007C8FD
:1043E00031EA400C48BF34EA430C03D5FFF7F2FD35
:1043F000FFF78CFFF0BCBDE800882DE9C04893466C
:1044000030B491E8380007C810F0804F08BF13F0AF
:10441000804F03D100F005F8FFF778FFF0BCBDE84E
:10442000008820F07F4780EA030023F07F4C07EBF1
:104430000C03A3F57C5300F00040A3F1FE0392F0BF
:10444000000F00F0B38095F0000F00F077802DE9A9
:1044500001494FEA11404FEA144621EA004800FBA7
:1044600006FC24EA064708FB06F607FB08F800FBF3
:1044700007F718EB06484CEB164C4FEA124B18EBBB
:1044800007484FEA15464CEB174022EA0B4E0BFB50
:1044900006FC25EA06470EFB06F607FB0EFE0BFBA5
:1044A00007F71EEB064E4CEB164C4FF000061EEBCA
:1044B000074E4CEB174B18EB0B0840F1000018EBC4
:1044C0000E0B58EB000840F100008F1A4FF000016E
:1044D0003CBFC943661B14BFB5EB040C00213CBFB5
:1044E000C943F61B4FEA17444EEA8E0E27EA0445ED
:1044F0004FEA1C4704FB07622CEA074C05FB07F751
:104500000CFB05F604FB0CFC16EB074642EB1742CE
:1045100016EB0C4642EB1C421BEB060658EB020264
:10452000414146EA9E0601D5BDE80189B6195241CE
:1045300041EB0101A3F10103BDE801894FEA1445F4
:104540004FEA114724EA054621EA074C05FB07F428
:1045500006FB07F70CFB06F105FB0CFC11EB074112
:1045600044EB17444FEA124711EB0C4144EB1C4457
:1045700022EA074C05FB07F206FB07F70CFB06F6E1
:1045800005FB0CFC16EB074642EB174216EB0C46FC
:1045900042EB1C456A1854F1000148BF7047B61938
:1045A000524141EB0101A3F10103704795F0000F67
:1045B00037D04FEA11424FEA144721EA024624EA73
:1045C000074C02FB07F106FB07F70CFB06F402FBA6
:1045D0000CFC14EB074441EB17414FEA154714EB71
:1045E0000C4441EB1C4125EA074C02FB07F506FB96
:1045F00007F70CFB06F602FB0CFC16EB074645EB37
:10460000174516EB0C4645EB1C42121951F10001FF
:1046100048BF7047B619524141EB0101A3F10103B4
:1046200070474FEA14454FEA114724EA054621EA4C
:10463000074C05FB07F106FB07F70CFB06F24FF0F2
:10464000000605FB0CFC12EB074241EB174112EB95
:104650000C4251EB1C4148BF7047921841EB0101DD
:10466000A3F10103704703B401984100009850EA98
:10467000C12018BF04204A0D18BF40F0010040F2CD
:10468000FF72B2EB515F08BF40F00200012808BF83
:10469000052002B0704730380A2801D20120704747
:1046A0000020704710B500290AD00878002807D0EC
:1046B00005487844FFF7DCFB002801D0002010BD3E
:1046C0000248784410BD0000420A00003A0A000087
:1046D00021F00042A2F16052B2F5801F01F00043C8
:1046E00028BFD2F17F6C0BD95FEA001C43EAC202FB
:1046F00042EB507018BF704728BF20F00100704790
:10470000B2F5801FBCBF184670474FEA410C1CF53C
:10471000001F02D2084600F08BBC70B500F0C8FA4A
:1047200000000089FFF7F6BF4FF00040A0F58000C1
:104730007047000010B591EA030F48BF83F00043B3
:1047400000F11E83841A71EB030C05D2121943EB9E
:104750000C03001B61EB0C01DFF824E14FEA11545C
:10476000A4EB135C1EEA430F18BF9EEA445F73D0AC
:1047700023EA0E03DCF1200E21EA045143F48013F6
:1047800032D322FA0CFE10EB0E0023FA0CFE41EBA2
:104790000E01CCF1200E03FA0EFE10EB0E0051F1CB
:1047A0000001B1F5801FCCF1200E32D201EB045193
:1047B00012FA0EF2BDE8104058BF7047401C38BFD7
:1047C0005FEA420218BF7047002814BF20F00100C2
:1047D00041F100014FEA410313F5001F38BF704754
:1047E000A1F1C04100F0B2BA012A43EB0302ACF1DF
:1047F000200CDCF11F0E32BF4FF0000E23FA0CF339
:1048000010EB030041EB0451B4EB115FD0D0A1EBEE
:10481000045101F5801149085FEA300001EB0451B1
:104820000ED350F1000038BF12FA0EFE08D1BDE8D9
:104830001040C9E7401C38BF5FEA4202CAD1C3E753
:10484000BDE810404FEA410313F5001F38BF704721
:10485000A1F1C04100F07ABA9EEA445F08D011EAA3
:104860005E0FBDE8104004BF01F00041002070471A
:10487000BDE8104070B500F01BFA00BF64FBBE3EFF
:104880000000E0FF2DE9C04130B4DFF8A0C23CEAEF
:10489000111418BF3CEA131400F0EC8081EA030500
:1048A0001CEA111444EAD57418BF1CEA131500F071
:1048B000C780A4EB05044FF0004545EAC12145EA55
:1048C000C32341EA505143EA525304F17F749942A1
:1048D00004F500344FEAC0204FEAC22208BF9042DC
:1048E00000F09C804FEA13650FF24016765D4FEAA8
:1048F000134506FB05F7C7F1807706FB07F74FEA7C
:10490000D737A7FB03687642C8F58038A7FB06CEE9
:1049100038BFA8F1010807FB08E64FF0000EA6FB20
:10492000028CE6FB03CEDCF1000CCEF1004E38BF6A
:10493000AEF1010EA6FB0C584FF000074FF000053A
:10494000E6FB0E87A1FB08C6A0FB07CE16EB0E0602
:1049500045F10005E1FB076515F1E04E7EBFA4F5CA
:1049600080345FEA46066D4116F1800745F1000587
:104970004FEA17274FEA066647EA0567A6F1DE46C3
:10498000B6F1805F4FEA15251FD9384624F0010C97
:1049900005EBC471BCF1FE6F01EB0C1102D8F0BC49
:1049A000BDE8008124425CBF01F5801E9EEAC47F01
:1049B00002D4F0BCBDE80081244238D4F0BCA1F19F
:1049C000C041BDE8004100F0C1B94FEAD22242EA3D
:1049D00043524FEAD323A7FB02864FEAD02040EA96
:1049E000415007FB03661EEA0E0F4FEAD12105FB7B
:1049F000026658BFA6EB0056B6EB00564FEA520EC1
:104A00004EEAC37E18EB0E0E56EB530EBDD518EBD7
:104A100002085E417F1C55F10005B6E74FF4801592
:104A20004FF000074FF000064FF00008ADE7F0BC74
:104A30004FF0000001F1C04101F00041BDE80081EC
:104A400011EA0C1F0CEA131500D00CE013EA0C1F3E
:104A500000F025804FF00000F0BC81EA030101F076
:104A60000041BDE80081F0BCBDE8004181EA0301DE
:104A700000F06CB9F0BCBDE8004170B500F018F969
:104A8000097EFC3E00F007B881EA03014FF0000008
:104A900001F00041704781EA030100F057B9F0BC12
:104AA000BDE800414FF0000021497047FFFDFBF9D0
:104AB000F7F5F4F2F0EEEDEBE9E8E6E4E3E1E0DE51
:104AC000DDDBDAD8D7D5D4D3D1D0CFCDCCCBCAC8C3
:104AD000C7C6C5C4C2C1C0BFBEBDBCBBBAB9B8B7EA
:104AE000B6B5B4B3B2B1B0AFAEADACABAAA9A8A8DD
:104AF000A7A6A5A4A3A3A2A1A09F9F9E9D9C9C9BAB
:104B00009A99999897979695959493939291919055
:104B10008F8F8E8E8D8C8C8B8B8A898988888787E6
:104B20008685858484838382828181800000FF075B
:104B30000000F87FB0FA80F310FA03F10AD0C3F155
:104B40001D0303F580634FEA41504FEA035202EB25
:104B5000D12170474FF0000070470000DFF848C1D6
:104B600070B51CEA111E1EBF1CEA13159EEA0C0F3D
:104B700095EA0C0F00F06F8081EA030423EA4C13DE
:104B80004EEAD47E21EA4C1141F4801143F48013A3
:104B9000AE44A1FB024CA0FB0365AEF17F7E36194B
:104BA00055EB0C05A1FB034C4CF10003A0FB021CD0
:104BB00016EB0C06654153F10003094218BF46F09D
:104BC000010613F4007F0BD14FEA03314FEA0530A1
:104BD000340341EA155140EA16506FF003020AE02F
:104BE0004FEAC3214FEAC520F40241EA555140EA99
:104BF00056506FF0020202EB2E4201EB025585EA9D
:104C0000CE710AD05FEA440C18BF24F0004450F182
:104C1000000041F1000120EAD47040F2FE7C6245C0
:104C200000D270BDA84214BF4FF080444FF0404402
:104C3000002E08BF0024BEF1806FA8BFA1F1C041C3
:104C4000BDE8704080F282804FF0000001F1C04169
:104C500001F0004170479EEA0C0F0CEA131518BFD3
:104C600095EA0C0F06D04FF0000081EA030E0EF01B
:104C7000004170BD00F01CF88900013E00F007B84B
:104C800000F009B84FEA430C5FEA5C5C08D081EAA7
:104C9000030100F05BB84FEA410C5FEA5C5CF6D1BF
:104CA0004FF00000014970470000FF070000F87F47
:104CB0000EF1020E2EF0030E5EF8046B364205D4A0
:104CC000012A43EB030515F5001F12D8012841EB1B
:104CD000010C1CF5001F0CD80ED14FEAD17C15F544
:104CE000001F0CEB4C0C0CF1020C08BF4CEBD37CFE
:104CF00004E04FF0080C01E04FEAD37C0CEB4C05CC
:104D000026FA05F606F00706B6F1040C06D20EEBFD
:104D1000860CBDE870404CF0010C6047DFE80CF0F9
:104D2000090B02024FF000414FF00000A1F50021F5
:104D300070BD19461046012851EB010418BFD4F587
:104D4000001484BF002001F0004170BD0808A0F5E8
:104D500000114FEA3101704791EA030F10B581F05D
:104D600000413FF5EFAC83F0004300F009B80000CC
:104D700010B591EA030F48BF83F000433FF5E2AC62
:104D8000841A71EB030C07D212198CF0004C43EB20
:104D90000C03001B61EB0C01DFF8A4E14FEA115496
:104DA000A4EB135C1EEA430F18BF9EEA445F00F0B9
:104DB000B08023EA6E03524221EA0451C3EB6E0332
:104DC00038BF5B1EDCF1200E25D322FA0CFE10EB5F
:104DD0000E0043FA0CFE41EB0E01CCF1200E03FA5B
:104DE0000EFE10EB0E0051F10001CCF1200E29D483
:104DF00012FA0EF201EB0451BDE8104058BF7047A3
:104E0000401C1CBFB2F1004F704700280CBF491C6A
:104E100020F00100704712EB020E43EB030218BFB3
:104E20004FF0010E4EEA4202ACF1200CDCF11E0EF6
:104E300054D943FA0CFE10EB0E0051F1FF31CCF1C6
:104E40001E0ED5D50EF1010E12FA0EFE404141EBB9
:104E5000010101EB445C5FEA5C5C10D910EBDE7091
:104E600001EB045138BFBEF1004FBDE8104018BF40
:104E7000704700280CBF491C20F00100704730D259
:104E80004FEAD42C11F5001124F400641BD0B1FAC0
:104E900081F20B3AA41AA41ED2F12003914030FAF9
:104EA00003F31943904001EBCC71002C01EB04514A
:104EB000BDE81040A8BF704701F1C0414FF00000AD
:104EC00001F000417047B0FA80F310FA03F100D10D
:104ED00010BDE41A173C4805C90AE4E701EB045188
:104EE00010BD491001EB0451BDE810404FEA3000FD
:104EF00002E04FF0000170474A0008BF0042F8D0BE
:104F0000B2F5001F28BF704701F000414FF00000CC
:104F100070479EEA445F07D011EA5E0FBDE810407B
:104F200004BF002100207047BDE8104070B5FFF7B6
:104F3000BFFE00BF40DFF63E83F0004110467047E1
:104F40000000E0FF43004FEAD30C4FEA3C0C434023
:104F50001FBF40070CF1605113F0FE4F70471CF06B
:104F6000006F03D100200CF0004170470CF00043AB
:104F700043EA507010B540EACC0000F00EF800BFD4
:104F8000000000924FEA0001FFF7E0BE4FF0004141
:104F90004FF00000A1F5002170470EF1020E2EF037
:104FA000030E5EF8044B244204D44FEA4102B2F1EE
:104FB0007F4F11D84FEA4003B3F17F4F0CD80ED189
:104FC0004FEAD07CB2F17F4F0CEB4C0C0CF1020C91
:104FD00008BF4CEBD17C04E04FF0080C01E04FEA35
:104FE000D17C0CEB4C0324FA03F404F00704B4F175
:104FF000040C06D20EEB840CBDE810404CF0010C02
:105000006047DFE80CF0070802024FF00040A0F50F
:10501000800010BD0846420018BFD2F1807288BFE0
:1050200000F0004010BD4FF04070E1EE100A7047F4
:10503000FF2141EAD050C0057047FEF786BC000052
:1050400002400000000000A0000000000540000039
:10505000000000C8000000000C4000000000409C60
:1050600000000000194000000020BCBE000000004D
:1050700034400000BFC91B8E00000004B540000092
:10508000504BCFD06607E2CF010000006C4100001A
:105090003E8251AADFEEA73401000000D942000091
:1050A000DCB5A0E23A301F97FFFFFFFFB4450000D8
:1050B000FD25A0C8E9A3C14FFFFFFFFFFF3F000090
:1050C0000000008000000000FF3F000000000080A2
:1050D00000000000105100080000002070000000D7
:1050E000C40100088051000870000020A0060000E4
:1050F000E00100081C00000043000000F8FFFFFF73
:105100000C0000000E0000000F0000002E00000048
:10511000007A030A000000000000000001020304FE
:10512000060708090000000001020304010203044D
:105130000607080900000000000000000000000051
:10514000000000000000000000000000000000005F
:10515000000000000000000000000000000000004F
:10516000000000000000000000000000000000003F
:10517000000000000000000000000000000000002F
:040000050800018965
:00000001FF
