:020000040800F2
:10000000780A002011050008B9250008BB25000862
:10001000BF250008C3250008C72500080000000010
:10002000000000000000000000000000CB250008D8
:10003000CD25000800000000CF2500084929000850
:100040002B0500082B0500082B0500082B050008D0
:100050002B0500082B050008D1250008E92500081C
:100060002B0500082B0500082B0500082B050008B0
:100070002B0500082B0500082B0500082B050008A0
:100080002B0500082B0500082B0500082B05000890
:100090002B0500082B0500082B0500082B05000880
:1000A0002B0500082B0500082B0500082B05000870
:1000B0002126000841260008572600082B050008C5
:1000C0002B0500082B0500082B0500080126000859
:1000D0000D260008E13900082B050008033B000845
:1000E0002B0500082B0500082B050008AB2700088E
:1000F000832700082B0500082B0500082B050008A6
:100100002B0500082B050008D72600082B05000842
:100110002B0500082B050008572700086D2700084D
:100120002B0500082B0500082B0500082B050008EF
:100130002B0500082B0500082B0500082B050008DF
:100140002B0500082B0500082B0500082B050008CF
:100150002B0500082B0500082B050008573B00085D
:100160002B0500082B0500082B0500082B050008AF
:100170002B0500082B0500082B0500082B0500089F
:100180002B0500082B05000800F002F800F0B2F87B
:100190000AA090E8000C82448344AAF10107DA45E2
:1001A00001D100F0A7F8AFF2090EBAE80F0013F082
:1001B000010F18BFFB1A43F001031847086A00003B
:1001C000286A00000A444FF0000C10F8013B13F0BD
:1001D000070408BF10F8014B1D1108BF10F8015BA0
:1001E000641E05D010F8016B641E01F8016BF9D193
:1001F00013F0080F1EBF10F8014BAD1C0C1B09D1EA
:100200006D1E58BF01F801CBFAD505E014F8016B5B
:1002100001F8016B6D1EF9D59142D6D370470000ED
:100220000023002400250026103A28BF78C1FBD8FF
:10023000520728BF30C148BF0B6070476E2904F0D9
:100240004381702904F08C82662906F0408065297C
:1002500006F03D80672906F03A806129AFF30080FF
:1002600003681B0A28BF41F08001692904F0F0806F
:10027000642904F0ED80752904F0EA806F2904F008
:100280001782782904F05882E92904F0AF81E42923
:1002900004F0AC81F52904F0A981EF2904F014825F
:1002A000F82904F057820368DB0928BF41F0800178
:1002B000632904F0E285732904F0E785E32904F05B
:1002C000F285F32904F0F785002070471FB505F08B
:1002D000F4FF04F041FE04000020002105F02CFB97
:1002E000401C60600020002105F010FBE0601FBD95
:1002F00010B510BD04F003FE1146FFF7E7FF02F052
:1003000053F804F0DFFE03B4FFF7F2FF03BC03F081
:10031000DEFA000000210020724A126842F48032A6
:10032000704B1A6000BF6F4A126802F40030491C1B
:1003300010B9B1F5A06FF6D16A4A126812F4003F05
:1003400001D0012000E00020012845D1654A40325B
:10035000126842F08052634B40331A60624A12685E
:1003600042F48042604B1A605E4A083212685D4B6C
:1003700008331A601A46126842F400421A601A469C
:10038000126842F4A0521A60584A1B1F1A601A1FC2
:10039000126842F080721B1F1A6000BF514A126837
:1003A00012F0007FFAD040F20562514B1A604D4ABC
:1003B0000832126822F003024A4B08331A601A46C8
:1003C000126842F002021A6000BF464A0832126800
:1003D00002F00C02082AF8D1704710B545480068B1
:1003E00040F47000434908603E48006840F0010056
:1003F0003C49086000203B490831086039480068E2
:100400003D490840374908603C48091D0860081FFD
:10041000006820F48020091F0860002031490C3159
:100420000860FFF777FF4FF00060324980390860BD
:1004300010BD30B500200022022384460221294C41
:100440000834246804F00C0020B1042806D00828E1
:1004500036D107E02A4C2B4D2C6035E02A4C294D33
:100460002C6031E01F4C241D2468C4F3805C1D4CBB
:10047000241D246804F03F01BCF1000F0AD0224C77
:10048000B4FBF1F4174D2D1D2D68C5F3881504FB41
:1004900005F209E01A4CB4FBF1F4124D2D1D2D6844
:1004A000C5F3881504FB05F20E4C241D2468C4F323
:1004B0000144641C6300B2FBF3F4124D2C6003E0B2
:1004C0000F4C104D2C6000BF00BF064C0834246850
:1004D000C4F303140D4D285D0A4C2468C440094D33
:1004E0002C6030BD0038024000700040042A4004F7
:1004F000003C024088ED00E0FFFFF6FE10300024D3
:100500000024F4000000002000127A000400002003
:100510000948804709480047FEE7FEE7FEE7FEE797
:10052000FEE7FEE7FEE7FEE7FEE7FEE704480549D3
:10053000054A064B70470000DB03000889010008EC
:1005400078040020780A0020780600207806002031
:1005500033490143334A1160704770B500210023CD
:100560000F22C47824B32F4C246804F4E064C4F54B
:10057000E064C4F30721C1F10404E3B20A41447802
:100580009C40E1B28478144021430C07210E264C94
:1005900005786155047804F01F050124AC40057806
:1005A0006D114FF0E02606EB8505C5F8004109E026
:1005B000047804F01F050124AC401C4D0678761128
:1005C00045F8264070BD1A4A0A400243154B1B1FCE
:1005D0001A60704739B1134A121D12680243114B59
:1005E0001B1D1A6006E00F4A121D126882430D4B54
:1005F0001B1D1A607047042808D14FF0E0210969DB
:1006000041F004014FF0E022116107E04FF0E021DA
:10061000096921F004014FF0E022116170470000E8
:100620000000FA050CED00E000E400E080E100E0ED
:1006300080FFFF1F002044490860091D0860091D54
:100640000860091D086041483F491431086070473F
:1006500000213D498279002A3AD00A46126803688F
:100660009A430B461A600A1D126803689A430B1DD1
:100670001A60027911440A6803681A430A60324A10
:100680000832126803689A432F4B08331A601A1D08
:10069000126803689A432C4B0C331A604279102A73
:1006A0000ED11A1F126803681A43274B08331A60C9
:1006B0001A1D126803681A43234B0C331A600DE0AD
:1006C0002149427911440A6803681A430A6005E027
:1006D000027911440A6803689A430A60704700214E
:1006E000016001710C21417100218171704716492F
:1006F000103109680143144A1032116070470146F5
:100700000020114A143212680A4201D0012000E090
:10071000002070470C4914310860704701460020E2
:100720000022094B1B6803EA0102074B14331B68C4
:100730000B4202D00AB1012000E0002070470249BC
:100740001431086070470000003C0140FFFF7F004B
:1007500010B504468848844208D10121084600F0BB
:10076000F1FA0021012000F0EDFA5EE083488442B6
:1007700008D10121022000F0E5FA0021022000F05A
:10078000E1FA52E07E48844208D10121042000F0C1
:10079000D9FA0021042000F0D5FA46E079488442D5
:1007A00008D10121082000F0CDFA0021082000F036
:1007B000C9FA3AE07448844208D10121102000F0BF
:1007C000C1FA0021102000F0BDFA2EE06F488442EB
:1007D00008D10121202000F0B5FA0021202000F0EE
:1007E000B1FA22E06A48844208D10121402000F099
:1007F000A9FA0021402000F0A5FA16E065488442DD
:1008000008D10121802000F09DFA0021802000F015
:1008100099FA0AE06048844207D10121801500F06E
:1008200091FA0021A01500F08DFA10BD70B50A46AE
:10083000002100238C4600BF3DE0012404FA01F3AF
:10084000146804EA030C9C4534D104684E00032567
:10085000B540AC43046014794D00AC4005682C43AE
:1008600004601479012C02D01479022C16D184680A
:100870004E000325B540AC43846054794D00AC4034
:1008800085682C438460446801258D40AC434460F6
:10089000446895798D40ADB22C434460C4684E00E5
:1008A0000325B540AC43C460D4794D00AC40C56865
:1008B0002C43C460491C1029BFD370BD4FF6FF7193
:1008C00001600021017141718171C17170474FF464
:1008D00080320A43C261C161C261C269C2697047A4
:1008E0000246002013690B4201D0012000E00020E5
:1008F00070470146086980B270470246002053697C
:100900000B4201D0012000E00020704701464869F9
:1009100080B2704701837047418370470AB10183F9
:1009200000E0418370474161704742694A4042613B
:10093000704770B500239C464C07E40E02FA04F39E
:10094000CD1000F1200454F825404D07EE0E0F2580
:10095000B540AC43CE1000F1200545F82640CD103F
:1009600000F1200454F8254044EA030CCD1000F1B6
:10097000200444F825C070BD00000240000402407D
:1009800000080240000C0240001002400014024027
:1009900000180240001C024000200240FA48006893
:1009A00040F00100F84908600020F749083108606C
:1009B000F5480068F5490840F3490860F448091D06
:1009C0000860081F006820F48020091F08600020CC
:1009D000ED490C31086070470021EB4A921C117000
:1009E00011460870704710B5014600220023002010
:1009F0004A11012A02D1E44C236808E0022A03D1FB
:100A0000E14C7034236802E0DF4C7434236801F059
:100A10001F02012494401C4201D0012000E000206C
:100A200010BD70B500240025002600BF3120FFF75F
:100A3000DAFF0646641CB4F5A06F01D0002EF5D095
:100A40003120FFF7D0FF08B1012500E0002528463E
:100A500070BD01460020CC4A106820F0F80040EA42
:100A6000C10010607047CB49086070470021C64A3A
:100A7000703211701170012802D004280AD104E0EC
:100A80000121C14A7032117005E00521BE4A703261
:100A9000117000E000BF00BF7047BF490860704799
:100AA00030B5DDF80CC041EA82140125C5EB5305D1
:100AB00044EA0544044344EA0C64B34D2D1D2C6004
:100AC00030BDB44908667047820142EA0172AE4BFC
:100AD00084331A607047AF4988667047AD49C8646F
:100AE000704702460020A84B0833186820F0EC60DD
:100AF00042EA01031843A44B0833186070470246CA
:100B00000020A14B0833186820F0784042EA010326
:100B100018439D4B083318607047014600209A4ADD
:100B20000832106820F003000843106070479648B0
:100B30000830006800F00C00704701460020924A1F
:100B40000832106820F0F00008431060704701463A
:100B500000208D4A0832106820F4E05008431060ED
:100B6000704701460020884A0832106820F460402F
:100B700040EAC10010607047F0B500210022002457
:100B800002258C460223804E0836366806F00C019A
:100B900021B1042905D0082933D105E07F4E066034
:100BA00032E07F4E06602FE0774E361D3668C6F382
:100BB000805C754E361D366806F03F03BCF1000FB1
:100BC0000AD0774EB6FBF3F66F4F3F1D3F68C7F371
:100BD000881706FB07F409E0704EB6FBF3F66A4F80
:100BE0003F1D3F68C7F3881706FB07F4664E361DA6
:100BF0003668C6F30146761C7500B4FBF5F6066050
:100C000002E0664E066000BF00BF5F4E08363668E1
:100C100006F0F0010909634E725C0668D640466032
:100C2000594E0836366806F4E051890A5D4E725C0A
:100C30004668D6408660544E0836366806F46041F1
:100C4000490B584E725C4668D640C660F0BD002124
:100C500000F44072B2F5407F0AD14B4A0832116865
:100C600021F4F811504A02401143474A08321160FA
:100C7000454A70321268C0F30B031A43424B70337B
:100C80001A60704744494439086070474249403906
:100C90000860704745490860704739B13A4A3032B8
:100CA00012680243384B30331A6006E0364A30325D
:100CB00012688243344B30331A60704739B1324A7C
:100CC000343212680243304B34331A6006E02E4A45
:100CD0003432126882432C4B34331A60704739B176
:100CE000294A383212680243274B38331A6006E02B
:100CF000254A383212688243234B38331A607047D2
:100D000039B1214A4032126802431F4B40331A6006
:100D100006E01D4A4032126882431B4B40331A6082
:100D2000704739B1184A443212680243164B4433B3
:100D30001A6006E0144A443212688243124B44336C
:100D40001A60704739B1104A1032126802430E4BD4
:100D500010331A6006E00C4A1032126882430A4BC4
:100D600010331A60704739B1074A143212680243CF
:100D7000054B14331A6006E0034A143212688243AA
:100D8000014B14331A60704700380240FFFFF6FE33
:100D90001030002400004742800E47420024F40037
:100DA00000127A0014000020FFFCFF0F5C01474294
:100DB00029B1574A12680243554B1A6004E0544A5D
:100DC00012688243524B1A60704739B1504A083258
:100DD000126802434E4B08331A6006E04C4A083250
:100DE000126882434A4B08331A60704739B1484A47
:100DF0000C3212680243464B0C331A6006E0444A38
:100E00000C3212688243424B0C331A60704739B17E
:100E10003F4A3832126802433D4B38331A6006E0CD
:100E20003B4A383212688243394B38331A60704774
:100E300039B1374A3C3212680243354B3C331A60B1
:100E400006E0334A3C3212688243314B3C331A602D
:100E5000704739B12E4A4032126802432C4B40335E
:100E60001A6006E02A4A403212688243284B403317
:100E70001A60704739B1264A483212680243244B3F
:100E800048331A6006E0224A483212688243204BF7
:100E900048331A60704739B11D4A4C321268024318
:100EA0001B4B4C331A6006E0194A4C3212688243DD
:100EB000174B4C331A60704739B1154A0B3A127808
:100EC0000243134B0B3B1A7008E0114A0B3A12789D
:100ED000C343DBB21A400E4B0B3B1A7070470C48F1
:100EE0005C30006840F0807009495C3108607047F0
:100EF00001460020064A0C3A12680A4201D001203D
:100F000000E00020704702490A390870704700006D
:100F10001838024010B50446F948844208D101212E
:100F20008014FFF763FF0021A014FFF75FFF16E0B6
:100F3000F448844208D101210014FFF746FF002144
:100F40002014FFF742FF0AE0EF48844207D1012155
:100F5000C013FFF73AFF0021E013FFF736FF10BD83
:100F600010B50022028802F441520B884C882343BA
:100F70008C882343CC8823430C8923434C89234307
:100F80008C892343CC8923431A430280838B4FF2FD
:100F9000FF74234083830B8A038210BD2DE9F04F39
:100FA00000250223002401270022002694469046B3
:100FB0009146B0F81CA04FF2400B0AEA0B0AA0F8C9
:100FC0001CA04FF0020AA0F820A0858BD1F808A041
:100FD000BAF1020F01D100BF67E0B1F804A0BAF185
:100FE000000F01D1012700E00227DFF820A3DAF883
:100FF00000A01AF4000F09D0DFF810A3DAF800A05F
:101000002AF4000ADFF804B3CBF800A0DFF8FCA252
:101010000AF17C0ADAF800A0CAF38818DFF8ECA21B
:101020000AF17C0ADAF800A0CAF30279DFF8DCA240
:10103000AAF1040ADAF800A00AF03F0CDFF8D0A207
:10104000BAFBFCFA0AFB08FABAFBF9F6B1F806A0FB
:10105000BAF5007F0ED14FEA162A0AEB8A0A4FEA48
:101060004A0AD1F808B0BAFBFBFA0AF1050A1FFADE
:101070008AF20FE04FEA471AB6FBFAFA0AEB8A0A3D
:101080004FEA4A0AD1F808B0BAFBFBFA0AF1050A9E
:101090001FFA8AF24FF00A0AB2FBFAF202F00104D8
:1010A000A2EB040ACAF34F032402022B01DBFF2B3D
:1010B00001DD02230024B1F806A04AEA040A4AEA44
:1010C000030AA0F820A0B1F804A0B1F80CB04AEAD5
:1010D0000B0AB1F802B04AEA0B0AB1F800B04AEACA
:1010E0000B0A4AF4006A4AEA05058583BDE8F08FD9
:1010F0000021018041808180C18001814181818105
:10110000C1810721018270470021018041808180D7
:10111000C1800221816000218181704721B1028854
:1011200042F04002028004E002884FF6BF731A408A
:101130000280704721B1828B42F48062828304E096
:10114000828B4FF6FF331A408283704702884FF23A
:10115000FF731A40028002880A4302807047B1F58B
:10116000804F04D1028842F48042028004E0028869
:101170004BF6FF731A4002807047A1F57E42FF3A9A
:1011800004D0028842F48072028004E002884FF6A4
:10119000FF631A400280704721B1828842F0040246
:1011A000828004E082884FF6FB731A408280704789
:1011B00021B1828842F01002828004E082884FF6DA
:1011C000EF731A408280704730B500220023848B71
:1011D0004FF240052C40848302240484828B0C88C7
:1011E000B4F5007F01D00C8814B94FF4807308E087
:1011F0000C88B4F5407F03D00C88B4F5807F00D113
:1012000000238C888D892C434D882C431C4344F447
:1012100000642243828330BD014688897047818102
:10122000704721B1028842F40052028004E0028833
:101230004DF6FF731A4002807047018841F48051D7
:101240000180704702460020012901D0108B00E088
:10125000908A70470146088A704710B51AB1838892
:101260000B43838004E08388CC43A4B22340838073
:1012700010BD30B54FF0000C00234FEA211C0124B3
:1012800004FA0CF4A3B21AB184881C43848004E0ED
:101290008488DD43ADB22C40848030BD02460020FE
:1012A00013890B4201D0012000E000207047CA439F
:1012B0000281704770B50246002000240023844656
:1012C00001F00F060125B540ACB20B1101259D4080
:1012D000ABB2958805EA030C1589254204D0BCF110
:1012E000000F01D0012000E0002070BD10B50022E9
:1012F00001F00F040123A3409AB2D343038110BD30
:101300000030014000380040003C004008380240F6
:1013100000127A0010B50446FE48844208D101212B
:101320000846FFF763FD00210120FFF75FFD9DE008
:10133000B4F1804F08D101210846FFF746FD002196
:101340000120FFF742FD91E0F348844208D10121DA
:101350000220FFF73AFD00210220FFF736FD85E06D
:10136000EE48844208D101210420FFF72EFD002120
:101370000420FFF72AFD79E0E948844208D10121E1
:101380000820FFF722FD00210820FFF71EFD6DE079
:10139000E448844208D101211020FFF716FD002106
:1013A0001020FFF712FD61E0DF48844208D10121DF
:1013B0002020FFF70AFD00212020FFF706FD55E061
:1013C000DA48844208D101210220FFF70FFD0021F5
:1013D0000220FFF70BFD49E0D548844209D10121E5
:1013E0000804FFF703FD00214FF48030FFF7FEFCF7
:1013F0003CE0D048844209D101214804FFF7F6FCC3
:1014000000214FF40030FFF7F1FC2FE0CA4884427E
:1014100009D101218804FFF7E9FC00214FF4802065
:10142000FFF7E4FC22E0C548844208D101214020B6
:10143000FFF7CBFC00214020FFF7C7FC16E0C048B7
:10144000844208D101218020FFF7BFFC00218020C9
:10145000FFF7BBFC0AE0BB48844207D1012180159D
:10146000FFF7B3FC0021A015FFF7AFFC10BD002271
:101470000288A84B98420ED0AC4B98420BD0B0F1EA
:10148000804F08D0A44B984205D0A44B984202D07C
:10149000A34B984204D14FF68F731A404B881A43DE
:1014A000A04B984207D0A04B984204D04FF6FF4380
:1014B0001A400B891A4302804B68C3620B8803856C
:1014C000944B984202D0994B984201D18B7A038673
:1014D0000123838270474FF0FF314160002101807A
:1014E00001814180817270470185828270470A467E
:1014F000002101884FF68F73194011430180704716
:1015000041627047C16270470146486A70470146B0
:10151000088D704721B1028842F00202028004E087
:1015200002884FF6FD731A400280704721B102888D
:1015300042F00402028004E002884FF6FB731A4076
:101540000280704721B1028842F08002028004E0EC
:1015500002884FF67F731A400280704702884FF668
:10156000F7731A40028002880A430280704702889B
:101570004FF6FF431A40028002880A4302807047F8
:1015800021B1028842F00102028004E002884FF695
:10159000FE731A400280704730B54FF0000C0022F5
:1015A0000023048C4FF6FE752C400484028C838843
:1015B000B0F818C04FF68F740CEA040CAC1E0CEA9D
:1015C000040C0C8844EA0C0C6C1E22408C892243CB
:1015D0004C8822434F4CA04202D0544CA04213D11D
:1015E0004FF6F7742240CC8922434FF6FB74224019
:1015F0008C8822434FF6FF6423404FF6FF5423406C
:101600000C8A23434C8A23438380A0F818C08C683B
:101610004463028430BD30B54FF0000C002200233B
:10162000048C4FF6EF752C400484028C8388B0F84C
:1016300018C048F6FF740CEA040C4FF6FF440CEA9D
:10164000040C0C8824064CEA144C4FF6DF7422403C
:101650008C89240542EA14424C88240542EA14424B
:101660002C4CA04202D0314CA0421BD14FF67F74CB
:101670002240CC89240542EA14424FF6BF7422402E
:101680008C88240542EA14424FF6FF3423404FF27F
:10169000FF7423400C8AA40443EA14434C8AA40434
:1016A00043EA14438380A0F818C08C6884630284E2
:1016B00030BD30B54FF0000C00220023048C4FF6F3
:1016C000FF652C400484028C8388B0F81CC04FF660
:1016D0008F740CEA040C4FF6FC740CEA040C0C88B2
:1016E00044EA0C0C4FF6FF5422408C89240642EA4F
:1016F00014424C88240642EA1442064CA04202D00E
:101700000A4CA04237D14FF2FF742240CC89240604
:101710001AE0000000000140000400400008004002
:10172000000C004000100040001400400004014084
:1017300000400140004401400048014000180040C2
:10174000001C00400020004042EA14424FF6FF34E3
:1017500022408C88240642EA14424EF6FF7423404D
:101760004DF6FF7423400C8A240543EA14434C8A47
:10177000240543EA14438380A0F81CC08C68C4632A
:10178000028430BD30B5002200239446048C4EF60E
:10179000FF752C400484038CB0F804C0828B48F69B
:1017A000FF7422404FF6FF4422400C88240642EA90
:1017B00014424DF6FF7423408C89240743EA1443F6
:1017C0004C88240743EA1443FE4CA04202D0FE4C4E
:1017D000A04207D14BF6FF740CEA040C0C8AA40556
:1017E0004CEA144CA0F804C082838C68046403841F
:1017F00030BD002101804180818081608181C18173
:1018000001824182704730B5034600208446184665
:10181000183001248C401FFA84FC1C8C6FEA0C05E4
:10182000ADB22C401C8409B108290AD100EB61003B
:1018300004684FF68F752C400460046814430460FC
:101840000DE00C1FA4B200EB6400046848F6FF75BD
:101850002C4004600468150644EA1544046030BD59
:101860004163704781637047C1637047016470478B
:101870000A460021018B4FF68F73194011430183F3
:1018800070470A460021018B48F6FF731940130682
:1018900041EA1341018370470A460021818B4FF6CC
:1018A0008F7319401143818370470A460021818B51
:1018B00048F6FF731940130641EA134181837047CC
:1018C0000A460021018B4FF6F7731940114301833B
:1018D00070470A460021018B4FF2FF73194013062F
:1018E00041EA1341018370470A460021818B4FF67C
:1018F000F77319401143818370470A460021818B99
:101900004FF2FF731940130641EA13418183704778
:101910000A460021018B4FF6FB73194011430183E6
:1019200070470A460021018B4FF6FF33194013061A
:1019300041EA1341018370470A460021818B4FF62B
:10194000FB7319401143818370470A460021818B44
:101950004FF6FF331940130641EA13418183704764
:101960000A460021018B4FF67F7319401143018312
:1019700070470A460021018BC1F30E01130641EAAC
:101980001341018370470A460021818B4FF67F7314
:1019900019401143818370470A460021818BC1F3AE
:1019A0000E01130641EA1341818370470A46002164
:1019B000018C4FF6FD7319401143018470470A46AC
:1019C0000021018C4FF6F7731940114301847047D1
:1019D0000A460021018C4FF6DF731940130541EAD6
:1019E0001341018470470A460021018C4FF67F7332
:1019F0001940130541EA1341018470470A4600214A
:101A0000018C4FF6FF531940130641EA134101843C
:101A100070470A460021018C4FF2FF7319401306EC
:101A200041EA1341018470470A460021018C4DF6BA
:101A3000FF731940130741EA13410184704730B521
:101A4000002301248C40A3B2048CDD43ADB22C40B2
:101A50000484048C02FA01F5ADB22C43048430BD39
:101A600030B5002304248C40A3B2048CDD43ADB216
:101A70002C400484048C02FA01F5ADB22C4304849A
:101A800030BD828B4FF2FF331A408283828B0B066C
:101A900042EA134282837047F0B50C461546002196
:101AA00000228C46068C4EF6FF773E400684818BE2
:101AB000028C26074FEA164C40F6FF4631402E06B0
:101AC00041EA16411E0741EA164145F6FF763240CB
:101AD0004CF48056324381830284F0BD828B4FF6F2
:101AE000F3731A408283828B0A4382837047F0B576
:101AF0000C461546002100228C46068C4FF6FF67E7
:101B00003E400684818B028C26064FEA164C4FF627
:101B10000C7631401E0545EA164631434FF2FF561A
:101B200032404CF48076324381830284F0BD028BD4
:101B30004FF2FF331A400283028B0B0642EA134234
:101B400002837047F0B50C461546002100228C46F2
:101B5000068C4FF6EF773E400684018B028C2605FB
:101B60004FEA164C40F6FF4631401E0741EA164147
:101B70002E0641EA16414FF65F7632404CF01006D1
:101B8000324301830284F0BD028B4FF6F3731A4097
:101B90000283028B0A430283704770B58C46144659
:101BA00000210022058C4FF6FE7635400584018B1E
:101BB000028C4FF60C7529401D0544EA1545294352
:101BC00004E0000000000140000401404FF6F575FC
:101BD0002A404CF001052A430183028470BD70B590
:101BE00005460C46208850B92389A288618828467A
:101BF000FFF7D3FFE1882846FFF7C6FF25E02088DE
:101C000004280AD12389A28861882846FFF79AFF11
:101C1000E1882846FFF78BFF17E0208808280AD1C3
:101C20002389A28861882846FFF761FFE18828465A
:101C3000FFF754FF09E02389A28861882846FFF74F
:101C40002BFFE1882846FFF71CFF70BD00210180B3
:101C50004180012181800021C180018170472DE9EF
:101C6000F04105460C4600260127608808B9022687
:101C700000E00026A088012801D1022700E001270A
:101C80002088A0B92389A28861882846FFF785FFAC
:101C9000E1882846FFF778FF23893A4631462846EF
:101CA000FFF750FFE1882846FFF741FF13E0238943
:101CB000A28861882846FFF745FFE1882846FFF79C
:101CC00036FF23893A4631462846FFF766FFE1880A
:101CD0002846FFF759FFBDE8F0810146486B704781
:101CE0000146886B70470146C86B70470146086C17
:101CF00070470A884B881A438B881A43CB881A434B
:101D00000B891A434B891A438B891A43A0F8442044
:101D100070470021018041808180C1800181418123
:101D20008181704731B1B0F8442042F40042A0F8FC
:101D3000442005E0B0F84420C2F30E02A0F844208D
:101D4000704721B1828842F00402828004E08288D8
:101D50004FF6FB731A408280704721B1828842F0AF
:101D60000102828004E082884FF6FE731A4082806E
:101D7000704710B51AB183890B43838104E08389CE
:101D8000CC43A4B22340838110BD818270470246B8
:101D90000020138A0B4201D0012000E00020704790
:101DA000CA430282704710B50246002000238446D1
:101DB000148A04EA0103948904EA010C23B1BCF1FA
:101DC000000F01D0012000E0002010BDCA430282B4
:101DD000704741EA0203A0F84830704710B51AB1C5
:101DE00083890B43838104E08389CC43A4B22340DD
:101DF000838110BD21B1828842F00802828004E014
:101E000082884FF6F7731A408280704701894FF637
:101E1000F8721140018170470A46002101894FF68E
:101E20008F73194011430181704730B504460D4648
:101E300029462046FFF7F0FF208940F00700208167
:101E400030BD2DE9F04104460D4616461F46602D73
:101E500006D13B46012231462046FFF773FE05E0DE
:101E60003B46012231462046FFF797FE2946204691
:101E7000FFF7D2FF208940F007002081BDE8F08104
:101E800010B58C4600210189C9B21C0642EA1444EF
:101E900044EA0C042143018110BD2DE9F0410546BF
:101EA0000E4617469846002443463A463146284691
:101EB000FFF7E6FF2C894FF6F870044044F0070462
:101EC0004FF68F70044044F070042C81BDE8F0811F
:101ED000F0B504460D4616461F463B463246294697
:101EE0002046FFF7CDFF208940F480402081F0BDDF
:101EF00082884FF68F731A40828082880A438280DC
:101F0000704702894FF6F8731A40028102890A432A
:101F10000281704702894FF67F731A40028102895D
:101F20000A430281704770B58C4614461D46002155
:101F3000002200230189028B038C4FF6F876314092
:101F400041EA0C014FF6FC46324040F201163243A2
:101F50004FF6DD7633402E0544EA164633430181C1
:101F60000283038470BD21B1828842F080028280A6
:101F700004E082884FF67F731A4082807047A0F891
:101F80005010704710B50446F848844208D101212A
:101F90001020FEF72BFF00211020FEF727FF3EE068
:101FA000F348844209D101214804FEF70EFF0021C5
:101FB0004FF40030FEF709FF31E0EE48844209D1CA
:101FC00001218804FEF701FF00214FF48020FEF775
:101FD000FCFE24E0E848844209D10121C804FEF750
:101FE000F4FE00214FF40020FEF7EFFE17E0E34877
:101FF000844209D101210805FEF7E7FE00214FF4D4
:102000008010FEF7E2FE0AE0DD48844207D101219C
:102010002020FEF7EBFE00212020FEF7E7FE10BD9A
:102020002DE9FF4705460E460024A14600BFA04605
:10203000B08900B100BF2C8A24F44054F0880443D6
:102040002C82AC8941F20C608443B088318908430A
:10205000718908430443AC81AC8A24F44074B0898C
:102060000443AC826846FEF787FDC048854202D033
:10207000C348854202D1DDF80C9001E0DDF80890FC
:10208000A88910F4004F08D009EBC90000EB091033
:1020900031684900B0FBF1F707E009EBC90000EB3C
:1020A000091031688900B0FBF1F76420B7FBF0F04C
:1020B00004012009642101FB1078A88910F4004F65
:1020C00008D0322000EBC800B0FBF1F000F00700B0
:1020D000044308E0322000EB08106421B0FBF1F06B
:1020E00000F00F0004432C81BDE8FF874FF4165128
:1020F000016000218180C18001810C21418100218A
:102100008181704710B502460020108A20F470606B
:102110000B884C8823438C882343CC882343184363
:10212000108210BD0021018041808180C1807047F4
:1021300021B1828942F40052828104E082894DF605
:10214000FF731A4082817047028B02F47F42028340
:10215000028B0A430283704721B1828942F4004214
:10216000828103E08289C2F30E028281704721B12D
:10217000828A42F40062828204E0828A4FF2FF7314
:102180001A4082827047C1F308028280704701467C
:102190008888C0F308007047028A4FF6F0731A402F
:1021A0000282028A0A430282704721B1828942F088
:1021B0000202828104E082894FF6FD731A40828117
:1021C000704782894FF2FF731A40828182890A43E5
:1021D00082817047028A4FF6DF731A400282028AB8
:1021E0000A430282704721B1028A42F4804202828D
:1021F00004E0028A4BF6FF731A400282704781891D
:1022000041F001018181704721B1828A42F00802C8
:10221000828204E0828A4FF6F7731A408282704706
:10222000028BD2B20283028B42EA01220283704700
:1022300021B1828A42F02002828204E0828A4FF633
:10224000DF731A408282704721B1828A42F0100205
:10225000828204E0828A4FF6EF731A4082827047CE
:10226000828A4FF6FB731A408282828A0A438282F4
:10227000704721B1828A42F00202828204E0828A9F
:102280004FF6FD731A408282704710B51AB1838AE7
:102290000B43838204E0838ACC43A4B2234083822D
:1022A00010BD70B503460024A44600250020A1F50A
:1022B00010666A3E00D100BF1846C1F3421401F017
:1022C0001F0C012606FA0CF5012C01D10C3004E09C
:1022D000022C01D1103000E014301AB106682E43F0
:1022E000066002E00668AE43066070BD024600204C
:1022F000B1F5007F00D100BF13880B4201D001204F
:1023000000E00020704701F40072B2F5007F00D1B8
:1023100000BFCA430280704730B502460024002344
:102320009C460020A1F510656A3D00D100BFC1F3B5
:10233000421C01F01F03012505FA03F3BCF1010F54
:1023400002D195892B4007E0BCF1020F02D1158A1A
:102350002B4001E0958A2B400C12012505FA04F46C
:1023600015882C4073B16CB101200CE000100140C5
:102370000044004000480040004C00400050004035
:1023800000140140002030BD10B500220023A1F54B
:1023900010646A3C00D100BF0A1201249440A3B229
:1023A000DC43048010BD00002DED048B98B067A2C3
:1023B000D2E901311068D268CDE915311792149035
:1023C00066A3D3E90012D3E90203CDE91203CDE9F4
:1023D000101266A30FCBCDE90E23CDE90C0167A344
:1023E000D3E90012D3E90203CDE90A03CDE90812CB
:1023F000002500260027FDF7F0FF00F08FFE4FF4C8
:10240000A060FEF7A5F800F08FFE00F0EFFE00F0F0
:1024100007FF642000F0CDFA4FF47A3000F062FF3D
:1024200000F0A6FF4FF47A3001F0C7F84FF4FA70CD
:1024300000F025FE2A214FF4FA6000F085FB2A21E6
:102440004FF4FA6000F02EFC00F064FB00F010FC8A
:1024500001F0C4FE01F0DDFC9FED4C0AB0EE409AA5
:102460009FED4B0AF0EE409A19EE100A03F0B4FE0D
:1024700041EC100BB0EE408AF0EE608A53EC182B62
:1024800044A1012001F04AFF19EE900A03F0A4FED6
:1024900041EC100BB0EE408AF0EE608A53EC182B42
:1024A00040A1032001F03AFF9FED420A39EE400AB5
:1024B000B0EE001AC0EE010AB3EE000A20EE800A68
:1024C000BCEEC00A10EE100AC5B29FED3A0A39EE12
:1024D000C00AF0EE000A80EE201AB3EE000A21EEE8
:1024E000000ABCEEC00A10EE100AC6B200240BE0CF
:1024F000601C854203DB2B2004A9085502E0202044
:1025000004A90855601CC4B2102CF1DB00240BE0B8
:10251000601C864203DB2B200DF8040002E0202023
:102520000DF80400601CC4B2102CF1DB102204A9C9
:10253000002001F0DDFE10226946022001F0D8FEE5
:1025400003E0012000F035FA7F1CFAE76779726F2B
:102550002D783A756E6B6E6F776E00006779726FCB
:102560002D793A756E6B6E6F776E000020202020FB
:1025700031362E3020562020202000005A4A554463
:10258000616E6365722D626F743100003333734185
:10259000CDCC7C41426174313A2025322E33662005
:1025A00056000000426174323A2025322E336620F4
:1025B00056000000CDCC6C41704700BFFEE700BF65
:1025C000FEE700BFFEE700BFFEE7704770477047B9
:1025D00010B50120FEF7A2F828B10120FEF7AFF8F0
:1025E0000120FEF797F810BD10B50220FEF796F80F
:1025F00028B10220FEF7A3F80220FEF78BF810BDE9
:1026000010B560210448FEF755FE10BD10B56021DD
:102610000248FEF74FFE10BD003001400038004078
:1026200010B501218807FFF7BEFB40B101218807E3
:10263000FFF7CCFBAE488088401CAD49888010BDB8
:1026400010B50121AB48FFF7AEFB18B10121A94835
:10265000FFF7BCFB10BD10B50121A748FFF7A3FB96
:10266000002837D00121A448FFF7B0FBA348007829
:1026700020B9A3480088401CA14908809F480078E1
:10268000012804D19E480088401E9D4908809C482E
:102690000088B0F5FA6F02DB01209849087098486D
:1026A0000088022802DC00209449087094480188C0
:1026B0009148FFF7D5F8924801888F48FFF7D2F884
:1026C0008F4801888C48FFF7CFF88D4801888A48E9
:1026D000FFF7CCF810BD10B501218A48FFF763FB66
:1026E000002837D001218748FFF770FB8648007823
:1026F00020B986480088401C8449088082480078B8
:10270000012804D181480088401E804908807F4804
:102710000088B0F5FA6F02DB01207B4908707B4826
:102720000088022802DC0020774908707748018879
:102730007448FFF795F8754801887248FFF792F8DA
:10274000724801886F48FFF78FF8704801886D481C
:10275000FFF78CF810BD10B501216D48FFF723FB82
:1027600018B101216A48FFF731FB10BD10B50121F6
:102770006848FFF718FB18B101216648FFF726FBF0
:1027800010BD10B501216448FFF70DFB60B10121B8
:102790006148FFF71BFB00215F48FEF7F1FE0022B6
:1027A00001215D48FFF7E5FA10BD10B52DED088B4E
:1027B00001215A48FFF7F7FA00282BD0012157488A
:1027C000FFF704FB56480088401C5549088008461E
:1027D000008801281FD101025248FEF79DF84FF4EE
:1027E00000615048FEF798F84FF480714E48FEF7AC
:1027F00093F84FF400714C48FEF78EF801214948D8
:10280000FEF78AF802214748FEF786F8042145487A
:10281000FEF782F869E042480088022862D1C101CF
:102820004048FEF777F84FF400613E48FEF772F833
:102830004FF480713C48FEF76DF84FF400713A4850
:10284000FEF768F801213748FEF764F802213548A1
:10285000FEF760F804213348FEF75CF800203049A9
:1028600008803248006803F0AFFA41EC100BB0EE7C
:1028700040AAF0EE60AA9FED2E0B53EC102B51EC0A
:102880001A0B03F049F941EC100BB0EE409AF0EE50
:10289000609A9FED290B53EC102B51EC190B03F0B0
:1028A000A7FA41EC100BB0EE408AF0EE608A9FED83
:1028B000220B53EC102B51EC180B03F097FB41EC5F
:1028C000100BB0EE40BAF0EE60BA51EC1B0B03F007
:1028D00049F81B49086001201A4908700020134973
:1028E000086002E000200E490880BDEC088B10BD96
:1028F000C803002000040040000800402C00002015
:102900002A000020000C0040300000202E00002093
:102910000010004000140040000401400018004076
:10292000280000200000024000080240380000207B
:102930000000000079D8624100000000000059400A
:10294000400000203C0000200120FE490870704734
:1029500070B503460020FB4908705901B1F1807F32
:1029600000D31DE021F07F40401E4FF0E022506177
:1029700050170F22002807DA1407260EF24C00F039
:102980000F052D1F665503E01407250EEF4C255447
:1029900000BF00204FF0E02290610720106100BFCF
:1029A00000BFE84800780028FBD00020E549087007
:1029B00070BD30B50446002500BF04E04FF47A70C6
:1029C000FFF7C6FF6D1CA542F8D330BD01460020BD
:1029D00001E0421C90B28842FBDB70471FB5044601
:1029E0001C208DF80C0001208DF80D008DF80E00D4
:1029F0008DF80F0003A8FDF7B0FD01210846FEF792
:102A00007FF94FF08040FEF785FC600001904AF2AC
:102A10000F40ADF800000020ADF80800ADF802004E
:102A200069464FF08040FEF722FD01218807FFF73D
:102A3000B7F9012211469007FFF79BF9012188079A
:102A4000FEF79EFD1FBD1FB504461D208DF80C002E
:102A500002208DF80D0000208DF80E0001208DF869
:102A60000F0003A8FDF779FD01210220FEF748F9C8
:102A7000B748FEF74FFC600001904AF20F40ADF8F6
:102A800000000020ADF80800ADF802006946B0482B
:102A9000FEF7EDFC0121AE48FFF782F90122114655
:102AA000AB48FFF766F90121A948FEF769FD1FBD94
:102AB0001FB504461E208DF80C0001208DF80D0076
:102AC0008DF80E008DF80F0003A8FDF746FD0121DB
:102AD0000420FEF715F99F48FEF71CFC54206043C4
:102AE00001900020ADF80000ADF80800ADF802003C
:102AF00069469848FEF7BBFC01219648FFF750F95C
:102B0000012211469348FFF734F901219148FEF75D
:102B100037FD1FBD08B51E208DF8000003208DF87D
:102B2000010000208DF8020001208DF803006846A6
:102B3000FDF713FD012211468648FFF71AF901211E
:102B40008448FEF71DFD08BD30B58BB004460D4628
:102B500001210420FEF7D4F87E48FEF7DBFB079442
:102B6000681E80B2ADF818000020ADF82000ADF866
:102B70001A0006A97748FEF77AFC01A8FEF739FE8D
:102B80006020ADF804000120ADF806004FF4FA70A3
:102B900003900020ADF8100001A96E48FEF7FCFC80
:102BA00008216C48FEF78CFE01216A48FEF7CAFC3A
:102BB00001216848FFF7F4F8012211466548FFF744
:102BC000D8F801216348FEF7DBFC022206216248A7
:102BD000FDF7AFFE4020099002208DF8280000206C
:102BE0008DF829008DF82A0001208DF82B0009A905
:102BF0005948FDF71BFE0BB030BD1FB5044632200F
:102C00008DF80C0002208DF80D0001208DF80E00CB
:102C10008DF80F0003A8FDF7A0FC01210820FEF7A6
:102C20006FF84E48FEF776FB600001904AF20F40C5
:102C3000ADF800000020ADF80800ADF802006946CC
:102C40004648FEF714FC01214448FFF7A9F8012289
:102C500011464248FFF78DF801214048FEF790FCED
:102C600000203F4908703F4908703F4908701FBD68
:102C700008B532208DF8000003208DF801000020F7
:102C80008DF8020001208DF803006846FDF765FC11
:102C9000012211463148FFF76CF801212F48FEF759
:102CA0006FFC08BD30B58BB004460D4601210820ED
:102CB000FEF726F82948FEF72DFB0794681E80B220
:102CC000ADF818000020ADF82000ADF81A0006A9F4
:102CD0002248FEF7CCFB01A8FEF78BFD6020ADF883
:102CE00004000120ADF80600C82003900020ADF8D4
:102CF000100001A91948FEF74FFC08211748FEF7FC
:102D0000DFFD01A91548FEF786FC08211348FEF7F0
:102D1000E0FD01A91148FEF7CCFC08210F48FEF7A1
:102D2000E3FD01A90D48FEF72DFD08210B48FEF734
:102D3000E4FD01210948FEF705FC01210748FFF7E2
:102D40002FF813E03100002018ED00E000E400E06F
:102D5000000400400008004000040240000C004055
:102D600032000020330000203400002001221146F0
:102D7000DE48FEF7FEFF0121DC48FEF701FC0222DF
:102D80000021DB48FDF7D5FD02220121D848FDF7DF
:102D9000D0FD02221146D648FDF7CBFD02220321C9
:102DA000D348FDF7C6FD0F20099002208DF82800BA
:102DB00000208DF829008DF82A0001208DF82B00C5
:102DC00009A9CB48FDF732FD0BB030BDC9480078EA
:102DD000401CC8490870084600783C2806D10020ED
:102DE0000870C5480078401CC3490870C248007884
:102DF0003C2807D10020C0490870C0480078401C1A
:102E0000BE49087070471FB5044636208DF80C0087
:102E100002208DF80D008DF80E0001208DF80F00B6
:102E200003A8FDF79AFB01211020FDF769FFB448C4
:102E3000FEF770FA04EB84004000019042F2CF00EC
:102E4000ADF800000020ADF80800ADF802006946BA
:102E5000AB48FEF70CFB0121A948FEF7A1FF0122B8
:102E60001146A748FEF785FF0121A548FEF788FB1C
:102E70001FBD1FB5044637208DF80C0001208DF8CA
:102E80000D0002208DF80E0001208DF80F0003A820
:102E9000FDF763FB01212020FDF732FF9948FEF783
:102EA00039FA600001904AF20F40ADF800000020AE
:102EB000ADF80800ADF8020069469248FEF7D7FA6F
:102EC00001219048FEF76CFF012211468D48FEF764
:102ED00050FF01218B48FEF753FB1FBD1FB5044671
:102EE0002C208DF80C0001208DF80D008DF80E00BF
:102EF0008DF80F0003A8FDF730FB01210220FDF73C
:102F000010FF8148FEF706FA0194A720ADF80000F3
:102F10000020ADF80800ADF8020069467A48FEF7D7
:102F2000A6FA01217848FEF73BFF012211467648B8
:102F3000FEF71FFF00217448FEF722FB1FBD1FB5DF
:102F4000044618208DF80C0002208DF80D008DF835
:102F50000E0001208DF80F0003A8FDF7FEFA0121F5
:102F60000804FDF7DEFE6948FEF7D4F904EB84009F
:102F70004000019044F29F10ADF800000020ADF831
:102F80000800ADF8020069466048FEF770FA0121BA
:102F90005E48FEF705FF012211465C48FEF7E9FE98
:102FA00001215A48FEF7ECFA1FBD1FB5044619204F
:102FB0008DF80C0001208DF80D008DF80E008DF8B5
:102FC0000F0003A8FDF7C9FA01214804FDF7A9FE87
:102FD0004F48FEF79FF904EB84004000019044F253
:102FE0009F10ADF800000020ADF80800ADF8020019
:102FF00069464748FEF73BFA01214548FEF7D0FEF7
:10300000012211464248FEF7B4FE01214048FEF776
:10301000B7FA1FBD1FB504461A208DF80C00012019
:103020008DF80D008DF80E008DF80F0003A8FDF748
:1030300094FA01218804FDF774FE3648FEF76AF918
:1030400004EB84004000019044F29F10ADF80000B2
:103050000020ADF80800ADF8020069462D48FEF7E3
:1030600006FA01212B48FEF79BFE01221146294852
:10307000FEF77FFE01212748FEF782FA1FBD1FB52C
:1030800004462B208DF80C0003208DF80D00012044
:103090008DF80E008DF80F0003A8FDF75EFA0121F0
:1030A0004020FDF72DFE1C48FEF734F904EB8400A8
:1030B0004000019042F2CF00ADF800000020ADF8D2
:1030C0000800ADF8020069461348FEF7D0F9012167
:1030D0001148FEF765FE012211460F48FEF749FE32
:1030E00001210D48FEF74CFA1FBD0000000C004006
:1030F0000000024032000020330000203400002095
:103100000010004000140040000401400040014055
:1031100000440140004801400018004010B5012162
:103120007F20FDF7BAFD10BD1CB501208DF804000D
:1031300000208DF806008DF805008DF807004FF48B
:103140001060009069466348FDF770FB01208DF820
:10315000040000208DF806008DF805008DF80700AA
:103160004FF44070009069465B48FDF75FFB4FF4F9
:1031700080715848FDF7CEFB4FF400615548FDF7CC
:10318000C9FB4FF480715448FDF7C4FB4FF4007144
:103190005148FDF7BFFB1CBD10B55048007840B149
:1031A00000204E4908704FF480714A48FDF7B4FB87
:1031B00006E001204949087001024648FDF7AAFBD4
:1031C00010BD10B54648007840B100204449087051
:1031D0004FF400613F48FDF79FFB06E001204049A6
:1031E0000870C1023B48FDF795FB10BD1CB50120DE
:1031F0008DF8040000208DF806008DF805008DF88C
:1032000007000320009069463248FDF70FFB0121BB
:103210003048FDF77FFB02212E48FDF77BFB1CBDEC
:103220001CB501208DF8040000208DF806008DF8F3
:1032300005008DF807000420009069462548FDF739
:10324000F5FA04212348FDF765FB1CBD70B5044663
:103250000D4600218C460020294603E0665CB444FC
:103260004E1CF1B29142F9DD6FEA0C00060E1E70A1
:10327000060C5E70060A9E70D87070BD30B50346AD
:103280000C4600218C460020214603E05D5CAC44E6
:103290004D1CE9B29142F9DD6FEA0C0030BD1FB55B
:1032A00002460020535C1B0600934B1CD35C1B049E
:1032B00001938B1CD35C1B020293CB1CD35C039346
:1032C000DDE900342343029C2343039C43EA0400CA
:1032D00004B010BD0000024000080240440000207D
:1032E0004500002010B586B0044601210846FDF7D0
:1032F000D4FC01211020FDF714FD07220921FE480E
:10330000FDF717FB07220A21FB48FDF712FB4FF4DC
:10331000C060049000208DF8150001208DF8160083
:103320008DF8170002208DF8140004A9F248FDF76B
:103330007DFA00940020ADF80400ADF80600ADF869
:103340000800ADF80C000C20ADF80A006946EB4807
:10335000FEF766FE0121E948FEF7EAFE4021E74854
:10336000FEF7D1FF2021E548FEF7CDFF06B010BDE6
:1033700008B525208DF8000002208DF801000020FE
:103380008DF8020001208DF803006846FDF7E5F88E
:10339000002240F22771D948FEF783FF012240F254
:1033A0002551D648FEF77DFF08BD10B586B004460E
:1033B00001210846FDF771FC01214804FDF7A0FC3E
:1033C00007220221CC48FDF7B4FA07220321CA489C
:1033D000FDF7AFFA0C20049000208DF815008DF851
:1033E000160001208DF8170002208DF8140004A9A2
:1033F000C148FDF71BFA00940020ADF80400ADF8B9
:103400000600ADF80800ADF80C000C20ADF80A007D
:103410006946BB48FEF704FE0121B948FEF788FE65
:103420004021B748FEF76FFF2021B548FEF76BFF3C
:1034300006B010BD10B586B0044601210846FDF760
:103440002CFC01218804FDF75BFC07220A21AD4812
:10345000FDF76FFA07220B21AA48FDF76AFA4FF42D
:103460004060049000208DF815008DF816000120B2
:103470008DF8170002208DF8140004A9A148FDF76B
:10348000D5F900940020ADF80400ADF80600ADF8C1
:103490000800ADF80C000C20ADF80A0069469A4807
:1034A000FEF7BEFD01219848FEF742FE40219648F6
:1034B000FEF729FF20219448FEF725FF06B010BD36
:1034C00008B527208DF8000000208DF801008DF848
:1034D000020001208DF803006846FDF73EF8012246
:1034E00040F226618848FEF7DCFE012240F22551B9
:1034F0008548FEF7D6FE08BD10B586B0044601210A
:103500000846FDF7CAFB0121C804FDF7F9FB0822B4
:1035100000217948FDF70DFA082201217648FDF7D0
:1035200008FA0320049000208DF815008DF816008D
:1035300001208DF8170002208DF8140004A96E48B0
:10354000FDF774F900940020ADF80400ADF8060012
:10355000ADF80800ADF80C000C20ADF80A00694683
:103560006A48FEF75DFD01216848FEF7E1FD402154
:103570006648FEF7C8FE20216448FEF7C4FE06B088
:1035800010BD08B534208DF8000000208DF8010032
:103590008DF8020001208DF803006846FCF7DDFF7E
:1035A000012240F226615948FEF77BFE012240F2DB
:1035B00025515648FEF775FE08BD10B586B0044685
:1035C00001210420FDF769FB01210820FDF765FBBF
:1035D0000121C804FDF794FB08220C214C48FDF79B
:1035E000A8F9082202214B48FDF7A3F94FF48050B7
:1035F000049000208DF815008DF8160001208DF83C
:10360000170002208DF8140004A94148FDF70EF9B7
:103610000420049000208DF815008DF8160001207C
:103620008DF8170002208DF8140004A93948FDF721
:10363000FDF800940020ADF80400ADF80600ADF8E8
:103640000800ADF80C000C20ADF80A0069463248BD
:10365000FEF7E6FC01213048FEF76AFD40212E48C6
:10366000FEF751FE20212C48FEF74DFE06B010BD9E
:1036700008B535208DF8000000208DF801008DF888
:10368000020001208DF803006846FCF766FF002267
:1036900040F226612048FEF704FE012240F2255147
:1036A0001D48FEF7FEFD08BD10B586B00446012199
:1036B0000420FDF7F2FA01212020FDF732FB082259
:1036C00006211348FDF735F9082207211048FDF7B8
:1036D00030F9C020049000208DF8150001208DF8ED
:1036E00016008DF8170002208DF8140004A9084870
:1036F000FDF79CF8009411E000000240001001402A
:10370000004400400004024000480040004C0040DB
:1037100000080240000C0240005000400020ADF8BC
:103720000400ADF80600ADF80800ADF80C000C2060
:10373000ADF80A006946A448FEF772FC0121A248D0
:10374000FEF7F6FC4021A048FEF7DDFD20219E4853
:10375000FEF7D9FD06B010BD08B547208DF8000072
:1037600001208DF8010003208DF8020001208DF862
:1037700003006846FCF7F1FE002240F22661924801
:10378000FEF78FFD002240F225518F48FEF789FD9C
:1037900008BD10B504468D48848000BF40218B4889
:1037A000FEF7A4FD0028F9D010BD10B504468848E6
:1037B000048000BF40218648001FFEF797FD0028C7
:1037C000F8D010BD10B504468248048000BF4021E7
:1037D0008048001FFEF78AFD0028F8D010BD10B504
:1037E00004467D48048000BF40217B48001FFEF74F
:1037F0007DFD0028F8D010BD10B5044677488480C0
:1038000000BF40217548FEF771FD0028F9D010BDBA
:1038100010B504466C48001D048000BF40216A4872
:10382000FEF764FD0028F9D010BD10B500BF2021BF
:103830006648FEF75BFD0028F9D064488088C4B272
:10384000204610BD10B500BF20216148001FFEF7C3
:103850004DFD0028F8D05E480088C4B2204610BD57
:1038600010B500BF20215B48001FFEF73FFD002878
:10387000F8D058480088C4B2204610BD10B500BF2B
:1038800020215548001FFEF731FD0028F8D052488E
:103890000088C4B2204610BD10B500BF20214F489B
:1038A000FEF724FD0028F9D04C488088C4B2204699
:1038B00010BD10B500BF20214348FEF717FD0028BA
:1038C000F9D04148001D0088C4B2204610BD014611
:1038D00000BF704770B504460D4600BF40213A480E
:1038E000FEF704FD0028F9D0E0B23749091D088031
:1038F000204670BD70B505460E46002400BF04E0AA
:10390000285DFFF746FF601C84B2B442F8DB70BD4F
:1039100070B505460E46002400BF04E0285DFFF7A1
:1039200044FF601C84B2B442F8DB70BD70B505463C
:103930000E46002400BF04E0285DFFF743FF601C33
:1039400084B2B442F8DB70BD70B505460E46002463
:1039500000BF04E0285DFFF742FF601C84B2B44260
:10396000F8DB70BD70B505460E46002400BF04E0CC
:10397000285DFFF741FF601C84B2B442F8DB70BDE4
:1039800070B505460E46002400BF04E0285DFFF731
:103990003FFF601C84B2B442F8DB70BD0FB410B5B9
:1039A0009AB01DA8009001A8009A1C9900F0D6FCBE
:1039B000044600200090A1B201A8FFF7E1FF2046D5
:1039C0001AB010BC5DF814FB001401400010014057
:1039D0000444004004480040044C004000500040B3
:1039E00070B500240025002640F226616E48FEF7DF
:1039F00093FC40B140F226616B48FEF7C5FC4021C4
:103A00006948FEF780FC40F225516748FEF784FCC8
:103A100000286CD040F225516348FEF7B5FC202108
:103A20006148FEF770FC60488088C4B25F48007847
:103A3000042808DA5D4801780078401C5B4A107061
:103A40005B48445470BD59480078042825D1584833
:103A50000078122814D156484078342810D15448A0
:103A6000807856280CD15248C078782808D14F4821
:103A700001780078401C4D4A10704D4844540BE0CA
:103A80004B4840784A490870084680784870084694
:103A9000C07888700846C470D4E744480078042889
:103AA00025DD424800781C2821DA4048017800785A
:103AB000401C3E4A10703E484454104600781C2872
:103AC00015D1172200213A48FFF7D8FB05461821E7
:103AD0003748FFF7E4FB0646B54205D104213448D8
:103AE000FFF7DDFB334908600020304908700821EA
:103AF0002D48FEF7FBFB10B12B48FEF748FB00BF3B
:103B0000A0E710B540F226612B48FEF705FC48B14E
:103B100040F226612848FEF737FC40212648FEF790
:103B2000F2FB10BD40F225512348FEF7F5FB40B1F2
:103B300040F225512048FEF727FC20211E48FEF7C1
:103B4000E2FB08211C48FEF7D1FB10B11A48FEF732
:103B50001EFB00BFE5E710B540F226611748FEF7EF
:103B6000DBFB40B140F226611448FEF70DFC40211A
:103B70001248FEF7C8FB40F225511048FEF7CCFB77
:103B800040B140F225510D48FEF7FEFB20210B48C5
:103B9000FEF7B9FB08210948FEF7A8FB10B107485A
:103BA000FEF7F5FA10BD00000010014046000020AD
:103BB000FC030020240000200048004000140140C5
:103BC00010B54FF40051FE48FCF7A4FE0120FEF7AB
:103BD000BFFE4FF40041FA48FCF79CFE0120FEF7BF
:103BE000B7FE4FF40041F648FCF796FE0120FEF7C1
:103BF000AFFE4FF40051F248FCF78EFE0120FEF7B5
:103C0000A7FE10BD10B54FF40051ED48FCF782FE41
:103C10000120FEF79DFE4FF40041E948FCF77CFED1
:103C20000120FEF795FE4FF40041E548FCF772FED7
:103C30000120FEF78DFE10BD10B54FF40051E04895
:103C4000FCF768FE0120FEF783FE4FF40051DC48CC
:103C5000FCF762FE0120FEF77BFE10BD2DE9F0416E
:103C600007463C464FF40051D548FCF755FE01206D
:103C7000FEF76EFE002528E0264606F08006802E20
:103C800007D13102CE48FCF745FE0120FEF760FE69
:103C900004E04FF40041CA48FCF73EFE0120FEF765
:103CA00057FE6006040E4FF40051C548FCF732FE83
:103CB0000120FEF74DFE4FF40051C148FCF72CFEE9
:103CC0000120FEF745FE681CC5B2082DD4DBBDE817
:103CD000F08110B50446FFF773FF7820FFF7BEFFB1
:103CE000FFF7AAFF0020FFF7B9FFFFF7A5FF204667
:103CF000FFF7B4FFFFF7A0FFFFF784FF10BD10B57B
:103D00000446FFF75DFF7820FFF7A8FFFFF794FF59
:103D10004020FFF7A3FFFFF78FFF2046FFF79EFF2E
:103D2000FFF78AFFFFF76EFF10BD70B504460D4622
:103D30001DB1E0B2FFF7E3FF02E0E0B2FFF7C9FF19
:103D400070BD70B50646002418E004F1B0000021F3
:103D5000FFF7EBFF00210846FFF7E7FF00211020E7
:103D6000FFF7E3FF002505E001213046FFF7DDFF07
:103D7000681CC5B2802DF7DB601CC4B2082CE4DBE4
:103D800070BD06E041F6650100E0491E0029FCD146
:103D9000401E0028F6D17047014605E0002001E0F2
:103DA000421CD0B27B28FBDB0A00A1F10101F5D156
:103DB000704770B504460D4605F1B0000021FFF7CD
:103DC000B4FF102141EA14100021FFF7AEFF04F008
:103DD0000F000021FFF7A9FF70BD10B500218D2055
:103DE000FFF7A3FF00211420FFF79FFF0021AF2062
:103DF000FFF79BFF10BD10B500218D20FFF795FF49
:103E000000211020FFF791FF0021AE20FFF78DFF6A
:103E100010BD70B5002418E004F1B0000021FFF7D8
:103E200084FF00210846FFF780FF00211020FFF7E4
:103E30007CFF002505E001210020FFF776FF681CCC
:103E4000C5B2802DF7DB601CC4B2082CE4DB70BD6A
:103E500070B5002418E004F1B0000021FFF765FF01
:103E600000210846FFF761FF00211020FFF75DFFEA
:103E7000002505E001210846FFF757FF681CC5B281
:103E8000802DF7DB601CC4B2082CE4DB70BD2DE98B
:103E9000F04707460E469046994600250024A8F1B3
:103EA0002000C5B27F2F02DD0027B01CC6B2B9F1D9
:103EB000100F24D131463846FFF77BFF002408E07D
:103EC00004EB05113F4A505C0121FFF72EFF601CF7
:103ED000C4B2082CF4DB701CC1B23846FFF769FF8E
:103EE000002409E004EB05110831364A505C012139
:103EF000FFF71BFF601CC4B2082CF3DB12E0314655
:103F00003846FFF756FF00240AE005EB45012E4A2C
:103F100002EB4101085D0121FFF707FF601CC4B2FD
:103F2000062CF2DBBDE8F0872DE9F05F06460F4670
:103F300090469B4600250024A8F12000C5B206F15A
:103F4000080000F0FF0AB94649465046FFF731FF26
:103F500000BF0AE0C4F1070101EB0511194A505CEA
:103F60000121FFF7E2FE601CC4B2082CF2DB09F16C
:103F70000100C1B25046FFF71CFF00240BE0C4F162
:103F8000070101EB051108310E4A505C0121FFF7D2
:103F9000CCFE601CC4B2082CF1DBBDE8F09F2DE91B
:103FA000F05F06460F4690469B4600250024A8F188
:103FB0002000C5B206F10800C0F1800006E0000054
:103FC00000040240FA640008D262000800F0FF0A10
:103FD000B81CC0F1080000F0FF0949465046FFF741
:103FE000E8FE00BF0AE0C4F1070101EB0511D74A62
:103FF000505C0121FFF799FE601CC4B2082CF2DB73
:1040000009F10100C1B25046FFF7D3FE00240BE0D6
:10401000C4F1070101EB05110831CC4A505C0121C4
:10402000FFF783FE601CC4B2082CF1DBBDE8F09FF3
:1040300010B50246012000E050430B00A1F101043D
:10404000E1B2F9D110BD2DE9FF5F074691461E464A
:104050000E9D4FF0000B002435E0301B401EC1B216
:104060000A20FFF7E5FFB9FBF0F00A21B0FBF1F2FF
:1040700001FB1208BBF1000F14D1701EA04211DD2C
:10408000B8F1000F0CD1AA4605EBDA71491011FB0B
:104090000471C8B22B4620220199FFF7F8FE10E008
:1040A0004FF0010BAA4605EBDA71491011FB0471C0
:1040B000C8B22B4608F13001CAB20199FFF7E7FEFA
:1040C00000BF601CC4B2B442C7DBBDE8FF9F2DE94E
:1040D000F04104460F461546984600260FE0AA5DBB
:1040E000434639462046FFF7D2FE04F10800C4B229
:1040F000782C02DD0024B81CC7B2701CC6B2A85DC3
:104100000028ECD1BDE8F0812DE9F04180460E4653
:104110001546002731464046FFF74BFE00240AE0D3
:104120008B4A02EB8511085D0121FFF7FEFD781C2B
:10413000C7B2601CC4B2102CF2DB701CC1B2404686
:10414000FFF737FE00240CE06900491C804A02EBAF
:104150004111085D0121FFF7E8FD781CC7B2601C22
:10416000C4B2102CF0DBBDE8F0812DE9F05F06460B
:104170000F4690461C46DDF828A04FF0000BE117D3
:1041800004EB5171C910B4EBC10105D12046E11710
:1041900004EB5171CD1005E02046E11704EB51719D
:1041A000C9104D1C3D4615E029463046FFF701FE7B
:1041B000B1460BE059460BF1010B1AF80100012141
:1041C000FFF7B3FD09F1010000F0FF09C145F1DB84
:1041D000681CC5B2A542E7DBBDE8F09F1CB5012114
:1041E0000220FCF75AFD4FF42040009001208DF88A
:1041F000040000208DF8060002208DF805006946B5
:104200005448FCF713FB4FF420415248FCF782FB63
:10421000C820FEF7CEFB0021AE20FFF786FD00216F
:104220000846FFF782FD00211020FFF77EFD0021E8
:104230004020FFF77AFD0021B020FFF776FD002136
:104240008120FFF772FD0021FF20FFF76EFD0021A6
:10425000A120FFF76AFD0021A620FFF766FD0021DF
:10426000A820FFF762FD00213F20FFF75EFD00213F
:10427000C020FFF75AFD0021D320FFF756FD002193
:104280000846FFF752FD0021D520FFF74EFD002123
:104290008020FFF74AFD0021D820FFF746FD0021CE
:1042A0000520FFF742FD0021D920FFF73EFD002148
:1042B000F120FFF73AFD0021DA20FFF736FD00215B
:1042C0001220FFF732FD0021DB20FFF72EFD002139
:1042D0003020FFF72AFD00218D20FFF726FD002169
:1042E0001420FFF722FD0021AF20FFF71EFD1CBDAB
:1042F0002DE9F04105460E461746002400BF09E0AF
:10430000325D6B06190EE306180E1023FFF70CFE44
:10431000601CC4B2BC42F3DBBDE8F0810FB430B521
:104320009BB0054620A8019002A8019A1F9900F0B1
:1043300015F8044600200190E2B202A92846FFF7D2
:10434000D7FF20461BB030BC5DF814FBFA640008B0
:104350004700002000040240704700001CB50C46D6
:10436000064B7B4469460090204600F0C8F804469E
:104370000020694600F0D6F820461CBDBF010000B1
:10438000704770477047704770B50446856900688C
:10439000C10601D5302600E02026C00708D070BD38
:1043A000D4E9012130469047206A00F101002062E3
:1043B0006D1EF5D570BD70B5044685690068C007EF
:1043C00008D170BDD4E9012120209047206A00F176
:1043D000010020626D1EF5D570BD09684A0501D542
:1043E00040B27047C905FCD500B2704709684A055C
:1043F00001D5C0B27047C905FCD580B2704770B511
:1044000005460C46012A05D02868800600D5EA69D1
:10441000002302E0012305E05B1C934202D2E05C32
:104420000028F9D1A869E618C01AA861286A1844BA
:1044300028622846FFF7A8FF04E0D5E9012114F817
:10444000010B9047B442F8D32846FFF7B4FF70BD84
:104450002DE9F0410746002510687529394616A454
:1044600011D0FFF7BAFF002803DAC0F1000013A44F
:1044700007E039688A0701D511A402E0490704D58D
:1044800010A4012501E0FFF7B1FF00210A2307F185
:10449000240607E0B0FBF3F203FB12003030705447
:1044A0001046491C0028F5D12B4622463846BDE867
:1044B000F04100F06CBA0000000000002D00000088
:1044C0002B0000002000000011680268006A5305FC
:1044D00001D508700BE0D30501D5088007E013066D
:1044E00003D5C217C1E9000201E0520608600120AD
:1044F0007047000001694A1C02610878704700B5E6
:104500008FB0CDE901310021059105497944CDE90C
:1045100003101146684600F02FF90FB000BD0000EF
:10452000E5FFFFFF0A6802F8010B0A607047000010
:104530002DE9FF5F04468A461546DFF8AC80F84453
:104540000027D8E900103E46CDE9001011E03AF806
:1045500016106A4602A800F0B2FC411C07D0216880
:10456000890603D5E269391891420ED8074406F14D
:1045700001062068800602D5E069B84205DDAE423A
:10458000E5DB3AF816000028E1D1A069C01BA06164
:104590002046FFF7F9FED8E90010CDE90010002011
:1045A00016E03AF818106A4602A800F088FC814626
:1045B000401C0BD000250DF1080B05E0D4E90121CA
:1045C0001BF8050090476D1C4D45F7D308F101001D
:1045D000B0428046E5DB206A384420622046FFF77F
:1045E000EAFEBDE8FF9F0000AA2500002DE9F0418A
:1045F0008046D21D22F007020026D2E90002F529EA
:1046000014A512D0002A06DA0023D0EB030063EBD6
:10461000020211A508E0D8F800108B0701D50FA5FC
:1046200002E0490701D50EA501261146002408F134
:10463000240704E000F066F930323A55641C50EA71
:104640000102F7D133462A4621464046BDE8F041F3
:1046500000F09DB9000000002D0000002B000000BC
:104660002000000030B4002100F124040CE002F02E
:10467000070505F130054FEAD20242EA437265545C
:1046800001F101014FEAD30352EA0305EFD10468B7
:10469000002310A2250708D504F020040C4304D001
:1046A000C46901230CA2641EC46130BC00F06FB960
:1046B00010B5044621461068FFF798FE02462046D2
:1046C000BDE810400023CDE7D21D22F00701D1E95B
:1046D0000023C7E70000000030000000F0B40F46E0
:1046E0000168090502D5234C7C4402E0214C7C443E
:1046F0000E34002100F124050BE002F00F064FEA12
:104700001212A65D42EA03724FEA13136E5401F1CE
:10471000010152EA0306F0D122460468002324076F
:1047200004D5702F05D009B111320223F0BC00F07E
:104730002EB910320123F9E770B504460D46214623
:104740001068FFF753FE024629462046BDE8704038
:104750000023C3E7D21D22F00703D3E90023BDE7FE
:104760000368126843F0200303600823C361002339
:10477000B4E70000082400002DE9F05F04468946F4
:104780004FF0000ADFF878B1FB44C0F820A02046C3
:10479000E1688847002875D0252806D0D4E9012192
:1047A0009047206A401C2062F1E700265F462046C1
:1047B000E16888472028054608DB312D06D207EB43
:1047C000050010F8200C08B10643F0E7B00701D54A
:1047D00026F00406C4F81CA00027C4F818A02A2D4F
:1047E00009D0284601F08BF838B304EB8708303D38
:1047F000C8F8185019E059F8041B204604EB87024A
:104800009161E1688847012F054618D1E0690028C9
:1048100020DA26F020061DE0D8F8180000EB800012
:1048200005EB40003038C8F818002046E16888479A
:10483000054601F064F80028EED1012F0AD02E2D94
:1048400008D12046E16888477F1C0546022F46F0C4
:104850002006C4DBA069002803DA404246F00106C6
:10486000A061F00701D026F010066C2D0BD0682D4A
:1048700009D04C2D39D06A2D35D0742D35D07A2DF4
:1048800033D016E038E0E1682F4620468847B8422A
:10489000054609D16C2F26D04FF48060E1680643AD
:1048A00020468847054604E06C2F1AD04FF48070EC
:1048B00006430DB3A5F14100192802D8203546F46E
:1048C00000664A462946204626604E46FBF7B6FC5F
:1048D00080B101280BD0F61D26F0070000F1080971
:1048E00055E74020E4E78020D8E70020D6E706F12E
:1048F00004094CE7284651E7206ABDE8F09F000014
:104900009023000030B5B0F10A024FEA900E71F129
:1049100000034EEA817EB0EB0E0061EB91014FEA9D
:10492000101E4EEA017E10EB0E0041EB11114FEA12
:10493000102E4EEA016E10EB0E0041EB11214FEAF2
:10494000104E4EEA014E10EB0E0041EB11414018A3
:1049500041F100014FEAD00040EA41704FEAD10135
:1049600010EB80054FEA810444EA907444EB0104A3
:104970006D1944EB0404521BA3414FF0000348BFE0
:104980000A3200D530BD401C41F1000130BD2DE997
:10499000F0470D4604469246994600F12408016806
:1049A000880604D5E06921F01001216000E00120B3
:1049B000A84202DDA0EB050700E00027A16907EB94
:1049C000050202EB0900A1EB0000A0612068C0060F
:1049D00002D42046FFF7D8FC002608E0D4E90121E4
:1049E0001AF806009047206A401C761C20624E454B
:1049F000F4DB2068C0060AD52046FFF7C5FC06E0B8
:104A0000D4E9012130209047206A401C2062381EE2
:104A1000A7F10107F4DC07E0D4E9012118F805004B
:104A20009047206A401C2062281EA5F10105F3DC96
:104A30002046FFF7C0FC2068000602D50220BDE832
:104A4000F0870120FBE770472DE9FF4F0C461E461B
:104A50004FF0FF378BB0D2E90001DDF860800A909B
:104A60008A46C1F30A5505B93D46002108464FF074
:104A70000000BAF1000F00F4400005DA00EB8000FE
:104A80004FF4400101EA50004FEA9059B9F1010F8B
:104A900000DDB9460A9850EA4A000FD044F610509B
:104AA000A5F2FF3545432F14B8F1000F1FD0754212
:104AB000291E1FDD4846C9F100021CE0B8F1010FB4
:104AC0004FF0000001D1F24307E0302101E0215412
:104AD000401CB042FBDB30460022002121540B99E0
:104AE000C1F80880C1E900200FB0BDE8F08FBD1B00
:104AF0006D1CDDE74A4600DA694206A800F070FA4C
:104B000006AB07CB03AB07C350460A9900F024FB62
:104B10008DE80700A0F500501F3800900398002D85
:104B200009DD42F21F014A46084403A90390684682
:104B300000F083FD08E0A0F500504A461F3803A9A5
:104B40000390684600F08DFD8DE807000004000C1E
:104B500003D04FF0FF30410800E01046B8F1000FDD
:104B600003D00022009215461FE0751E06D4FFF701
:104B7000C9FE02F1300262556D1EF8D5B34601221E
:104B8000084302D000227F1C04E02078302801D1A5
:104B900000227F1E002A099786D01DE0112D07DA1A
:104BA000FFF7B0FE303262556D1C50EA0102F5D1BC
:104BB00008430FD10021681E05E0235C625C63544A
:104BC000491C2254401E8142F7DBAB46A81B401E05
:104BD000099001E0009848B1002004F80B000B9800
:104BE000099AC0F80880C0E9002B7DE711264FF034
:104BF000000859E72DE9F04F88460446D21D22F0FF
:104C0000070191B0D1E90001CDE90A0100F05FFE92
:104C100002460B98C00F01D02D2007E020688107C5
:104C200001D52B2002E0202101EAC000032A0990CF
:104C300001D0072A05DB03464146204600F090F9E3
:104C40000EE12068800601D5E06900E00620B8F199
:104C5000650F814606D0B8F1660F18D0B8F1670F1E
:104C600072D132E00020B9F1110F009001DB112365
:104C700001E009F101030AAA01A90CA8FFF7E4FE6B
:104C8000DDE90C70002609F10105834648E00120AA
:104C90004B4600904FF000470AAA01A90CA8FFF765
:104CA000D3FEDDE90C050E990026AB4619B909F1D2
:104CB000010100EB0105B9EB050003D4C0F1FF369B
:104CC00009F10105A5EB09002BE0B9F1010F01DAAB
:104CD0004FF001090020B9F1110F0090484601DDA5
:104CE000112300E003460AAA01A90CA8FFF7ACFEB5
:104CF000DDE90C704D4600268346206800070AD483
:104D0000AB4500DA5D4601A8012D04DD411911F81B
:104D1000011C302907D04F4502DA17F1040F04DADD
:104D20000120824610E06D1EEEE7002F02DCED1B35
:104D30003E4403E0781CA84200DD0546A7EB0600D0
:104D400000F1010A4FF000472068000703D4AA458C
:104D500001DB4FF0FF3A0021B7F1004F0DF143089E
:104D60008DF8431022D002202B23002F01DA7F423E
:104D70002D230A22011EA0F1010000DC4FB197FB98
:104D8000F2F102FB117C0F460CF1300C08F801CD5A
:104D9000F0E7A8F1010003702168090501D545215C
:104DA00000E06521A0F1010800F8011C09980FA995
:104DB000A1EB080707F1070700B1012000EB05018F
:104DC00001EBEA70A1693844A1EB0000A0F10100F9
:104DD000A0612068C00602D42046FFF7D5FA0998E2
:104DE00030B1D4E901219047206A00F1010020622E
:104DF0002068C00620D52046FFF7C6FA1CE0002E2A
:104E000004DBB34502DD01A8805D00E03020D4E979
:104E100001219047206A761C401CBAF1010A2062E9
:104E20000AD100F099F8C0680168405CD4E901211A
:104E30009047206A401C2062281EA5F10105DEDC97
:104E400007E0D4E9012118F8010B9047206A401CC3
:104E50002062381EA7F10107F3DC2046FFF7ABFA0A
:104E6000022011B041E610B5436913B1AFF30080E1
:104E700001E0FFF7C4FA012010BD126800F124011F
:104E80000A7000224A700122EDE711684FF0FF32EC
:104E9000E9E710B5436913B1AFF3008001E0FFF714
:104EA00047FB012010BD126800F12401828400221A
:104EB000C2840122EDE711684FF0FF32E9E770B5D7
:104EC00005460C46164600F03FF8036893F80101CA
:104ED000012806D0FF2C0FD8185D68B101202C7076
:104EE00070BDD3F807013246214603442846BDE889
:104EF000704003F2071318474FF0FF3070BD75463E
:104F000000F0E6F8AE4605006946534620F007007B
:104F1000854618B020B5FBF709FBBDE820404FF0EF
:104F200000064FF000074FF000084FF0000B21F093
:104F30000701AC46ACE8C009ACE8C009ACE8C00960
:104F4000ACE8C0098D46704710B500F005F8001DAB
:104F500010BD00BFE509000000487047380400207C
:104F60002DE9F04104461F4603260168072A01F493
:104F7000006004DB08B116A505E016A503E008B142
:104F800015A500E015A521F010002060A069C01E45
:104F9000A0610FB1401EA0612046FFF7F5F94FB1A7
:104FA000D4E9012138469047206A401C2062C01C89
:104FB000206206E0206AFAE7D4E9012115F8010B26
:104FC0009047761EF8D22046FFF7F5F9BDE8F0814C
:104FD0004E414E006E616E00494E4600696E66009D
:104FE0002DE9F047814616468AB035487844D0E925
:104FF000002380680092CDE90130314878440C38B4
:10500000D0E90223006903924FF03702CDE9043062
:1050100041F69B30014491FBF2F0A0F1800502FBC8
:1050200010141B3C02D56442012000E00020DFF890
:1050300090A080460027FA44AAF1C60A0DE0E007D6
:1050400009D03246684607EB47010AEB810100F0C0
:1050500008FB8DE8070064107F1C002CEFD1184F6F
:105060007F44B43F17E0E80713D007EB04100DF1BD
:10507000180A90E80E00AAE80E00C068F04201D1BC
:1050800098190890324606A903A800F0EAFA03AB83
:1050900007C36D10641C002DE5D132466946B8F196
:1050A000000F03A802D000F0C8FA01E000F0D9FA1E
:1050B000C9E90001C9F808200AB0BDE8F08700007E
:1050C000BC1B00000446AFF300802046FBF71BF931
:1050D00000487047180400204FF0013C50F8042BA2
:1050E00051F8043B9A4221D1A2EB0C03934313EAFB
:1050F000CC1317D150F8042B51F8043B9A4215D128
:10510000A2EB0C03934313EACC130BD150F8042BFE
:1051100051F8043B9A4209D1A2EB0C03934313EAE2
:10512000CC13DBD04FF00000704700BFD01A01BA9B
:10513000B1FA81F101F0180122FA01F0CB40C1F17E
:105140002001DBB2C0B2C01A2CFA01F3D11A91438C
:1051500011EAC311E6D170475FEA400C08BF91F035
:10516000000F4FEA8C234FEAC12243EA51514FEA24
:105170001C5018BF00F5F0404FEA300018BF41F056
:1051800000415FEA6C5C00F02980BCF1FF3F08BF82
:1051900040F080407047130C06BF12044FF0100C13
:1051A0004FF0000C130E04BF12020CF1080C130F89
:1051B00004BF12010CF1040C930F04BF92000CF118
:1051C000020CD30F04BF52000CF1010C11464FF03A
:1051D0000002A0F11F00A0EB0C00704711F0004F7F
:1051E00008BF704731F000413FF4D5AF0B0C06BF4C
:1051F00009044FF0100C4FF0000C0B0E04BF090215
:105200000CF1080C0B0F04BF09010CF1040C8B0FFF
:1052100004BF89000CF1020CCB0F04BF49000CF154
:10522000010CCCF12003A0EB0C0022FA03F302FAEC
:105230000CF241EA030100F10100704720F07F4CBD
:1052400080EA030023F07F47ACEB070303F57C53B0
:1052500000F0004003F1FF032DE980494FEA154BB0
:1052600009B44FEA144325EA0B4E24EA03480FF22F
:10527000042606EB132749083E785FEA320203FB57
:105280000667C7F5000707FB06F64FEA54374FEAF3
:10529000D64606F1020607FB066CCCF1005C4FEA2D
:1052A0001C472CEA074C07FB06F40CFB06F504EB45
:1052B00015464FEA961634BF00204FF000404FEAE3
:1052C000D13706FB07FC4FEA1C4C0CFB0BF7D21B3B
:1052D00003FB0CF761EB07010CFB0EF7B0EB07408B
:1052E00072EB17420CFB08F734BFA2EB0742B2EB9C
:1052F000074261EB17414FEA0C444FEA910706FB66
:1053000007FC4FEA1C4C0CFB0BF7B0EBC74072EBF1
:10531000573203FB0CF734BFA2EBC742B2EBC742D4
:1053200061EB57310CFB0EF7B0EBC70072EB577215
:105330000CFB08F734BFA2EBC702B2EBC70261EB6C
:105340005771039F4FEA816141EA921104EBCC044B
:105350004FEAD1374FEA826206FB07FC42EA90121D
:105360004FEA80604FEA1C4C0CFB0BF7D21B03FB8F
:105370000CF761EB07010CFB0EF7B0EB074072EB8B
:1053800017420CFB08F734BFA2EB0742B2EB07420F
:1053900061EB17414FEA8C554FEA910704EB9C24CF
:1053A00006FB07FC4FEA1C4C0CFB0BF7B0EBC740AD
:1053B00072EB573203FB0CF734BFA2EBC742B2EBE0
:1053C000C74261EB57310CFB0EF7B0EBC70072EB35
:1053D00057720CFB08F734BFA2EBC702B2EBC7024F
:1053E00061EB577115EB4C254FEA816141EA92114F
:1053F0004FEA82624FEAD13742EA901206FB07FC7D
:1054000044F100044FEA80604FEA1C4C0CFB0BF7A0
:10541000D21B03FB0CF761EB07010CFB0EF7B0EBA3
:10542000074072EB17420CFB08F734BFA2EB0742B0
:10543000B2EB074261EB174115EB1C154FEA8131C6
:1054400041EA92414FEA823242EA90424FEA80308A
:105450004FEA0C7644F1000448EA03434EEA0B4855
:105460004FF0000EB2EB080C71EB030724BF62464D
:1054700039464EEB0E0E4FF0000B001852414941D9
:105480004BEB0B0BB2EB080C71EB03077BF1000B42
:1054900024BF624639464EEB0E0E4FF0000B00184B
:1054A000524149414BEB0B0BB2EB080C71EB03077C
:1054B0007BF1000B24BF624639464EEB0E0E51EADB
:1054C000020718BF46F0010616EB0E7655F10002F2
:1054D00054F1000103D5BDE88901BDE80088BDE8AD
:1054E0008901BDE80048B619524141EB0101A3F121
:1054F0000103704780807F7E7D7C7B7A7978777628
:1055000076757473727171706F6E6E6D6C6C6B6AA0
:105510006A6968686766666564646363626161603E
:10552000605F5F5E5E5D5D5C5C5B5B5A5A595958BB
:105530005857575656555555545453535252525125
:10554000515050504F4F4F4E4E4D4D4D4C4C4C4B7B
:105550004B4B4A4A4A4949494848484747474746C2
:1055600046464545454444444443434343424242FE
:1055700042414141002B26D4770021D01CB54FEA8F
:10558000370703B44FF010004FF010014FF0000048
:105590000FBCBDE810400BF1010BBBF1010F08BFC0
:1055A0005FEA170722BF12F1010211F101014FF06A
:1055B000004143F1000300F0004043EA000070475F
:1055C000F9D35708DAE746EA064613F1400F4FEAE7
:1055D00016461FDD13F1200FDFBF16430A460021D8
:1055E00020335B42C8D0C3F1200746EA064602FAE0
:1055F00007F74FEA164646EA0706C3F1200722FAE4
:1056000003F201FA07F721FA03F14FF0000342EA2F
:105610000702B1E746EA020646EA06464FEA1646A0
:1056200046EA0106BCBF46EA0646360C4FF00003C8
:105630004FF000024FF000019EE72DE9C04893466D
:1056400030B491E8380007C831EA400C48BF34EA6A
:10565000430C03D5FFF7F2FDFFF78CFFF0BCBDE86C
:1056600000882DE9C048934630B491E8380007C857
:1056700010F0804F08BF13F0804F03D100F005F801
:10568000FFF778FFF0BCBDE8008820F07F4780EA94
:10569000030023F07F4C07EB0C03A3F57C5300F0D1
:1056A0000040A3F1FE0392F0000F00F0B38095F0EC
:1056B000000F00F077802DE901494FEA11404FEAD1
:1056C000144621EA004800FB06FC24EA064708FBD2
:1056D00006F607FB08F800FB07F718EB06484CEB4B
:1056E000164C4FEA124B18EB07484FEA15464CEBA5
:1056F000174022EA0B4E0BFB06FC25EA06470EFB81
:1057000006F607FB0EFE0BFB07F71EEB064E4CEBF7
:10571000164C4FF000061EEB074E4CEB174B18EBE8
:105720000B0840F1000018EB0E0B58EB000840F19D
:1057300000008F1A4FF000013CBFC943661B14BF25
:10574000B5EB040C00213CBFC943F61B4FEA1744DC
:105750004EEA8E0E27EA04454FEA1C4704FB076217
:105760002CEA074C05FB07F70CFB05F604FB0CFCC9
:1057700016EB074642EB174216EB0C4642EB1C4277
:105780001BEB060658EB0202414146EA9E0601D594
:10579000BDE80189B619524141EB0101A3F10103B2
:1057A000BDE801894FEA14454FEA114724EA05464E
:1057B00021EA074C05FB07F406FB07F70CFB06F193
:1057C00005FB0CFC11EB074144EB17444FEA124771
:1057D00011EB0C4144EB1C4422EA074C05FB07F299
:1057E00006FB07F70CFB06F605FB0CFC16EB074661
:1057F00042EB174216EB0C4642EB1C456A1854F17B
:10580000000148BF7047B619524141EB0101A3F1B5
:105810000103704795F0000F37D04FEA11424FEA6D
:10582000144721EA024624EA074C02FB07F106FB73
:1058300007F70CFB06F402FB0CFC14EB074441EBEE
:1058400017414FEA154714EB0C4441EB1C4125EA84
:10585000074C02FB07F506FB07F70CFB06F602FBFD
:105860000CFC16EB074645EB174516EB0C4645EBD3
:105870001C42121951F1000148BF7047B61952413C
:1058800041EB0101A3F1010370474FEA14454FEAD0
:10589000114724EA054621EA074C05FB07F106FB00
:1058A00007F70CFB06F24FF0000605FB0CFC12EBB1
:1058B000074241EB174112EB0C4251EB1C4148BF30
:1058C0007047921841EB0101A3F10103704703B443
:1058D00001984100009850EAC12018BF04204A0DE9
:1058E00018BF40F0010040F2FF72B2EB515F08BFF9
:1058F00040F00200012808BF052002B07047303890
:105900000A2801D2012070470020704710B50029F5
:105910000AD00878002807D005487844FFF7DCFB58
:10592000002801D0002010BD0248784410BD0000BE
:10593000CA120000C212000010B500290AD008786F
:10594000002807D005487844FFF7C6FB002801D09F
:10595000002010BD0248784410BD0000BA120000BB
:10596000B212000021F00042A2F16052B2F5801F95
:1059700001F0004328BFD2F17F6C0BD95FEA001C15
:1059800043EAC20242EB507018BF704728BF20F0B4
:1059900001007047B2F5801FBCBF184670474FEA40
:1059A000410C1CF5001F02D2084600F08BBC70B5FC
:1059B00000F0C8FA00000089FFF7F6BF4FF0004082
:1059C000A0F580007047000010B591EA030F48BFB2
:1059D00083F0004300F11E83841A71EB030C05D29F
:1059E000121943EB0C03001B61EB0C01DFF824E1FF
:1059F0004FEA1154A4EB135C1EEA430F18BF9EEA52
:105A0000445F73D023EA0E03DCF1200E21EA045137
:105A100043F4801332D322FA0CFE10EB0E0023FA6B
:105A20000CFE41EB0E01CCF1200E03FA0EFE10EB42
:105A30000E0051F10001B1F5801FCCF1200E32D2E1
:105A400001EB045112FA0EF2BDE8104058BF704746
:105A5000401C38BF5FEA420218BF7047002814BFDD
:105A600020F0010041F100014FEA410313F5001F4E
:105A700038BF7047A1F1C04100F0B2BA012A43EB30
:105A80000302ACF1200CDCF11F0E32BF4FF0000E10
:105A900023FA0CF310EB030041EB0451B4EB115F5C
:105AA000D0D0A1EB045101F5801149085FEA300024
:105AB00001EB04510ED350F1000038BF12FA0EFE74
:105AC00008D1BDE81040C9E7401C38BF5FEA420278
:105AD000CAD1C3E7BDE810404FEA410313F5001FE8
