:020000040800F2
:10000000C8060020D10400088124000883240008C9
:10001000872400088B2400088F24000800000000BB
:100020000000000000000000000000009324000811
:1000300095240008000000009724000811280008FB
:10004000EB040008EB040008EB040008EB040008D4
:10005000EB040008EB04000899240008B124000810
:10006000EB040008EB040008EB040008EB040008B4
:10007000EB040008EB040008EB040008EB040008A4
:10008000EB040008EB040008EB040008EB04000894
:10009000EB040008EB040008EB040008EB04000884
:1000A000EB040008EB040008EB040008EB04000874
:1000B000E92500083F26000855260008EB04000843
:1000C000EB040008EB040008EB040008C924000856
:1000D000D5240008E1240008EB04000831250008BD
:1000E000EB040008EB040008EB040008D526000828
:1000F000AD260008EB040008EB040008EB04000840
:10010000EB040008EB0400086B260008EB04000871
:10011000EB040008EB04000881260008972600087D
:10012000EB040008EB040008EB040008EB040008F3
:10013000EB040008EB040008EB040008EB040008E3
:10014000EB040008EB040008EB040008EB040008D3
:10015000EB040008EB040008EB0400088525000808
:10016000EB040008EB040008EB040008EB040008B3
:10017000EB040008EB040008EB040008EB040008A3
:10018000EB040008EB04000800F002F800F092F81D
:100190000AA090E8000C82448344AAF10107DA45E2
:1001A00001D100F087F8AFF2090EBAE80F0013F0A2
:1001B000010F18BFFB1A43F001031847DC5B000076
:1001C000FC5B0000103A24BF78C878C1FAD8520707
:1001D00024BF30C830C144BF04680C6070470000C1
:1001E0000023002400250026103A28BF78C1FBD840
:1001F000520728BF30C148BF0B6070476E2903F01B
:10020000CB86702904F01480662905F0578565298E
:1002100005F05485672905F051856129AFF3008009
:1002200003681B0A28BF41F08001692903F0788622
:10023000642903F07586752903F072866F2903F02F
:100240009F87782903F0E087E92903F03787E429BD
:1002500003F03487F52903F03187EF2903F09C87F9
:10026000F82903F0DF870368DB0928BF41F080012C
:10027000632904F06A83732904F06F83E32904F08F
:100280007A83F32904F07F83002070471FB505F0BF
:100290000BFD04F0C9FB04000020002105F0B4F8B8
:1002A000401C60600020002105F098F8E0601FBD50
:1002B00010B510BD04F08BFB1146FFF7E7FF02F00D
:1002C00053F804F067FC03B4FFF7F2FF03BC03F03C
:1002D0003BFB000000210020724A126842F4803289
:1002E000704B1A6000BF6F4A126802F40030491C5C
:1002F00010B9B1F5A06FF6D16A4A126812F4003F46
:1003000001D0012000E00020012845D1654A40329B
:10031000126842F08052634B40331A60624A12689E
:1003200042F48042604B1A605E4A083212685D4BAC
:1003300008331A601A46126842F400421A601A46DC
:10034000126842F4A0521A60584A1B1F1A601A1F02
:10035000126842F080721B1F1A6000BF514A126877
:1003600012F0007FFAD040F20562514B1A604D4AFC
:100370000832126822F003024A4B08331A601A4608
:10038000126842F002021A6000BF464A0832126840
:1003900002F00C02082AF8D1704710B545480068F1
:1003A00040F47000434908603E48006840F0010096
:1003B0003C49086000203B49083108603948006822
:1003C0003D490840374908603C48091D0860081F3E
:1003D000006820F48020091F0860002031490C319A
:1003E0000860FFF777FF4FF00060324980390860FE
:1003F00010BD30B500200022022384460221294C82
:100400000834246804F00C0020B1042806D0082821
:1004100036D107E02A4C2B4D2C6035E02A4C294D73
:100420002C6031E01F4C241D2468C4F3805C1D4CFB
:10043000241D246804F03F01BCF1000F0AD0224CB7
:10044000B4FBF1F4174D2D1D2D68C5F3881504FB81
:1004500005F209E01A4CB4FBF1F4124D2D1D2D6884
:10046000C5F3881504FB05F20E4C241D2468C4F363
:100470000144641C6300B2FBF3F4124D2C6003E0F2
:100480000F4C104D2C6000BF00BF064C0834246890
:10049000C4F303140D4D285D0A4C2468C440094D73
:1004A0002C6030BD0038024000700040042043043E
:1004B000003C024088ED00E0FFFFF6FE1030002413
:1004C0000024F4000000002000127A000400002044
:1004D0000948804709480047FEE7FEE7FEE7FEE7D8
:1004E000FEE7FEE7FEE7FEE7FEE7FEE70448054914
:1004F000054A064B704700009B030008890100086D
:10050000C8000020C8060020C8020020C802002041
:1005100033490143334A1160704770B5002100230D
:100520000F22C47824B32F4C246804F4E064C4F58B
:10053000E064C4F30721C1F10404E3B20A41447842
:100540009C40E1B28478144021430C07210E264CD4
:1005500005786155047804F01F050124AC40057846
:100560006D114FF0E02606EB8505C5F8004109E066
:10057000047804F01F050124AC401C4D0678761168
:1005800045F8264070BD1A4A0A400243154B1B1F0E
:100590001A60704739B1134A121D12680243114B99
:1005A0001B1D1A6006E00F4A121D126882430D4B94
:1005B0001B1D1A607047042808D14FF0E02109691B
:1005C00041F004014FF0E022116107E04FF0E0211B
:1005D000096921F004014FF0E02211617047000029
:1005E0000000FA050CED00E000E400E080E100E02E
:1005F00080FFFF1F002044490860091D0860091D95
:100600000860091D086041483F491431086070477F
:1006100000213D498279002A3AD00A4612680368CF
:100620009A430B461A600A1D126803689A430B1D11
:100630001A60027911440A6803681A430A60324A50
:100640000832126803689A432F4B08331A601A1D48
:10065000126803689A432C4B0C331A604279102AB3
:100660000ED11A1F126803681A43274B08331A6009
:100670001A1D126803681A43234B0C331A600DE0ED
:100680002149427911440A6803681A430A6005E067
:10069000027911440A6803689A430A60704700218E
:1006A000016001710C21417100218171704716496F
:1006B000103109680143144A103211607047014635
:1006C0000020114A143212680A4201D0012000E0D1
:1006D000002070470C491431086070470146002023
:1006E0000022094B1B6803EA0102074B14331B6805
:1006F0000B4202D00AB1012000E0002070470249FD
:100700001431086070470000003C0140FFFF7F008B
:1007100010B504468848844208D10121084600F0FB
:10072000F1FA0021012000F0EDFA5EE083488442F6
:1007300008D10121022000F0E5FA0021022000F09A
:10074000E1FA52E07E48844208D10121042000F001
:10075000D9FA0021042000F0D5FA46E07948844215
:1007600008D10121082000F0CDFA0021082000F076
:10077000C9FA3AE07448844208D10121102000F0FF
:10078000C1FA0021102000F0BDFA2EE06F4884422B
:1007900008D10121202000F0B5FA0021202000F02E
:1007A000B1FA22E06A48844208D10121402000F0D9
:1007B000A9FA0021402000F0A5FA16E0654884421D
:1007C00008D10121802000F09DFA0021802000F056
:1007D00099FA0AE06048844207D10121801500F0AF
:1007E00091FA0021A01500F08DFA10BD70B50A46EF
:1007F000002100238C4600BF3DE0012404FA01F3F0
:10080000146804EA030C9C4534D104684E000325A7
:10081000B540AC43046014794D00AC4005682C43EE
:1008200004601479012C02D01479022C16D184684A
:100830004E000325B540AC43846054794D00AC4074
:1008400085682C438460446801258D40AC43446036
:10085000446895798D40ADB22C434460C4684E0025
:100860000325B540AC43C460D4794D00AC40C568A5
:100870002C43C460491C1029BFD370BD4FF6FF71D3
:1008800001600021017141718171C17170474FF4A4
:1008900080320A43C261C161C261C269C2697047E4
:1008A0000246002013690B4201D0012000E0002025
:1008B00070470146086980B27047024600205369BC
:1008C0000B4201D0012000E000207047014648693A
:1008D00080B2704701837047418370470AB101833A
:1008E00000E0418370474161704742694A4042617C
:1008F000704770B500239C464C07E40E02FA04F3DF
:10090000CD1000F1200454F825404D07EE0E0F25C0
:10091000B540AC43CE1000F1200545F82640CD107F
:1009200000F1200454F8254044EA030CCD1000F1F6
:10093000200444F825C070BD0000024000040240BD
:1009400000080240000C0240001002400014024067
:1009500000180240001C024000200240FA480068D3
:1009600040F00100F84908600020F74908310860AC
:10097000F5480068F5490840F3490860F448091D46
:100980000860081F006820F48020091F086000200C
:10099000ED490C31086070470021EB4A921C117040
:1009A00011460870704710B5014600220023002050
:1009B0004A11012A02D1E44C236808E0022A03D13B
:1009C000E14C7034236802E0DF4C7434236801F09A
:1009D0001F02012494401C4201D0012000E00020AD
:1009E00010BD70B500240025002600BF3120FFF7A0
:1009F000DAFF0646641CB4F5A06F01D0002EF5D0D6
:100A00003120FFF7D0FF08B1012500E0002528467E
:100A100070BD01460020CC4A106820F0F80040EA82
:100A2000C10010607047CB49086070470021C64A7A
:100A3000703211701170012802D004280AD104E02C
:100A40000121C14A7032117005E00521BE4A7032A1
:100A5000117000E000BF00BF7047BF4908607047D9
:100A600030B5DDF80CC041EA82140125C5EB530511
:100A700044EA0544044344EA0C64B34D2D1D2C6044
:100A800030BDB44908667047820142EA0172AE4B3C
:100A900084331A607047AF4988667047AD49C864AF
:100AA000704702460020A84B0833186820F0EC601D
:100AB00042EA01031843A44B08331860704702460A
:100AC0000020A14B0833186820F0784042EA010367
:100AD00018439D4B083318607047014600209A4A1E
:100AE0000832106820F003000843106070479648F1
:100AF0000830006800F00C00704701460020924A60
:100B00000832106820F0F00008431060704701467A
:100B100000208D4A0832106820F4E050084310602D
:100B2000704701460020884A0832106820F460406F
:100B300040EAC10010607047F0B500210022002497
:100B400002258C460223804E0836366806F00C01DA
:100B500021B1042905D0082933D105E07F4E066074
:100B600032E07F4E06602FE0774E361D3668C6F3C2
:100B7000805C754E361D366806F03F03BCF1000FF1
:100B80000AD0774EB6FBF3F66F4F3F1D3F68C7F3B1
:100B9000881706FB07F409E0704EB6FBF3F66A4FC0
:100BA0003F1D3F68C7F3881706FB07F4664E361DE6
:100BB0003668C6F30146761C7500B4FBF5F6066090
:100BC00002E0664E066000BF00BF5F4E0836366822
:100BD00006F0F0010909634E725C0668D640466073
:100BE000594E0836366806F4E051890A5D4E725C4B
:100BF0004668D6408660544E0836366806F4604132
:100C0000490B584E725C4668D640C660F0BD002164
:100C100000F44072B2F5407F0AD14B4A08321168A5
:100C200021F4F811504A02401143474A083211603A
:100C3000454A70321268C0F30B031A43424B7033BB
:100C40001A60704744494439086070474249403946
:100C50000860704745490860704739B13A4A3032F8
:100C600012680243384B30331A6006E0364A30329D
:100C700012688243344B30331A60704739B1324ABC
:100C8000343212680243304B34331A6006E02E4A85
:100C90003432126882432C4B34331A60704739B1B6
:100CA000294A383212680243274B38331A6006E06B
:100CB000254A383212688243234B38331A60704712
:100CC00039B1214A4032126802431F4B40331A6047
:100CD00006E01D4A4032126882431B4B40331A60C3
:100CE000704739B1184A443212680243164B4433F4
:100CF0001A6006E0144A443212688243124B4433AD
:100D00001A60704739B1104A1032126802430E4B14
:100D100010331A6006E00C4A1032126882430A4B04
:100D200010331A60704739B1074A1432126802430F
:100D3000054B14331A6006E0034A143212688243EA
:100D4000014B14331A60704700380240FFFFF6FE73
:100D50001030002400004742800E47420024F40077
:100D600000127A0014000020FFFCFF0F5C014742D4
:100D700029B1574A12680243554B1A6004E0544A9D
:100D800012688243524B1A60704739B1504A083298
:100D9000126802434E4B08331A6006E04C4A083290
:100DA000126882434A4B08331A60704739B1484A87
:100DB0000C3212680243464B0C331A6006E0444A78
:100DC0000C3212688243424B0C331A60704739B1BF
:100DD0003F4A3832126802433D4B38331A6006E00E
:100DE0003B4A383212688243394B38331A607047B5
:100DF00039B1374A3C3212680243354B3C331A60F2
:100E000006E0334A3C3212688243314B3C331A606D
:100E1000704739B12E4A4032126802432C4B40339E
:100E20001A6006E02A4A403212688243284B403357
:100E30001A60704739B1264A483212680243244B7F
:100E400048331A6006E0224A483212688243204B37
:100E500048331A60704739B11D4A4C321268024358
:100E60001B4B4C331A6006E0194A4C32126882431D
:100E7000174B4C331A60704739B1154A0B3A127848
:100E80000243134B0B3B1A7008E0114A0B3A1278DD
:100E9000C343DBB21A400E4B0B3B1A7070470C4831
:100EA0005C30006840F0807009495C310860704730
:100EB00001460020064A0C3A12680A4201D001207D
:100EC00000E00020704702490A39087070470000AE
:100ED0001838024010B50446F948844208D101216F
:100EE0008014FFF763FF0021A014FFF75FFF16E0F7
:100EF000F448844208D101210014FFF746FF002185
:100F00002014FFF742FF0AE0EF48844207D1012195
:100F1000C013FFF73AFF0021E013FFF736FF10BDC3
:100F200010B50022028802F441520B884C882343FA
:100F30008C882343CC8823430C8923434C89234347
:100F40008C892343CC8923431A430280838B4FF23D
:100F5000FF74234083830B8A038210BD2DE9F04F79
:100F600000250223002401270022002694469046F3
:100F70009146B0F81CA04FF2400B0AEA0B0AA0F809
:100F80001CA04FF0020AA0F820A0858BD1F808A081
:100F9000BAF1020F01D100BF67E0B1F804A0BAF1C5
:100FA000000F01D1012700E00227DFF820A3DAF8C3
:100FB00000A01AF4000F09D0DFF810A3DAF800A09F
:100FC0002AF4000ADFF804B3CBF800A0DFF8FCA293
:100FD0000AF17C0ADAF800A0CAF38818DFF8ECA25C
:100FE0000AF17C0ADAF800A0CAF30279DFF8DCA281
:100FF000AAF1040ADAF800A00AF03F0CDFF8D0A248
:10100000BAFBFCFA0AFB08FABAFBF9F6B1F806A03B
:10101000BAF5007F0ED14FEA162A0AEB8A0A4FEA88
:101020004A0AD1F808B0BAFBFBFA0AF1050A1FFA1E
:101030008AF20FE04FEA471AB6FBFAFA0AEB8A0A7D
:101040004FEA4A0AD1F808B0BAFBFBFA0AF1050ADE
:101050001FFA8AF24FF00A0AB2FBFAF202F0010418
:10106000A2EB040ACAF34F032402022B01DBFF2B7D
:1010700001DD02230024B1F806A04AEA040A4AEA84
:10108000030AA0F820A0B1F804A0B1F80CB04AEA15
:101090000B0AB1F802B04AEA0B0AB1F800B04AEA0A
:1010A0000B0A4AF4006A4AEA05058583BDE8F08F19
:1010B0000021018041808180C18001814181818145
:1010C000C181072101827047002101804180818018
:1010D000C1800221816000218181704721B1028895
:1010E00042F04002028004E002884FF6BF731A40CB
:1010F0000280704721B1828B42F48062828304E0D7
:10110000828B4FF6FF331A408283704702884FF27A
:10111000FF731A40028002880A4302807047B1F5CB
:10112000804F04D1028842F48042028004E00288A9
:101130004BF6FF731A4002807047A1F57E42FF3ADA
:1011400004D0028842F48072028004E002884FF6E4
:10115000FF631A400280704721B1828842F0040286
:10116000828004E082884FF6FB731A4082807047C9
:1011700021B1828842F01002828004E082884FF61A
:10118000EF731A408280704730B500220023848BB1
:101190004FF240052C40848302240484828B0C8807
:1011A000B4F5007F01D00C8814B94FF4807308E0C7
:1011B0000C88B4F5407F03D00C88B4F5807F00D153
:1011C00000238C888D892C434D882C431C4344F488
:1011D00000642243828330BD014688897047818143
:1011E000704721B1028842F40052028004E0028874
:1011F0004DF6FF731A4002807047018841F4805118
:101200000180704702460020012901D0108B00E0C8
:10121000908A70470146088A704710B51AB18388D2
:101220000B43838004E08388CC43A4B223408380B3
:1012300010BD30B54FF0000C00234FEA211C0124F3
:1012400004FA0CF4A3B21AB184881C43848004E02D
:101250008488DD43ADB22C40848030BD024600203E
:1012600013890B4201D0012000E000207047CA43DF
:101270000281704770B50246002000240023844696
:1012800001F00F060125B540ACB20B1101259D40C0
:10129000ABB2958805EA030C1589254204D0BCF150
:1012A000000F01D0012000E0002070BD10B5002229
:1012B00001F00F040123A3409AB2D343038110BD70
:1012C0000030014000380040003C00400838024037
:1012D00000127A0010B50446FE48844208D101216C
:1012E0000846FFF763FD00210120FFF75FFD9DE049
:1012F000B4F1804F08D101210846FFF746FD0021D7
:101300000120FFF742FD91E0F348844208D101211A
:101310000220FFF73AFD00210220FFF736FD85E0AD
:10132000EE48844208D101210420FFF72EFD002160
:101330000420FFF72AFD79E0E948844208D1012121
:101340000820FFF722FD00210820FFF71EFD6DE0B9
:10135000E448844208D101211020FFF716FD002146
:101360001020FFF712FD61E0DF48844208D101211F
:101370002020FFF70AFD00212020FFF706FD55E0A1
:10138000DA48844208D101210220FFF70FFD002135
:101390000220FFF70BFD49E0D548844209D1012125
:1013A0000804FFF703FD00214FF48030FFF7FEFC37
:1013B0003CE0D048844209D101214804FFF7F6FC03
:1013C00000214FF40030FFF7F1FC2FE0CA488442BF
:1013D00009D101218804FFF7E9FC00214FF48020A6
:1013E000FFF7E4FC22E0C548844208D101214020F7
:1013F000FFF7CBFC00214020FFF7C7FC16E0C048F8
:10140000844208D101218020FFF7BFFC0021802009
:10141000FFF7BBFC0AE0BB48844207D101218015DD
:10142000FFF7B3FC0021A015FFF7AFFC10BD0022B1
:101430000288A84B98420ED0AC4B98420BD0B0F12A
:10144000804F08D0A44B984205D0A44B984202D0BC
:10145000A34B984204D14FF68F731A404B881A431E
:10146000A04B984207D0A04B984204D04FF6FF43C0
:101470001A400B891A4302804B68C3620B880385AC
:10148000944B984202D0994B984201D18B7A0386B3
:101490000123838270474FF0FF31416000210180BA
:1014A00001814180817270470185828270470A46BE
:1014B000002101884FF68F73194011430180704756
:1014C00041627047C16270470146486A70470146F1
:1014D000088D704721B1028842F00202028004E0C8
:1014E00002884FF6FD731A400280704721B10288CE
:1014F00042F00402028004E002884FF6FB731A40B7
:101500000280704721B1028842F08002028004E02C
:1015100002884FF67F731A400280704702884FF6A8
:10152000F7731A40028002880A43028070470288DB
:101530004FF6FF431A40028002880A430280704738
:1015400021B1028842F00102028004E002884FF6D5
:10155000FE731A400280704730B54FF0000C002235
:101560000023048C4FF6FE752C400484028C838883
:10157000B0F818C04FF68F740CEA040CAC1E0CEADD
:10158000040C0C8844EA0C0C6C1E22408C8922430B
:101590004C8822434F4CA04202D0544CA04213D15D
:1015A0004FF6F7742240CC8922434FF6FB74224059
:1015B0008C8822434FF6FF6423404FF6FF542340AC
:1015C0000C8A23434C8A23438380A0F818C08C687C
:1015D0004463028430BD30B54FF0000C002200237C
:1015E000048C4FF6EF752C400484028C8388B0F88D
:1015F00018C048F6FF740CEA040C4FF6FF440CEADE
:10160000040C0C8824064CEA144C4FF6DF7422407C
:101610008C89240542EA14424C88240542EA14428B
:101620002C4CA04202D0314CA0421BD14FF67F740B
:101630002240CC89240542EA14424FF6BF7422406E
:101640008C88240542EA14424FF6FF3423404FF2BF
:10165000FF7423400C8AA40443EA14434C8AA40474
:1016600043EA14438380A0F818C08C688463028422
:1016700030BD30B54FF0000C00220023048C4FF633
:10168000FF652C400484028C8388B0F81CC04FF6A0
:101690008F740CEA040C4FF6FC740CEA040C0C88F2
:1016A00044EA0C0C4FF6FF5422408C89240642EA8F
:1016B00014424C88240642EA1442064CA04202D04E
:1016C0000A4CA04237D14FF2FF742240CC89240645
:1016D0001AE0000000000140000400400008004043
:1016E000000C0040001000400014004000040140C5
:1016F0000040014000440140004801400018004003
:10170000001C00400020004042EA14424FF6FF3423
:1017100022408C88240642EA14424EF6FF7423408D
:101720004DF6FF7423400C8A240543EA14434C8A87
:10173000240543EA14438380A0F81CC08C68C4636A
:10174000028430BD30B5002200239446048C4EF64E
:10175000FF752C400484038CB0F804C0828B48F6DB
:10176000FF7422404FF6FF4422400C88240642EAD0
:1017700014424DF6FF7423408C89240743EA144336
:101780004C88240743EA1443FE4CA04202D0FE4C8E
:10179000A04207D14BF6FF740CEA040C0C8AA40596
:1017A0004CEA144CA0F804C082838C68046403845F
:1017B00030BD002101804180818081608181C181B3
:1017C00001824182704730B50346002084461846A6
:1017D000183001248C401FFA84FC1C8C6FEA0C0525
:1017E000ADB22C401C8409B108290AD100EB61007C
:1017F00004684FF68F752C4004600468144304603D
:101800000DE00C1FA4B200EB6400046848F6FF75FD
:101810002C4004600468150644EA1544046030BD99
:101820004163704781637047C163704701647047CB
:101830000A460021018B4FF68F7319401143018333
:1018400070470A460021018B48F6FF7319401306C2
:1018500041EA1341018370470A460021818B4FF60C
:101860008F7319401143818370470A460021818B91
:1018700048F6FF731940130641EA1341818370470C
:101880000A460021018B4FF6F7731940114301837B
:1018900070470A460021018B4FF2FF73194013066F
:1018A00041EA1341018370470A460021818B4FF6BC
:1018B000F77319401143818370470A460021818BD9
:1018C0004FF2FF731940130641EA134181837047B9
:1018D0000A460021018B4FF6FB7319401143018327
:1018E00070470A460021018B4FF6FF33194013065B
:1018F00041EA1341018370470A460021818B4FF66C
:10190000FB7319401143818370470A460021818B84
:101910004FF6FF331940130641EA134181837047A4
:101920000A460021018B4FF67F7319401143018352
:1019300070470A460021018BC1F30E01130641EAEC
:101940001341018370470A460021818B4FF67F7354
:1019500019401143818370470A460021818BC1F3EE
:101960000E01130641EA1341818370470A460021A4
:10197000018C4FF6FD7319401143018470470A46EC
:101980000021018C4FF6F773194011430184704711
:101990000A460021018C4FF6DF731940130541EA16
:1019A0001341018470470A460021018C4FF67F7372
:1019B0001940130541EA1341018470470A4600218A
:1019C000018C4FF6FF531940130641EA134101847D
:1019D00070470A460021018C4FF2FF73194013062D
:1019E00041EA1341018470470A460021018C4DF6FB
:1019F000FF731940130741EA13410184704730B562
:101A0000002301248C40A3B2048CDD43ADB22C40F2
:101A10000484048C02FA01F5ADB22C43048430BD79
:101A200030B5002304248C40A3B2048CDD43ADB256
:101A30002C400484048C02FA01F5ADB22C430484DA
:101A400030BD828B4FF2FF331A408283828B0B06AC
:101A500042EA134282837047F0B50C4615460021D6
:101A600000228C46068C4EF6FF773E400684818B22
:101A7000028C26074FEA164C40F6FF4631402E06F0
:101A800041EA16411E0741EA164145F6FF7632400B
:101A90004CF48056324381830284F0BD828B4FF632
:101AA000F3731A408283828B0A4382837047F0B5B6
:101AB0000C461546002100228C46068C4FF6FF6727
:101AC0003E400684818B028C26064FEA164C4FF668
:101AD0000C7631401E0545EA164631434FF2FF565B
:101AE00032404CF48076324381830284F0BD028B15
:101AF0004FF2FF331A400283028B0B0642EA134275
:101B000002837047F0B50C461546002100228C4632
:101B1000068C4FF6EF773E400684018B028C26053B
:101B20004FEA164C40F6FF4631401E0741EA164187
:101B30002E0641EA16414FF65F7632404CF0100611
:101B4000324301830284F0BD028B4FF6F3731A40D7
:101B50000283028B0A430283704770B58C46144699
:101B600000210022058C4FF6FE7635400584018B5E
:101B7000028C4FF60C7529401D0544EA1545294392
:101B800004E0000000000140000401404FF6F5753C
:101B90002A404CF001052A430183028470BD70B5D0
:101BA00005460C46208850B92389A28861882846BA
:101BB000FFF7D3FFE1882846FFF7C6FF25E020881E
:101BC00004280AD12389A28861882846FFF79AFF52
:101BD000E1882846FFF78BFF17E0208808280AD104
:101BE0002389A28861882846FFF761FFE18828469B
:101BF000FFF754FF09E02389A28861882846FFF790
:101C00002BFFE1882846FFF71CFF70BD00210180F3
:101C10004180012181800021C180018170472DE92F
:101C2000F04105460C4600260127608808B90226C7
:101C300000E00026A088012801D1022700E001274A
:101C40002088A0B92389A28861882846FFF785FFEC
:101C5000E1882846FFF778FF23893A46314628462F
:101C6000FFF750FFE1882846FFF741FF13E0238983
:101C7000A28861882846FFF745FFE1882846FFF7DC
:101C800036FF23893A4631462846FFF766FFE1884A
:101C90002846FFF759FFBDE8F0810146486B7047C1
:101CA0000146886B70470146C86B70470146086C57
:101CB00070470A884B881A438B881A43CB881A438B
:101CC0000B891A434B891A438B891A43A0F8442085
:101CD00070470021018041808180C1800181418164
:101CE0008181704731B1B0F8442042F40042A0F83D
:101CF000442005E0B0F84420C2F30E02A0F84420CE
:101D0000704721B1828842F00402828004E0828818
:101D10004FF6FB731A408280704721B1828842F0EF
:101D20000102828004E082884FF6FE731A408280AE
:101D3000704710B51AB183890B43838104E083890E
:101D4000CC43A4B22340838110BD818270470246F8
:101D50000020138A0B4201D0012000E000207047D0
:101D6000CA430282704710B5024600200023844611
:101D7000148A04EA0103948904EA010C23B1BCF13A
:101D8000000F01D0012000E0002010BDCA430282F4
:101D9000704741EA0203A0F84830704710B51AB105
:101DA00083890B43838104E08389CC43A4B223401D
:101DB000838110BD21B1828842F00802828004E054
:101DC00082884FF6F7731A408280704701894FF678
:101DD000F8721140018170470A46002101894FF6CF
:101DE0008F73194011430181704730B504460D4689
:101DF00029462046FFF7F0FF208940F007002081A8
:101E000030BD2DE9F04104460D4616461F46602DB3
:101E100006D13B46012231462046FFF773FE05E01E
:101E20003B46012231462046FFF797FE29462046D1
:101E3000FFF7D2FF208940F007002081BDE8F08144
:101E400010B58C4600210189C9B21C0642EA14442F
:101E500044EA0C042143018110BD2DE9F0410546FF
:101E60000E4617469846002443463A4631462846D1
:101E7000FFF7E6FF2C894FF6F870044044F00704A2
:101E80004FF68F70044044F070042C81BDE8F0815F
:101E9000F0B504460D4616461F463B4632462946D7
:101EA0002046FFF7CDFF208940F480402081F0BD1F
:101EB00082884FF68F731A40828082880A4382801C
:101EC000704702894FF6F8731A40028102890A436B
:101ED0000281704702894FF67F731A40028102899E
:101EE0000A430281704770B58C4614461D46002196
:101EF000002200230189028B038C4FF6F8763140D3
:101F000041EA0C014FF6FC46324040F201163243E2
:101F10004FF6DD7633402E0544EA16463343018101
:101F20000283038470BD21B1828842F080028280E6
:101F300004E082884FF67F731A4082807047A0F8D1
:101F40005010704710B50446F848844208D101216A
:101F50001020FEF72BFF00211020FEF727FF3EE0A8
:101F6000F348844209D101214804FEF70EFF002105
:101F70004FF40030FEF709FF31E0EE48844209D10A
:101F800001218804FEF701FF00214FF48020FEF7B5
:101F9000FCFE24E0E848844209D10121C804FEF790
:101FA000F4FE00214FF40020FEF7EFFE17E0E348B7
:101FB000844209D101210805FEF7E7FE00214FF414
:101FC0008010FEF7E2FE0AE0DD48844207D10121DD
:101FD0002020FEF7EBFE00212020FEF7E7FE10BDDB
:101FE0002DE9FF4705460E460024A14600BFA04646
:101FF000B08900B100BF2C8A24F44054F088044317
:102000002C82AC8941F20C608443B088318908434A
:10201000718908430443AC81AC8A24F44074B089CC
:102020000443AC826846FEF787FDC048854202D073
:10203000C348854202D1DDF80C9001E0DDF808903C
:10204000A88910F4004F08D009EBC90000EB091073
:1020500031684900B0FBF1F707E009EBC90000EB7C
:10206000091031688900B0FBF1F76420B7FBF0F08C
:1020700004012009642101FB1078A88910F4004FA5
:1020800008D0322000EBC800B0FBF1F000F00700F0
:10209000044308E0322000EB08106421B0FBF1F0AB
:1020A00000F00F0004432C81BDE8FF874FF4165168
:1020B000016000218180C18001810C2141810021CA
:1020C0008181704710B502460020108A20F47060AC
:1020D0000B884C8823438C882343CC8823431843A4
:1020E000108210BD0021018041808180C180704735
:1020F00021B1828942F40052828104E082894DF646
:10210000FF731A4082817047028B02F47F42028380
:10211000028B0A430283704721B1828942F4004254
:10212000828103E08289C2F30E028281704721B16D
:10213000828A42F40062828204E0828A4FF2FF7354
:102140001A4082827047C1F30802828070470146BC
:102150008888C0F308007047028A4FF6F0731A406F
:102160000282028A0A430282704721B1828942F0C8
:102170000202828104E082894FF6FD731A40828157
:10218000704782894FF2FF731A40828182890A4325
:1021900082817047028A4FF6DF731A400282028AF8
:1021A0000A430282704721B1028A42F480420282CD
:1021B00004E0028A4BF6FF731A400282704781895D
:1021C00041F001018181704721B1828A42F0080209
:1021D000828204E0828A4FF6F7731A408282704747
:1021E000028BD2B20283028B42EA01220283704741
:1021F00021B1828A42F02002828204E0828A4FF674
:10220000DF731A408282704721B1828A42F0100245
:10221000828204E0828A4FF6EF731A40828270470E
:10222000828A4FF6FB731A408282828A0A43828234
:10223000704721B1828A42F00202828204E0828ADF
:102240004FF6FD731A408282704710B51AB1838A27
:102250000B43838204E0838ACC43A4B2234083826D
:1022600010BD70B503460024A44600250020A1F54A
:1022700010666A3E00D100BF1846C1F3421401F057
:102280001F0C012606FA0CF5012C01D10C3004E0DC
:10229000022C01D1103000E014301AB106682E4330
:1022A000066002E00668AE43066070BD024600208C
:1022B000B1F5007F00D100BF13880B4201D001208F
:1022C00000E00020704701F40072B2F5007F00D1F9
:1022D00000BFCA430280704730B502460024002385
:1022E0009C460020A1F510656A3D00D100BFC1F3F6
:1022F000421C01F01F03012505FA03F3BCF1010F95
:1023000002D195892B4007E0BCF1020F02D1158A5A
:102310002B4001E0958A2B400C12012505FA04F4AC
:1023200015882C4073B16CB101200CE00010014005
:102330000044004000480040004C00400050004075
:1023400000140140002030BD10B500220023A1F58B
:1023500010646A3C00D100BF0A1201249440A3B269
:10236000DC43048010BD00002DED028B8AB00020FC
:1023700008EE100A2821684601F042FD0024FEF70D
:102380000CF84FF4A060FEF7C3F800F031FE6420B3
:1023900000F073FA4FF47A3000F0E4FF4FF47A3033
:1023A00001F0BEF901F05AFB00F0FFFE4FF4FA70A5
:1023B00000F0C9FD54E000241FE000F08CFE08EEA0
:1023C000100AB8EE480AF0EE000A20EE200ADFED0F
:1023D000250A80EE201A9FED240A21EE000ADFED87
:1023E000230A80EE201A684600EB840080ED001A74
:1023F000502000F042FA601CC4B20A2CDDDB0A2136
:10240000684600F01FFF9DED060ADDED070A30EE7D
:10241000200ADDED080A30EE200ADDED090A30EE73
:10242000200AF1EE000A80EE201A114880ED001A11
:1024300090ED000ADFED0F0A80EE201ABCEEC10A13
:102440000D4880ED000A00F047FF1C210B4801F009
:10245000D4FA1C21094801F08AFAC82000F00DFACC
:10246000A9E70000000080476F1283405F536F3E72
:102470002400002017B7D138280000204800002091
:10248000704700BFFEE700BFFEE700BFFEE700BFEA
:10249000FEE770477047704710B50120FEF71EF940
:1024A00028B10120FEF72BF90120FEF713F910BD2A
:1024B00010B50220FEF712F928B10220FEF71FF92D
:1024C0000220FEF707F910BD10B560214148FEF764
:1024D000D1FE10BD10B560213F48FEF7CBFE10BD08
:1024E00010B540F226613D48FFF7F6FE40B140F2DC
:1024F00026613A48FFF728FF40213848FFF7E3FEFE
:1025000040F225513548FFF7E7FE40B140F2255132
:102510003248FFF719FF20213048FFF7D4FE082189
:102520002E48FFF7C3FE10B12C48FFF710FE10BD78
:1025300010B540F226612A48FFF7CEFE48B140F2BE
:1025400026612748FFF700FF40212548FFF7BBFE23
:1025500010BD40F225512248FFF7BEFE40B140F2C7
:1025600025511F48FFF7F0FE20211D48FFF7ABFE65
:1025700008211B48FFF79AFE10B11948FFF7E7FD45
:1025800000BFE5E710B540F226611648FFF7A4FE4C
:1025900040B140F226611348FFF7D6FE40211148B2
:1025A000FFF791FE40F225510E48FFF795FE40B12E
:1025B00040F225510B48FFF7C7FE20210948FFF7DD
:1025C00082FE08210748FFF771FE10B10548FFF7AA
:1025D000BEFD10BD00300140003800400010014039
:1025E000004800400014014010B52DED028B002082
:1025F00008EE100A01218807FFF7B5FBE0B10121C1
:102600008807FFF7C3FB00F066FD08EE100AB8EE7E
:10261000480AF0EE000A20EE200ADFED690A80EE9B
:10262000201A9FED680A21EE000ADFED670A80EEAE
:10263000201A664880ED001ABDEC028B10BD10B563
:1026400001216348FFF78FFB18B101216048FFF7B4
:102650009DFB10BD10B501215E48FFF784FB18B14A
:1026600001215C48FFF792FB10BD10B501215A48CB
:10267000FFF779FB18B101215748FFF787FB10BD21
:1026800010B501215548FFF76EFB18B101215348E1
:10269000FFF77CFB10BD10B501215148FFF763FB2C
:1026A00018B101214E48FFF771FB10BD10B5012193
:1026B0004C48FFF758FB60B101214A48FFF766FB21
:1026C00000214848FEF73CFF002201214548FFF762
:1026D00030FB10BD10B52DED088B01214248FFF7EE
:1026E00042FB002868D001213F48FFF74FFB3F48DD
:1026F0000088401C3D49088008460088012808D110
:1027000001213B48FEF7E8F802213948FEF7E4F8DA
:1027100052E03648008802284BD101213448FEF7A8
:10272000D9F802213248FEF7D5F800202F49088059
:102730003048006803F0B0F841EC100BB0EE40AA4E
:10274000F0EE60AA9FED2C0B53EC102B51EC1A0B02
:1027500002F04AFF41EC100BB0EE409AF0EE609AA6
:102760009FED270B53EC102B51EC190B03F0A8F83D
:1027700041EC100BB0EE408AF0EE608A9FED200B2A
:1027800053EC102B51EC180B03F098F941EC100BA3
:10279000B0EE40BAF0EE60BA51EC1B0B02F04AFE0C
:1027A0001949086001201949087000201149086082
:1027B00002E000200D490880BDEC088B10BD000030
:1027C000000080476F1283405F536F3E240000205B
:1027D0000004004000080040000C004000100040D1
:1027E00000140040000401400018004030000020A8
:1027F00000040240380000200000000079D8624147
:102800000000000000005940400000203C00002073
:102810000120FE490870704770B503460020FB494F
:1028200008705901B1F1807F00D31DE021F07F4095
:10283000401E4FF0E022506150170F22002807DAA7
:102840001407260EF24C00F00F052D1F665503E00D
:102850001407250EEF4C255400BF00204FF0E02256
:1028600090610720106100BF00BFE8480078002891
:10287000FBD00020E549087070BD30B50446002546
:1028800000BF04E04FF47A70FFF7C6FF6D1CA5424D
:10289000F8D330BD0146002001E0421C90B28842CE
:1028A000FBDB70471FB504461C208DF80C0001208F
:1028B0008DF80D008DF80E008DF80F0003A8FDF7C0
:1028C0002CFE01210846FEF7FBF94FF08040FEF791
:1028D00001FD600001904AF20F40ADF800000020B9
:1028E000ADF80800ADF8020069464FF08040FEF7F1
:1028F0009EFD01218807FFF733FA01221146900758
:10290000FFF717FA01218807FEF71AFE1FBD1FB552
:1029100004461D208DF80C0002208DF80D000020CB
:102920008DF80E0001208DF80F0003A8FDF7F5FDCE
:1029300001210220FEF7C4F9B748FEF7CBFC600086
:1029400001904AF20F40ADF800000020ADF80800F9
:10295000ADF802006946B048FEF769FD0121AE48B6
:10296000FFF7FEF901221146AB48FFF7E2F901211A
:10297000A948FEF7E5FD1FBD1FB504461E208DF8D2
:102980000C0001208DF80D008DF80E008DF80F0061
:1029900003A8FDF7C2FD01210420FEF791F99F482D
:1029A000FEF798FC5420604301900020ADF8000031
:1029B000ADF80800ADF8020069469848FEF737FD0B
:1029C00001219648FFF7CCF9012211469348FFF701
:1029D000B0F901219148FEF7B3FD1FBD08B51E20D7
:1029E0008DF8000003208DF8010000208DF8020012
:1029F00001208DF803006846FDF78FFD0122114686
:102A00008648FFF796F901218448FEF799FD08BD35
:102A100030B58BB004460D4601210420FEF750F975
:102A20007E48FEF757FC0794681E80B2ADF8180088
:102A30000020ADF82000ADF81A0006A97748FEF78F
:102A4000F6FC01A8FEF7B5FE6020ADF804000120F9
:102A5000ADF806004FF4FA7003900020ADF81000B6
:102A600001A96E48FEF778FD08216C48FEF708FFC3
:102A700001216A48FEF746FD01216848FFF770F919
:102A8000012211466548FFF754F901216348FEF71A
:102A900057FD022206216248FDF72BFF40200990D6
:102AA00002208DF8280000208DF829008DF82A00DA
:102AB00001208DF82B0009A95948FDF797FE0BB0AE
:102AC00030BD1FB5044632208DF80C0002208DF871
:102AD0000D0001208DF80E008DF80F0003A8FDF702
:102AE0001CFD01210820FEF7EBF84E48FEF7F2FB33
:102AF000600001904AF20F40ADF800000020ADF8F0
:102B00000800ADF8020069464648FEF790FC012136
:102B10004448FFF725F9012211464248FFF709F919
:102B200001214048FEF70CFD00203F4908703F4955
:102B300008703F4908701FBD08B532208DF80000AD
:102B400003208DF8010000208DF8020001208DF88F
:102B500003006846FDF7E1FC012211463148FFF70A
:102B6000E8F801212F48FEF7EBFC08BD30B58BB02B
:102B700004460D4601210820FEF7A2F82948FEF779
:102B8000A9FB0794681E80B2ADF818000020ADF8CC
:102B90002000ADF81A0006A92248FEF748FC01A85B
:102BA000FEF707FE6020ADF804000120ADF8060036
:102BB000C82003900020ADF8100001A91948FEF7C5
:102BC000CBFC08211748FEF75BFE01A91548FEF76C
:102BD00002FD08211348FEF75CFE01A91148FEF72B
:102BE00048FD08210F48FEF75FFE01A90D48FEF7DA
:102BF000A9FD08210B48FEF760FE01210948FEF7F8
:102C000081FC01210748FFF7ABF813E032000020F8
:102C100018ED00E000E400E000040040000800407F
:102C200000040240000C004033000020340000206B
:102C30003500002001221146DE48FFF77AF8012115
:102C4000DC48FEF77DFC02220021DB48FDF751FE47
:102C500002220121D848FDF74CFE02221146D64837
:102C6000FDF747FE02220321D348FDF742FE0F2065
:102C7000099002208DF8280000208DF829008DF899
:102C80002A0001208DF82B0009A9CB48FDF7AEFDE5
:102C90000BB030BDC9480078401CC84908700846D0
:102CA00000783C2806D100200870C5480078401CF8
:102CB000C3490870C24800783C2807D10020C049A9
:102CC0000870C0480078401CBE49087070471FB5A6
:102CD000044636208DF80C0002208DF80D008DF88A
:102CE0000E0001208DF80F0003A8FDF716FC01214E
:102CF0001020FDF7E5FFB448FEF7ECFA04EB840082
:102D00004000019042F2CF00ADF800000020ADF885
:102D10000800ADF802006946AB48FEF788FB0121C8
:102D2000A948FFF71DF801221146A748FFF701F84F
:102D30000121A548FEF704FC1FBD1FB5044637203E
:102D40008DF80C0001208DF80D0002208DF80E008A
:102D500001208DF80F0003A8FDF7DFFB01212020E3
:102D6000FDF7AEFF9948FEF7B5FA600001904AF210
:102D70000F40ADF800000020ADF80800ADF80200EB
:102D800069469248FEF753FB01219048FEF7E8FFA1
:102D9000012211468D48FEF7CCFF01218B48FEF73A
:102DA000CFFB1FBD1FB504462C208DF80C00012061
:102DB0008DF80D008DF80E008DF80F0003A8FDF7BB
:102DC000ACFB01210220FDF78CFF8148FEF782FA5F
:102DD0000194A720ADF800000020ADF80800ADF880
:102DE000020069467A48FEF722FB01217848FEF787
:102DF000B7FF012211467648FEF79BFF0021744879
:102E0000FEF79EFB1FBD1FB5044618208DF80C0071
:102E100002208DF80D008DF80E0001208DF80F00B6
:102E200003A8FDF77AFB01210804FDF75AFF694862
:102E3000FEF750FA04EB84004000019044F29F102A
:102E4000ADF800000020ADF80800ADF802006946BA
:102E50006048FEF7ECFA01215E48FEF781FF01228F
:102E600011465C48FEF765FF01215A48FEF768FBF2
:102E70001FBD1FB5044619208DF80C0001208DF8E8
:102E80000D008DF80E008DF80F0003A8FDF745FB2F
:102E900001214804FDF725FF4F48FEF71BFA04EB1C
:102EA00084004000019044F29F10ADF80000002023
:102EB000ADF80800ADF8020069464748FEF7B7FADA
:102EC00001214548FEF74CFF012211464248FEF71A
:102ED00030FF01214048FEF733FB1FBD1FB50446FC
:102EE0001A208DF80C0001208DF80D008DF80E00D1
:102EF0008DF80F0003A8FDF710FB01218804FDF7F2
:102F0000F0FE3648FEF7E6F904EB8400400001903D
:102F100044F29F10ADF800000020ADF80800ADF8B5
:102F2000020069462D48FEF782FA01212B48FEF780
:102F300017FF012211462948FEF7FBFE0121274811
:102F4000FEF7FEFA1FBD1FB504462B208DF80C00BE
:102F500003208DF80D0001208DF80E008DF80F0074
:102F600003A8FDF7DAFA01214020FDF7A9FE1C486D
:102F7000FEF7B0F904EB84004000019040F23F609E
:102F8000ADF800000020ADF80800ADF80200694679
:102F90001348FEF74CFA01211148FEF7E1FE012229
:102FA00011460F48FEF7C5FE01210D48FEF7C8FA8D
:102FB0001FBD0000000C0040000002403300002054
:102FC00034000020350000200010004000140040B4
:102FD000000401400040014000440140004801401D
:102FE0000018004010B501217F20FDF736FE10BD0E
:102FF0001CB501210220FDF730FE01208DF80400F0
:1030000000208DF806008DF805008DF807000320DC
:1030100000906946CC48FDF7E9FB0121CA48FDF75D
:1030200059FC0221C848FDF755FC1CBD10B5C74826
:10303000007838B10020C54908700121C248FDF769
:103040004BFC06E00120C14908700121BE48FDF794
:1030500041FC10BD10B5BE48007838B10020BC4915
:1030600008700221B848FDF737FC06E00120B84996
:1030700008700221B448FDF72DFC10BD2DE9F8437E
:1030800004460D46FDF76AFC0120FDF785FC00BFF4
:10309000FDF7A7FC0128FBD104262746A9464FF0DF
:1030A00007084B463A4631468005CDF80080FDF7CB
:1030B000D7FC0120FDF7E5FC0220FDF70EFD002006
:1030C000FDF71BFD4FF4A050FDF721FDB002FDF709
:1030D00028FDBDE8F883F8B5002000900024002604
:1030E000002700BF26E00026002000F030FD8DF80C
:1030F0000000002000F02BFD8DF80100002000F002
:1031000026FD8DF802009DF80240002000B1012646
:1031100004F00400042800D0012614F0020F00D0AF
:10312000012604F00100012800D0012606B903E0C1
:10313000781CC7B2052FD6DB00BF012E01D10025B8
:1031400008E09DF801009DF8001040EA0125A5F572
:10315000004085B22846F8BD7CB504468CB94020B5
:10316000009000208DF804008DF8050001208DF8F6
:10317000070069467448FDF739FB7648FEF7AAF860
:1031800012E042F2107090FBF4F510212846FFF790
:103190003FFC42F2107090FBF4F0322190FBF1F50D
:1031A00029466C48FEF73CFB7CBD1CB50121042080
:1031B000FDF753FD01208DF8040000208DF8060076
:1031C0008DF805008DF807000420009069466248DC
:1031D000FDF70CFB04216048FDF77CFB1CBD1CB512
:1031E00001210420FDF739FD01208DF804000020A5
:1031F0008DF806008DF805008DF80700022000907C
:1032000069465548FDF7F2FA02215348FDF764FB81
:103210001CBD1CB501210420FDF71FFD00208DF809
:1032200004008DF806008DF805008DF807000220D7
:10323000009069464848FDF7D9FA02214648FDF753
:103240004BFB1CBD10B502460023002000BF28E048
:10325000184621E002EB8004D4ED000A441C02EB86
:10326000840494ED001AF4EEC10AF1EE10FA11DDB7
:1032700002EB800494ED000A441C02EB8404D4EDBC
:10328000000A02EB8004C4ED000A441C02EB840433
:1032900084ED000A441CE0B24C1E8442DADC5C1C63
:1032A000E3B28B42D4DB10BD70B504460D4600215D
:1032B0008C460020294603E0665CB4444E1CF1B203
:1032C0009142F9DD6FEA0C00060E1E70060C5E706E
:1032D000060A9E70D87070BD18B5002412201F49D0
:1032E000087034204870562088707820C8701C48B8
:1032F0000068000E08711A480068000C48711848F0
:103300000068000A887116480068C871082404E043
:10331000002012490855601CC4B2182CF8DB6B461B
:10332000172200210D48FFF7BFFF9DF800000B4951
:1033300008769DF8010048769DF8020088769DF891
:103340000300C87618BD00000004024044000020BD
:10335000450000200008004000080240480000200E
:103360002800002010B586B0044601210846FDF76C
:1033700074FC01211020FDF7B4FC07220921FE484E
:10338000FDF7B7FA07220A21FB48FDF7B2FA4FF41E
:10339000C060049000208DF8150001208DF8160003
:1033A0008DF8170002208DF8140004A9F248FDF7EB
:1033B0001DFA00940020ADF80400ADF80600ADF849
:1033C0000800ADF80C000C20ADF80A006946EB4887
:1033D000FEF706FE0121E948FEF78AFE4021E74894
:1033E000FEF771FF2021E548FEF76DFF06B010BD26
:1033F00008B525208DF8000002208DF8010000207E
:103400008DF8020001208DF803006846FDF785F86D
:10341000002240F22771D948FEF723FF002240F234
:103420002551D648FEF71DFF08BD10B586B00446ED
:1034300001210846FDF711FC01214804FDF740FC7D
:1034400007220221CC48FDF754FA07220321CA487B
:10345000FDF74FFA0C20049000208DF815008DF830
:10346000160001208DF8170002208DF8140004A921
:10347000C148FDF7BBF900940020ADF80400ADF899
:103480000600ADF80800ADF80C000C20ADF80A00FD
:103490006946BB48FEF7A4FD0121B948FEF728FEA6
:1034A0004021B748FEF70FFF2021B548FEF70BFF7C
:1034B00006B010BD10B586B0044601210846FDF7E0
:1034C000CCFB01218804FDF7FBFB07220A21AD4854
:1034D000FDF70FFA07220B21AA48FDF70AFA4FF46D
:1034E0004060049000208DF815008DF81600012032
:1034F0008DF8170002208DF8140004A9A148FDF7EB
:1035000075F900940020ADF80400ADF80600ADF8A0
:103510000800ADF80C000C20ADF80A0069469A4886
:10352000FEF75EFD01219848FEF7E2FD4021964836
:10353000FEF7C9FE20219448FEF7C5FE06B010BD77
:1035400008B527208DF8000000208DF801008DF8C7
:10355000020001208DF803006846FCF7DEFF01221F
:1035600040F226618848FEF77CFE012240F2255198
:103570008548FEF776FE08BD10B586B004460121E9
:103580000846FDF76AFB0121C804FDF799FB0822F4
:1035900000217948FDF7ADF9082201217648FDF7B1
:1035A000A8F90320049000208DF815008DF816006E
:1035B00001208DF8170002208DF8140004A96E4830
:1035C000FDF714F900940020ADF80400ADF80600F2
:1035D000ADF80800ADF80C000C20ADF80A00694603
:1035E0006A48FEF7FDFC01216848FEF781FD402195
:1035F0006648FEF768FE20216448FEF764FE06B0C8
:1036000010BD08B534208DF8000000208DF80100B1
:103610008DF8020001208DF803006846FCF77DFF5D
:10362000012240F226615948FEF71BFE012240F2BA
:1036300025515648FEF715FE08BD10B586B0044664
:1036400001210846FDF709FB0121C804FDF738FBFD
:1036500008220C214E48FDF74CF9082202214D4862
:10366000FDF747F94FF48050049000208DF81500C5
:103670008DF8160001208DF8170002208DF8140037
:1036800004A94348FDF7B2F80420049000208DF807
:1036900015008DF8160001208DF8170002208DF816
:1036A000140004A93B48FDF7A1F800940020ADF8F0
:1036B0000400ADF80600ADF80800ADF80C000C20D1
:1036C000ADF80A0069463448FEF78AFC0121324809
:1036D000FEF70EFD40213048FEF7F5FD20212E4873
:1036E000FEF7F1FD06B010BD08B535208DF80000DD
:1036F00000208DF801008DF8020001208DF80300F4
:103700006846FCF70AFF012240F226612248FEF7D4
:10371000A8FD012240F225511F48FEF7A2FD08BD79
:1037200010B586B0044601210420FDF796FA012168
:103730002020FDF7D6FA082206211548FDF7D9F812
:10374000082207211248FDF7D4F8C0200490002079
:103750008DF8150001208DF816008DF81700022055
:103760008DF8140004A90A48FDF740F800940020E1
:10377000ADF8040012E0000000000240001001401B
:10378000004400400004024000480040004C00405B
:1037900000080240000C024000500040ADF8060056
:1037A000ADF80800ADF80C000C20ADF80A00694631
:1037B000A448FEF715FC0121A248FEF799FC402120
:1037C000A048FEF780FD20219E48FEF77CFD06B054
:1037D00010BD08B547208DF8000001208DF80100CC
:1037E00003208DF8020001208DF803006846FCF7E5
:1037F00094FE002240F226619248FEF732FD00223C
:1038000040F225518F48FEF72CFD08BD10B5044647
:103810008D48848000BF40218B48FEF747FD00287B
:10382000F9D010BD10B504468848048000BF40217F
:103830008648001FFEF73AFD0028F8D010BD10B5ED
:1038400004468348048000BF40218148001FFEF7E2
:103850002DFD0028F8D010BD10B504467D48048029
:1038600000BF40217B48001FFEF720FD0028F8D054
:1038700010BD10B504467848848000BF40217648CA
:10388000FEF714FD0028F9D010BD10B504466D48B0
:10389000001D048000BF40216A48FEF707FD002894
:1038A000F9D010BD10B500BF20216748FEF7FEFC1F
:1038B0000028F9D064488088C4B2204610BD10B5F5
:1038C00000BF20216148001FFEF7F0FC0028F8D05F
:1038D0005E480088C4B2204610BD10B500BF20214C
:1038E0005B48001FFEF7E2FC0028F8D0584800882B
:1038F000C4B2204610BD10B500BF20215548001F9E
:10390000FEF7D4FC0028F8D052480088C4B2204604
:1039100010BD10B500BF20214F48FEF7C7FC00289E
:10392000F9D04D488088C4B2204610BD10B500BF04
:1039300020214448FEF7BAFC0028F9D04148001D78
:103940000088C4B2204610BD014600BF704770B564
:1039500004460D4600BF40213A48FEF7A7FC002868
:10396000F9D0E0B23749091D0880204670BD70B516
:1039700005460E46002400BF04E0285DFFF746FF21
:10398000601C84B2B442F8DB70BD70B505460E46CB
:10399000002400BF04E0285DFFF744FF601C84B2F0
:1039A000B442F8DB70BD70B505460E46002400BF7A
:1039B00004E0285DFFF743FF601C84B2B442F8DBEB
:1039C00070BD70B505460E46002400BF04E0285DBA
:1039D000FFF742FF601C84B2B442F8DB70BD70B5E3
:1039E00005460E46002400BF04E0285DFFF741FFB6
:1039F000601C84B2B442F8DB70BD70B505460E465B
:103A0000002400BF04E0285DFFF73FFF601C84B284
:103A1000B442F8DB70BD0FB410B59AB01DA8009089
:103A200001A8009A1C9900F0D9F9044600200090E2
:103A3000A1B201A8FFF7E1FF20461AB010BC5DF863
:103A400014FB000000140140001001400444004039
:103A500004480040044C00400050004000B587B0CE
:103A600001210803FDF73DF901210846FDF7F5F8AE
:103A700005221146D248FCF73CFF05220621D0481A
:103A8000FCF737FF05220721CD48FCF732FF022063
:103A90008DF8180000208DF81A0001208DF81B0009
:103AA00002208DF81900E020059005A9C448FCF714
:103AB0009DFE01208DF8180000208DF81A008DF869
:103AC0001B0002208DF819001020059005A9BC48A4
:103AD000FCF78CFE1021BA48FCF7FCFEB948FDF754
:103AE000F9F90020ADF80000ADF804000220ADF8AF
:103AF00006000120ADF808004002ADF80A001820C9
:103B0000ADF80C000020ADF80E000720ADF8100055
:103B10004FF48270ADF802006946AA48FDF700FA3A
:103B20000121A848FDF7DAFA07B000BD08B5232047
:103B30008DF8000001208DF8010000208DF80200B2
:103B400001208DF803006846FCF7E7FC08BD01463C
:103B500000BF9C48008910F0020FFAD0994881817B
:103B600000BF9848008910F0010FFAD0954880896D
:103B7000C0B2704700B587B001218803FDF7A0F8F7
:103B800001210220FDF769F805220D218E48FCF77E
:103B9000B0FE05220E218C48FCF7ABFE05220F215A
:103BA0008948FCF7A6FE02208DF8180000208DF849
:103BB0001A0001208DF81B0002208DF819004FF427
:103BC0006040059005A98048FCF710FE01208DF8A3
:103BD000180000208DF81A0001208DF81B0002202B
:103BE0008DF81900C002059005A97748FCF7FEFD85
:103BF0004FF480517448FCF76DFE7448FDF76AF984
:103C00000020ADF80000ADF804000220ADF8060079
:103C10000120ADF808004002ADF80A001820ADF808
:103C20000C000020ADF80E000720ADF810004FF496
:103C30008270ADF8020069466448FDF771F9012110
:103C40006248FDF74BFA07B000BD08B524208DF897
:103C5000000001208DF8010000208DF802000120F5
:103C60008DF803006846FCF758FC08BD014600BF0C
:103C700056480830008810F0020FF9D053480C3035
:103C8000018000BF51480830008810F0010FF9D0C2
:103C90004E480C300088C0B2704700B587B0012193
:103CA000C803FDF70DF801210420FCF7D6FF06221A
:103CB0000A214748FCF71DFE06220B214448FCF769
:103CC00018FE06220C214248FCF713FE02208DF854
:103CD000180000208DF81A0001208DF81B0002202A
:103CE0008DF819004FF4E050059005A93848FCF70D
:103CF0007DFD01208DF8180000208DF81A000120AC
:103D00008DF81B0002208DF819000003059005A90D
:103D10002F48FCF76BFD4FF400512D48FCF7DAFDFE
:103D20002C48FDF7D7F80020ADF80000ADF80400EE
:103D3000ADF80600ADF808004FF40070ADF80A00C9
:103D40003820ADF80C000020ADF80E000720ADF8CB
:103D500010004FF48270ADF8020069461D48FDF76F
:103D6000DFF801211B48FDF7B9F907B000BD08B520
:103D700033208DF8000000208DF8010002208DF81E
:103D8000020001208DF803006846FCF7C6FB08BD61
:103D9000014600BF0F480830008810F0020FF9D02C
:103DA0000C480C30018000BF0A480830008810F031
:103DB000010FF9D007480C300088C0B270470000EE
:103DC0000000024000300140000402400038004082
:103DD00000080240003C0040704700001CB50C4643
:103DE000064B7B4469460090204600F0F0F80446FC
:103DF0000020694600F0FEF820461CBD0F020000BE
:103E00004FF0000200B5134694469646203922BF73
:103E1000A0E80C50A0E80C50B1F12001BFF4F7AFBE
:103E2000090728BFA0E80C5048BF0CC05DF804EBA0
:103E3000890028BF40F8042B08BF704748BF20F80E
:103E4000022B11F0804F18BF00F8012B704770470C
:103E500070477047704770B5044685690068C106B1
:103E600001D5302600E02026C00708D070BDD4E977
:103E7000012130469047206A00F1010020626D1E4A
:103E8000F5D570BD70B5044685690068C00708D1D6
:103E900070BDD4E9012120209047206A00F1010083
:103EA00020626D1EF5D570BD09684A0501D540B286
:103EB0007047C905FCD500B2704709684A0501D5AD
:103EC000C0B27047C905FCD580B2704770B50546D1
:103ED0000C46012A05D02868800600D5EA6900232F
:103EE00002E0012305E05B1C934202D2E05C002863
:103EF000F9D1A869E618C01AA861286A184428628E
:103F00002846FFF7A8FF04E0D5E9012114F8010BCA
:103F10009047B442F8D32846FFF7B4FF70BD0000C5
:103F20002DE9F0410746002510687529394616A489
:103F300011D0FFF7B9FF002803DAC0F1000013A485
:103F400007E039688A0701D511A402E0490704D5C2
:103F500010A4012501E0FFF7B0FF00210A2307F1BB
:103F6000240607E0B0FBF3F203FB1200303070547C
:103F70001046491C0028F5D12B4622463846BDE89C
:103F8000F04100F06CBA0000000000002D000000BD
:103F90002B0000002000000011680268006A530531
:103FA00001D508700BE0D30501D5088007E01306A2
:103FB00003D5C217C1E9000201E0520608600120E2
:103FC0007047000001694A1C02610878704700B51B
:103FD0008FB0CDE901310021059105497944CDE942
:103FE00003101146684600F02FF90FB000BD000025
:103FF000E5FFFFFF0A6802F8010B0A607047000046
:104000002DE9FF5F04468A461546DFF8AC80F84488
:104010000027D8E900103E46CDE9001011E03AF83B
:1040200016106A4602A800F0B2FC411C07D02168B5
:10403000890603D5E269391891420ED8074406F182
:1040400001062068800602D5E069B84205DDAE426F
:10405000E5DB3AF816000028E1D1A069C01BA06199
:104060002046FFF7F8FED8E90010CDE90010002047
:1040700016E03AF818106A4602A800F088FC81465B
:10408000401C0BD000250DF1080B05E0D4E90121FF
:104090001BF8050090476D1C4D45F7D308F1010052
:1040A000B0428046E5DB206A384420622046FFF7B4
:1040B000E9FEBDE8FF9F0000AE1C00002DE9F041C5
:1040C0008046D21D22F007020026D2E90002F5291F
:1040D00014A512D0002A06DA0023D0EB030063EB0C
:1040E000020211A508E0D8F800108B0701D50FA532
:1040F00002E0490701D50EA501261146002408F16A
:10410000240704E000F066F930323A55641C50EAA6
:104110000102F7D133462A4621464046BDE8F04128
:1041200000F09DB9000000002D0000002B000000F1
:104130002000000030B4002100F124040CE002F063
:10414000070505F130054FEAD20242EA4372655491
:1041500001F101014FEAD30352EA0305EFD10468EC
:10416000002310A2250708D504F020040C4304D036
:10417000C46901230CA2641EC46130BC00F06FB995
:1041800010B5044621461068FFF797FE0246204608
:10419000BDE810400023CDE7D21D22F00701D1E990
:1041A0000023C7E70000000030000000F0B40F4615
:1041B0000168090502D5234C7C4402E0214C7C4473
:1041C0000E34002100F124050BE002F00F064FEA47
:1041D0001212A65D42EA03724FEA13136E5401F104
:1041E000010152EA0306F0D12246046800232407A5
:1041F00004D5702F05D009B111320223F0BC00F0B4
:104200002EB910320123F9E770B504460D46214658
:104210001068FFF752FE024629462046BDE870406E
:104220000023C3E7D21D22F00703D3E90023BDE733
:104230000368126843F0200303600823C36100236E
:10424000B4E700000C1B00002DE9F05F044689462E
:104250004FF0000ADFF878B1FB44C0F820A02046F8
:10426000E1688847002875D0252806D0D4E90121C7
:104270009047206A401C2062F1E700265F462046F6
:10428000E16888472028054608DB312D06D207EB78
:10429000050010F8200C08B10643F0E7B00701D57F
:1042A00026F00406C4F81CA00027C4F818A02A2D84
:1042B00009D0284601F08BF838B304EB8708303D6D
:1042C000C8F8185019E059F8041B204604EB87027F
:1042D0009161E1688847012F054618D1E0690028FF
:1042E00020DA26F020061DE0D8F8180000EB800048
:1042F00005EB40003038C8F818002046E1688847D0
:10430000054601F064F80028EED1012F0AD02E2DC9
:1043100008D12046E16888477F1C0546022F46F0F9
:104320002006C4DBA069002803DA404246F00106FB
:10433000A061F00701D026F010066C2D0BD0682D7F
:1043400009D04C2D39D06A2D35D0742D35D07A2D29
:1043500033D016E038E0E1682F4620468847B8425F
:10436000054609D16C2F26D04FF48060E1680643E2
:1043700020468847054604E06C2F1AD04FF4807021
:1043800006430DB3A5F14100192802D8203546F4A3
:1043900000664A462946204626604E46FBF72EFF19
:1043A00080B101280BD0F61D26F0070000F10809A6
:1043B00055E74020E4E78020D8E70020D6E706F163
:1043C00004094CE7284651E7206ABDE8F09F000049
:1043D000941A000030B5B0F10A024FEA900E71F164
:1043E00000034EEA817EB0EB0E0061EB91014FEAD3
:1043F000101E4EEA017E10EB0E0041EB11114FEA48
:10440000102E4EEA016E10EB0E0041EB11214FEA27
:10441000104E4EEA014E10EB0E0041EB11414018D8
:1044200041F100014FEAD00040EA41704FEAD1016A
:1044300010EB80054FEA810444EA907444EB0104D8
:104440006D1944EB0404521BA3414FF0000348BF15
:104450000A3200D530BD401C41F1000130BD2DE9CC
:10446000F0470D4604469246994600F1240801683B
:10447000880604D5E06921F01001216000E00120E8
:10448000A84202DDA0EB050700E00027A16907EBC9
:10449000050202EB0900A1EB0000A0612068C00644
:1044A00002D42046FFF7D7FC002608E0D4E901211A
:1044B0001AF806009047206A401C761C20624E4580
:1044C000F4DB2068C0060AD52046FFF7C4FC06E0EE
:1044D000D4E9012130209047206A401C2062381E18
:1044E000A7F10107F4DC07E0D4E9012118F8050081
:1044F0009047206A401C2062281EA5F10105F3DCCC
:104500002046FFF7BFFC2068000602D50220BDE868
:10451000F0870120FBE770472DE9FF4F0C461E4650
:104520004FF0FF378BB0D2E90001DDF860800A90D0
:104530008A46C1F30A5505B93D46002108464FF0A9
:104540000000BAF1000F00F4400005DA00EB800033
:104550004FF4400101EA50004FEA9059B9F1010FC0
:1045600000DDB9460A9850EA4A000FD044F61050D0
:10457000A5F2FF3545432F14B8F1000F1FD0754247
:10458000291E1FDD4846C9F100021CE0B8F1010FE9
:104590004FF0000001D1F24307E0302101E0215447
:1045A000401CB042FBDB30460022002121540B9915
:1045B000C1F80880C1E900200FB0BDE8F08FBD1B35
:1045C0006D1CDDE74A4600DA694206A800F070FA81
:1045D00006AB07CB03AB07C350460A9900F024FB98
:1045E0008DE80700A0F500501F3800900398002DBB
:1045F00009DD42F21F014A46084403A903906846B8
:1046000000F083FD08E0A0F500504A461F3803A9DA
:104610000390684600F08DFD8DE807000004000C53
:1046200003D04FF0FF30410800E01046B8F1000F12
:1046300003D00022009215461FE0751E06D4FFF736
:10464000C9FE02F1300262556D1EF8D5B346012253
:10465000084302D000227F1C04E02078302801D1DA
:1046600000227F1E002A099786D01DE0112D07DA4F
:10467000FFF7B0FE303262556D1C50EA0102F5D1F1
:1046800008430FD10021681E05E0235C625C63547F
:10469000491C2254401E8142F7DBAB46A81B401E3A
:1046A000099001E0009848B1002004F80B000B9835
:1046B000099AC0F80880C0E9002B7DE711264FF069
:1046C000000859E72DE9F04F88460446D21D22F034
:1046D000070191B0D1E90001CDE90A0100F05FFEC8
:1046E00002460B98C00F01D02D2007E020688107FB
:1046F00001D52B2002E0202101EAC000032A099005
:1047000001D0072A05DB03464146204600F090F918
:104710000EE12068800601D5E06900E00620B8F1CE
:10472000650F814606D0B8F1660F18D0B8F1670F53
:1047300072D132E00020B9F1110F009001DB11239A
:1047400001E009F101030AAA01A90CA8FFF7E4FEA0
:10475000DDE90C70002609F10105834648E00120DF
:104760004B4600904FF000470AAA01A90CA8FFF79A
:10477000D3FEDDE90C050E990026AB4619B909F107
:10478000010100EB0105B9EB050003D4C0F1FF36D0
:1047900009F10105A5EB09002BE0B9F1010F01DAE0
:1047A0004FF001090020B9F1110F0090484601DDDA
:1047B000112300E003460AAA01A90CA8FFF7ACFEEA
:1047C000DDE90C704D4600268346206800070AD4B8
:1047D000AB4500DA5D4601A8012D04DD411911F851
:1047E000011C302907D04F4502DA17F1040F04DA13
:1047F0000120824610E06D1EEEE7002F02DCED1B6B
:104800003E4403E0781CA84200DD0546A7EB060005
:1048100000F1010A4FF000472068000703D4AA45C1
:1048200001DB4FF0FF3A0021B7F1004F0DF14308D3
:104830008DF8431022D002202B23002F01DA7F4273
:104840002D230A22011EA0F1010000DC4FB197FBCD
:10485000F2F102FB117C0F460CF1300C08F801CD8F
:10486000F0E7A8F1010003702168090501D5452191
:1048700000E06521A0F1010800F8011C09980FA9CA
:10488000A1EB080707F1070700B1012000EB0501C4
:1048900001EBEA70A1693844A1EB0000A0F101002E
:1048A000A0612068C00602D42046FFF7D4FA099818
:1048B00030B1D4E901219047206A00F10100206263
:1048C0002068C00620D52046FFF7C5FA1CE0002E60
:1048D00004DBB34502DD01A8805D00E03020D4E9AF
:1048E00001219047206A761C401CBAF1010A20621F
:1048F0000AD100F099F8C0680168405CD4E9012150
:104900009047206A401C2062281EA5F10105DEDCCC
:1049100007E0D4E9012118F8010B9047206A401CF8
:104920002062381EA7F10107F3DC2046FFF7AAFA40
:10493000022011B041E610B5436913B1AFF3008016
:1049400001E0FFF7C3FA012010BD126800F1240155
:104950000A7000224A700122EDE711684FF0FF3221
:10496000E9E710B5436913B1AFF3008001E0FFF749
:1049700047FB012010BD126800F12401828400224F
:10498000C2840122EDE711684FF0FF32E9E770B50C
:1049900005460C46164600F03FF8036893F80101FF
:1049A000012806D0FF2C0FD8185D68B101202C70AB
:1049B00070BDD3F807013246214603442846BDE8BE
:1049C000704003F2071318474FF0FF3070BD754673
:1049D00000F0E6F8AE4605006946534620F00700B1
:1049E000854618B020B5FBF781FDBDE820404FF0AB
:1049F00000064FF000074FF000084FF0000B21F0C9
:104A00000701AC46ACE8C009ACE8C009ACE8C00995
:104A1000ACE8C0098D46704710B500F005F8001DE0
:104A200010BD00BFE5090000004870478400002069
:104A30002DE9F04104461F4603260168072A01F4C8
:104A4000006004DB08B116A505E016A503E008B177
:104A500015A500E015A521F010002060A069C01E7A
:104A6000A0610FB1401EA0612046FFF7F4F94FB1DD
:104A7000D4E9012138469047206A401C2062C01CBE
:104A8000206206E0206AFAE7D4E9012115F8010B5B
:104A90009047761EF8D22046FFF7F4F9BDE8F08182
:104AA0004E414E006E616E00494E4600696E6600D2
:104AB0002DE9F047814616468AB035487844D0E95A
:104AC000002380680092CDE90130314878440C38E9
:104AD000D0E90223006903924FF03702CDE9043098
:104AE00041F69B30014491FBF2F0A0F1800502FBFE
:104AF00010141B3C02D56442012000E00020DFF8C6
:104B000090A080460027FA44AAF1C60A0DE0E0070B
:104B100009D03246684607EB47010AEB810100F0F5
:104B200008FB8DE8070064107F1C002CEFD1184FA4
:104B30007F44B43F17E0E80713D007EB04100DF1F2
:104B4000180A90E80E00AAE80E00C068F04201D1F1
:104B500098190890324606A903A800F0EAFA03ABB8
:104B600007C36D10641C002DE5D132466946B8F1CB
:104B7000000F03A802D000F0C8FA01E000F0D9FA53
:104B8000C9E90001C9F808200AB0BDE8F0870000B3
:104B9000C01200000446AFF300802046FBF793FBF1
:104BA00000487047640000204FF0013C50F8042B8F
:104BB00051F8043B9A4221D1A2EB0C03934313EA30
:104BC000CC1317D150F8042B51F8043B9A4215D15D
:104BD000A2EB0C03934313EACC130BD150F8042B34
:104BE00051F8043B9A4209D1A2EB0C03934313EA18
:104BF000CC13DBD04FF00000704700BFD01A01BAD1
:104C0000B1FA81F101F0180122FA01F0CB40C1F1B3
:104C10002001DBB2C0B2C01A2CFA01F3D11A9143C1
:104C200011EAC311E6D170475FEA400C08BF91F06A
:104C3000000F4FEA8C234FEAC12243EA51514FEA59
:104C40001C5018BF00F5F0404FEA300018BF41F08B
:104C500000415FEA6C5C00F02980BCF1FF3F08BFB7
:104C600040F080407047130C06BF12044FF0100C48
:104C70004FF0000C130E04BF12020CF1080C130FBE
:104C800004BF12010CF1040C930F04BF92000CF14D
:104C9000020CD30F04BF52000CF1010C11464FF06F
:104CA0000002A0F11F00A0EB0C00704711F0004FB4
:104CB00008BF704731F000413FF4D5AF0B0C06BF81
:104CC00009044FF0100C4FF0000C0B0E04BF09024A
:104CD0000CF1080C0B0F04BF09010CF1040C8B0F35
:104CE00004BF89000CF1020CCB0F04BF49000CF18A
:104CF000010CCCF12003A0EB0C0022FA03F302FA22
:104D00000CF241EA030100F10100704720F07F4CF2
:104D100080EA030023F07F47ACEB070303F57C53E5
:104D200000F0004003F1FF032DE980494FEA154BE5
:104D300009B44FEA144325EA0B4E24EA03480FF264
:104D4000042606EB132749083E785FEA320203FB8C
:104D50000667C7F5000707FB06F64FEA54374FEA28
:104D6000D64606F1020607FB066CCCF1005C4FEA62
:104D70001C472CEA074C07FB06F40CFB06F504EB7A
:104D800015464FEA961634BF00204FF000404FEA18
:104D9000D13706FB07FC4FEA1C4C0CFB0BF7D21B70
:104DA00003FB0CF761EB07010CFB0EF7B0EB0740C0
:104DB00072EB17420CFB08F734BFA2EB0742B2EBD1
:104DC000074261EB17414FEA0C444FEA910706FB9B
:104DD00007FC4FEA1C4C0CFB0BF7B0EBC74072EB27
:104DE000573203FB0CF734BFA2EBC742B2EBC7420A
:104DF00061EB57310CFB0EF7B0EBC70072EB57724B
:104E00000CFB08F734BFA2EBC702B2EBC70261EBA1
:104E10005771039F4FEA816141EA921104EBCC0480
:104E20004FEAD1374FEA826206FB07FC42EA901252
:104E30004FEA80604FEA1C4C0CFB0BF7D21B03FBC4
:104E40000CF761EB07010CFB0EF7B0EB074072EBC0
:104E500017420CFB08F734BFA2EB0742B2EB074244
:104E600061EB17414FEA8C554FEA910704EB9C2404
:104E700006FB07FC4FEA1C4C0CFB0BF7B0EBC740E2
:104E800072EB573203FB0CF734BFA2EBC742B2EB15
:104E9000C74261EB57310CFB0EF7B0EBC70072EB6A
:104EA00057720CFB08F734BFA2EBC702B2EBC70284
:104EB00061EB577115EB4C254FEA816141EA921184
:104EC0004FEA82624FEAD13742EA901206FB07FCB2
:104ED00044F100044FEA80604FEA1C4C0CFB0BF7D6
:104EE000D21B03FB0CF761EB07010CFB0EF7B0EBD9
:104EF000074072EB17420CFB08F734BFA2EB0742E6
:104F0000B2EB074261EB174115EB1C154FEA8131FB
:104F100041EA92414FEA823242EA90424FEA8030BF
:104F20004FEA0C7644F1000448EA03434EEA0B488A
:104F30004FF0000EB2EB080C71EB030724BF624682
:104F400039464EEB0E0E4FF0000B0018524149410E
:104F50004BEB0B0BB2EB080C71EB03077BF1000B77
:104F600024BF624639464EEB0E0E4FF0000B001880
:104F7000524149414BEB0B0BB2EB080C71EB0307B1
:104F80007BF1000B24BF624639464EEB0E0E51EA10
:104F9000020718BF46F0010616EB0E7655F1000227
:104FA00054F1000103D5BDE88901BDE80088BDE8E2
:104FB0008901BDE80048B619524141EB0101A3F156
:104FC0000103704780807F7E7D7C7B7A797877765D
:104FD00076757473727171706F6E6E6D6C6C6B6AD6
:104FE0006A69686867666665646463636261616074
:104FF000605F5F5E5E5D5D5C5C5B5B5A5A595958F1
:10500000585757565655555554545353525252515A
:10501000515050504F4F4F4E4E4D4D4D4C4C4C4BB0
:105020004B4B4A4A4A4949494848484747474746F7
:105030004646454545444444444343434342424233
:1050400042414141002B26D4770021D01CB54FEAC4
:10505000370703B44FF010004FF010014FF000007D
:105060000FBCBDE810400BF1010BBBF1010F08BFF5
:105070005FEA170722BF12F1010211F101014FF09F
:10508000004143F1000300F0004043EA0000704794
:10509000F9D35708DAE746EA064613F1400F4FEA1C
:1050A00016461FDD13F1200FDFBF16430A4600210D
:1050B00020335B42C8D0C3F1200746EA064602FA15
:1050C00007F74FEA164646EA0706C3F1200722FA19
:1050D00003F201FA07F721FA03F14FF0000342EA65
:1050E0000702B1E746EA020646EA06464FEA1646D6
:1050F00046EA0106BCBF46EA0646360C4FF00003FE
:105100004FF000024FF000019EE72DE9C0489346A2
:1051100030B491E8380007C831EA400C48BF34EA9F
:10512000430C03D5FFF7F2FDFFF78CFFF0BCBDE8A1
:1051300000882DE9C048934630B491E8380007C88C
:1051400010F0804F08BF13F0804F03D100F005F836
:10515000FFF778FFF0BCBDE8008820F07F4780EAC9
:10516000030023F07F4C07EB0C03A3F57C5300F006
:105170000040A3F1FE0392F0000F00F0B38095F021
:10518000000F00F077802DE901494FEA11404FEA06
:10519000144621EA004800FB06FC24EA064708FB07
:1051A00006F607FB08F800FB07F718EB06484CEB80
:1051B000164C4FEA124B18EB07484FEA15464CEBDA
:1051C000174022EA0B4E0BFB06FC25EA06470EFBB6
:1051D00006F607FB0EFE0BFB07F71EEB064E4CEB2D
:1051E000164C4FF000061EEB074E4CEB174B18EB1E
:1051F0000B0840F1000018EB0E0B58EB000840F1D3
:1052000000008F1A4FF000013CBFC943661B14BF5A
:10521000B5EB040C00213CBFC943F61B4FEA174411
:105220004EEA8E0E27EA04454FEA1C4704FB07624C
:105230002CEA074C05FB07F70CFB05F604FB0CFCFE
:1052400016EB074642EB174216EB0C4642EB1C42AC
:105250001BEB060658EB0202414146EA9E0601D5C9
:10526000BDE80189B619524141EB0101A3F10103E7
:10527000BDE801894FEA14454FEA114724EA054683
:1052800021EA074C05FB07F406FB07F70CFB06F1C8
:1052900005FB0CFC11EB074144EB17444FEA1247A6
:1052A00011EB0C4144EB1C4422EA074C05FB07F2CE
:1052B00006FB07F70CFB06F605FB0CFC16EB074696
:1052C00042EB174216EB0C4642EB1C456A1854F1B0
:1052D000000148BF7047B619524141EB0101A3F1EB
:1052E0000103704795F0000F37D04FEA11424FEAA3
:1052F000144721EA024624EA074C02FB07F106FBA9
:1053000007F70CFB06F402FB0CFC14EB074441EB23
:1053100017414FEA154714EB0C4441EB1C4125EAB9
:10532000074C02FB07F506FB07F70CFB06F602FB32
:105330000CFC16EB074645EB174516EB0C4645EB08
:105340001C42121951F1000148BF7047B619524171
:1053500041EB0101A3F1010370474FEA14454FEA05
:10536000114724EA054621EA074C05FB07F106FB35
:1053700007F70CFB06F24FF0000605FB0CFC12EBE6
:10538000074241EB174112EB0C4251EB1C4148BF65
:105390007047921841EB0101A3F10103704703B478
:1053A00001984100009850EAC12018BF04204A0D1E
:1053B00018BF40F0010040F2FF72B2EB515F08BF2E
:1053C00040F00200012808BF052002B070473038C5
:1053D0000A2801D2012070470020704710B500292B
:1053E0000AD00878002807D005487844FFF7DCFB8E
:1053F000002801D0002010BD0248784410BD0000F4
:10540000CE090000C609000010B500290AD00878AE
:10541000002807D005487844FFF7C6FB002801D0D4
:10542000002010BD0248784410BD0000BE090000F5
:10543000B609000021F00042A2F16052B2F5801FCF
:1054400001F0004328BFD2F17F6C0BD95FEA001C4A
:1054500043EAC20242EB507018BF704728BF20F0E9
:1054600001007047B2F5801FBCBF184670474FEA75
:10547000410C1CF5001F02D2084600F01ABC70B5A2
:1054800000F0C8FA00000089FFF7F6BF4FF00040B7
:10549000A0F580007047000010B591EA030F48BFE7
:1054A00083F0004300F11E83841A71EB030C05D2D4
:1054B000121943EB0C03001B61EB0C01DFF824E134
:1054C0004FEA1154A4EB135C1EEA430F18BF9EEA87
:1054D000445F73D023EA0E03DCF1200E21EA04516D
:1054E00043F4801332D322FA0CFE10EB0E0023FAA1
:1054F0000CFE41EB0E01CCF1200E03FA0EFE10EB78
:105500000E0051F10001B1F5801FCCF1200E32D216
:1055100001EB045112FA0EF2BDE8104058BF70477B
:10552000401C38BF5FEA420218BF7047002814BF12
:1055300020F0010041F100014FEA410313F5001F83
:1055400038BF7047A1F1C04100F0B2BA012A43EB65
:105550000302ACF1200CDCF11F0E32BF4FF0000E45
:1055600023FA0CF310EB030041EB0451B4EB115F91
:10557000D0D0A1EB045101F5801149085FEA300059
:1055800001EB04510ED350F1000038BF12FA0EFEA9
:1055900008D1BDE81040C9E7401C38BF5FEA4202AD
:1055A000CAD1C3E7BDE810404FEA410313F5001F1D
:1055B00038BF7047A1F1C04100F07ABA9EEA445F5B
:1055C00008D011EA5E0FBDE8104004BF01F00041B1
:1055D00000207047BDE8104070B500F01BFA00BF16
:1055E00064FBBE3E0000E0FF2DE9C04130B4DFF8AF
:1055F000A0C23CEA111418BF3CEA131400F0EC807E
:1056000081EA03051CEA111444EAD57418BF1CEAA8
:10561000131500F0C780A4EB05044FF0004545EAE0
:10562000C12145EAC32341EA505143EA525304F1F0
:105630007F74994204F500344FEAC0204FEAC22239
:1056400008BF904200F09C804FEA13650FF24016AD
:10565000765D4FEA134506FB05F7C7F1807706FB39
:1056600007F74FEAD737A7FB03687642C8F58038BB
:10567000A7FB06CE38BFA8F1010807FB08E64FF0EC
:10568000000EA6FB028CE6FB03CEDCF1000CCEF193
:10569000004E38BFAEF1010EA6FB0C584FF00007CC
:1056A0004FF00005E6FB0E87A1FB08C6A0FB07CE66
:1056B00016EB0E0645F10005E1FB076515F1E04E1E
:1056C0007EBFA4F580345FEA46066D4116F180077F
:1056D00045F100054FEA17274FEA066647EA0567D6
:1056E000A6F1DE46B6F1805F4FEA15251FD9384690
:1056F00024F0010C05EBC471BCF1FE6F01EB0C1141
:1057000002D8F0BCBDE8008124425CBF01F5801ED8
:105710009EEAC47F02D4F0BCBDE80081244238D4A4
:10572000F0BCA1F1C041BDE8004100F0C1B94FEAB1
:10573000D22242EA43524FEAD323A7FB02864FEA22
:10574000D02040EA415007FB03661EEA0E0F4FEAE5
:10575000D12105FB026658BFA6EB0056B6EB0056FA
:105760004FEA520E4EEAC37E18EB0E0E56EB530E66
:10577000BDD518EB02085E417F1C55F10005B6E768
:105780004FF480154FF000074FF000064FF000086F
:10579000ADE7F0BC4FF0000001F1C04101F0004165
:1057A000BDE8008111EA0C1F0CEA131500D00CE0D3
:1057B00013EA0C1F00F025804FF00000F0BC81EAD6
:1057C000030101F00041BDE80081F0BCBDE80041EB
:1057D00081EA030100F06CB9F0BCBDE8004170B58E
:1057E00000F018F9097EFC3E00F007B881EA0301D9
:1057F0004FF0000001F00041704781EA030100F022
:1058000057B9F0BCBDE800414FF000002149704796
:10581000FFFDFBF9F7F5F4F2F0EEEDEBE9E8E6E475
:10582000E3E1E0DEDDDBDAD8D7D5D4D3D1D0CFCDFC
:10583000CCCBCAC8C7C6C5C4C2C1C0BFBEBDBCBB35
:10584000BAB9B8B7B6B5B4B3B2B1B0AFAEADACAB30
:10585000AAA9A8A8A7A6A5A4A3A3A2A1A09F9F9E0A
:105860009D9C9C9B9A9999989797969595949393BC
:10587000929191908F8F8E8E8D8C8C8B8B8A898953
:1058800088888787868585848483838282818180D6
:105890000000FF070000F87FB0FA80F310FA03F170
:1058A0000AD0C3F11D0303F580634FEA41504FEA6C
:1058B000035202EBD12170474FF000007047000007
:1058C000DFF848C170B51CEA111E1EBF1CEA131593
:1058D0009EEA0C0F95EA0C0F00F06F8081EA03043A
:1058E00023EA4C134EEAD47E21EA4C1141F4801194
:1058F00043F48013AE44A1FB024CA0FB0365AEF160
:105900007F7E361955EB0C05A1FB034C4CF10003CF
:10591000A0FB021C16EB0C06654153F10003094283
:1059200018BF46F0010613F4007F0BD14FEA033194
:105930004FEA0530340341EA155140EA16506FF042
:1059400003020AE04FEAC3214FEAC520F40241EA0C
:10595000555140EA56506FF0020202EB2E4201EB25
:10596000025585EACE710AD05FEA440C18BF24F0D4
:10597000004450F1000041F1000120EAD47040F2EF
:10598000FE7C624500D270BDA84214BF4FF0804437
:105990004FF04044002E08BF0024BEF1806FA8BF26
:1059A000A1F1C041BDE8704080F282804FF000005C
:1059B00001F1C04101F0004170479EEA0C0F0CEA72
:1059C000131518BF95EA0C0F06D04FF0000081EABE
:1059D000030E0EF0004170BD00F01CF88900013E7E
:1059E00000F007B800F009B84FEA430C5FEA5C5CCE
:1059F00008D081EA030100F05BB84FEA410C5FEA8E
:105A00005C5CF6D14FF00000014970470000FF07D1
:105A10000000F87F0EF1020E2EF0030E5EF8046B0C
:105A2000364205D4012A43EB030515F5001F12D8B1
:105A3000012841EB010C1CF5001F0CD80ED14FEAD8
:105A4000D17C15F5001F0CEB4C0C0CF1020C08BFBF
:105A50004CEBD37C04E04FF0080C01E04FEAD37C20
:105A60000CEB4C0526FA05F606F00706B6F1040C19
:105A700006D20EEB860CBDE870404CF0010C60477E
:105A8000DFE80CF0090B02024FF000414FF000007C
:105A9000A1F5002170BD19461046012851EB010403
:105AA00018BFD4F5001484BF002001F0004170BD80
:105AB0000808A0F500114FEA3101704791EA030F81
:105AC00010B581F000413FF5EFAC83F0004300F0EA
:105AD00009B8000010B591EA030F48BF83F00043F6
