:020000040800F2
:1000000068120020D1040008B1270008B3270008B7
:10001000B7270008BB270008BF2700080000000022
:10002000000000000000000000000000C3270008DE
:10003000C527000800000000C7270008652B00083E
:10004000EB040008EB040008EB040008EB040008D4
:10005000EB040008EB040008C9270008E1270008AA
:10006000EB040008EB040008EB040008EB040008B4
:10007000EB040008EB040008A3450008A9460008AB
:10008000EB040008F3440008EB040008EB0400084C
:10009000EB040008EB040008EB040008EB04000884
:1000A000EB040008EB040008EB040008EB04000874
:1000B000192800086D280008DD290008EB04000855
:1000C000EB040008EB040008EB040008F927000823
:1000D00005280008ED50000873530008F553000888
:1000E000EB040008EB040008EB040008932A000866
:1000F0006B2A0008EB040008EB040008EB0400087E
:10010000EB040008EB040008F3290008EB040008E6
:1001100077540008EB040008392A00084F2A000829
:10012000EB040008EB040008EB040008EB040008F3
:10013000EB040008EB040008EB040008EB040008E3
:10014000EB040008EB040008EB040008EB040008D3
:10015000EB0400084D470008EB040008795500083F
:10016000EB040008EB040008EB040008EB040008B3
:10017000EB040008EB040008EB040008EB040008A3
:10018000EB040008EB04000800F002F800F092F81D
:100190000AA090E8000C82448344AAF10107DA45E2
:1001A00001D100F087F8AFF2090EBAE80F0013F0A2
:1001B000010F18BFFB1A43F001031847446C0000FD
:1001C000646C0000103A24BF78C878C1FAD852078E
:1001D00024BF30C830C144BF04680C6070470000C1
:1001E0000023002400250026103A28BF78C1FBD840
:1001F000520728BF30C148BF0B6070476E2905F019
:100200000B83702905F05484662906F08A856529D8
:1002100006F08785672906F084856129AFF30080A1
:1002200003681B0A28BF41F08001692905F0B882E4
:10023000642905F0B582752905F0B2826F2905F0B1
:10024000DF83782905F02084E92905F07783E42904
:1002500005F07483F52905F07183EF2905F0DC833F
:10026000F82905F01F840368DB0928BF41F08001ED
:10027000632905F0DC87732905F0E187E32905F0A0
:10028000EC87F32905F0F187002070471FB506F0D1
:1002900043FD06F03BF804000020002106F026FD97
:1002A000401C60600020002106F00AFDE0601FBDD8
:1002B00010B510BD05F0FDFF1146FFF7E7FF02F096
:1002C0002BFA06F0D9F803B4FFF7F2FF03BC04F0F1
:1002D0002DFE000000210020724A126842F4803294
:1002E000704B1A6000BF6F4A126802F40030491C5C
:1002F00010B9B1F5A06FF6D16A4A126812F4003F46
:1003000001D0012000E00020012845D1654A40329B
:10031000126842F08052634B40331A60624A12689E
:1003200042F48042604B1A605E4A083212685D4BAC
:1003300008331A601A46126842F400421A601A46DC
:10034000126842F4A0521A60584A1B1F1A601A1F02
:10035000126842F080721B1F1A6000BF514A126877
:1003600012F0007FFAD040F20562514B1A604D4AFC
:100370000832126822F003024A4B08331A601A4608
:10038000126842F002021A6000BF464A0832126840
:1003900002F00C02082AF8D1704710B545480068F1
:1003A00040F47000434908603E48006840F0010096
:1003B0003C49086000203B49083108603948006822
:1003C0003D490840374908603C48091D0860081F3E
:1003D000006820F48020091F0860002031490C319A
:1003E0000860FFF777FF4FF00060324980390860FE
:1003F00010BD30B500200022022384460221294C82
:100400000834246804F00C0020B1042806D0082821
:1004100036D107E02A4C2B4D2C6035E02A4C294D73
:100420002C6031E01F4C241D2468C4F3805C1D4CFB
:10043000241D246804F03F01BCF1000F0AD0224CB7
:10044000B4FBF1F4174D2D1D2D68C5F3881504FB81
:1004500005F209E01A4CB4FBF1F4124D2D1D2D6884
:10046000C5F3881504FB05F20E4C241D2468C4F363
:100470000144641C6300B2FBF3F4124D2C6003E0F2
:100480000F4C104D2C6000BF00BF064C0834246890
:10049000C4F303140D4D285D0A4C2468C440094D73
:1004A0002C6030BD0038024000700040042A400437
:1004B000003C024088ED00E0FFFFF6FE1030002413
:1004C0000024F4000000002000127A000400002044
:1004D0000948804709480047FEE7FEE7FEE7FEE7D8
:1004E000FEE7FEE7FEE7FEE7FEE7FEE70448054914
:1004F000054A064B704700009B030008890100086D
:10050000680C002068120020680E0020680E002091
:1005100033490143334A1160704770B5002100230D
:100520000F22C47824B32F4C246804F4E064C4F58B
:10053000E064C4F30721C1F10404E3B20A41447842
:100540009C40E1B28478144021430C07210E264CD4
:1005500005786155047804F01F050124AC40057846
:100560006D114FF0E02606EB8505C5F8004109E066
:10057000047804F01F050124AC401C4D0678761168
:1005800045F8264070BD1A4A0A400243154B1B1F0E
:100590001A60704739B1134A121D12680243114B99
:1005A0001B1D1A6006E00F4A121D126882430D4B94
:1005B0001B1D1A607047042808D14FF0E02109691B
:1005C00041F004014FF0E022116107E04FF0E0211B
:1005D000096921F004014FF0E02211617047000029
:1005E0000000FA050CED00E000E400E080E100E02E
:1005F00080FFFF1F016821F00101016000210160FF
:1006000041608160C160016121214161DD49884211
:1006100004D13D21DB4A103A91608CE0D949183170
:10062000884205D14FF47461D64A103A916082E055
:10063000D4493031884205D14FF47411D14A103A6F
:10064000916078E0CF494831884205D14FF074611C
:10065000CC4A103A91606EE0CA496031884204D1B8
:10066000C949C84A103AD16065E0C6497831884224
:1006700004D1C649C34A103AD1605CE0C149903107
:10068000884204D1C249BF4A103AD16053E0BD4903
:10069000A831884205D14FF03D51BA4A103AD16095
:1006A00049E0BC49884204D13D21BA4A083A116068
:1006B00041E0B8491831884205D14FF47461B54A18
:1006C000083A116037E0B3493031884205D14FF420
:1006D0007411B04A083A11602DE0AE4948318842A1
:1006E00005D14FF07461AB4A083A116023E0A94983
:1006F0006031884204D1A449A64A121F11601AE051
:10070000A4497831884204D1A049A24A121F11603D
:1007100011E0A0499031884204D19D499D4A121FA1
:10072000116008E09B49A831884204D14FF03D5147
:10073000984A121F1160704710B500220268964B4C
:100740001A40CC680B6823434C6923438C692343CC
:10075000CC6923430C6A23434C6A23438C6A2343AA
:100760004C6B23438C6B23431A430260426922F093
:100770000702D1E90B3423431A4342610B694360FA
:100780004B6883608B68C36010BD002101604160CD
:100790008160C160016141618161C1610162416249
:1007A0008162C162016341638163704721B1026864
:1007B00042F00102026003E0026822F001020260DE
:1007C000704721B1026842F40042026003E002680F
:1007D00022F400420260704721B1026842F0200218
:1007E000026003E0026822F020020260704741606C
:1007F00070470146486880B2704722B1036843F4ED
:100800000023036003E0036823F400230360016115
:10081000704721B1026842F48022026003E002685E
:1008200022F48022026070470AB1016100E0C160D9
:100830007047014600200A6812F4002F01D0012001
:1008400000E000207047014600200A6812F0010F06
:1008500001D0012000E000207047014600204A69D5
:1008600002F03800704710B503460A46002084465F
:10087000484CA34202D24349103901E0454910399E
:1008800012F0005F02D0D1F804C001E0D1F800C03E
:10089000424C0CEA040C1CEA020F01D0012000E0DB
:1008A000002010BD02463B4B9A4202D23548103818
:1008B00001E03848103811F0005F03D0374B0B408F
:1008C000C36002E0354B0B408360704710B511F0F8
:1008D000800F09D022B1436943F08003436103E0F4
:1008E000436923F08003436180290BD02AB1036858
:1008F00001F01E042343036004E0036801F01E04BA
:10090000A343036010BD30B5024600200024844696
:10091000204DAA4202D21B4B103B01E01D4B103B65
:100920001F4D294206D01E2505EAD124156805EA87
:10093000040C02E0556905F0800C11F0005F01D055
:100940005C6800E01C68154D2C400C4204D0BCF1E2
:10095000000F01D0012000E0002030BD02460D4B09
:100960009A4202D20748103801E00A48103811F0C4
:10097000005F03D0094B0B40C36002E0074B0B4004
:1009800083607047106002403D000020400F00204F
:1009900000003D20106402403F801CF07D0F7D0F61
:1009A0003C0F3C0F002044490860091D0860091DE8
:1009B0000860091D086041483F49143108607047CC
:1009C00000213D498279002A3AD00A46126803681C
:1009D0009A430B461A600A1D126803689A430B1D5E
:1009E0001A60027911440A6803681A430A60324A9D
:1009F0000832126803689A432F4B08331A601A1D95
:100A0000126803689A432C4B0C331A604279102AFF
:100A10000ED11A1F126803681A43274B08331A6055
:100A20001A1D126803681A43234B0C331A600DE039
:100A30002149427911440A6803681A430A6005E0B3
:100A4000027911440A6803689A430A6070470021DA
:100A5000016001710C2141710021817170471649BB
:100A6000103109680143144A103211607047014681
:100A70000020114A143212680A4201D0012000E01D
:100A8000002070470C49143108607047014600206F
:100A90000022094B1B6803EA0102074B14331B6851
:100AA0000B4202D00AB1012000E000207047024949
:100AB0001431086070470000003C0140FFFF7F00D8
:100AC00010B504468848844208D10121084600F048
:100AD000F1FA0021012000F0EDFA5EE08348844243
:100AE00008D10121022000F0E5FA0021022000F0E7
:100AF000E1FA52E07E48844208D10121042000F04E
:100B0000D9FA0021042000F0D5FA46E07948844261
:100B100008D10121082000F0CDFA0021082000F0C2
:100B2000C9FA3AE07448844208D10121102000F04B
:100B3000C1FA0021102000F0BDFA2EE06F48844277
:100B400008D10121202000F0B5FA0021202000F07A
:100B5000B1FA22E06A48844208D10121402000F025
:100B6000A9FA0021402000F0A5FA16E06548844269
:100B700008D10121802000F09DFA0021802000F0A2
:100B800099FA0AE06048844207D10121801500F0FB
:100B900091FA0021A01500F08DFA10BD70B50A463B
:100BA000002100238C4600BF3DE0012404FA01F33C
:100BB000146804EA030C9C4534D104684E000325F4
:100BC000B540AC43046014794D00AC4005682C433B
:100BD00004601479012C02D01479022C16D1846897
:100BE0004E000325B540AC43846054794D00AC40C1
:100BF00085682C438460446801258D40AC43446083
:100C0000446895798D40ADB22C434460C4684E0071
:100C10000325B540AC43C460D4794D00AC40C568F1
:100C20002C43C460491C1029BFD370BD4FF6FF711F
:100C300001600021017141718171C17170474FF4F0
:100C400080320A43C261C161C261C269C269704730
:100C50000246002013690B4201D0012000E0002071
:100C600070470146086980B2704702460020536908
:100C70000B4201D0012000E0002070470146486986
:100C800080B2704701837047418370470AB1018386
:100C900000E0418370474161704742694A404261C8
:100CA000704770B500239C464C07E40E02FA04F32B
:100CB000CD1000F1200454F825404D07EE0E0F250D
:100CC000B540AC43CE1000F1200545F82640CD10CC
:100CD00000F1200454F8254044EA030CCD1000F143
:100CE000200444F825C070BD00000240000402400A
:100CF00000080240000C02400010024000140240B4
:100D000000180240001C024000200240FA4800681F
:100D100040F00100F84908600020F74908310860F8
:100D2000F5480068F5490840F3490860F448091D92
:100D30000860081F006820F48020091F0860002058
:100D4000ED490C31086070470021EB4A921C11708C
:100D500011460870704710B501460022002300209C
:100D60004A11012A02D1E44C236808E0022A03D187
:100D7000E14C7034236802E0DF4C7434236801F0E6
:100D80001F02012494401C4201D0012000E00020F9
:100D900010BD70B500240025002600BF3120FFF7EC
:100DA000DAFF0646641CB4F5A06F01D0002EF5D022
:100DB0003120FFF7D0FF08B1012500E000252846CB
:100DC00070BD01460020CC4A106820F0F80040EACF
:100DD000C10010607047CB49086070470021C64AC7
:100DE000703211701170012802D004280AD104E079
:100DF0000121C14A7032117005E00521BE4A7032EE
:100E0000117000E000BF00BF7047BF490860704725
:100E100030B5DDF80CC041EA82140125C5EB53055D
:100E200044EA0544044344EA0C64B34D2D1D2C6090
:100E300030BDB44908667047820142EA0172AE4B88
:100E400084331A607047AF4988667047AD49C864FB
:100E5000704702460020A84B0833186820F0EC6069
:100E600042EA01031843A44B083318607047024656
:100E70000020A14B0833186820F0784042EA0103B3
:100E800018439D4B083318607047014600209A4A6A
:100E90000832106820F0030008431060704796483D
:100EA0000830006800F00C00704701460020924AAC
:100EB0000832106820F0F0000843106070470146C7
:100EC00000208D4A0832106820F4E050084310607A
:100ED000704701460020884A0832106820F46040BC
:100EE00040EAC10010607047F0B5002100220024E4
:100EF00002258C460223804E0836366806F00C0127
:100F000021B1042905D0082933D105E07F4E0660C0
:100F100032E07F4E06602FE0774E361D3668C6F30E
:100F2000805C754E361D366806F03F03BCF1000F3D
:100F30000AD0774EB6FBF3F66F4F3F1D3F68C7F3FD
:100F4000881706FB07F409E0704EB6FBF3F66A4F0C
:100F50003F1D3F68C7F3881706FB07F4664E361D32
:100F60003668C6F30146761C7500B4FBF5F60660DC
:100F700002E0664E066000BF00BF5F4E083636686E
:100F800006F0F0010909634E725C0668D6404660BF
:100F9000594E0836366806F4E051890A5D4E725C97
:100FA0004668D6408660544E0836366806F460417E
:100FB000490B584E725C4668D640C660F0BD0021B1
:100FC00000F44072B2F5407F0AD14B4A08321168F2
:100FD00021F4F811504A02401143474A0832116087
:100FE000454A70321268C0F30B031A43424B703308
:100FF0001A60704744494439086070474249403993
:101000000860704745490860704739B13A4A303244
:1010100012680243384B30331A6006E0364A3032E9
:1010200012688243344B30331A60704739B1324A08
:10103000343212680243304B34331A6006E02E4AD1
:101040003432126882432C4B34331A60704739B102
:10105000294A383212680243274B38331A6006E0B7
:10106000254A383212688243234B38331A6070475E
:1010700039B1214A4032126802431F4B40331A6093
:1010800006E01D4A4032126882431B4B40331A600F
:10109000704739B1184A443212680243164B443340
:1010A0001A6006E0144A443212688243124B4433F9
:1010B0001A60704739B1104A1032126802430E4B61
:1010C00010331A6006E00C4A1032126882430A4B51
:1010D00010331A60704739B1074A1432126802435C
:1010E000054B14331A6006E0034A14321268824337
:1010F000014B14331A60704700380240FFFFF6FEC0
:101100001030002400004742800E47420024F400C3
:1011100000127A0014000020FFFCFF0F5C01474220
:1011200029B1574A12680243554B1A6004E0544AE9
:1011300012688243524B1A60704739B1504A0832E4
:10114000126802434E4B08331A6006E04C4A0832DC
:10115000126882434A4B08331A60704739B1484AD3
:101160000C3212680243464B0C331A6006E0444AC4
:101170000C3212688243424B0C331A60704739B10B
:101180003F4A3832126802433D4B38331A6006E05A
:101190003B4A383212688243394B38331A60704701
:1011A00039B1374A3C3212680243354B3C331A603E
:1011B00006E0334A3C3212688243314B3C331A60BA
:1011C000704739B12E4A4032126802432C4B4033EB
:1011D0001A6006E02A4A403212688243284B4033A4
:1011E0001A60704739B1264A483212680243244BCC
:1011F00048331A6006E0224A483212688243204B84
:1012000048331A60704739B11D4A4C3212680243A4
:101210001B4B4C331A6006E0194A4C321268824369
:10122000174B4C331A60704739B1154A0B3A127894
:101230000243134B0B3B1A7008E0114A0B3A127829
:10124000C343DBB21A400E4B0B3B1A7070470C487D
:101250005C30006840F0807009495C31086070477C
:1012600001460020064A0C3A12680A4201D00120C9
:1012700000E00020704702490A39087070470000FA
:101280001838024010B50446F948844208D10121BB
:101290008014FFF763FF0021A014FFF75FFF16E043
:1012A000F448844208D101210014FFF746FF0021D1
:1012B0002014FFF742FF0AE0EF48844207D10121E2
:1012C000C013FFF73AFF0021E013FFF736FF10BD10
:1012D00010B50022028802F441520B884C88234347
:1012E0008C882343CC8823430C8923434C89234394
:1012F0008C892343CC8923431A430280838B4FF28A
:10130000FF74234083830B8A038210BD2DE9F04FC5
:10131000002502230024012700220026944690463F
:101320009146B0F81CA04FF2400B0AEA0B0AA0F855
:101330001CA04FF0020AA0F820A0858BD1F808A0CD
:10134000BAF1020F01D100BF67E0B1F804A0BAF111
:10135000000F01D1012700E00227DFF820A3DAF80F
:1013600000A01AF4000F09D0DFF810A3DAF800A0EB
:101370002AF4000ADFF804B3CBF800A0DFF8FCA2DF
:101380000AF17C0ADAF800A0CAF38818DFF8ECA2A8
:101390000AF17C0ADAF800A0CAF30279DFF8DCA2CD
:1013A000AAF1040ADAF800A00AF03F0CDFF8D0A294
:1013B000BAFBFCFA0AFB08FABAFBF9F6B1F806A088
:1013C000BAF5007F0ED14FEA162A0AEB8A0A4FEAD5
:1013D0004A0AD1F808B0BAFBFBFA0AF1050A1FFA6B
:1013E0008AF20FE04FEA471AB6FBFAFA0AEB8A0ACA
:1013F0004FEA4A0AD1F808B0BAFBFBFA0AF1050A2B
:101400001FFA8AF24FF00A0AB2FBFAF202F0010464
:10141000A2EB040ACAF34F032402022B01DBFF2BC9
:1014200001DD02230024B1F806A04AEA040A4AEAD0
:10143000030AA0F820A0B1F804A0B1F80CB04AEA61
:101440000B0AB1F802B04AEA0B0AB1F800B04AEA56
:101450000B0A4AF4006A4AEA05058583BDE8F08F65
:101460000021018041808180C18001814181818191
:10147000C181072101827047002101804180818064
:10148000C1800221816000218181704721B10288E1
:1014900042F04002028004E002884FF6BF731A4017
:1014A0000280704721B1828B42F48062828304E023
:1014B000828B4FF6FF331A408283704702884FF2C7
:1014C000FF731A40028002880A4302807047B1F518
:1014D000804F04D1028842F48042028004E00288F6
:1014E0004BF6FF731A4002807047A1F57E42FF3A27
:1014F00004D0028842F48072028004E002884FF631
:10150000FF631A400280704721B1828842F00402D2
:10151000828004E082884FF6FB731A408280704715
:1015200021B1828842F01002828004E082884FF666
:10153000EF731A408280704730B500220023848BFD
:101540004FF240052C40848302240484828B0C8853
:10155000B4F5007F01D00C8814B94FF4807308E013
:101560000C88B4F5407F03D00C88B4F5807F00D19F
:1015700000238C888D892C434D882C431C4344F4D4
:1015800000642243828330BD01468889704781818F
:10159000704721B1028842F40052028004E00288C0
:1015A0004DF6FF731A4002807047018841F4805164
:1015B0000180704702460020012901D0108B00E015
:1015C000908A70470146088A704710B51AB183881F
:1015D0000B43838004E08388CC43A4B22340838000
:1015E00010BD30B54FF0000C00234FEA211C012440
:1015F00004FA0CF4A3B21AB184881C43848004E07A
:101600008488DD43ADB22C40848030BD024600208A
:1016100013890B4201D0012000E000207047CA432B
:101620000281704770B502460020002400238446E2
:1016300001F00F060125B540ACB20B1101259D400C
:10164000ABB2958805EA030C1589254204D0BCF19C
:10165000000F01D0012000E0002070BD10B5002275
:1016600001F00F040123A3409AB2D343038110BDBC
:101670000030014000380040003C00400838024083
:1016800000127A0010B50446FE48844208D10121B8
:101690000846FFF763FD00210120FFF75FFD9DE095
:1016A000B4F1804F08D101210846FFF746FD002123
:1016B0000120FFF742FD91E0F348844208D1012167
:1016C0000220FFF73AFD00210220FFF736FD85E0FA
:1016D000EE48844208D101210420FFF72EFD0021AD
:1016E0000420FFF72AFD79E0E948844208D101216E
:1016F0000820FFF722FD00210820FFF71EFD6DE006
:10170000E448844208D101211020FFF716FD002192
:101710001020FFF712FD61E0DF48844208D101216B
:101720002020FFF70AFD00212020FFF706FD55E0ED
:10173000DA48844208D101210220FFF70FFD002181
:101740000220FFF70BFD49E0D548844209D1012171
:101750000804FFF703FD00214FF48030FFF7FEFC83
:101760003CE0D048844209D101214804FFF7F6FC4F
:1017700000214FF40030FFF7F1FC2FE0CA4884420B
:1017800009D101218804FFF7E9FC00214FF48020F2
:10179000FFF7E4FC22E0C548844208D10121402043
:1017A000FFF7CBFC00214020FFF7C7FC16E0C04844
:1017B000844208D101218020FFF7BFFC0021802056
:1017C000FFF7BBFC0AE0BB48844207D1012180152A
:1017D000FFF7B3FC0021A015FFF7AFFC10BD0022FE
:1017E0000288A84B98420ED0AC4B98420BD0B0F177
:1017F000804F08D0A44B984205D0A44B984202D009
:10180000A34B984204D14FF68F731A404B881A436A
:10181000A04B984207D0A04B984204D04FF6FF430C
:101820001A400B891A4302804B68C3620B880385F8
:10183000944B984202D0994B984201D18B7A0386FF
:101840000123838270474FF0FF3141600021018006
:1018500001814180817270470185828270470A460A
:10186000002101884FF68F731940114301807047A2
:1018700041627047C16270470146486A704701463D
:10188000088D704721B1028842F00202028004E014
:1018900002884FF6FD731A400280704721B102881A
:1018A00042F00402028004E002884FF6FB731A4003
:1018B0000280704721B1028842F08002028004E079
:1018C00002884FF67F731A400280704702884FF6F5
:1018D000F7731A40028002880A4302807047028828
:1018E0004FF6FF431A40028002880A430280704785
:1018F00021B1028842F00102028004E002884FF622
:10190000FE731A400280704730B54FF0000C002281
:101910000023048C4FF6FE752C400484028C8388CF
:10192000B0F818C04FF68F740CEA040CAC1E0CEA29
:10193000040C0C8844EA0C0C6C1E22408C89224357
:101940004C8822434F4CA04202D0544CA04213D1A9
:101950004FF6F7742240CC8922434FF6FB742240A5
:101960008C8822434FF6FF6423404FF6FF542340F8
:101970000C8A23434C8A23438380A0F818C08C68C8
:101980004463028430BD30B54FF0000C00220023C8
:10199000048C4FF6EF752C400484028C8388B0F8D9
:1019A00018C048F6FF740CEA040C4FF6FF440CEA2A
:1019B000040C0C8824064CEA144C4FF6DF742240C9
:1019C0008C89240542EA14424C88240542EA1442D8
:1019D0002C4CA04202D0314CA0421BD14FF67F7458
:1019E0002240CC89240542EA14424FF6BF742240BB
:1019F0008C88240542EA14424FF6FF3423404FF20C
:101A0000FF7423400C8AA40443EA14434C8AA404C0
:101A100043EA14438380A0F818C08C68846302846E
:101A200030BD30B54FF0000C00220023048C4FF67F
:101A3000FF652C400484028C8388B0F81CC04FF6EC
:101A40008F740CEA040C4FF6FC740CEA040C0C883E
:101A500044EA0C0C4FF6FF5422408C89240642EADB
:101A600014424C88240642EA1442064CA04202D09A
:101A70000A4CA04237D14FF2FF742240CC89240691
:101A80001AE000000000014000040040000800408F
:101A9000000C004000100040001400400004014011
:101AA000004001400044014000480140001800404F
:101AB000001C00400020004042EA14424FF6FF3470
:101AC00022408C88240642EA14424EF6FF742340DA
:101AD0004DF6FF7423400C8A240543EA14434C8AD4
:101AE000240543EA14438380A0F81CC08C68C463B7
:101AF000028430BD30B5002200239446048C4EF69B
:101B0000FF752C400484038CB0F804C0828B48F627
:101B1000FF7422404FF6FF4422400C88240642EA1C
:101B200014424DF6FF7423408C89240743EA144382
:101B30004C88240743EA1443FE4CA04202D0FE4CDA
:101B4000A04207D14BF6FF740CEA040C0C8AA405E2
:101B50004CEA144CA0F804C082838C6804640384AB
:101B600030BD002101804180818081608181C181FF
:101B700001824182704730B50346002084461846F2
:101B8000183001248C401FFA84FC1C8C6FEA0C0571
:101B9000ADB22C401C8409B108290AD100EB6100C8
:101BA00004684FF68F752C40046004681443046089
:101BB0000DE00C1FA4B200EB6400046848F6FF754A
:101BC0002C4004600468150644EA1544046030BDE6
:101BD0004163704781637047C16370470164704718
:101BE0000A460021018B4FF68F7319401143018380
:101BF00070470A460021018B48F6FF73194013060F
:101C000041EA1341018370470A460021818B4FF658
:101C10008F7319401143818370470A460021818BDD
:101C200048F6FF731940130641EA13418183704758
:101C30000A460021018B4FF6F773194011430183C7
:101C400070470A460021018B4FF2FF7319401306BB
:101C500041EA1341018370470A460021818B4FF608
:101C6000F77319401143818370470A460021818B25
:101C70004FF2FF731940130641EA13418183704705
:101C80000A460021018B4FF6FB7319401143018373
:101C900070470A460021018B4FF6FF3319401306A7
:101CA00041EA1341018370470A460021818B4FF6B8
:101CB000FB7319401143818370470A460021818BD1
:101CC0004FF6FF331940130641EA134181837047F1
:101CD0000A460021018B4FF67F731940114301839F
:101CE00070470A460021018BC1F30E01130641EA39
:101CF0001341018370470A460021818B4FF67F73A1
:101D000019401143818370470A460021818BC1F33A
:101D10000E01130641EA1341818370470A460021F0
:101D2000018C4FF6FD7319401143018470470A4638
:101D30000021018C4FF6F77319401143018470475D
:101D40000A460021018C4FF6DF731940130541EA62
:101D50001341018470470A460021018C4FF67F73BE
:101D60001940130541EA1341018470470A460021D6
:101D7000018C4FF6FF531940130641EA13410184C9
:101D800070470A460021018C4FF2FF731940130679
:101D900041EA1341018470470A460021018C4DF647
:101DA000FF731940130741EA13410184704730B5AE
:101DB000002301248C40A3B2048CDD43ADB22C403F
:101DC0000484048C02FA01F5ADB22C43048430BDC6
:101DD00030B5002304248C40A3B2048CDD43ADB2A3
:101DE0002C400484048C02FA01F5ADB22C43048427
:101DF00030BD828B4FF2FF331A408283828B0B06F9
:101E000042EA134282837047F0B50C461546002122
:101E100000228C46068C4EF6FF773E400684818B6E
:101E2000028C26074FEA164C40F6FF4631402E063C
:101E300041EA16411E0741EA164145F6FF76324057
:101E40004CF48056324381830284F0BD828B4FF67E
:101E5000F3731A408283828B0A4382837047F0B502
:101E60000C461546002100228C46068C4FF6FF6773
:101E70003E400684818B028C26064FEA164C4FF6B4
:101E80000C7631401E0545EA164631434FF2FF56A7
:101E900032404CF48076324381830284F0BD028B61
:101EA0004FF2FF331A400283028B0B0642EA1342C1
:101EB00002837047F0B50C461546002100228C467F
:101EC000068C4FF6EF773E400684018B028C260588
:101ED0004FEA164C40F6FF4631401E0741EA1641D4
:101EE0002E0641EA16414FF65F7632404CF010065E
:101EF000324301830284F0BD028B4FF6F3731A4024
:101F00000283028B0A430283704770B58C461446E5
:101F100000210022058C4FF6FE7635400584018BAA
:101F2000028C4FF60C7529401D0544EA15452943DE
:101F300004E0000000000140000401404FF6F57588
:101F40002A404CF001052A430183028470BD70B51C
:101F500005460C46208850B92389A2886188284606
:101F6000FFF7D3FFE1882846FFF7C6FF25E020886A
:101F700004280AD12389A28861882846FFF79AFF9E
:101F8000E1882846FFF78BFF17E0208808280AD150
:101F90002389A28861882846FFF761FFE1882846E7
:101FA000FFF754FF09E02389A28861882846FFF7DC
:101FB0002BFFE1882846FFF71CFF70BD0021018040
:101FC0004180012181800021C180018170472DE97C
:101FD000F04105460C4600260127608808B9022614
:101FE00000E00026A088012801D1022700E0012797
:101FF0002088A0B92389A28861882846FFF785FF39
:10200000E1882846FFF778FF23893A46314628467B
:10201000FFF750FFE1882846FFF741FF13E02389CF
:10202000A28861882846FFF745FFE1882846FFF728
:1020300036FF23893A4631462846FFF766FFE18896
:102040002846FFF759FFBDE8F0810146486B70470D
:102050000146886B70470146C86B70470146086CA3
:1020600070470A884B881A438B881A43CB881A43D7
:102070000B891A434B891A438B891A43A0F84420D1
:1020800070470021018041808180C18001814181B0
:102090008181704731B1B0F8442042F40042A0F889
:1020A000442005E0B0F84420C2F30E02A0F844201A
:1020B000704721B1828842F00402828004E0828865
:1020C0004FF6FB731A408280704721B1828842F03C
:1020D0000102828004E082884FF6FE731A408280FB
:1020E000704710B51AB183890B43838104E083895B
:1020F000CC43A4B22340838110BD81827047024645
:102100000020138A0B4201D0012000E0002070471C
:10211000CA430282704710B502460020002384465D
:10212000148A04EA0103948904EA010C23B1BCF186
:10213000000F01D0012000E0002010BDCA43028240
:10214000704741EA0203A0F84830704710B51AB151
:1021500083890B43838104E08389CC43A4B2234069
:10216000838110BD21B1828842F00802828004E0A0
:1021700082884FF6F7731A408280704701894FF6C4
:10218000F8721140018170470A46002101894FF61B
:102190008F73194011430181704730B504460D46D5
:1021A00029462046FFF7F0FF208940F007002081F4
:1021B00030BD2DE9F04104460D4616461F46602D00
:1021C00006D13B46012231462046FFF773FE05E06B
:1021D0003B46012231462046FFF797FE294620461E
:1021E000FFF7D2FF208940F007002081BDE8F08191
:1021F00010B58C4600210189C9B21C0642EA14447C
:1022000044EA0C042143018110BD2DE9F04105464B
:102210000E4617469846002443463A46314628461D
:10222000FFF7E6FF2C894FF6F870044044F00704EE
:102230004FF68F70044044F070042C81BDE8F081AB
:10224000F0B504460D4616461F463B463246294623
:102250002046FFF7CDFF208940F480402081F0BD6B
:1022600082884FF68F731A40828082880A43828068
:10227000704702894FF6F8731A40028102890A43B7
:102280000281704702894FF67F731A4002810289EA
:102290000A430281704770B58C4614461D460021E2
:1022A000002200230189028B038C4FF6F87631401F
:1022B00041EA0C014FF6FC46324040F2011632432F
:1022C0004FF6DD7633402E0544EA1646334301814E
:1022D0000283038470BD21B1828842F08002828033
:1022E00004E082884FF67F731A4082807047A0F81E
:1022F0005010704710B50446F848844208D10121B7
:102300001020FEF72BFF00211020FEF727FF3EE0F4
:10231000F348844209D101214804FEF70EFF002151
:102320004FF40030FEF709FF31E0EE48844209D156
:1023300001218804FEF701FF00214FF48020FEF701
:10234000FCFE24E0E848844209D10121C804FEF7DC
:10235000F4FE00214FF40020FEF7EFFE17E0E34803
:10236000844209D101210805FEF7E7FE00214FF460
:102370008010FEF7E2FE0AE0DD48844207D1012129
:102380002020FEF7EBFE00212020FEF7E7FE10BD27
:102390002DE9FF4705460E460024A14600BFA04692
:1023A000B08900B100BF2C8A24F44054F088044363
:1023B0002C82AC8941F20C608443B0883189084397
:1023C000718908430443AC81AC8A24F44074B08919
:1023D0000443AC826846FEF787FDC048854202D0C0
:1023E000C348854202D1DDF80C9001E0DDF8089089
:1023F000A88910F4004F08D009EBC90000EB0910C0
:1024000031684900B0FBF1F707E009EBC90000EBC8
:10241000091031688900B0FBF1F76420B7FBF0F0D8
:1024200004012009642101FB1078A88910F4004FF1
:1024300008D0322000EBC800B0FBF1F000F007003C
:10244000044308E0322000EB08106421B0FBF1F0F7
:1024500000F00F0004432C81BDE8FF874FF41651B4
:10246000016000218180C18001810C214181002116
:102470008181704710B502460020108A20F47060F8
:102480000B884C8823438C882343CC8823431843F0
:10249000108210BD0021018041808180C180704781
:1024A00021B1828942F40052828104E082894DF692
:1024B000FF731A4082817047028B02F47F420283CD
:1024C000028B0A430283704721B1828942F40042A1
:1024D000828103E08289C2F30E028281704721B1BA
:1024E000828A42F40062828204E0828A4FF2FF73A1
:1024F0001A4082827047C1F3080282807047014609
:102500008888C0F308007047028A4FF6F0731A40BB
:102510000282028A0A430282704721B1828942F014
:102520000202828104E082894FF6FD731A408281A3
:10253000704782894FF2FF731A40828182890A4371
:1025400082817047028A4FF6DF731A400282028A44
:102550000A430282704721B1028A42F48042028219
:1025600004E0028A4BF6FF731A40028270478189A9
:1025700041F001018181704721B1828A42F0080255
:10258000828204E0828A4FF6F7731A408282704793
:10259000028BD2B20283028B42EA0122028370478D
:1025A00021B1828A42F02002828204E0828A4FF6C0
:1025B000DF731A408282704721B1828A42F0100292
:1025C000828204E0828A4FF6EF731A40828270475B
:1025D000828A4FF6FB731A408282828A0A43828281
:1025E000704721B1828A42F00202828204E0828A2C
:1025F0004FF6FD731A408282704710B51AB1838A74
:102600000B43838204E0838ACC43A4B223408382B9
:1026100010BD70B503460024A44600250020A1F596
:1026200010666A3E00D100BF1846C1F3421401F0A3
:102630001F0C012606FA0CF5012C01D10C3004E028
:10264000022C01D1103000E014301AB106682E437C
:10265000066002E00668AE43066070BD02460020D8
:10266000B1F5007F00D100BF13880B4201D00120DB
:1026700000E00020704701F40072B2F5007F00D145
:1026800000BFCA430280704730B5024600240023D1
:102690009C460020A1F510656A3D00D100BFC1F342
:1026A000421C01F01F03012505FA03F3BCF1010FE1
:1026B00002D195892B4007E0BCF1020F02D1158AA7
:1026C0002B4001E0958A2B400C12012505FA04F4F9
:1026D00015882C4073B16CB101200CE00010014052
:1026E0000044004000480040004C004000500040C2
:1026F00000140140002030BD10B500220023A1F5D8
:1027000010646A3C00D100BF0A1201249440A3B2B5
:10271000DC43048010BD0000FDF73FFE642000F0A4
:1027200058FA4FF4A060FDF7F3FE00F00DFEC8204C
:1027300000F04FFA1D4802F0EFF802F033F900F014
:10274000F6FE1A4802F04BF9184802F0A8F91748AB
:1027500002F006FA4FF47A3002F0D5FA3C21FE205E
:1027600001F033FA0121FE2001F02EF93221FE2082
:1027700001F02BFA4FF4FA7000F02BFA01F076FE1C
:1027800001F0C6FE01F020FF01F09DFF042000F0E3
:102790006AFA4FF4FA7000F083FDC82000F03DFBA8
:1027A0004FF47A7000F015FA00BFFEE740420F00C8
:1027B000704700BFFEE700BFFEE700BFFEE700BFB7
:1027C000FEE770477047704710B50120FEF75EF9CD
:1027D00028B10120FEF76BF90120FEF753F910BD77
:1027E00010B50220FEF752F928B10220FEF75FF97A
:1027F0000220FEF747F910BD10B560210448FEF72E
:1028000011FF10BD10B560210248FEF70BFF10BD8F
:10281000003001400038004010B500240121880735
:10282000FFF779FC08B301218807FFF787FCB1485F
:10283000007868B900BF05E00120AF4921F8140015
:10284000601CC4B2142CF7DB0120AA4908700CE00C
:10285000002405E00020A84921F81400601CC4B23F
:10286000142CF7DB0020A349087010BD10B501211E
:10287000A248FFF750FC00287ED001219F48FFF7B7
:102880005DFC012280219E48FFF7B7FE01219D4893
:10289000FEF7F8F902219B48FEF7F4F90421994864
:1028A000FEF7F0F99849087800EBD0714910B0EBC9
:1028B00041011BD195480078012817D101F078FA21
:1028C00001F036FB01F097FB01F04FFF01F076FAC3
:1028D00001F04FFB01F0ACFB01F05EFF01F074FA78
:1028E00001F068FB01F0C1FB01F06EFF8648007843
:1028F000012827D101F05CFA01F0B4FA01F035FFAC
:1029000001F05CFA01F0D0FA01F046FF01F05CFA48
:1029100001F0ECFA01F058FF02F08DFB7CA002F010
:102920008EFB7EA002F08BFB01F04EFA01F0B5FFAA
:1029300001F04AFF7AA002F082FB78A002F07FFB50
:1029400002F0A9FB70480078032811D101F030FA99
:1029500001F0A8FB01F009FF01F030FA01F0C4FB1F
:1029600001F01AFF01F030FA01F0E0FB01F02CFF5A
:1029700065480078052800E02FE011D101F018FA31
:1029800001F0F6FB01F0F1FE01F018FA01F034FC61
:1029900001F002FF01F018FA01F04FFC01F014FF02
:1029A00059480078072811D101F002FA01F066FCBD
:1029B00001F0DBFE01F002FA01F081FC01F0ECFE17
:1029C00001F002FA01F09CFC01F0FEFE4E48007896
:1029D000082802DB00204C49087010BD10B5012109
:1029E0005248FFF798FB18B101215048FFF7A6FBAA
:1029F00010BD10B52DED028B002008EE100A01214C
:102A00004B48FFF788FBA0B101214948FFF796FB2F
:102A1000012280213A48FFF7F0FD02F00CFB3B4811
:102A2000017844A002F00BFB3CA002F008FB02F08E
:102A300032FBBDEC028B10BD10B501214248FFF7FF
:102A40006AFB18B101214048FFF778FB10BD10B5B3
:102A500001213E48FFF75FFB30B101213B48FFF702
:102A60006DFB01203A49087010BD10B501213948AD
:102A7000FFF751FB60B101213648FFF75FFB0021F2
:102A80003448FEF735FF002201213248FFF729FBC9
:102A900010BD10B501213048FFF73DFB20B30121E7
:102AA0002D48FFF74BFB2D480088401C2B49088020
:102AB00008460088012808D101212948FEF7E4F8DA
:102AC00002212748FEF7E0F812E024480088022897
:102AD0000BD101212248FEF7D5F802212048FEF74C
:102AE000D1F800201D49088002E000201B49088021
:102AF00010BD0000520000205001002000040040E2
:102B0000001401400008024053000020460000204D
:102B1000454E544552212121000000000D0A0000BD
:102B20004C6561766521212100000000000800400D
:102B3000000C0040616374696F6E5F666C616720B2
:102B40003D202564200000000010004000140040DB
:102B500047000020000401400018004054000020FD
:102B6000000402400120FE490870704770B503461A
:102B70000020FB490870A82003FB00F1B1F1807F21
:102B800000D31DE021F07F40401E4FF0E022506155
:102B900050170F22002807DA1407260EF14C00F018
:102BA0000F052D1F665503E01407250EEE4C255426
:102BB00000BF00204FF0E02290610720106100BFAD
:102BC00000BFE74800780028FBD00020E4490870E7
:102BD00070BD30B50446002500BF04E04FF47A70A4
:102BE000FFF7C4FF6D1CA542F8D330BD014600209D
:102BF00001E0421C90B28842FBDB70471FB50446DF
:102C00001C208DF80C0001208DF80D008DF80E00B1
:102C10008DF80F0003A8FDF780FC01210846FEF7A0
:102C200027FA4FF08040FEF72DFD600001904AF238
:102C30000F40ADF800000020ADF80800ADF802002C
:102C400069464FF08040FEF7CAFD01218807FFF773
:102C50005FFA012211469007FFF743FA0121880726
:102C6000FEF746FE1FBD1FB504461D208DF80C0063
:102C700001208DF80D0000208DF80E0001208DF848
:102C80000F0003A8FDF749FC01210220FEF7F0F92F
:102C9000B648FEF7F7FC600001904AF20F40ADF82D
:102CA00000000020ADF80800ADF802006946AF480A
:102CB000FEF795FD0121AD48FFF72AFA01221146E2
:102CC000AA48FFF70EFA0121A848FEF711FE1FBD22
:102CD0001FB504461E208DF80C0001208DF80D0054
:102CE0008DF80E008DF80F0003A8FDF716FC0121EA
:102CF0000420FEF7BDF99E48FEF7C4FC5420604353
:102D000001900020ADF80000ADF80800ADF8020019
:102D100069469748FEF763FD01219548FFF7F8F9EA
:102D2000012211469248FFF7DCF901219048FEF795
:102D3000DFFD1FBD08B51E208DF8000003208DF8B3
:102D4000010000208DF8020001208DF80300684684
:102D5000FDF7E3FB012211468548FFF7C2F9012187
:102D60008348FEF7C5FD08BD30B58BB004460D465F
:102D700001210420FEF77CF97D48FEF783FC0794CF
:102D8000681E80B2ADF818000020ADF82000ADF844
:102D90001A0006A97648FEF722FD01A8FEF7E1FE1B
:102DA0006020ADF804000120ADF806004FF4FA7081
:102DB00003900020ADF8100001A96D48FEF7A4FDB6
:102DC00008216B48FEF734FF01216948FEF772FDC8
:102DD00001216748FFF79CF9012211466448FFF77B
:102DE00080F901216248FEF783FD02220621614835
:102DF000FDF757FF4020099002208DF828000020A1
:102E00008DF829008DF82A0001208DF82B0009A9E2
:102E10005848FDF7C3FE0BB030BD1FB50446322045
:102E20008DF80C0003208DF80D0002208DF80E00A7
:102E300001208DF80F0003A8FDF76FFB012108208A
:102E4000FEF716F94C48FEF71DFC600001904AF2AF
:102E50000F40ADF800000020ADF80800ADF802000A
:102E600069464548FEF7BBFC01214348FFF750F98E
:102E7000012211464048FFF734F901213E48FEF790
:102E800037FD00203D4908703D4908703D490870F4
:102E90001FBD08B532208DF8000003208DF8010019
:102EA00000208DF8020001208DF803006846FDF730
:102EB00034FB012211463048FFF713F901212E4857
:102EC000FEF716FD08BD30B58BB004460D46012156
:102ED0000820FEF7CDF82848FEF7D4FB0794681EBB
:102EE00080B2ADF818000020ADF82000ADF81A004F
:102EF00006A92148FEF773FC01A8FEF732FE602008
:102F0000ADF804000120ADF80600C82003900020B1
:102F1000ADF8100001A91848FEF7F6FC0821164884
:102F2000FEF786FE01A91448FEF72DFD0821124880
:102F3000FEF787FE01A91048FEF773FD08210E4831
:102F4000FEF78AFE01A90C48FEF7D4FD08210A48C5
:102F5000FEF78BFE01210848FEF7ACFC012113E0CF
:102F60005600002018ED00E000E400E000040040FE
:102F70000008004000040240000C00405700002000
:102F80005800002059000020E048FFF7C1F8012256
:102F90001146DE48FFF7A5F80121DC48FEF7A8FC42
:102FA00002220021DA48FDF77CFE02220121D848E6
:102FB000FDF777FE02221146D548FDF772FE022288
:102FC0000321D348FDF76DFE0F20099002208DF8F4
:102FD000280000208DF829008DF82A0001208DF8A6
:102FE0002B0009A9CA48FDF7D9FD0BB030BDC9486F
:102FF0000078401CC7490870084600783C2806D174
:1030000000200870C4480078401CC3490870C248BA
:1030100000783C2807D10020BF490870BF480078DD
:10302000401CBE49087070471FB5044636208DF815
:103030000C0002208DF80D008DF80E0001208DF897
:103040000F0003A8FDF769FA01211020FEF710F820
:10305000B348FEF717FB04EB84004000019042F2F6
:10306000CF00ADF800000020ADF80800ADF8020078
:103070006946AB48FEF7B3FB0121A948FFF748F8C2
:1030800001221146A648FFF72CF80121A448FEF7BB
:103090002FFC1FBD1FB5044637208DF80C00012002
:1030A0008DF80D0002208DF80E0001208DF80F0024
:1030B00003A8FDF732FA01212020FDF7D9FF994836
:1030C000FEF7E0FA600001904AF20F40ADF8000010
:1030D0000020ADF80800ADF8020069469148FEF7FF
:1030E0007EFB01218F48FFF713F8012211468D481E
:1030F000FEF7F7FF01218B48FEF7FAFB1FBD1FB556
:1031000004462C208DF80C0001208DF80D008DF860
:103110000E008DF80F0003A8FDF7FFF90121022032
:10312000FDF7B7FF8048FEF7ADFA0194A720ADF890
:1031300000000020ADF80800ADF8020069467A48AA
:10314000FEF74DFB01217848FEF7E2FF0122114610
:103150007548FEF7C6FF00217348FEF7C9FB1FBD87
:103160001FB5044618208DF80C0002208DF80D00C4
:103170008DF80E0001208DF80F0003A8FDF7CDF9A2
:1031800001210804FDF785FF6848FEF77BFA04EB90
:1031900084004000019044F29F10ADF80000002030
:1031A000ADF80800ADF8020069466048FEF717FB6D
:1031B00001215E48FEF7ACFF012211465B48FEF795
:1031C00090FF01215948FEF793FB1FBD1FB5044630
:1031D00019208DF80C0001208DF80D008DF80E00DF
:1031E0008DF80F0003A8FDF798F901214804FDF7B9
:1031F00050FF4F48FEF746FA04EB84004000019070
:1032000044F29F10ADF800000020ADF80800ADF8C2
:10321000020069464648FEF7E2FA01214448FEF7FB
:1032200077FF012211464248FEF75BFF012140482B
:10323000FEF75EFB1FBD1FB504461A208DF80C007B
:1032400001208DF80D008DF80E008DF80F0003A8F9
:10325000FDF763F901218804FDF71BFF3548FEF7F0
:1032600011FA04EB84004000019044F29F10ADF885
:1032700000000020ADF80800ADF8020069462D48B6
:10328000FEF7ADFA01212B48FEF742FF012211465D
:103290002848FEF726FF01212648FEF729FB1FBD1F
:1032A0001FB504462B208DF80C0003208DF80D006F
:1032B00001208DF80E008DF80F0003A8FDF72DF901
:1032C00001214020FDF7D4FE1B48FEF7DBF904EB9B
:1032D00084004000019042F2CF00ADF800000020D1
:1032E000ADF80800ADF8020069461348FEF777FA1A
:1032F00001211148FEF70CFF012211460E48FEF78E
:10330000F0FE01210C48FEF7F3FA1FBD000C00404F
:103310000000024057000020580000205900002003
:103320000010004000140040000401400040014033
:1033300000440140004801400018004010B5012140
:103340007F20FDF762FE10BD1CB501210220FDF7B4
:103350005CFE01208DF8040000208DF806008DF839
:1033600005008DF80700032000906946F748FDF737
:1033700015FC0121F548FDF785FC0221F348FDF716
:1033800081FC1CBD10B5F248007838B10020F0492E
:1033900008700121ED48FDF777FC06E00120EC49BB
:1033A00008700121E948FDF76DFC10BD10B5E94832
:1033B000007838B10020E74908700221E348FDF7A2
:1033C00063FC06E00120E34908700221DF48FDF7B5
:1033D00059FC10BD10B502460023002000BF28E0B4
:1033E000184621E002EB8004D4ED000A441C02EBF5
:1033F000840494ED001AF4EEC10AF1EE10FA11DD26
:1034000002EB800494ED000A441C02EB8404D4ED2A
:10341000000A02EB8004C4ED000A441C02EB8404A1
:1034200084ED000A441CE0B24C1E8442DADC5C1CD1
:10343000E3B28B42D4DB10BD70B504460D460021CB
:103440008C460020294603E0665CB4444E1CF1B271
:103450009142F9DD6FEA0C00060E1E70060C5E70DC
:10346000060A9E70D87070BD18B500241220BA49A3
:10347000087034204870562088707820C870B7488B
:103480000068000E0871B5480068000C4871B34828
:103490000068000A8871B1480068C871082404E017
:1034A0000020AD490855601CC4B2182CF8DB6B46EF
:1034B00017220021A848FFF7BFFF9DF80000A6498A
:1034C00008769DF8010048769DF8020088769DF800
:1034D0000300C87618BD30B503460C4600218C4663
:1034E0000020214603E05D5CAC444D1CE9B29142F2
:1034F000F9DD6FEA0C0030BD1FB502460020535CB9
:103500001B0600934B1CD35C1B0401938B1CD35CE8
:103510001B020293CB1CD35C0393DDE900342343ED
:10352000029C2343039C43EA040004B010BD1CB575
:1035300001210420FDF769FD01208DF80400002021
:103540008DF806008DF805008DF807000F2000901B
:1035500069468348FDF722FB1CBD10B503468C4627
:1035600000200CF0FF0104E05C5C0444E0B24C1C61
:10357000E1B29142F8DDC443E0B210BD00207949C8
:1035800008707949087079490870012175480278F6
:103590000078401C734B18707548815402211846FE
:1035A00002780078401C1870714881540322184634
:1035B00001780078401C18706D4842540422184667
:1035C00001780078401C187069484254052118465B
:1035D00002780078401C187065488154062118460E
:1035E00002780078401C18706148815407215E48B9
:1035F00002780078401C5C4B18705E4881540821AA
:10360000184602780078401C18705A4881540922E4
:10361000184601780078401C1870564842540A2118
:10362000184602780078401C1870524881540B21CB
:10363000184602780078401C18704E4881540C21BE
:10364000184602780078401C18704A4881540D21B1
:10365000184602780078401C1870464881540E21A4
:10366000424802780078401C404B18704248815410
:103670000F21184602780078401C18703E4881548B
:103680001021184602780078401C18703A4881547E
:103690001122184601780078401C187036484254B0
:1036A0001222184601780078401C187032484254A3
:1036B0001321184602780078401C18702E48815457
:1036C0001422184601780078401C18702A48425489
:1036D00070472DE9F04F8046894692461E46099D67
:1036E00000240027A346FF222146641C6A54214679
:1036F000641C6A542146641C05F80180F01C2146B4
:10370000641C685404222146641C6A542146641CCB
:1037100005F8019000BF07E01AF807202046611C59
:10372000CCB22A54781CC7B2B742F5DB601E82B215
:1037300002212846FFF711FF83462046611CCCB2C8
:1037400005F800B02046BDE8F08F000000040240FC
:103750006800002069000020800000202400002074
:10376000000802406A0000206B0000206C0000206E
:10377000A4070020B8070020CC0700202DE9F04363
:103780000746884616461C460025A946FF222946BC
:103790006D1C625429466D1C625429466D1C675489
:1037A000052229466D1C6254042229466D1C625470
:1037B00029466D1C04F8018029466D1C665432129E
:1037C0002846691CCDB22254681E82B202212046CE
:1037D000FFF7C3FE81462846691CCDB204F800906D
:1037E0002846BDE8F0832DE9F04306460F46904693
:1037F0001C460025A946FF2229466D1C6254294615
:103800006D1C625429466D1C6654042229466D1CA9
:10381000625429466D1C625429466D1C6754294622
:103820006D1C04F80180681E82B202212046FFF759
:1038300094FE81462846691CCDB204F800902846C3
:10384000BDE8F083F0B506460C4600250027FF22B0
:1038500029466D1C625429466D1C625429466D1C14
:103860006654022229466D1C6254052229466D1CAD
:103870006254681E82B202212046FFF76EFE0746A0
:1038800029466D1C67542846F0BD2DE9F0410546D8
:103890000E4617469846002400BF22E0285DFE49E8
:1038A0000880305DFD490880385DFD49088000BF13
:1038B0004021F948001FFEF7D1FE0028F8D000BFD4
:1038C0004021F648001FFEF7C9FE0028F8D000BFCF
:1038D0004021F348001FFEF7C1FE0028F8D0601C0D
:1038E000C4B24445DADBBDE8F08170B505460E464A
:1038F00000240121EB48FDF7C5F90221E948FDF755
:10390000C1F90421E748FDF7BDF90120FFF72EF9C1
:1039100000BF20E00020E0490880E0490880E0493D
:10392000088000BF4021DC48001FFEF797FE0028FA
:10393000F8D000BF4021D948001FFEF78FFE0028B5
:10394000F8D000BF4021D648001FFEF787FE0028B0
:10395000F8D0601CC4B2022CDCDB002422E0285D1D
:10396000CD490880285DCD490880285DCC49088074
:1039700000BF4021C848001FFEF770FE0028F8D0A5
:1039800000BF4021C548001FFEF768FE0028F8D0A0
:1039900000BF4021C248001FFEF760FE0028F8D09B
:1039A000601CC4B2B442DADB0120FFF7DFF801216A
:1039B000BC48FDF769F90221BA48FDF765F9042111
:1039C000B848FDF761F970BD3EB504460D460020CC
:1039D000009001900290FF208DF800008DF801000A
:1039E0008DF8024004208DF8030003208DF80400B8
:1039F00018208DF805008DF8065006220221684631
:103A0000FFF7ABFD8DF8070008216846FFF76DFF53
:103A10003EBD3EB504460D46002000900190029048
:103A2000FF208DF800008DF801008DF80240042081
:103A30008DF8030003208DF8040019208DF805008F
:103A40008DF80650062202216846FFF786FD8DF8A4
:103A5000070008216846FFF748FF3EBD3EB5044613
:103A60000D460020009001900290FF208DF800008C
:103A70008DF801008DF8024004208DF8030003202A
:103A80008DF804001C208DF805008DF806500622E4
:103A900002216846FFF761FD8DF80700082168469E
:103AA000FFF723FF3EBD3EB504460D4600200090C3
:103AB00001900290FF208DF800008DF801008DF834
:103AC000024004208DF8030003208DF804001B2021
:103AD0008DF805008DF80650062202216846FFF792
:103AE0003CFD8DF8070008216846FFF7FEFE3EBD4D
:103AF0003EB504460D460020009001900290FF2044
:103B00008DF800008DF801008DF8024004208DF83A
:103B1000030003208DF804001A208DF805008DF8AD
:103B20000650062202216846FFF717FD8DF80700B0
:103B300008216846FFF7D9FE3EBD3EB505460C4656
:103B40000020009001900290FF208DF800008DF879
:103B500001008DF8025005208DF8030004208DF837
:103B600004001E208DF80500E0B28DF8060020123A
:103B70008DF80700072202216846FFF7EEFC8DF85A
:103B8000080009216846FFF7B0FE3EBD3EB5044679
:103B90000020009001900290FF208DF800008DF829
:103BA00001008DF8024002208DF8030005208DF8F9
:103BB0000400042202216846FFF7CFFC8DF80500BF
:103BC00006216846FFF791FE3EBD3EB505460C4610
:103BD0000020009001900290FF208DF800008DF8E9
:103BE00001008DF8025005208DF8030003208DF8A8
:103BF000040020208DF80500E0B28DF806002012A8
:103C00008DF80700072202216846FFF7A6FC8DF811
:103C1000080009216846FFF768FE3EBD3EB505462F
:103C20000C460020009001900290FF208DF80000CB
:103C30008DF801008DF8025005208DF80300032057
:103C40008DF8040022208DF80500E0B28DF8060002
:103C500020128DF80700072202216846FFF77DFC3D
:103C60008DF8080009216846FFF73FFE3EBD70B59C
:103C700006460D461446FF2020706070A670042092
:103C8000E0700320207119206071A57106220221C5
:103C90002046FFF762FC07E004440040044800406F
:103CA000044C004000080240E071AA202072092064
:103CB00070BD70B506460D461446FF20207060703A
:103CC000A6700520E070042020711E206071A5718F
:103CD0002812E071072202212046FFF73EFC2072E5
:103CE000AA2060720A2070BD30B505460C46FF2040
:103CF00020706070A5700220E07005202071042201
:103D000002212046FFF729FC6071AA20A07107203C
:103D100030BD70B506460D461446FF202070607019
:103D2000A6700420E0700320207118206071A57136
:103D3000062202212046FFF710FCE071AA20207223
:103D4000092070BD70B506460D461446FF20207050
:103D50006070A6700520E070032020712020607143
:103D6000A5712812E071072202212046FFF7F5FB1A
:103D70002072AA2060720A2070BD70B506460D46FA
:103D80001446FF2020706070A6700520E0700320AC
:103D9000207122206071A5712812E0710722022192
:103DA0002046FFF7DAFB2072AA2060720A2070BD5D
:103DB0000020FE490880FE49087070470020FD4938
:103DC0000880FD49087070470020FC490880FC49C4
:103DD0000870704770B50246002000BF0AE0145C0E
:103DE000F24B1D881B885B1CF04E3380F54B5C55F5
:103DF000431C98B28842F2DB70BD70B502460020C9
:103E000000BF0AE0145CEB4B1D881B885B1CE94E6D
:103E10003380ED4B5C55431C98B28842F2DB70BD99
:103E200070B50246002000BF0AE0145CE34B1D8819
:103E30001B885B1CE14E3380E44B5C55431C98B2FD
:103E40008842F2DB70BDDF480078E14908807047A6
:103E5000DD480078DF4908807047DC480078DE499B
:103E60000880704730B585B01421684601F009FC20
:103E70000025002414E0D94A32F81420D1B2D84ADF
:103E8000105D6A46FFF7F3FE054629466846FFF7D0
:103E9000A1FFC74800782844C5490870601CC4B217
:103EA000142CE8DB05B030BD30B585B01421684670
:103EB00001F0E7FB0025002414E0C84A32F8142082
:103EC000D1B2C74A105D6A46FFF7D1FE05462946C2
:103ED0006846FFF792FFB84800782844B649087052
:103EE000601CC4B2142CE8DB05B030BD30B585B021
:103EF0001421684601F0C5FB0025002414E0B74AF0
:103F000032F81420D1B2B64A105D6A46FFF7AFFE10
:103F1000054629466846FFF783FFA94800782844EC
:103F2000A7490870601CC4B2142CE8DB05B030BD92
:103F300030B585B01421684601F0A3FB00250024AC
:103F400013E0A84A32F81410A54A105D6A46FFF73C
:103F5000B0FE054629466846FFF73CFF94480078C6
:103F6000284493490870601CC4B2142CE9DB05B0E6
:103F700030BD30B585B01421684601F082FB0025C4
:103F8000002413E0974A32F81410954A105D6A46EF
:103F9000FFF78FFE054629466846FFF72EFF864845
:103FA0000078284484490870601CC4B2142CE9DBF2
:103FB00005B030BD30B585B01421684601F061FB15
:103FC0000025002413E0874A32F81410844A105D5B
:103FD0006A46FFF76EFE054629466846FFF720FF52
:103FE00077480078284476490870601CC4B2142CC5
:103FF000E9DB05B030BD30B585B01421684601F06D
:1040000040FB002500240FE06946FE20FFF76CFE10
:10401000054629466846FFF7DDFE654800782844D6
:1040200063490870601CC4B2012CEDDB05B030BDE3
:1040300030B585B01421684601F023FB002500242B
:104040000FE06946FE20FFF74FFE05462946684609
:10405000FFF7D3FE58480078284457490870601C81
:10406000C4B2012CEDDB05B030BD30B585B01421F4
:10407000684601F006FB002500240FE06946FE209B
:10408000FFF732FE054629466846FFF7C9FE4C4851
:10409000007828444A490870601CC4B2012CEDDB4A
:1040A00005B030BD30B585B01421684601F0E9FA9D
:1040B0000025002414E04C4A32F81420D1B2484ABA
:1040C000105D6A46FFF725FE054629466846FFF75C
:1040D00081FE37480078284435490870601CC4B216
:1040E000142CE8DB05B030BD30B585B0142168462E
:1040F00001F0C7FA0025002414E03B4A32F81420EE
:10410000D1B2374A105D6A46FFF703FE05462946DD
:104110006846FFF772FE2848007828442649087050
:10412000601CC4B2142CE8DB05B030BD30B585B0DE
:104130001421684601F0A5FA0025002414E02A4A5B
:1041400032F81420D1B2264A105D6A46FFF7E1FD2D
:10415000054629466846FFF763FE1948007828445B
:1041600017490870601CC4B2142CE8DB05B030BDE0
:1041700030B585B01421684601F083FA002500248B
:1041800013E01A4A32F81410154A105D6A46FFF718
:10419000D9FD054629466846FFF71CFE044800780D
:1041A000284403490870601CC4B221E04C00002080
:1041B000480000204E000020490000205000002050
:1041C0004A0000207C0200200C0400209C050020F6
:1041D0000444004004480040044C004050010020CA
:1041E000280000209C0000208C010020D800002026
:1041F000142CC6DB05B030BD30B585B0142168463F
:1042000001F03FFA0025002413E0FE4A32F81410B2
:10421000FD4A105D6A46FFF795FD0546294668464A
:10422000FFF7EBFDF94800782844F8490870601C56
:10423000C4B2142CE9DB05B030BD30B585B0142113
:10424000684601F01EFA0025002413E0ED4A32F81A
:104250001410ED4A105D6A46FFF774FD05462946C5
:104260006846FFF7DDFDEA4800782844E849087011
:10427000601CC4B2142CE9DB05B030BD30B585B08C
:104280001421684601F0FDF90025002413E0E14AFD
:1042900032F81410DC4A105D6A46FFF76EFD0546E1
:1042A00029466846FFF796FDDB4800782844DA493E
:1042B0000870601CC4B2142CE9DB05B030BD30B509
:1042C00085B01421684601F0DCF90025002413E0D4
:1042D000D04A32F81410CC4A105D6A46FFF74DFD03
:1042E000054629466846FFF788FDC84800782844F7
:1042F000C6490870601CC4B2142CE9DB05B030BD9F
:1043000030B585B01421684601F0BBF900250024C2
:1043100013E0C04A32F81410BB4A105D6A46FFF73A
:104320002CFD054629466846FFF77AFDB848007817
:104330002844B7490870601CC4B2142CE9DB05B0EE
:1043400030BD10B58AB000242821684601F099F9E3
:1043500000BF06E0B14830F814002DF81400601CCE
:10436000C4B2142CF6DB002407E03DF81410A64A72
:10437000105DFFF7E2FB601CC4B2142CF5DB0AB041
:1043800010BD10B5002400BF08E0A24A32F8141096
:104390009D4A105DFFF742FC601CC4B2142CF4DB94
:1043A00010BD10B5002400BF08E0964A32F8141082
:1043B000954A105DFFF709FC601CC4B2142CF4DBB5
:1043C00010BD10B5002400BF09E0954A32F8142052
:1043D000D1B28D4A105DFFF71CFB601CC4B2142CD7
:1043E000F3DB10BD10B5002400BF09E08D4A32F8A0
:1043F0001420D1B2844A105DFFF7E6FA601CC4B203
:10440000142CF3DB10BD10B5002400BF09E0864A70
:1044100032F81420D1B27C4A105DFFF7D5FA601C47
:10442000C4B2142CF3DB10BD10B5002400BF09E0AA
:104430007E4A32F81420D1B2734A105DFFF7C4FAF5
:10444000601CC4B2142CF3DB10BD10B5002400BFF7
:1044500009E0774A32F81420D1B26B4A105DFFF7B9
:10446000B3FA601CC4B2142CF3DB10BD00B58FB0DE
:1044700001214805FCF7C9FD6E48FCF7BBF868460A
:10448000FCF783F94FF0006000906B4801906B4897
:10449000029040200390C8200490002005904FF423
:1044A0008060069000200790089009904FF400303B
:1044B0000A9000200B9001200C9000200D900E908F
:1044C00069465C48FCF738F9002210215948FCF78E
:1044D000FDF900215748FCF769F900228021564870
:1044E000001FFEF78AF856495248FCF7DBF90FB077
:1044F00000BD10B553494F48FCF705FA38B1504993
:104500004C48FCF7CFF900214A48FCF74FF910BDA1
:1045100000B58FB001214805FCF777FD45484838C4
:10452000FCF768F86846FCF730F94FF0006000903F
:10453000454801904548029040200390082004908F
:10454000002005904FF480600690002007900890AE
:1045500009904FF400300A9000200B9001200C903D
:1045600000200D900E90694632484838FCF7E4F878
:10457000002210212F484838FCF7A8F900212D48C7
:104580004838FCF713F9002280212F48001FFEF75E
:1045900034F84FF0C05127484838FCF783F90FB082
:1045A00000BD10B52A4923484838FCF7ACF950B192
:1045B0004FF0C0511F484838FCF774F900211D48DE
:1045C0004838FCF7F3F810BD00B58FB0012148055D
:1045D000FCF71BFD17483038FCF70CF86846FCF771
:1045E000D4F84FF0006000901A4801901A480290E9
:1045F0004020039008200490002005904FF4806034
:1046000006902BE0D8000020280000204900002060
:104610004A00002014010020480000209C000020D7
:10462000500100208C010020C8010020040200205D
:1046300040020020A0600240044400407C020020B0
:104640000000202000802020044800400C040020AE
:1046500000800018044C00409C05002000200790BA
:10466000089009904FF400300A9000200B90012030
:104670000C9000200D900E9069469448FCF75CF871
:10468000002210219148FCF721F900218F48FCF706
:104690008DF8002280218E48FDF7AFFF8D498B48B1
:1046A000FCF700F90FB000BD10B58B498748FCF747
:1046B0002AF938B187498548FCF7F4F80021834886
:1046C000FCF774F810BD00B58FB001218805FCF728
:1046D0009CFC8248FBF78EFF6846FCF756F84FF0CB
:1046E000206000907E4801907E4802904020039018
:1046F00008200490002005904FF480600690002070
:104700000790089009904FF400300A9000200B9019
:1047100001200C9000200D900E9069466F48FCF728
:104720000BF8002210216D48FCF7D0F800216B48EF
:10473000FCF73CF8002280216948001FFDF75DFF6F
:1047400064496648FCF7AEF80FB000BD10B5664985
:104750006248FCF7D8F838B164496048FCF7A2F821
:1047600000215E48FCF722F810BD10B55F4957489C
:104770003030FCF797F85E48017854483030FCF749
:1047800036F8012280215B48FDF737FF01214F48B1
:104790003030FCF70BF810BD10B54FF0C0514B484E
:1047A0001838FCF77FF85448017848481838FCF767
:1047B0001EF8012280215148FDF71FFF01214348C7
:1047C0001838FBF7F3FF10BD10B542493F48FCF71E
:1047D00069F84B4801783D48FCF709F8012280212F
:1047E0003B48FDF70AFF01213848FBF7DFFF10BD0A
:1047F0000146002000BF04E0424A22F81010421C8B
:10480000D0B21428F8DB70470146002000BF04E056
:104810003D4A22F81010421CD0B21428F8DB704731
:104820000146002000BF04E0384A22F81010421C64
:10483000D0B21428F8DB70470146002000BF04E026
:10484000334A22F81010421CD0B21428F8DB70470B
:104850000146002000BF04E02E4A22F81010421C3E
:10486000D0B21428F8DB704730B505460C46FF205F
:1048700020706070A5700420E07002202071242058
:1048800060710220A071062202212046FEF765FE1B
:10489000E071AA202072092030BD30B585B0162500
:1048A0001421684600F0EDFE002469462846FFF713
:1048B000DBFF044621466846FFF7B2FA104800784D
:1048C00020440F49087005B030BD00007060024000
:1048D000004C00402000002020800020A064024006
:1048E00004140140E0070020008020200000202068
:1048F00048000020004400404900002000480040DB
:104900004A0000208C01002050010020D800002027
:10491000140100209C00002010B586B0044601213F
:104920000846FCF772FB01211020FCF7B2FB0722BE
:104930000921FE48FCF7B5F907220A21FB48FCF7DC
:10494000B0F94FF4C060049000208DF815000120EC
:104950008DF816008DF8170002208DF8140004A9B8
:10496000F248FCF71BF900940020ADF80400ADF804
:104970000600ADF80800ADF80C000C20ADF80A00F8
:104980006946EB48FDF704FD0121E948FDF788FD84
:104990004021E748FDF76FFE2021E548FDF76BFE5B
:1049A00006B010BD08B525208DF8000000208DF858
:1049B000010002208DF8020001208DF803006846F6
:1049C000FBF7ABFD002240F22771D948FDF721FE2D
:1049D000012240F22551D648FDF71BFE08BD10B557
:1049E00086B0044601210846FCF70FFB012148046C
:1049F000FCF73EFB07220221CC48FCF752F90722C4
:104A00000321CA48FCF74DF90C20049000208DF8D2
:104A100015008DF8160001208DF8170002208DF882
:104A2000140004A9C148FCF7B9F800940020ADF8BF
:104A30000400ADF80600ADF80800ADF80C000C203D
:104A4000ADF80A006946BB48FDF7A2FC0121B94850
:104A5000FDF726FD4021B748FDF70DFE2021B548A2
:104A6000FDF709FE06B010BD08B526208DF8000040
:104A700001208DF801008DF802008DF803006846D2
:104A8000FBF74BFD012240F22661AA48FDF7C1FD6C
:104A9000002240F22551A748FDF7BBFD08BD10B527
:104AA00086B0044601210846FCF7AFFA01218804CC
:104AB000FCF7DEFA07220A219F48FCF7F2F80722EA
:104AC0000B219D48FCF7EDF84FF440600490002066
:104AD0008DF815008DF8160001208DF817000220C2
:104AE0008DF8140004A99448FCF758F800940020AD
:104AF000ADF80400ADF80600ADF80800ADF80C0004
:104B00000C20ADF80A0069468C48FDF741FC0121F4
:104B10008A48FDF7C5FC40218848FDF7ACFD2021FF
:104B20008648FDF7A8FD06B010BD08B527208DF812
:104B3000000001208DF801008DF802008DF80300BF
:104B40006846FBF7EAFC012240F226617B48FDF74C
:104B500060FD002240F225517848FDF75AFD08BD5E
:104B600010B586B0044601210846FCF74EFA012133
:104B7000C804FCF77DFA082200216C48FCF791F884
:104B8000082201216948FCF78CF8032004900020DA
:104B90008DF815008DF8160001208DF81700022001
:104BA0008DF8140004A96148FBF7F8FF0094002079
:104BB000ADF80400ADF80600ADF80800ADF80C0043
:104BC0000C20ADF80A0069465D48FDF7E1FB0121C4
:104BD0005B48FDF765FC40215948FDF74CFD20215D
:104BE0005748FDF748FD06B010BD08B534208DF8D4
:104BF000000001208DF801008DF802008DF80300FF
:104C00006846FBF78AFC012240F226614C48FDF71A
:104C100000FD002240F225514948FDF7FAFC08BD8D
:104C200010B586B0044601210846FCF7EEF90121D3
:104C3000C804FCF71DFA08220C214248FCF731F8A1
:104C4000082202214048FCF72CF84FF480500490D1
:104C500000208DF815008DF8160001208DF8170042
:104C600002208DF8140004A93648FBF797FF0420B2
:104C7000049000208DF815008DF8160001208DF8A5
:104C8000170002208DF8140004A92F48FBF786FFB7
:104C900000940020ADF80400ADF80600ADF808005F
:104CA000ADF80C000C20ADF80A0069462748FDF766
:104CB0006FFB01212548FDF7F3FB40212348FDF759
:104CC000DAFC20212148FDF7D6FC06B010BD08B55E
:104CD00035208DF8000000208DF801008DF80200CD
:104CE00001208DF803006846FBF717FC012240F213
:104CF00026611648FDF78DFC012240F2255113482C
:104D0000FDF787FC08BD10B586B0044601210420DC
:104D1000FCF77BF901212020FCF7BBF908220621D2
:104D20000848FBF7BEFF0822072111E000000240FF
:104D300000100140004400400004024000480040D0
:104D4000004C004000080240000C024000500040AF
:104D5000DB48FBF7A6FFC020049000208DF815006B
:104D600001208DF816008DF8170002208DF8140030
:104D700004A9D348FBF712FF00940020ADF804000B
:104D8000ADF80600ADF80800ADF80C000C20ADF849
:104D90000A006946CB48FDF7FBFA0121C948FDF737
:104DA0007FFB4021C748FDF766FC2021C548FDF781
:104DB00062FC06B010BD08B547208DF80000012048
:104DC0008DF8010003208DF8020001208DF803000A
:104DD0006846FBF7A2FB002240F22661B948FDF7C6
:104DE00018FC002240F22551B648FDF712FC08BD20
:104DF00010B50446B448848000BF4021B248FDF796
:104E00002DFC0028F9D010BD10B50446AF48048031
:104E100000BF4021AD48001FFDF720FC0028F8D05E
:104E200010BD10B50446AA48048000BF4021A84820
:104E3000001FFDF713FC0028F8D010BD10B5044684
:104E4000A448048000BF4021A248001FFDF706FCD3
:104E50000028F8D010BD10B504469F48848000BFDC
:104E600040219D48FDF7FAFB0028F9D010BD10B590
:104E700004469448001D048000BF40219148FDF77E
:104E8000EDFB0028F9D010BD10B500BF20218E48E1
:104E9000FDF7E4FB0028F9D08B488088C4B2204697
:104EA00010BD10B500BF20218848001FFDF7D6FBBC
:104EB0000028F8D085480088C4B2204610BD10B53F
:104EC00000BF20218248001FFDF7C8FB0028F8D052
:104ED0007F480088C4B2204610BD10B500BF202115
:104EE0007C48001FFDF7BAFB0028F8D079480088FD
:104EF000C4B2204610BD10B500BF20217648FDF792
:104F0000ADFB0028F9D074488088C4B2204610BD9B
:104F100010B500BF20216B48FDF7A0FB0028F9D099
:104F20006848001D0088C4B2204610BD014600BF7D
:104F3000704770B504460D4600BF40216148FDF73B
:104F40008DFB0028F9D0E0B25E49091D088020469B
:104F500070BD10B50D20FFF78AFF0A20FFF787FF0D
:104F600010BD70B505460E46002400BF04E0285D64
:104F7000FFF73EFF601C84B2B442F8DB70BD70B531
:104F800005460E46002400BF04E0285DFFF73CFF05
:104F9000601C84B2B442F8DB70BD70B505460E46A5
:104FA000002400BF04E0285DFFF73BFF601C84B2D3
:104FB000B442F8DB70BD70B505460E46002400BF54
:104FC00004E0285DFFF73AFF601C84B2B442F8DBCE
:104FD00070BD70B505460E46002400BF04E0285D94
:104FE000FFF739FF601C84B2B442F8DB70BD70B5C6
:104FF00005460E46002400BF04E0285DFFF737FF9A
:10500000601C84B2B442F8DB70BD0FB410B59AB026
:105010001DA8009001A8009A1C9900F0DBFA044634
:1050200000200090A1B201A8FFF7E1FF20461AB0CE
:1050300010BC5DF814FB00202849088070470FB4AD
:1050400010B5B4B0C82102A800F01BFB37A801902E
:1050500002A8019A369900F0BDFA0446002001909A
:105060001E4800882044B0F57A7F01DBFFF7E3FF9C
:105070001B491A4A12888818224602A900F0BCFA75
:10508000164800882044154908800846008834B036
:1050900010BC5DF814FB10B512491348FBF702FC75
:1050A0000E4801881048FBF7A2FB01228021054829
:1050B000FDF7A3FA01210C48FBF778FB10BD0000B7
:1050C0000008024000140140001001400444004068
:1050D00004480040044C0040005000407000002094
:1050E000E007002000002020A06402402DE9F047E6
:1050F0000027B846B9460024002540F22661FE4844
:10510000FDF7C2FA40B140F22661FB48FDF7F4FA20
:105110004021F948FDF7AFFA40F22551F648FDF776
:10512000B3FA002875D040F22551F348FDF7E4FAB0
:105130002021F148FDF79FFAEF488088C7B2EF4879
:105140000078042809DAED4801780078401CEB4A21
:105150001070EB484754BDE8F087E8480078042811
:1051600025D1E7480078122814D1E5484078342842
:1051700010D1E348807856280CD1E148C0787828CF
:1051800008D1DE4801780078401CDC4A1070DC4809
:1051900047540BE0DA484078D949087008468078CF
:1051A00048700846C07888700846C770D3E7D3486F
:1051B000007804282DDDD14800783A2829DACF4834
:1051C00001780078401CCD4A1070CD4847541046F5
:1051D00000783A281DD135220021C948FEF77BF915
:1051E00080463621C648FEF787F98146C84520D15A
:1051F0000421C348FEF780F90646C148C07AC14978
:105200000870012E16D1BE48C07A087000240C2503
:105210000DE0A4E0BA49681C085C495D40EA012041
:10522000B94921F81400A81CC5B2601CC4B2142CE2
:10523000F0DB91E0022E12D100240C250CE0B049E5
:10524000681C085C495D40EA0120B04921F814005F
:10525000A81CC5B2601CC4B2142CF0DB7CE0032E89
:1052600012D100240C250CE0A549681C085C495D9E
:1052700040EA0120A64921F81400A81CC5B2601C10
:10528000C4B2142CF0DB67E0042E12D100240C25EC
:105290000CE09B49681C085C495D40EA01209D497F
:1052A00021F81400A81CC5B2601CC4B2142CF0DB99
:1052B00052E0052E12D100240C250CE09049681C08
:1052C000085C495D40EA0120934921F81400A81CBC
:1052D000C5B2601CC4B2142CF0DB3DE0062E12D126
:1052E00000240C250CE08649681C085C495D40EAF6
:1052F00001208A4921F81400A81CC5B2601CC4B260
:10530000142CF0DB28E0072E12D100240C250CE031
:105310007B49681C085C495D40EA0120804921F80E
:105320001400A81CC5B2601CC4B2142CF0DB13E03E
:10533000082E11D100240C250CE07149681C085C72
:10534000495D40EA0120774921F81400A81CC5B244
:10535000601CC4B2142CF0DB0020684908700821DE
:105360006548FDF77BF910B16348FDF7C8F800BF49
:10537000F1E610B540F226616B48FDF785F908B3F8
:1053800040F226616848FDF7B7F940216648FDF70D
:1053900072F9664800786649097888420BDA6348F2
:1053A00001780078401C614A10706248445C5E4895
:1053B000001D048006E001205C49087001215E4860
:1053C000FBF762FC40F225515748FDF75DF940B10B
:1053D00040F225515448FDF78FF920215248FDF73E
:1053E0004AF908215048FDF739F910B14E48FDF748
:1053F00086F810BD10B540F226615048FDF744F91B
:1054000008B340F226614D48FDF776F940214B483C
:10541000FDF731F94A4800784A49097888420BDAA1
:10542000474801780078401C454A10704648445C63
:105430004248001D048006E0012041490870022115
:105440003D48FBF721FC40F225513C48FDF71CF993
:1054500040B140F225513948FDF74EF92021374837
:10546000FDF709F908213548FDF7F8F810B1334880
:10547000FDF745F810BD10B540F226613348FDF741
:1054800003F908B340F226613048FDF735F94021B1
:105490002E48FDF7F0F82E4800782E49097888420A
:1054A0000BDA2B4801780078401C294A10702A48F2
:1054B000405C2649091D088006E001202449087047
:1054C00004211D48FBF7E0FB40F225511F48FDF782
:1054D000DBF878B140F225511C48FDF70DF9202189
:1054E0001A48FDF7C8F81948001D00881B490870C4
:1054F000084635E037E00000001001407800002049
:10550000C80B0020460000209C000020D80000208E
:1055100014010020500100208C010020C80100204F
:1055200004020020400200200044004079000020D6
:10553000480000207C020020000802400048004093
:105540007A000020490000200C040020004C00409C
:105550007B0000204A0000209C0500207C000020E9
:105560000078FFF784FC08211748FDF777F810B1A1
:105570001548FCF7C4FF10BD10B540F22661134872
:10558000FDF782F840B140F226611048FDF7B4F80B
:1055900040210E48FDF76FF840F225510B48FDF70A
:1055A00073F840B140F225510848FDF7A5F82021D5
:1055B0000648FDF760F808210448FDF74FF810B1E0
:1055C0000248FCF79CFF10BD004C00400014014055
:1055D000704700001CB50C46064B7B4469460090A2
:1055E000204600F034F904460020694600F042F9F4
:1055F00020461CBD97020000032A40F2308010F0C4
:10560000030C00F0158011F8013BBCF1020F62445D
:1056100098BF11F801CB00F8013B38BF11F8013BEE
:10562000A2F1040298BF00F801CB38BF00F8013B9B
:1056300011F0030300F00E83083AC0F0088051F81F
:10564000043B083A51F804CBA0E80810F5E7121D16
:105650005CBF51F8043B40F8043BAFF30080D20735
:1056600024BF11F8013B11F801CB48BF11F8012B01
:1056700024BF00F8013B00F801CB48BF00F8012B24
:1056800070474FF0000200B5134694469646203905
:1056900022BFA0E80C50A0E80C50B1F12001BFF4EB
:1056A000F7AF090728BFA0E80C5048BF0CC05DF851
:1056B00004EB890028BF40F8042B08BF704748BF9F
:1056C00020F8022B11F0804F18BF00F8012B704713
:1056D000704770477047704770B504468569006829
:1056E000C10601D5302600E02026C00708D070BDD5
:1056F000D4E9012130469047206A00F10100206280
:105700006D1EF5D570BD70B5044685690068C0078B
:1057100008D170BDD4E9012120209047206A00F112
:10572000010020626D1EF5D570BD09684A0501D5DE
:1057300040B27047C905FCD500B2704709684A05F8
:1057400001D5C0B27047C905FCD580B2704770B5AD
:1057500005460C46012A05D02868800600D5EA696E
:10576000002302E0012305E05B1C934202D2E05CCF
:105770000028F9D1A869E618C01AA861286A184457
:1057800028622846FFF7A8FF04E0D5E9012114F8B4
:10579000010B9047B442F8D32846FFF7B4FF70BD21
:1057A0002DE9F0410746002510687529394616A4F1
:1057B00011D0FFF7BAFF002803DAC0F1000013A4EC
:1057C00007E039688A0701D511A402E0490704D52A
:1057D00010A4012501E0FFF7B1FF00210A2307F122
:1057E000240607E0B0FBF3F203FB120030307054E4
:1057F0001046491C0028F5D12B4622463846BDE804
:10580000F04100F09EBA0000000000002D000000F2
:105810002B0000002000000011680268006A530598
:1058200001D508700BE0D30501D5088007E0130609
:1058300003D5C217C1E9000201E052060860012049
:105840007047000001694A1C02610878704700B582
:105850008FB0CDE901310021059105497944CDE9A9
:1058600003101146684600F02FF90FB000BD00008C
:10587000E5FFFFFF0A6802F8010B0A6070470000AD
:105880002DE9FF5F04468A461546DFF8AC80F844F0
:105890000027D8E900103E46CDE9001011E03AF8A3
:1058A00016106A4602A800F0E4FC411C07D02168EB
:1058B000890603D5E269391891420ED8074406F1EA
:1058C00001062068800602D5E069B84205DDAE42D7
:1058D000E5DB3AF816000028E1D1A069C01BA06101
:1058E0002046FFF7F9FED8E90010CDE900100020AE
:1058F00016E03AF818106A4602A800F0BAFC814691
:10590000401C0BD000250DF1080B05E0D4E9012166
:105910001BF8050090476D1C4D45F7D308F10100B9
:10592000B0428046E5DB206A384420622046FFF71B
:10593000EAFEBDE8FF9F0000961400002DE9F0414B
:105940008046D21D22F007020026D2E90002F52986
:1059500014A512D0002A06DA0023D0EB030063EB73
:10596000020211A508E0D8F800108B0701D50FA599
:1059700002E0490701D50EA501261146002408F1D1
:10598000240704E000F098F930323A55641C50EADC
:105990000102F7D133462A4621464046BDE8F04190
:1059A00000F0CFB9000000002D0000002B00000027
:1059B0002000000030B4002100F124040CE002F0CB
:1059C000070505F130054FEAD20242EA43726554F9
:1059D00001F101014FEAD30352EA0305EFD1046854
:1059E000002310A2250708D504F020040C4304D09E
:1059F000C46901230CA2641EC46130BC00F0A1B9CB
:105A000010B5044621461068FFF798FE024620466E
:105A1000BDE810400023CDE7D21D22F00701D1E9F7
:105A20000023C7E70000000030000000F0B40F467C
:105A30000168090502D5234C7C4402E0214C7C44DA
:105A40000E34002100F124050BE002F00F064FEAAE
:105A50001212A65D42EA03724FEA13136E5401F16B
:105A6000010152EA0306F0D122460468002324070C
:105A700004D5702F05D009B111320223F0BC00F01B
:105A800060B910320123F9E770B504460D4621468E
:105A90001068FFF753FE024629462046BDE87040D5
:105AA0000023C3E7D21D22F00703D3E90023BDE79B
:105AB0000368126843F0200303600823C3610023D6
:105AC000B4E70000F41200002DE9F05F04468946B7
:105AD0004FF0000ADFF878B1FB44C0F820A0204660
