:020000040800F2
:10000000C81B002039040008B1240008B3240008EC
:10001000B7240008BB240008BF240008000000002B
:10002000000000000000000000000000C3240008E1
:10003000C524000800000000C7240008C9240008E7
:100040005304000853040008530400085304000834
:100050005304000853040008530400085304000824
:100060005304000853040008530400085304000814
:100070005304000853040008530400085304000804
:1000800053040008530400085304000853040008F4
:1000900053040008530400085304000853040008E4
:1000A00053040008530400085304000853040008D4
:1000B00053040008530400085304000853040008C4
:1000C00053040008530400085304000853040008B4
:1000D000530400087F260008CD2600081B270008CF
:1000E0005304000853040008530400085304000894
:1000F0005304000853040008530400085304000884
:100100005304000853040008530400085304000873
:10011000692700085304000853040008530400082A
:100120005304000853040008530400085304000853
:100130005304000853040008530400085304000843
:100140005304000853040008530400085304000833
:100150005304000853040008530400085304000823
:100160005304000853040008530400085304000813
:100170005304000853040008530400085304000803
:10018000530400085304000800F002F800F03CF8A3
:100190000AA090E8000C82448344AAF10107DA45E2
:1001A00001D100F031F8AFF2090EBAE80F0013F0F8
:1001B000010F18BFFB1A43F0010318477C370000FA
:1001C0009C370000103A24BF78C878C1FAD852078B
:1001D00024BF30C830C144BF04680C6070470000C1
:1001E0000023002400250026103A28BF78C1FBD840
:1001F000520728BF30C148BF0B6070471FB503F0DE
:1002000096FA1FBD10B510BD03F057FA1146FFF75F
:10021000F5FF01F0EFFF03F075FA03B4FFF7F2FF0B
:1002200003BC03F07DFA00000CB5002001900090A3
:100230007648006840F480307449086000BF734815
:10024000006800F4003000900198401C0190009874
:1002500018B90198B0F5A06FF1D16C48006800F4AE
:10026000003010B10120009001E0002000900098C3
:10027000012846D165484030006840F0805063490D
:10028000403108606248006840F48040604908607E
:100290005E48083000685D4908310860084600681B
:1002A00040F4004008600846006840F4A050086030
:1002B0005848091F0860081F006840F08070091F37
:1002C000086000BF5148006800F000700028F9D0B5
:1002D00040F20560504908604C480830006820F042
:1002E00003004A49083108600846006840F00200EF
:1002F000086000BF45480830006800F00C0008287E
:10030000F8D10CBD10B54548006840F47000434971
:1003100008603E48006840F001003C490860002049
:100320003A4908310860394800683D490840374972
:1003300008603C48091D0860081F006820F4802000
:10034000091F0860002031490C310860FFF76CFF7D
:100350004FF0006031498039086010BD70B5002051
:100360000022022300240221284D08352D6805F0C3
:100370000C0020B1042806D0082834D107E02A4D0B
:100380002A4E356033E02A4D284E35602FE01F4D50
:100390002D1D2D68C5F380541C4D2D1D2D6805F0B5
:1003A0003F0154B1224DB5FBF1F5184E361D3668AC
:1003B000C6F3881605FB06F209E01B4DB5FBF1F507
:1003C000124E361D3668C6F3881605FB06F20F4D31
:1003D0002D1D2D68C5F301456D1C6B00B2FBF3F5B7
:1003E000124E356003E0104D104E356000BF00BF67
:1003F000064D08352D68C5F303150E4E705D0B4D87
:100400002D68C540094E356070BD000000380240BF
:1004100000700040042A4004003C024088ED00E0E7
:10042000FFFFF6FE103000240024F400000000203E
:1004300000127A000400002009488047094800475C
:10044000FEE7FEE7FEE7FEE7FEE7FEE7FEE7FEE784
:10045000FEE7FEE704480549054A064B70470000E1
:100460000503000889010008C8150020C81B0020EA
:10047000C8170020C817002032490143324A1160D2
:10048000704770B5002100230F22C4781CB32E4C96
:10049000246804F4E064C4F5E064C4F30721C1F106
:1004A0000404E3B20A4144789C40E1B284781440E9
:1004B00021430C07210E254C05786155047804F082
:1004C0001F050124AC4005786D11AD0005F1E02554
:1004D000C5F8004109E0047804F01F050124AC4090
:1004E0001B4D0678761145F8264070BD194A0A4022
:1004F0000243154B1B1F1A60704739B1124A121D77
:1005000012680243104B1B1D1A6006E00E4A121DB2
:10051000126882430C4B1B1D1A607047042808D1D7
:100520004FF0E021096941F004014FF0E022116130
:1005300007E04FF0E021096921F004014FF0E022CB
:10054000116170470000FA050CED00E000E400E0E6
:1005500080E100E080FFFF1F10B504468C48844214
:1005600008D10121084600F000FB0021012000F025
:10057000FCFA5EE08748844208D10121022000F0A5
:10058000F4FA0021022000F0F0FA52E0824884429E
:1005900008D10121042000F0E8FA0021042000F035
:1005A000E4FA46E07D48844208D10121082000F0A9
:1005B000DCFA0021082000F0D8FA3AE078488442BA
:1005C00008D10121102000F0D0FA0021102000F005
:1005D000CCFA2EE07348844208D10121202000F09B
:1005E000C4FA0021202000F0C0FA22E06E488442C4
:1005F00008D10121402000F0B8FA0021402000F08D
:10060000B4FA16E06948844208D10121802000F044
:10061000ACFA0021802000F0A8FA0AE06448844285
:1006200007D10121801500F0A0FA0021A01500F0EB
:100630009CFA10BDF0B50A4600210023002400BF3B
:100640003DE0012505FA01F3156805EA03049C4223
:1006500034D105684F000326BE40B54305601579C7
:100660004E00B5400668354305601579012D02D06E
:100670001579022D16D185684F000326BE40B5437B
:10068000856055794E00B54086683543856045687C
:1006900001268E40B5434560456896798E40B6B2D6
:1006A00035434560C5684F000326BE40B543C5606D
:1006B000D5794E00B540C6683543C560491C102940
:1006C000BFD3F0BD4FF6FF71016000210171417190
:1006D0008171C171704708B54FF480320092009A61
:1006E0000A430092009AC261C161009AC261C26964
:1006F0000092C269009208BD0246002013690B40B7
:100700000BB1012000E0002070470146086980B26B
:1007100070470246002053690B400BB1012000E0F6
:10072000002070470146486980B2704701837047D6
:10073000418370470AB1018300E041837047416102
:10074000704742694A4042617047F0B50023002477
:100750004D07ED0E02FA05F3CE1000F1200555F815
:1007600026504E07F70E0F26BE40B543CF1000F1BE
:10077000200646F82750CE1000F1200555F82650E7
:1007800045EA0304CE1000F1200545F82640F0BDEF
:10079000000002400004024000080240000C024039
:1007A000001002400014024000180240001C0240E9
:1007B00000200240FA48006840F00100F849086053
:1007C0000020F74908310860F5480068F5490840FD
:1007D000F3490860F448091D0860081F006820F408
:1007E0008020091F08600020ED490C310860704727
:1007F0000021EB4A921C117011460870704710B529
:1008000001460022002300204A11012A02D1E44CB3
:10081000236808E0022A03D1E14C7034236802E027
:10082000DF4C7434236801F01F02012494401C4003
:100830000CB1012000E0002010BD38B50020009070
:100840000024002500BF3120FFF7D9FF054600989E
:10085000401C00900098B0F5A06F01D0002DF2D0A0
:100860003120FFF7CCFF08B1012400E0002420462E
:1008700038BD01460020CA4A106820F0F80040EA5E
:10088000C10010607047C949086070470021C44A20
:10089000703211701170012802D004280AD104E0CE
:1008A0000121BF4A7032117005E00521BC4A703247
:1008B000117000E000BF00BF7047BD49086070477D
:1008C00070B5049C41EA82150126C6EB530645EA41
:1008D0000645054345EA0465B14E361D356070BDD9
:1008E000B24908667047820142EA0172AC4B843318
:1008F0001A607047AD4988667047AC49C864704754
:1009000002460020A64B0833186820F0EC6042EA4B
:1009100001031843A24B08331860704702460020B9
:100920009F4B0833186820F0784042EA01031843CF
:100930009B4B08331860704701460020984A0832E4
:10094000106820F003000843106070479448083096
:10095000006800F00C00704701460020904A083201
:10096000106820F0F0000843106070470146002036
:100970008B4A0832106820F4E0500843106070473A
:1009800001460020864A0832106820F4604040EAA0
:10099000C10010607047F0B500210022002402253C
:1009A000002602237E4F08373F6807F00C0121B173
:1009B000042905D0082937D105E07E4F076036E0CD
:1009C0007D4F076033E0764F3F1D3F68C7F3805689
:1009D000734F3F1D3F6807F03F036EB1764FB7FB83
:1009E000F3F7DFF8BCC10CF1040CDCF800C0CCF369
:1009F000881C07FB0CF40CE06E4FB7FBF3F7DFF835
:100A0000A0C10CF1040CDCF800C0CCF3881C07FB7F
:100A10000CF4634F3F1D3F68C7F301477F1C7D0007
:100A2000B4FBF5F7076002E0624F076000BF00BF4C
:100A30005B4F08373F6807F0F00109095F4F7A5CA8
:100A40000768D7404760564F08373F6807F4E051C2
:100A5000890A5A4F7A5C4768D7408760504F0837F9
:100A60003F6807F46041490B544F7A5C4768D740B0
:100A7000C760F0BD002100F44072B2F5407F0AD19A
:100A8000474A0832116821F4F8114D4A02401143D7
:100A9000434A08321160424A70321268C0F30B03B5
:100AA0001A433F4B70331A6070474149443908601C
:100AB00070473F49403908607047424908607047B5
:100AC00039B1374A303212680243354B30331A603D
:100AD00006E0334A303212688243314B30331A60B9
:100AE000704739B12E4A3432126802432C4B3433EA
:100AF0001A6006E02A4A343212688243284B3433A3
:100B00001A60704739B1264A383212680243244BC2
:100B100038331A6006E0224A383212688243204B8A
:100B200038331A60704739B11D4A403212680243A7
:100B30001B4B40331A6006E0194A40321268824368
:100B4000174B40331A60704739B1154A4432126866
:100B50000243134B44331A6006E0114A44321268D0
:100B600082430F4B44331A60704739B10C4A10323C
:100B7000126802430A4B10331A6006E0084A10322A
:100B800012688243064B10331A607047E1B1044A81
:100B9000143212680243024B14331A6019E0000049
:100BA00000380240FFFFF6FE1030002400004742EC
:100BB000800E47420024F40000127A001400002046
:100BC000FFFCFF0F5C0147425B4A126882435A4BAD
:100BD0001A60704739B1584A121D12680243564BC9
:100BE0001B1D1A6006E0544A121D12688243524BC4
:100BF0001B1D1A60704739B14F4A0C32126802430C
:100C00004D4B0C331A6006E04B4A0C32126882439B
:100C1000494B0C331A60704739B1474A1032126899
:100C20000243454B10331A6006E0434A1032126803
:100C30008243414B10331A60704739B13E4A3C320F
:100C4000126802433C4B3C331A6006E03A4A3C329D
:100C500012688243384B3C331A60704739B1364AC8
:100C6000403212680243344B40331A6006E0324A85
:100C7000403212688243304B40331A60704739B1BA
:100C80002D4A4432126802432B4B44331A6006E06B
:100C9000294A443212688243274B44331A60704712
:100CA00039B1254A4C3212680243234B4C331A6047
:100CB00006E0214A4C32126882431F4B4C331A60C3
:100CC000704739B11C4A5032126802431A4B5033F4
:100CD0001A6006E0184A503212688243164B5033AD
:100CE0001A60704739B1144AD21F12780243124B6E
:100CF000DB1F1A7006E0104AD21F127882430E4B97
:100D0000DB1F1A7070470C486030006840F080703C
:100D1000094960310860704701460020064A083AD8
:100D200012680A400AB1012000E000207047024921
:100D3000891F0870704700001438024010B504463F
:100D4000F748844208D101218014FFF765FF002194
:100D5000A014FFF761FF16E0F248844208D1012198
:100D60000014FFF748FF00212014FFF744FF0AE0BA
:100D7000ED48844207D10121C013FFF73CFF002159
:100D8000E013FFF738FF10BD10B50022028802F40F
:100D900041520B884C8823438C882343CC882343BF
:100DA0000C8923434C8923438C892343CC892343D7
:100DB0001A430280838B4FF2FF74234083830B8A94
:100DC000038210BD2DE9F04F0025022300240127E6
:100DD00000220026944690469146B0F81CA04FF29F
:100DE000400B0AEA0B0AA0F81CA04FF0020AA0F878
:100DF00020A0858BD1F808A0BAF1020F01D100BF65
:100E00006CE0B1F804A0BAF1000F01D1012700E0B5
:100E10000227DFF818A3DAF800A00AF4000ABAF1F2
:100E2000000F09D0DFF804A3DAF800A02AF4000AC2
:100E3000DFF8F8B2CBF800A0DFF8F0A20AF17C0AE4
:100E4000DAF800A0CAF38818DFF8E0A20AF17C0AF9
:100E5000DAF800A0CAF30279DFF8D0A2AAF1040AF6
:100E6000DAF800A00AF03F0CDFF8C4A2BAFBFCFAE3
:100E70000AFB08FABAFBF9F6B1F806A0BAF5007F4A
:100E80000ED14FEA162A0AEB8A0A4FEA4A0AD1F82B
:100E900008B0BAFBFBFA0AF1050A1FFA8AF20FE062
:100EA0004FEA471AB6FBFAFA0AEB8A0A4FEA4A0AED
:100EB000D1F808B0BAFBFBFA0AF1050A1FFA8AF268
:100EC0004FF00A0AB2FBFAF202F00104A2EB040AA4
:100ED000CAF34F034FF6FF7A0AEA0424022B01DB20
:100EE000FF2B01DD02230024B1F806A04AEA040A20
:100EF0004AEA030AA0F820A0B1F804A0B1F80CB0A7
:100F00004AEA0B0AB1F802B04AEA0B0AB1F800B09B
:100F10004AEA0B0A4AF4006A4AEA05058583BDE8F5
:100F2000F08F0021018041808180C1800181418159
:100F30008181C181072101827047002101804180A8
:100F40008180C1800221816000218181704721B1AF
:100F5000028842F04002028004E002884FF6BF732C
:100F60001A400280704721B1828B42F480628283F2
:100F700004E0828B4FF6FF331A4082837047028869
:100F80004FF2FF731A40028002880A4302807047C2
:100F9000B1F5804F04D1028842F48042028004E01F
:100FA00002884BF6FF731A40028070474FF6FF62CB
:100FB000914204D0028842F48072028004E00288E8
:100FC0004FF6FF631A400280704721B1828842F0D9
:100FD0000402828004E082884FF6FB731A4082800C
:100FE000704721B1828842F01002828004E082883A
:100FF0004FF6EF731A408280704730B5002200230D
:10100000848B4FF240052C40848302240484828B1D
:101010000C88B4F5007F01D00C8814B94FF48073AC
:1010200008E00C88B4F5407F03D00C88B4F5807FCD
:1010300000D100238C888D892C434D882C431C4380
:1010400044F400642243828330BD0146888970479E
:101050008181704721B1028842F40052028004E08D
:1010600002884DF6FF731A4002807047018841F4F0
:1010700080510180704702460020012901D0108B69
:1010800000E0908A70470146088A70471AB1838849
:101090000B43838002E083888B438380704730B5A5
:1010A000002400230C110125A540ABB21AB185889C
:1010B0001D43858002E085889D43858030BD0246C2
:1010C000002013890B400BB1012000E00020704785
:1010D000CA4302817047F0B5024600200024002375
:1010E000002501F00F070126BE40B4B20B11012606
:1010F0009E40B3B2968806EA03051689264016B1CB
:101100000DB1012000E00020F0BD10B5002201F07B
:101110000F040123A3409AB2D343038110BD000002
:101120000030014000380040003C004008380240D8
:1011300000127A0010B50446FE48844208D101210D
:101140000846FFF769FD00210120FFF765FD9DE0DE
:10115000B4F1804F08D101210846FFF74CFD002172
:101160000120FFF748FD91E0F348844208D10121B6
:101170000220FFF740FD00210220FFF73CFD85E043
:10118000EE48844208D101210420FFF734FD0021FC
:101190000420FFF730FD79E0E948844208D10121BD
:1011A0000820FFF728FD00210820FFF724FD6DE04F
:1011B000E448844208D101211020FFF71CFD0021E2
:1011C0001020FFF718FD61E0DF48844208D10121BB
:1011D0002020FFF710FD00212020FFF70CFD55E037
:1011E000DA48844208D101210220FFF715FD0021D1
:1011F0000220FFF711FD49E0D548844209D10121C1
:101200000804FFF709FD00214FF48030FFF704FDCB
:101210003CE0D048844209D101214804FFF7FCFC9E
:1012200000214FF40030FFF7F7FC2FE0CA4884425A
:1012300009D101218804FFF7EFFC00214FF4802041
:10124000FFF7EAFC22E0C548844208D10121402092
:10125000FFF7D1FC00214020FFF7CDFC16E0C0488D
:10126000844208D101218020FFF7C5FC00218020A5
:10127000FFF7C1FC0AE0BB48844207D10121801579
:10128000FFF7B9FC0021A015FFF7B5FC10BD002247
:101290000288A84B98420ED0AC4B98420BD0B0F1CC
:1012A000804F08D0A44B984205D0A44B984202D05E
:1012B000A34B984204D14FF68F731A404B881A43C0
:1012C000A04B984207D0A04B984204D04FF6FF4362
:1012D0001A400B891A4302804B68C3620B8803854E
:1012E000944B984202D0994B984201D18B7A038655
:1012F0000123838270474FF0FF314160002101805C
:1013000001814180817270470185828270470A465F
:10131000002101884FF68F731940114301807047F7
:1013200041627047C16270470146486A7047014692
:10133000088D704721B1028842F00202028004E069
:1013400002884FF6FD731A400280704721B102886F
:1013500042F00402028004E002884FF6FB731A4058
:101360000280704721B1028842F08002028004E0CE
:1013700002884FF67F731A400280704702884FF64A
:10138000F7731A40028002880A430280704702887D
:101390004FF6FF431A40028002880A4302807047DA
:1013A00021B1028842F00102028004E002884FF677
:1013B000FE731A400280704770B50024002200239B
:1013C000058C4FF6FE7635400584028C8388048BAD
:1013D0004FF68F752C40B51E2C400D882C43751E82
:1013E0002A408D892A434D882A43524DA84202D073
:1013F000564DA84213D14FF6F7752A40CD892A439E
:101400004FF6FB752A408D882A434FF6FF652B4027
:101410004FF6FF552B400D8A2B434D8A2B4383807B
:1014200004838D684563028470BD70B5002400227A
:101430000023058C4FF6EF7635400584028C8388B7
:10144000048B48F6FF752C404FF6FF452C400D8865
:101450004FF6FF7606EA05252C434FF6DF752A4046
:101460008D8906EA05152A434D8806EA05152A43A3
:10147000304DA84202D0354DA8421DD14FF67F75A0
:101480002A40CD894FF6FF7606EA05152A434FF626
:10149000BF752A408D8806EA05152A434FF6FF35A9
:1014A0002B404FF2FF752B400D8A06EA85052B4332
:1014B0004D8A06EA85052B43838004838D68856306
:1014C000028470BD70B5002400220023058C4FF605
:1014D000FF6635400584028C8388848B4FF68F75B8
:1014E0002C404FF6FC752C400D882C434FF6FF55D1
:1014F0002A408D894FF6FF7606EA05252A434D8856
:1015000006EA05252A430B4DA84202D00F4DA842FA
:1015100038D14FF2FF752A40CD894FF6FF7606EAA3
:1015200005252A434FF6FF352A408D8806EA052512
:101530002A4319E000000140000400400008004078
:10154000000C004000100040001400400004014066
:1015500000400140004401400048014000180040A4
:10156000001C0040002000404EF6FF752B404DF659
:10157000FF752B400D8A06EA05152B434D8A06EAB6
:1015800005152B43838084838D68C563028470BDF9
:1015900070B5002200230024058C4EF6FF763540FE
:1015A0000584038C8488828B48F6FF752A404FF6A9
:1015B000FF452A400D884FF6FF7606EA05252A43A7
:1015C0004DF6FF752B408D8906EA05352B434D8876
:1015D00006EA05352B43FE4DA84202D0FD4DA84238
:1015E00008D14BF6FF752C400D8A4FF6FF7606EAC0
:1015F00085152C43848082838D680564038470BDC7
:10160000002101804180818081608181C1810182CE
:101610004182704770B503460020002418461830F8
:1016200001258D40ACB21D8CA5431D8409B108294C
:101630000AD100EB610005684FF68F7635400560F2
:101640000568154305600FE00D1FC5F34E052844DE
:10165000056848F6FF763540056005684FF6FF7669
:1016600006EA02263543056070BD41637047816319
:101670007047C1637047016470470A460021018BBF
:101680004FF68F7319401143018370470A460021BA
:10169000018B48F6FF7319404FF6FF7303EA0223EC
:1016A0001943018370470A460021818B4FF68F73DF
:1016B00019401143818370470A460021818B48F607
:1016C000FF7319404FF6FF7303EA02231943818326
:1016D00070470A460021018B4FF6F77319401143FA
:1016E000018370470A460021018B4FF2FF731940B6
:1016F0004FF6FF7303EA02231943018370470A463A
:101700000021818B4FF6F773194011438183704795
:101710000A460021818B4FF2FF7319404FF6FF7389
:1017200003EA02231943818370470A460021018B93
:101730004FF6FB7319401143018370470A4600219D
:10174000018B4FF6FF3319404FF6FF7303EA022374
:101750001943018370470A460021818B4FF6FB73C2
:1017600019401143818370470A460021818B4FF64F
:10177000FF3319404FF6FF7303EA022319438183B5
:1017800070470A460021018B4FF67F7319401143C1
:10179000018370470A460021018BC1F30E014FF609
:1017A000FF7303EA02231943018370470A460021AD
:1017B000818B4FF67F7319401143818370470A462E
:1017C0000021818BC1F30E014FF6FF7303EA022360
:1017D0001943818370470A460021018C4FF6FD733F
:1017E00019401143018470470A460021018C4FF6CD
:1017F000F77319401143018470470A460021018C98
:101800004FF6DF7319404FF6FF7303EA02131943D3
:10181000018470470A460021018C4FF67F731940FE
:101820004FF6FF7303EA02131943018470470A4617
:101830000021018C4FF6FF5319404FF6FF7303EA66
:1018400002231943018470470A460021018C4FF29C
:10185000FF7319404FF6FF7303EA02231943018413
:1018600070470A460021018C4DF6FF7319404FF670
:10187000FF7303EA023319430184704730B5002334
:1018800001248C40A3B2048C9C430484048C02FA8F
:1018900001F5ADB22C43048430BD30B500230424DF
:1018A0008C40A3B2048C9C430484048C02FA01F59E
:1018B000ADB22C43048430BD828B4FF2FF331A400B
:1018C0008283828B4FF6FF7303EA01231A438283DC
:1018D0007047F0B50C461546002100220026078C03
:1018E0004EF6FF7C07EA0C070784818B028C4FF6CB
:1018F000FF7707EA043640F6FF4739404FF6FF7797
:1019000007EA052739434FF6FF7707EA03373943DC
:1019100045F6FF773A4046F480573A438183028484
:10192000F0BD828B4FF6F3731A408283828B0A4399
:1019300082837047F0B50C46154600210022002630
:10194000078C4FF6FF6C07EA0C070784818B028C2B
:101950004FF6FF7707EA04264FF60C7739404FF62B
:10196000FF7707EA03172F4339434FF2FF573A40F7
:1019700046F480773A4381830284F0BD028B4FF2B4
:10198000FF331A400283028B4FF6FF7303EA0123F1
:101990001A4302837047F0B50C4615460021002219
:1019A0000026078C4FF6EF7C07EA0C070784018BB3
:1019B000028C4FF6FF7707EA041640F6FF473940DE
:1019C0004FF6FF7707EA033739434FF6FF7703E017
:1019D000000001400004014007EA052739434FF6A3
:1019E0005F773A4046F010073A4301830284F0BD26
:1019F000028B4FF6F3731A400283028B0A43028371
:101A00007047F0B50C46154600210022068C4FF6B3
:101A1000FE773E400684018B028C4FF60C763140F7
:101A20007E1C06EA03162E4331434FF6F57632400C
:101A300044F00106324301830284F0BD70B50546CF
:101A40000C46208850B92389A28861882846FFF770
:101A5000D8FFE1882846FFF7CBFF25E0208804283F
:101A60000AD12389A28861882846FFF794FFE1887C
:101A70002846FFF783FF17E0208808280AD123892A
:101A8000A28861882846FFF755FFE1882846FFF7BE
:101A900048FF09E02389A28861882846FFF719FFDB
:101AA000E1882846FFF708FF70BD002101804180D2
:101AB000012181800021C180018170472DE9F04121
:101AC00005460C4600260127608808B9022600E07A
:101AD0000026A088012801D1022700E001272088E4
:101AE000A0B92389A28861882846FFF78AFFE18888
:101AF0002846FFF77DFF23893A4631462846FFF7FF
:101B00004AFFE1882846FFF739FF13E02389A288BE
:101B100061882846FFF73FFFE1882846FFF72EFF40
:101B200023893A4631462846FFF76BFFE18828466D
:101B3000FFF75EFFBDE8F0810146486B7047014644
:101B4000886B70470146C86B70470146086C704748
:101B50000A884B881A438B881A43CB881A430B890F
:101B60001A434B891A438B891A43A0F844207047C3
:101B70000021018041808180C1800181418181817A
:101B8000704731B1B0F8442042F40042A0F844203C
:101B900005E0B0F84420C2F30E02A0F844207047DC
:101BA00021B1828842F00402828004E082884FF6EC
:101BB000FB731A408280704721B1828842F0010293
:101BC000828004E082884FF6FE731A40828070475C
:101BD0001AB183890B43838102E083898B4383811C
:101BE00070478182704702460020138A0B400BB178
:101BF000012000E000207047CA430282704730B5E0
:101C00000246002000230024158A05EA0103958975
:101C100005EA010413B10CB1012000E0002030BD41
:101C2000CA430282704741EA0203A0F84830704775
:101C30001AB183890B43838102E083898B438381BB
:101C4000704721B1828842F00802828004E08288D5
:101C50004FF6F7731A408280704701894FF6F87289
:101C60001140018170470A46002101894FF68F73A8
:101C7000194011430181704730B504460D4629468D
:101C80002046FFF7F0FF208940F00700208130BD9B
:101C90002DE9F04104460D4616461F46602D06D13B
:101CA0003B46012231462046FFF775FE05E03B46E4
:101CB000012231462046FFF7A4FE29462046FFF7C1
:101CC000D2FF208940F007002081BDE8F08130B5C7
:101CD0000C4600210189C9B24FF6FF7505EA0325BC
:101CE000154325432943018130BD2DE9F0410546C7
:101CF0000E4617469846002443463A463146284643
:101D0000FFF7E5FF2C894FF6F870044044F0070414
:101D10004FF68F70044044F070042C81BDE8F081D0
:101D2000F0B504460D4616461F463B463246294648
:101D30002046FFF7CCFF208940F480402081F0BD91
:101D400082884FF68F731A40828082880A4382808D
:101D5000704702894FF6F8731A40028102890A43DC
:101D60000281704702894FF67F731A40028102890F
:101D70000A4302817047F0B50C4615461E46002105
:101D8000002200230189028B038C4FF6F87739403B
:101D900021434FF6FC473A4040F201173A434FF6D1
:101DA000DD773B404FF6FF7707EA06172F433B43AB
:101DB000018102830384F0BD21B1828842F0800258
:101DC000828004E082884FF67F731A4082807047D9
:101DD000A0F850107047000010B50446F748844240
:101DE00008D101211020FEF717FF00211020FEF777
:101DF00013FF3EE0F248844209D101214804FEF776
:101E0000FAFE00214FF40030FEF7F5FE31E0ED4818
:101E1000844209D101218804FEF7EDFE00214FF430
:101E20008020FEF7E8FE24E0E748844209D1012142
:101E3000C804FEF7E0FE00214FF40020FEF7DBFEB1
:101E400017E0E248844209D101210805FEF7D3FEDC
:101E500000214FF48010FEF7CEFE0AE0DC488442F9
:101E600007D101212020FEF7D7FE00212020FEF718
:101E7000D3FE10BD2DE9FF4705460E460024A146BE
:101E800000BFA046B08900B100BF2C8A24F44054A2
:101E9000F08804432C82AC8941F20C608443B08802
:101EA00031890843718908430443AC81AC8A24F426
:101EB0004074B0890443AC826846FEF76CFDBF48AD
:101EC000854202D0C248854202D1DDF80C9001E083
:101ED000DDF80890A88900F4004040B109EBC90082
:101EE00000EB091031684900B0FBF1F707E009EB9E
:101EF000C90000EB091031688900B0FBF1F76420DC
:101F0000B7FBF0F004012009642101FB1078A889D7
:101F100000F4004040B1322000EBC800B0FBF1F00B
:101F200000F00700044308E0322000EB08106421B1
:101F3000B0FBF1F000F00F0004432C81BDE8FF87F7
:101F40004FF41651016000218180C18001810C2174
:101F5000418100218181704710B502460020108A1E
:101F600020F470600B884C8823438C882343CC88F2
:101F700023431843108210BD0021018041808180DD
:101F8000C180704721B1828942F40052828104E00D
:101F900082894DF6FF731A4082817047028B02F4EA
:101FA0007F420283028B0A430283704721B18289F8
:101FB00042F40042828103E08289C2F30E028281F0
:101FC000704721B1828A42F40062828204E0828AF0
:101FD0004FF2FF731A4082827047C1F30802828079
:101FE000704701468888C0F308007047028A4FF6A0
:101FF000F0731A400282028A0A430282704721B1BA
:10200000828942F00202828104E082894FF6FD73E8
:102010001A408281704782894FF2FF731A40828191
:1020200082890A4382817047028A4FF6DF731A4021
:102030000282028A0A430282704721B1028A42F474
:102040008042028204E0028A4BF6FF731A40028249
:102050007047818941F001018181704721B1828AF5
:1020600042F00802828204E0828A4FF6F7731A4037
:1020700082827047028BD2B20283028B42EA012233
:102080000283704721B1828A42F02002828204E0FA
:10209000828A4FF6DF731A408282704721B1828AAA
:1020A00042F01002828204E0828A4FF6EF731A40F7
:1020B00082827047828A4FF6FB731A408282828A3C
:1020C0000A438282704721B1828A42F002028282F0
:1020D00004E0828A4FF6FD731A40828270471AB17B
:1020E000838A0B43838202E0838A8B438382704717
:1020F000F0B50346002400260025002040F66A17AC
:10210000B94200D100BF1846C1F3421401F01F06C6
:10211000012707FA06F5012C01D10C3004E0022C4E
:1021200001D1103000E014301AB107682F43076066
:1021300002E00768AF430760F0BD02460020B1F53A
:10214000007F00D100BF13880B400BB1012000E0DD
:102150000020704701F40072B2F5007F00D100BF8B
:10216000CA430280704770B5024600240023002550
:10217000002040F66A16B14200D100BFC1F34215FB
:1021800001F01F03012606FA03F3012D02D19689FF
:10219000334006E0022D02D1168A334001E0968AD0
:1021A00033400C12012606FA04F41688344013B1A9
:1021B0000CB1012000E0002070BD000000100140C3
:1021C0000044004000480040004C004000500040E7
:1021D0000014014010B50022002340F66A14A14209
:1021E00000D100BF0A1201249440A3B2DC43048052
:1021F00010BD000000F088FC0020994981F808011A
:10220000984981F80801984981F808014FF49670BF
:1022100000F082FC954A0621954800F0F9FE012065
:1022200000F07AFC914A921D0621924800F0F0FEDF
:10223000012000F071FC8D4A0C3206218E4800F01E
:10224000E7FE012000F068FC09E18C4890F80801E5
:10225000012834D18A48006888BB01208849086079
:1022600006228849824800F02DFE06228549123157
:10227000804800F027FE0622824924317E4800F083
:1022800021FE012000F048FC784A0621784800F041
:1022900098FD012000F040FC744A921D062175480B
:1022A00000F08FFD012000F037FC704A0C3206214F
:1022B000714800F086FD0020704981F808016848E7
:1022C00090F808010628BFD1664890F808116E48BA
:1022D0000068801D8142B7D1634890F808116A48B0
:1022E0000068801D8142AFD1654800680128ABD1EC
:1022F00002206349086000240DE004EB8401634A76
:1023000002EBC10101F1090000F0BAFC604941F89B
:102310002400601C84B2122CEFDB002449E004EBA3
:1023200084005A4901EBC000407904EB8401574A0C
:1023300002EBC101897940EA0120C01D85B2A81EC7
:1023400082B204EB8400514B03EBC001002000F08B
:1023500067FC064604EB84004C4901EBC001A81E53
:10236000095C04EB8400494A02EBC002681E105C61
:1023700041EA0021B1421AD0122C06DA454850F841
:102380002400434941F8240011E0122C06D14148B1
:10239000806C3F4988643F48C06CC864132C06D1E8
:1023A0003C48006D3A4908653A48406D4865601CF4
:1023B00084B23548006840001230A042AFDC00F023
:1023C00079FF3148006880001230314901EB80000C
:1023D000314908600846006830490A68C0F806209C
:1023E000898841812C4800682D490A6802608988E3
:1023F0008180294800682B490A68C2608988018267
:102400000020174981F80801164981F8080116498A
:1024100081F808011C480068482101EB00121C49A2
:102420001C4801F0CCF82048FEF77EFF1F490880C9
:1024300015480078482202EB00101230C1B214484F
:1024400000F050FC10480068482202EB001000F138
:1024500012010F4801F007F9002009490860F4E66D
:10246000500300201C060020E80800202400002063
:102470000044004000480040004C00408400002020
:10248000440000208D01002048000020B40B0020F3
:1024900064100020641200204C0000207600002010
:1024A000700000207C00002000140040500000203C
:1024B000704700BFFEE700BFFEE700BFFEE700BFBA
:1024C000FEE7704770477047704770B505460C4689
:1024D0002088042805DA2188481C2080A01C455447
:1024E00070BD208804281AD1A078FF280FD1E07889
:1024F000FF280CD12079FD2809D1607938B92188CD
:10250000481C2080A01C4554A4F8025106E0E07845
:10251000A0702179E170617921716571E0E720880F
:1025200006280FDC2188481C2080A01C45542088E8
:10253000072806D1E179207A41EA0020C01DA4F8DD
:102540000201CDE7208806287DDD2088B4F802113D
:10255000884278DA2188481C2080A01C45542088B5
:10256000B4F8021188426FD1607A832825D192484D
:102570000068012811D191480068401C8F4908600B
:1025800000208F4981F808018E4981F808018E49A1
:1025900081F808018D4981F8080100218C48FEF777
:1025A000BFFE362204F10E0104F2091000F0C2FF52
:1025B00094F80801401C84F80801607A552817D166
:1025C000A0798449087084498248007800F04AFB69
:1025D00000EB8000814901EBC006B4F80221A11C88
:1025E000304600F0A7FF94F80801401C84F8080169
:1025F000607A842802D1012079490860607A8528B0
:1026000002D1002076490860607A56282CD174489F
:102610000068012828D16D4884420CD17149D4F852
:102620000B208A64D4F80F00C864B4F80221A11CFE
:102630006D4800F07FFF6448844210D16949D4F8A6
:102640000B200A6501E018E016E0D4F80F00486599
:10265000B4F80221A11C6448283000F06BFF94F804
:102660000801401C84F80801002020804FF480718C
:10267000A01C00F0D6FF00E032E700BF30E710B545
:102680004FF458715948FFF76EFD38B14FF4587147
:102690005648FFF79FFD5548FFF7A3FC40F2255130
:1026A0005248FFF760FD80B15048FFF79AFCC4B272
:1026B00040F225514D48FFF78DFD20214B48FFF793
:1026C00049FD3F492046FFF700FF10BD10B54FF40C
:1026D00058714748FFF747FD38B14FF458714448E7
:1026E000FFF778FD4248FFF77CFC40F22551404857
:1026F000FFF739FD80B140F225513D48FFF76AFDF3
:1027000020213B48FFF726FD3948FFF76AFCC4B299
:102710002C492046FFF7D9FE10BD10B54FF4587173
:102720003448FFF720FD38B14FF458713148FFF7B6
:1027300051FD3048FFF755FC40F225512D48FFF779
:1027400012FD80B12B48FFF74CFCC4B240F225517A
:102750002848FFF73FFD20212648FFF7FBFC1A49D8
:102760002046FFF7B2FE10BD10B54FF45871224855
:10277000FFF7F9FC38B14FF458711F48FFF72AFDF5
:102780001D48FFF72EFC40F225511B48FFF7EBFCDC
:1027900080B11948FFF725FCC4B240F22551164814
:1027A000FFF718FD20211448FFF7D4FC0749204605
:1027B000FFF78BFE10BD00004400002058000020F1
:1027C00084000020500300201C060020E8080020A0
:1027D000001400405400002024000020B40B00200E
:1027E0004800002064100020840E002000100140EA
:1027F0000044004000480040004C004000B589B053
:1028000001210F20FEF75CF901211020FEF79CF951
:1028100001218B48FEF787F900208DF82200012066
:102820008DF8230002208DF821008DF82000000291
:10283000079007A98348FDF7FDFE4FF480600790DD
:1028400007A98148FDF7F6FE0120079007A97D48FA
:10285000FDF7F0FE0220079007A97A48FDF7EAFE8F
:102860004FF48060079007A97648FDF7E3FE4FF428
:102870000060079007A97448FDF7DCFE042007906C
:1028800007A97048FDF7D6FE0820079007A96D48F4
:10289000FDF7D0FE01208DF8200000208DF82300E8
:1028A0000F20079007A96948FDF7C4FE0320079091
:1028B00007A96548FDF7BEFE07220A216148FDF71A
:1028C00044FF072209215F48FDF73FFF072202214D
:1028D0005C48FDF73AFF072203215A48FDF735FF10
:1028E00007220A215848FDF730FF07220B215648DE
:1028F000FDF72BFF082200215248FDF726FF082292
:1029000001215048FDF721FF514803900020ADF808
:102910001000ADF81200ADF81400ADF818000C204E
:10292000ADF8160003A94B48FFF7A4FA03A94A48DB
:10293000FFF7A0FA03A94948FFF79CFA03A9484802
:10294000FFF798FA012240F225514248FFF7D0FBE9
:1029500001224FF458713F48FFF7CAFB01213D485F
:10296000FFF710FB012240F225513B48FFF7C0FB67
:1029700001224FF458713848FFF7BAFB012136485D
:10298000FFF700FB012240F225513448FFF7B0FB6E
:1029900001224FF458713148FFF7AAFB01212F485B
:1029A000FFF7F0FA012240F225512D48FFF7A0FB76
:1029B00001224FF458712A48FFF79AFB0121284859
:1029C000FFF7E0FA42F20F70019040F24F10ADF8BD
:1029D00000000020ADF80200ADF80800694621486B
:1029E000FEF755FC01211F48FEF7DAFC09B000BDD7
:1029F00010B51D48007838B100201B49087001212E
:102A00001148FDF795FE06E00120174908700121E5
:102A10000D48FDF78BFE10BD10B51448007838B195
:102A200000201249087002210748FDF781FE06E0E8
:102A300001200E49087002210348FDF777FE10BD02
:102A400020000E0000000240000402400008024086
:102A500040420F0000100140004400400048004088
:102A6000004C0040001400405C0000205D0000208D
:102A700030B50146481EB0F1807F01D3012030BD42
:102A8000481E4FF0E022506150170F22002804DB4F
:102A900013071C0E814B1C5406E013071D0E804BC0
:102AA00000F00F04241F1D5500BF00204FF0E0224E
:102AB0009061072010610020E1E708B54FF4A060A5
:102AC000FDF7DAFC25208DF8000001208DF80100CB
:102AD00000208DF8020001208DF803006846FDF704
:102AE000D0FC26208DF800006846FDF7CAFC2720A0
:102AF0008DF800006846FDF7C4FC34208DF8000016
:102B00006846FDF7BEFC08BD10B5FFF777FE00F084
:102B10003FFBFFF7D2FF10BD70B504466148006867
:102B20004FF47A71B0FBF1F63046FFF7A1FF4FF09A
:102B3000E020006920F002004FF0E021086100254C
:102B400008E000BF4FF0E020006900F4803000286A
:102B5000F8D06D1CA542F4D34FF0E020006920F0BE
:102B600001004FF0E021086170BD70B504464D488A
:102B700000684D49B0FBF1F63046FFF779FF4FF0A2
:102B8000E020006920F002004FF0E02108610025FC
:102B900008E000BF4FF0E020006900F4803000281A
:102BA000F8D06D1CA542F4D34FF0E020006920F06E
:102BB00001004FF0E021086170BD2DE9F0412DEDDD
:102BC000028BB0EE408A9FED390A28EE000ABDEE76
:102BD000C00A10EE104A4FF47A7094FBF0F694FBA2
:102BE000F0F100FB1147002504E04FF47A70FFF785
:102BF00093FF6D1CB542F8DB3846FFF78DFFBDEC47
:102C0000028BBDE8F0810146CA7812068B7842EA51
:102C100003424B7842EA03220B7842EA03007047F2
:102C20002DE9F041ADF5007D04460E4617464FF400
:102C300000721F49684600F0C2FC00250BE0705D81
:102C400080EA242000F0FF083DF8180080EA042004
:102C500084B2681C85B2BD42F1DB20460DF5007DD3
:102C6000BDE8F08102460B46002104E0585C90422A
:102C700000D102E0491C1229F8DB00BFC8B270473E
:102C800001460A7812064B7842EA03420B7942EA7F
:102C900003224B7942EA03007047000000E400E0A1
:102CA00018ED00E00000002040420F0000007A44D0
:102CB000383700082DE9F04105460E461746002436
:102CC0000CE0295D3846FFF788F900BF80213846BF
:102CD000FFF733FA0028F9D0601CC4B2B442F0DB2D
:102CE000BDE8F0812DE9F04706460C4637464FF027
:102CF0000008C1461220FE49087034204870A01D0B
:102D00008870084690F8028022463946C01C00F0C0
:102D100011FC002505E0785D40441FFA80F8681C2E
:102D2000C5B2A542F7DB08F0FF09E01CF04901F845
:102D300000901F21201DEE4A11542F21601D1154B7
:102D4000A01DC1B2EB4AEA48FFF7B4FFBDE8F08727
:102D50002DE9F04106460C46FF20E5490870487011
:102D6000FD2088700020C870084606710820487150
:102D7000002088715520C871002008724C72200A0A
:102D80008872200CC872200E08730D220020FFF7F5
:102D900047FF0746D6494F73380A887300250CE071
:102DA000D348415DD348FFF718F900BF8021D148CF
:102DB000FFF7C3F90028F9D06D1C0F2DF0DBBDE83B
:102DC000F0812DE9F04704460D469046FF20C849A2
:102DD00008704870FD2088700020C870FE200871BF
:102DE00005F1070981F805904FEA192088718220C2
:102DF000C871802008720020487208208872002064
:102E0000C872002607E018F8061006F10C00B84A50
:102E10001154701C86B2AE42F5DB05F10C02B449C8
:102E20000020FFF7FDFE074605F10C00B04A1754DD
:102E3000390A401C1154B048844204D10121AF48E2
:102E4000FDF774FC0EE0AE48844204D10221AB4889
:102E5000FDF76CFC06E0AB48844203D10421A7488F
:102E6000FDF764FC00260DE0A148815D2046FFF7D8
:102E7000B4F800BF80212046FFF75FF90028F9D0A1
:102E8000701C86B205F10E00B042EDDC0A20FFF79F
:102E90006CFE9948844204D101219848FDF748FC12
:102EA0000EE09748844204D102219448FDF740FC8B
:102EB00006E09448844203D104219048FDF738FC91
:102EC000BDE8F0872DE9F04705460F461646FF207E
:102ED000874908704870FD2088700020C870FE2067
:102EE000087106EB860000F1070981F805904FEAAA
:102EF000192088718320C8717420087200204872DC
:102F0000042088720020C872002422E004EB4400F0
:102F1000395C04EB84000C30754A115404EB440016
:102F2000401C395C04EB84000D30115404EB440068
:102F3000801C395C04EB84000E301154002104EB3A
:102F400084000F30115404EB840010301154601CC5
:102F500084B2B442DADB06EB860000F10C0264496D
:102F60000020FFF75DFE804606EB86000C30604ACD
:102F700002F800804FEA182106EB86000D3011544C
:102F80005D48854204D101215C48FDF7CFFB0EE08E
:102F90005B48854204D102215848FDF7C7FB06E093
:102FA0005848854203D104215448FDF7BFFB002453
:102FB0000DE04F48015D2846FFF70FF800BF802164
:102FC0002846FFF7BAF80028F9D0601C84B206EB57
:102FD00086000E30A042ECDC0A20FFF7C6FD464812
:102FE000854204D101214548FDF7A2FB0EE044488B
:102FF000854204D102214148FDF79AFB06E0414891
:10300000854203D104213D48FDF792FBBDE8F087DE
:103010002DE9F04706460C469046FF2034490870DB
:103020004870FD2088700020C870FE2008710720BD
:1030300000EB440981F805904FEA1920887183203C
:10304000C871402008720020487201208872002058
:10305000C87200250BE018F8051068000C30244AEF
:103060001154012168000D301154681C85B2A5422D
:10307000F1DB0C2000EB44021D490020FFF7D0FDDE
:1030800007460C2101EB4401194A5754380A0D2117
:1030900001EB440150541848864204D101211748DD
:1030A000FDF744FB0EE01648864204D10221134886
:1030B000FDF73CFB06E01348864203D104210F488C
:1030C000FDF734FB00250DE00948415D3046FEF771
:1030D00084FF00BF80213046FFF72FF80028F9D089
:1030E000681C85B20E2000EB4400A842ECDC0BE02B
:1030F0006414002000100140004400400008024019
:1031000000480040004C00400A20FFF72EFD1B48FD
:10311000864204D101211A48FDF70AFB0EE0194846
:10312000864204D102211648FDF702FB06E016484C
:10313000864203D104211248FDF7FAFABDE8F08770
:1031400070B504460D46E1B21048FEF746FF00BFD9
:1031500080210E48FEF7F1FF0028F9D0204670BD0F
:1031600010B5044600BF20210848FEF7E6FF0028FE
:10317000F9D00648FEF735FF10BD000000440040BE
:103180000008024000480040004C00400010014090
:1031900000B587B001218803FDF7C5FC012102209D
:1031A000FDF78EFC05220D21D448FDF7CEFA05224D
:1031B0000E21D248FDF7C9FA05220F21CF48FDF7AD
:1031C000C4FA02208DF8180000208DF81A000120A2
:1031D0008DF81B0002208DF819004FF46040059017
:1031E00005A9C648FDF726FA01208DF81800002031
:1031F0008DF81A0001208DF81B0002208DF81900AF
:10320000C002059005A9BD48FDF714FA4FF480519E
:10321000BA48FDF78BFABA48FDF790FD0020ADF8EB
:103220000000ADF804000220ADF806000120ADF862
:1032300008004002ADF80A002820ADF80C0000207C
:10324000ADF80E000720ADF810004FF48270ADF815
:1032500002006946AA48FDF797FD0121A848FDF73D
:1032600076FE07B000BD014600BFA54808300088C3
:1032700000F002000028F8D0A1480C30018000BF07
:103280009F480830008800F001000028F8D09C48D2
:103290000C300088C0B2704730B50146C1F34033EE
:1032A0000BB9084605E04C1E43F6FF7525EA0402FB
:1032B000504230BD10B58CB0182292A106A800F083
:1032C0007EF900241AE04FF480518C48FDF730FA63
:1032D00006A9085DFFF7C7FF0DF80400641C06A9E6
:1032E000085DFFF7C0FF0DF804004FF480518348DC
:1032F000FDF71CFA0A20FFF738FC641C152CE2DDF0
:103300009DF80200000200B29DF8031008438349B3
:1033100008809DF80400000200B29DF805100843E3
:103320007E4948809DF80600000200B29DF8071013
:1033300008437A4988809DF80800000200B29DF891
:1033400009100843764908809DF80A00000200B27F
:103350009DF80B100843724948809DF80C0000024C
:1033600000B29DF80D1008436D4988809DF80E004D
:10337000000200B29DF80F1008436A4908809DF8CA
:103380001000000200B29DF8111008436549488002
:103390009DF81200000200B29DF813100843614925
:1033A00088805E480088C0F30D005C4908800846AC
:1033B0004088C0F30D00488008468088C0F30D00A7
:1033C000888057480088C0F30D005549088008469A
:1033D0004088C0F30D00488008468088C0F30D0087
:1033E000888050480088C0F30D004E490880084688
:1033F0004088C0F30D00488008468088C0F30D0067
:1034000088804649B1F90000FFF746FF434908802C
:10341000B1F90200FFF740FF40494880B1F90400CC
:10342000FFF73AFF3D4988803D49B1F90000FFF7B9
:1034300033FF3B490880B1F90200FFF72DFF3849FF
:103440004880B1F90400FFF727FF354988803549E6
:10345000B1F90000FFF720FF32490880B1F90200FE
:10346000FFF71AFF2F494880B1F90400FFF714FF56
:103470002C49888029480088000A2B490870274871
:103480000078487025484088000A88702348807872
:10349000C87022488088000A087120480079487165
:1034A0001F480088000A214908701D4800784870AC
:1034B0001B484088000A887019488078C8701848EE
:1034C0008088000A087116480079487115480088FC
:1034D000000A17490870134800784870114840885E
:1034E000000A88700F488078C8700E488088000AEB
:1034F00008710C48007948710CB010BD00040240FE
:10350000003800400400060008000A000C000E000D
:103510001000120014003C000000000064000020B5
:103520005E0000206A00002076000020700000206D
:103530007C000020032A40F2308010F0030C00F0E1
:10354000158011F8013BBCF1020F624498BF11F8DD
:1035500001CB00F8013B38BF11F8013BA2F1040296
:1035600098BF00F801CB38BF00F8013B11F003030E
:1035700000F02580083AC0F0088051F8043B083A72
:1035800051F804CBA0E80810F5E7121D5CBF51F814
:10359000043B40F8043BAFF30080D20724BF11F88E
:1035A000013B11F801CB48BF11F8012B24BF00F8F3
:1035B000013B00F801CB48BF00F8012B704710B564
:1035C000203AC0F00B80B1E81850203AA0E818501B
:1035D000B1E81850A0E81850BFF4F5AF5FEA027CDC
:1035E00024BFB1E81850A0E8185044BF18C918C04B
:1035F000BDE810405FEA827C24BF51F8043B40F8EC
:10360000043B08BF7047D20728BF31F8023B48BFD0
:1036100011F8012B28BF20F8023B48BF00F8012B0E
:1036200070474FF000020429C0F0128010F0030C24
:1036300000F01B80CCF1040CBCF1020F18BF00F8A5
:10364000012BA8BF20F8022BA1EB0C0100F00DB854
:103650005FEAC17C24BF00F8012B00F8012B48BFB2
:1036600000F8012B70474FF0000200B51346944656
:103670009646203922BFA0E80C50A0E80C50B1F1CA
:103680002001BFF4F7AF090728BFA0E80C5048BFDE
:103690000CC05DF804EB890028BF40F8042B08BF7C
:1036A000704748BF20F8022B11F0804F18BF00F878
:1036B000012B7047704770477047754600F02CF833
:1036C000AE4605006946534620F00700854618B00F
:1036D00020B5FCF7BFFEBDE820404FF000064FF0DC
:1036E00000074FF000084FF0000B21F00701AC4637
:1036F000ACE8C009ACE8C009ACE8C009ACE8C00956
:103700008D46704710B50446AFF300802046BDE8F3
:103710001040FCF782BD000000487047641500208F
:1037200001491820ABBEFEE72600020070474FF0AB
:103730004070E1EE100A7047000005800F800A001B
:103740001B801E0014001180338036003C0039803D
:1037500028002D8027802200638066006C0069802D
:1037600078007D8077807200500055805F805A001D
:103770004B804E0044004180C380C600CC00C9800D
:10378000D800DD80D780D200F000F580FF80FA00FD
:10379000EB80EE00E400E180A000A580AF80AA00ED
:1037A000BB80BE00B400B180938096009C009980DD
:1037B00088008D8087808200838186018C018981C9
:1037C00098019D8197819201B001B581BF81BA01B5
:1037D000AB81AE01A401A181E001E581EF81EA01A5
:1037E000FB81FE01F401F181D381D601DC01D98195
:1037F000C801CD81C781C201400145814F814A0185
:103800005B815E0154015181738176017C01798174
:1038100068016D8167816201238126012C01298164
:1038200038013D8137813201100115811F811A0154
:103830000B810E0104010181038306030C0309833C
:1038400018031D8317831203300335833F833A0324
:103850002B832E0324032183600365836F836A0314
:103860007B837E0374037183538356035C03598304
:1038700048034D8347834203C003C583CF83CA03F4
:10388000DB83DE03D403D183F383F603FC03F983E4
:10389000E803ED83E783E203A383A603AC03A983D4
:1038A000B803BD83B783B203900395839F839A03C4
:1038B0008B838E0384038183800285828F828A02B8
:1038C0009B829E0294029182B382B602BC02B982AC
:1038D000A802AD82A782A202E382E602EC02E9829C
:1038E000F802FD82F782F202D002D582DF82DA028C
:1038F000CB82CE02C402C182438246024C0249827C
:1039000058025D8257825202700275827F827A026B
:103910006B826E0264026182200225822F822A025B
:103920003B823E0234023182138216021C0219824B
:1039300008020D82078202025839000800000020A8
:1039400084000000C4010008DC3900088400002065
:10395000441B0000E0010008007A030A0000000098
:10396000000000000102030406070809000000002F
:1039700001020304010203040607080901081012EA
:103980001516020304050607090A0B0C0D0E0000AC
:103990000000000000000000000000000000000027
:1039A0000000000000000000000000000000000017
:1039B0000000000000000000000000000000000007
:1039C00000000000000000000000000000000000F7
:0C39D000000000000000000000000000EB
:040000050800018965
:00000001FF
