:020000040800F2
:10000000600A002039040008B9190008BB1900086B
:10001000BF190008C3190008C71900080000000034
:10002000000000000000000000000000CB190008E4
:10003000CD19000800000000CF190008D1190008F0
:100040005304000853040008530400085304000834
:100050005304000853040008530400085304000824
:100060005304000853040008530400085304000814
:100070005304000853040008530400085304000804
:1000800053040008530400085304000853040008F4
:1000900053040008530400085304000853040008E4
:1000A00053040008530400085304000853040008D4
:1000B00053040008530400085304000853040008C4
:1000C00053040008530400085304000853040008B4
:1000D00053040008DF1A0008530400085304000802
:1000E0005304000853040008530400085304000894
:1000F0005304000853040008530400085304000884
:100100005304000853040008530400085304000873
:100110005304000853040008530400085304000863
:100120005304000853040008530400085304000853
:100130005304000853040008530400085304000843
:100140005304000853040008530400085304000833
:100150005304000853040008530400085304000823
:100160005304000853040008530400085304000813
:100170005304000853040008530400085304000803
:10018000530400085304000800F002F800F03CF8A3
:100190000AA090E8000C82448344AAF10107DA45E2
:1001A00001D100F031F8AFF2090EBAE80F0013F0F8
:1001B000010F18BFFB1A43F001031847B0220000DB
:1001C000D0220000103A24BF78C878C1FAD852076C
:1001D00024BF30C830C144BF04680C6070470000C1
:1001E0000023002400250026103A28BF78C1FBD840
:1001F000520728BF30C148BF0B6070471FB502F0DF
:1002000030F81FBD10B510BD01F0F1FF1146FFF72A
:10021000F5FF01F0A7FB02F00FF803B4FFF7F2FFC0
:1002200003BC02F017F800000CB50020019000900C
:100230007648006840F480307449086000BF734815
:10024000006800F4003000900198401C0190009874
:1002500018B90198B0F5A06FF1D16C48006800F4AE
:10026000003010B10120009001E0002000900098C3
:10027000012846D165484030006840F0805063490D
:10028000403108606248006840F48040604908607E
:100290005E48083000685D4908310860084600681B
:1002A00040F4004008600846006840F4A050086030
:1002B0005848091F0860081F006840F08070091F37
:1002C000086000BF5148006800F000700028F9D0B5
:1002D00040F20560504908604C480830006820F042
:1002E00003004A49083108600846006840F00200EF
:1002F000086000BF45480830006800F00C0008287E
:10030000F8D10CBD10B54548006840F47000434971
:1003100008603E48006840F001003C490860002049
:100320003A4908310860394800683D490840374972
:1003300008603C48091D0860081F006820F4802000
:10034000091F0860002031490C310860FFF76CFF7D
:100350004FF0006031498039086010BD70B5002051
:100360000022022300240221284D08352D6805F0C3
:100370000C0020B1042806D0082834D107E02A4D0B
:100380002A4E356033E02A4D284E35602FE01F4D50
:100390002D1D2D68C5F380541C4D2D1D2D6805F0B5
:1003A0003F0154B1224DB5FBF1F5184E361D3668AC
:1003B000C6F3881605FB06F209E01B4DB5FBF1F507
:1003C000124E361D3668C6F3881605FB06F20F4D31
:1003D0002D1D2D68C5F301456D1C6B00B2FBF3F5B7
:1003E000124E356003E0104D104E356000BF00BF67
:1003F000064D08352D68C5F303150E4E705D0B4D87
:100400002D68C540094E356070BD000000380240BF
:1004100000700040042A4004003C024088ED00E0E7
:10042000FFFFF6FE103000240024F400000000203E
:1004300000127A000400002009488047094800475C
:10044000FEE7FEE7FEE7FEE7FEE7FEE7FEE7FEE784
:10045000FEE7FEE704480549054A064B70470000E1
:10046000050300088901000860040020600A0020DC
:10047000600600206006002032490143324A1160C4
:10048000704770B5002100230F22C4781CB32E4C96
:10049000246804F4E064C4F5E064C4F30721C1F106
:1004A0000404E3B20A4144789C40E1B284781440E9
:1004B00021430C07210E254C05786155047804F082
:1004C0001F050124AC4005786D11AD0005F1E02554
:1004D000C5F8004109E0047804F01F050124AC4090
:1004E0001B4D0678761145F8264070BD194A0A4022
:1004F0000243154B1B1F1A60704739B1124A121D77
:1005000012680243104B1B1D1A6006E00E4A121DB2
:10051000126882430C4B1B1D1A607047042808D1D7
:100520004FF0E021096941F004014FF0E022116130
:1005300007E04FF0E021096921F004014FF0E022CB
:10054000116170470000FA050CED00E000E400E0E6
:1005500080E100E080FFFF1F10B50121080200F0DC
:1005600061FF00214FF4807000F05CFF10BD30B5DA
:100570000246002000235068F84C20400D790C689A
:1005800044EA0524204350609068F54C2040D1E9AE
:1005900003542C438D682C434D7944EA4504204391
:1005A0009060D06A20F470000C7D641EE4B2234396
:1005B00040EA0350D06230BD0021016001714171F9
:1005C0008160C16001610121017570470021E54A28
:1005D0001168E54A1140D0E900231A4383681A43A1
:1005E000C3681A431143E14AC2F80413704700215B
:1005F000016041608160C160704721B1826842F052
:100600000102826003E0826822F00102826070478A
:100610000A4600214168D64B19401143416070479A
:100620004162826270470A460021416821F01F0141
:1006300011434160704738B1CA49096841F400016B
:10064000CA4AC2F8041306E0C649096821F4000149
:10065000C64AC2F80413704738B1C249096841F468
:100660008001C24AC2F8041306E0BE49096821F4B9
:100670008001BE4AC2F804137047F0B504460D4627
:1006800000200021092D11DDE068A5F10A0606EB26
:100690004607072606FA07F18843A5F10A0606EB86
:1006A000460603FA06F10843E0600CE0206905EB1A
:1006B0004507072606FA07F1884305EB450603FAC6
:1006C00006F108432061072A0FDA606B561E06EB1D
:1006D00086071F2606FA07F18843561E06EB860694
:1006E00005FA06F10843606322E00D2A0FDA206B59
:1006F000D61F06EB86071F2606FA07F18843D61F8A
:1007000006EB860605FA06F10843206310E0E06A6E
:10071000A2F10D0606EB86071F2606FA07F18843AD
:10072000A2F10D0606EB860605FA06F10843E06223
:10073000F0BD816841F08041816070470146002032
:100740008A6802F480020AB1012000E000207047AC
:1007500021B1826842F48062826003E0826822F400
:1007600080628260704721B1826842F0020282603A
:1007700003E0826822F002028260704710B50A46E8
:1007800000210023416821F46041531E41EA4331B6
:10079000416010BD21B1426842F40062426003E052
:1007A000426822F40062426070470146C86C80B221
:1007B00070476C48001D0068704721B1826842F4A0
:1007C0008072826003E0826822F4807282607047E7
:1007D00021B1826842F40072826003E0826822F4F0
:1007E00000728260704738B15E49096841F4005177
:1007F0005E4AC2F8041306E05A49096821F4005120
:100800005A4AC2F804137047F0B504461546002052
:1008100000220026092911DDE068A1F10A0707EB93
:10082000470C072707FA0CF29043A1F10A0707EBE0
:10083000470703FA07F21043E0600CE0206901EB80
:10084000410C072707FA0CF2904301EB410703FA2A
:1008500007F210432061A06BC0F30156EF1C06F1B4
:10086000010CA7EB0C0707EB870C1F2707FA0CF20C
:100870009043EF1C06F1010CA7EB0C0707EB870771
:1008800001FA07F21043A063F0BD10B50A4600213B
:100890000023816B21F44011531E41EA035181630F
:1008A00010BD08B5002300930090009B0B440093FB
:1008B000009B1A6008BD0A460021816821F470215E
:1008C0001143816070470A460021816821F440117C
:1008D000114381607047816841F4800181607047F5
:1008E000014600208A6802F480020AB1012000E07B
:1008F0000020704721B1426842F48062426003E008
:10090000426822F480624260704721B1426842F43A
:100910008052426003E0426822F480524260704795
:1009200008B5024600200090009201F12800009BCB
:10093000184400900098006880B208BD10B50B46BE
:100940000021D9B2012404FA01F11AB144680C4320
:10095000446002E044688C43446010BDFFFEFFFC2D
:10096000FDF7FFC004230140E030FCFF0020014000
:10097000FFFD3FFF0246002013680B400BB1012032
:1009800000E000207047CA430260704770B502461D
:100990000020002300240B12556801268E4005EA32
:1009A000060415681D4015B10CB1012000E00020BF
:1009B00070BD00220A12D34303607047016821F022
:1009C000010101600021016041608160C16001613D
:1009D00021214161DB49884204D13D21D94A103AA5
:1009E00091608CE0D7491831884205D14FF4746189
:1009F000D44A103A916082E0D2493031884205D120
:100A00004FF47411CF4A103A916078E0CD494831E3
:100A1000884205D14FF07461CA4A103A91606EE085
:100A2000C8496031884204D1C749C64A103AD160EA
:100A300065E0C4497831884204D1C449C14A103ABA
:100A4000D1605CE0BF499031884204D1C049BD4AC1
:100A5000103AD16053E0BB49A831884205D14FF02C
:100A60003D51B84A103AD16049E0BA49884204D1B0
:100A70003D21B84A083A116041E0B6491831884230
:100A800005D14FF47461B34A083A116037E0B149B7
:100A90003031884205D14FF47411AE4A083A1160E2
:100AA0002DE0AC494831884205D14FF07461A94A24
:100AB000083A116023E0A7496031884204D1A24975
:100AC000A44A121F11601AE0A2497831884204D169
:100AD0009E49A04A121F116011E09E499031884240
:100AE00004D19B499B4A121F116008E09949A83123
:100AF000884204D14FF03D51964A121F1160704751
:100B000010B500220268944B1A40CC680B6823434E
:100B10004C6923438C692343CC6923430C6A2343E8
:100B20004C6A23438C6A23434C6B23438C6B2343D3
:100B30001A430260426922F00702D1E90B342343D1
:100B40001A4342610B6943604B6883608B68C360E2
:100B500010BD0021016041608160C160016141619F
:100B60008161C161016241628162C162016341636D
:100B70008163704721B1026842F00102026003E024
:100B8000026822F001020260704721B1026842F45B
:100B90000042026003E0026822F4004202607047F3
:100BA00021B1026842F02002026003E0026822F0F4
:100BB000200202607047416070470146486880B279
:100BC000704722B1036843F40023036003E0036825
:100BD00023F4002303600161704721B1026842F4ED
:100BE0008022026003E0026822F4802202607047E3
:100BF0000AB1016100E0C1607047014600200A6847
:100C000002F400220AB1012000E0002070470146F2
:100C100000200A6802F001020AB1012000E0002071
:100C20007047014600204A6902F03800704730B52D
:100C300003460A4600200024464DAB4202D24149F9
:100C4000103901E04349103902F000550DB14C68EC
:100C500000E00C68414D2C4004EA02050DB1012072
:100C600000E0002030BD02463A4B9A4202D235489D
:100C7000103801E03748103801F000531BB1374BF2
:100C80000B40C36002E0354B0B408360704710B5EA
:100C900001F080034BB122B1436943F0800343610B
:100CA00003E0436923F08003436180290BD02AB11C
:100CB000036801F01E042343036004E0036801F0AD
:100CC0001E04A343036010BD70B50246002000243B
:100CD0000025204EB24202D21A4B103B01E01D4BC0
:100CE000103B1F4E0E4036B11E2606EAD124166870
:100CF00006EA040502E0566906F0800501F0005698
:100D00000EB15C6800E01C68144E344004EA010631
:100D100016B10DB1012000E0002070BD02460D4B60
:100D20009A4202D20748103801E00A48103801F010
:100D300000531BB1094B0B40C36002E0074B0B4053
:100D400083607047106002403D000020400F00208B
:100D500000003D20106402403F801CF07D0F7D0F9D
:100D60003C0F3C0F10B504468C48844208D1012149
:100D7000084600F000FB0021012000F0FCFA5EE0D4
:100D80008748844208D10121022000F0F4FA0021B2
:100D9000022000F0F0FA52E08248844208D101219A
:100DA000042000F0E8FA0021042000F0E4FA46E014
:100DB0007D48844208D10121082000F0DCFA00219E
:100DC000082000F0D8FA3AE07848844208D101219E
:100DD000102000F0D0FA0021102000F0CCFA2EE014
:100DE0007348844208D10121202000F0C4FA002178
:100DF000202000F0C0FA22E06E48844208D1012190
:100E0000402000F0B8FA0021402000F0B4FA16E0CB
:100E10006948844208D10121802000F0ACFA002109
:100E2000802000F0A8FA0AE06448844207D101213A
:100E3000801500F0A0FA0021A01500F09CFA10BD6A
:100E4000F0B50A4600210023002400BF3DE0012543
:100E500005FA01F3156805EA03049C4234D10568DC
:100E60004F000326BE40B543056015794E00B540DE
:100E70000668354305601579012D02D01579022DDC
:100E800016D185684F000326BE40B543856055796D
:100E90004E00B540866835438560456801268E4022
:100EA000B5434560456896798E40B6B23543456096
:100EB000C5684F000326BE40B543C560D5794E00D6
:100EC000B540C6683543C560491C1029BFD3F0BD85
:100ED0004FF6FF7101600021017141718171C17193
:100EE000704708B54FF480320092009A0A4300928E
:100EF000009AC261C161009AC261C2690092C2696E
:100F0000009208BD0246002013690B400BB101207E
:100F100000E0002070470146086980B27047024631
:100F2000002053690B400BB1012000E00020704706
:100F30000146486980B2704701837047418370471A
:100F40000AB1018300E04183704741617047426903
:100F50004A4042617047F0B5002300244D07ED0E72
:100F600002FA05F3CE1000F1200555F826504E0781
:100F7000F70E0F26BE40B543CF1000F1200646F80D
:100F80002750CE1000F1200555F8265045EA0304FD
:100F9000CE1000F1200545F82640F0BD00000240CB
:100FA0000004024000080240000C02400010024011
:100FB0000014024000180240001C024000200240C1
:100FC000FA48006840F00100F84908600020F7493D
:100FD00008310860F5480068F5490840F3490860A1
:100FE000F448091D0860081F006820F48020091FCC
:100FF00008600020ED490C31086070470021EB4A81
:10100000921C117011460870704710B501460022FD
:10101000002300204A11012A02D1E44C236808E091
:10102000022A03D1E14C7034236802E0DF4C7434AF
:10103000236801F01F02012494401C400CB10120E0
:1010400000E0002010BD38B50020009000240025ED
:1010500000BF3120FFF7D9FF05460098401C0090E3
:101060000098B0F5A06F01D0002DF2D03120FFF72D
:10107000CCFF08B1012400E00024204638BD014621
:101080000020CA4A106820F0F80040EAC100106051
:101090007047C949086070470021C44A7032117016
:1010A0001170012802D004280AD104E00121BF4AAE
:1010B0007032117005E00521BC4A7032117000E0F9
:1010C00000BF00BF7047BD490860704770B5049C01
:1010D00041EA82150126C6EB530645EA064505435B
:1010E00045EA0465B14E361D356070BDB2490866EB
:1010F0007047820142EA0172AC4B84331A60704738
:10110000AD4988667047AC49C86470470246002004
:10111000A64B0833186820F0EC6042EA010318433C
:10112000A24B083318607047024600209F4B0833DB
:10113000186820F0784042EA010318439B4B0833BB
:101140001860704701460020984A0832106820F065
:10115000030008431060704794480830006800F0AE
:101160000C00704701460020904A0832106820F0B9
:10117000F000084310607047014600208B4A083297
:10118000106820F4E05008431060704701460020CA
:10119000864A0832106820F4604040EAC1001060BE
:1011A0007047F0B50021002200240225002602230A
:1011B0007E4F08373F6807F00C0121B1042905D0A4
:1011C000082937D105E07E4F076036E07D4F076084
:1011D00033E0764F3F1D3F68C7F38056734F3F1D86
:1011E0003F6807F03F036EB1764FB7FBF3F7DFF8C8
:1011F000BCC10CF1040CDCF800C0CCF3881C07FB6C
:101200000CF40CE06E4FB7FBF3F7DFF8A0C10CF164
:10121000040CDCF800C0CCF3881C07FB0CF4634F13
:101220003F1D3F68C7F301477F1C7D00B4FBF5F706
:10123000076002E0624F076000BF00BF5B4F0837E6
:101240003F6807F0F00109095F4F7A5C0768D740F3
:101250004760564F08373F6807F4E051890A5A4FF4
:101260007A5C4768D7408760504F08373F6807F47B
:101270006041490B544F7A5C4768D740C760F0BD66
:10128000002100F44072B2F5407F0AD1474A08328B
:10129000116821F4F8114D4A02401143434A0832C3
:1012A0001160424A70321268C0F30B031A433F4B7D
:1012B00070331A60704741494439086070473F49AC
:1012C00040390860704742490860704739B1374A71
:1012D000303212680243354B30331A6006E0334A2D
:1012E000303212688243314B30331A60704739B163
:1012F0002E4A3432126802432C4B34331A6006E013
:101300002A4A343212688243284B34331A607047B9
:1013100039B1264A383212680243244B38331A60F6
:1013200006E0224A383212688243204B38331A6072
:10133000704739B11D4A4032126802431B4B40339B
:101340001A6006E0194A403212688243174B403354
:101350001A60704739B1154A443212680243134B80
:1013600044331A6006E0114A4432126882430F4B3C
:1013700044331A60704739B10C4A10321268024384
:101380000A4B10331A6006E0084A10321268824392
:10139000064B10331A607047E1B1044A14321268E8
:1013A0000243024B14331A6019E000000038024077
:1013B000FFFFF6FE1030002400004742800E474237
:1013C0000024F40000127A0014000020FFFCFF0F3C
:1013D0005C0147425B4A126882435A4B1A6070476D
:1013E00039B1584A121D12680243564B1B1D1A6030
:1013F00006E0544A121D12688243524B1B1D1A60AC
:10140000704739B14F4A0C32126802434D4B0C33CE
:101410001A6006E04B4A0C3212688243494B0C3387
:101420001A60704739B1474A103212680243454B7F
:1014300010331A6006E0434A103212688243414B6F
:1014400010331A60704739B13E4A3C321268024389
:101450003C4B3C331A6006E03A4A3C321268824305
:10146000384B3C331A60704739B1364A4032126803
:101470000243344B40331A6006E0324A403212686D
:101480008243304B40331A60704739B12D4A4432A1
:10149000126802432B4B44331A6006E0294A443257
:1014A00012688243274B44331A60704739B1254A8A
:1014B0004C3212680243234B4C331A6006E0214A37
:1014C0004C32126882431F4B4C331A60704739B15B
:1014D0001C4A5032126802431A4B50331A6006E01D
:1014E000184A503212688243164B50331A607047C4
:1014F00039B1144AD21F12780243124BDB1F1A7003
:1015000006E0104AD21F127882430E4BDB1F1A707E
:1015100070470C486030006840F0807009496031C5
:101520000860704701460020064A083A12680A40DF
:101530000AB1012000E0002070470249891F0870AD
:10154000704700001438024010B50446F748844242
:1015500008D101211020FFF765FF00211020FFF7BF
:1015600061FF3EE0F248844209D101214804FFF7BF
:1015700048FF00214FF40030FFF743FF31E0ED4812
:10158000844209D101218804FFF73BFF00214FF479
:101590008020FFF736FF24E0E748844209D101218B
:1015A000C804FFF72EFF00214FF40020FFF729FFAA
:1015B00017E0E248844209D101210805FFF721FF25
:1015C00000214FF48010FFF71CFF0AE0DC48844242
:1015D00007D101212020FFF725FF00212020FFF760
:1015E00021FF10BD2DE9FF4705460E460024A14608
:1015F00000BFA046B08900B100BF2C8A24F440543B
:10160000F08804432C82AC8941F20C608443B0889A
:1016100031890843718908430443AC81AC8A24F4BE
:101620004074B0890443AC826846FFF7BAFDBF48F6
:10163000854202D0C248854202D1DDF80C9001E01B
:10164000DDF80890A88900F4004040B109EBC9001A
:1016500000EB091031684900B0FBF1F707E009EB36
:10166000C90000EB091031688900B0FBF1F7642074
:10167000B7FBF0F004012009642101FB1078A88970
:1016800000F4004040B1322000EBC800B0FBF1F0A4
:1016900000F00700044308E0322000EB081064214A
:1016A000B0FBF1F000F00F0004432C81BDE8FF8790
:1016B0004FF41651016000218180C18001810C210D
:1016C000418100218181704710B502460020108AB7
:1016D00020F470600B884C8823438C882343CC888B
:1016E00023431843108210BD002101804180818076
:1016F000C180704721B1828942F40052828104E0A6
:1017000082894DF6FF731A4082817047028B02F482
:101710007F420283028B0A430283704721B1828990
:1017200042F40042828103E08289C2F30E02828188
:10173000704721B1828A42F40062828204E0828A88
:101740004FF2FF731A4082827047C1F30802828011
:10175000704701468888C0F308007047028A4FF638
:10176000F0731A400282028A0A430282704721B152
:10177000828942F00202828104E082894FF6FD7381
:101780001A408281704782894FF2FF731A4082812A
:1017900082890A4382817047028A4FF6DF731A40BA
:1017A0000282028A0A430282704721B1028A42F40D
:1017B0008042028204E0028A4BF6FF731A400282E2
:1017C0007047818941F001018181704721B1828A8E
:1017D00042F00802828204E0828A4FF6F7731A40D0
:1017E00082827047028BD2B20283028B42EA0122CC
:1017F0000283704721B1828A42F02002828204E093
:10180000828A4FF6DF731A408282704721B1828A42
:1018100042F01002828204E0828A4FF6EF731A408F
:1018200082827047828A4FF6FB731A408282828AD4
:101830000A438282704721B1828A42F00202828288
:1018400004E0828A4FF6FD731A40828270471AB113
:10185000838A0B43838202E0838A8B4383827047AF
:10186000F0B50346002400260025002040F66A1744
:10187000B94200D100BF1846C1F3421401F01F065F
:10188000012707FA06F5012C01D10C3004E0022CE7
:1018900001D1103000E014301AB107682F430760FF
:1018A00002E00768AF430760F0BD02460020B1F5D3
:1018B000007F00D100BF13880B400BB1012000E076
:1018C0000020704701F40072B2F5007F00D100BF24
:1018D000CA430280704770B50246002400230025E9
:1018E000002040F66A16B14200D100BFC1F3421594
:1018F00001F01F03012606FA03F3012D02D1968998
:10190000334006E0022D02D1168A334001E0968A68
:1019100033400C12012606FA04F41688344013B141
:101920000CB1012000E0002070BD0000001001405B
:101930000044004000480040004C0040005000407F
:101940000014014010B50022002340F66A14A142A1
:1019500000D100BF0A1201249440A3B2DC430480EA
:1019600010BD000000F008FA642000F00BFA10210E
:101970000D48FFF7E3FA15E00C4890F8080101283C
:1019800010D100BF0A4800780A4909788842F9D185
:1019900000F0ECFA00200649087006490870034977
:1019A00081F80801E8E7000000080240300000204C
:1019B0002C0000202D000020704700BFFEE700BF74
:1019C000FEE700BFFEE700BFFEE7704770477047C5
:1019D000704770B505460C462088042805DA218832
:1019E000481C2080A01C455470BD208804281AD1B2
:1019F000A078FF280FD1E078FF280CD12079FD28AE
:101A000009D1607938B92188481C2080A01C455430
:101A1000A4F8025106E0E078A0702179E1706179C4
:101A200021716571E0E7208806280FDC2188481CB9
:101A30002080A01C45542088072806D1E179207A0F
:101A400041EA0020C01DA4F80201CDE72088062845
:101A500043DD2088B4F8021188423EDA2188481C10
:101A60002080A01C45542088B4F80211884233D14C
:101A7000B4F80201801E82B2A11C002000F0F9F926
:101A8000A4F80601B4F80201801EA11C0A5CB4F897
:101A90000201401E085C42EA0020B4F806118842A8
:101AA00012D1607A822809D1B4F80201C01EA11CAB
:101AB000085C17490870012084F80801607A5528ED
:101AC00002D1A07913490870002020804FF4807162
:101AD000A01C00F040FB00E086E700BF84E710B5E3
:101AE00040F225510C48FFF7F6FE80B10A48FFF797
:101AF00030FEC4B240F225510748FFF723FF2021F2
:101B00000548FFF7DFFE05492046FFF762FF10BDDD
:101B10002C0000202D00002000100140300000208B
:101B200000B59FB001216E48FFF7D0FB01214FF4B3
:101B30008870FFF70FFC01214FF46020FFF7F9FBDD
:101B400000208DF87A0001208DF87B0002208DF8AE
:101B500079008DF8780000021D901DA96148FFF7FB
:101B60006FF94FF480601D901DA95E48FFF768F97A
:101B700001208DF8780010201D901DA95A48FFF70C
:101B80005FF900208DF87B0002201D901DA95748A9
:101B9000FFF756F90F201D9003208DF878001DA93E
:101BA0005148FFF74DF907220A214E48FFF7D3F9B4
:101BB000072209214B48FFF7CEF94D481990002024
:101BC000ADF86800ADF86A00ADF86C00ADF87000D3
:101BD0000C20ADF86E0019A94648FFF703FD01225D
:101BE00040F225514348FFF73BFE01214148FFF7F2
:101BF00081FD002000904048019040480290002064
:101C0000039004200490002005904FF4806006901B
:101C100040000790800008904011099040020A900F
:101C200000200B9001200C9000200D900E90694632
:101C30003348FEF765FF01213148FEF79BFF002086
:101C40000F904FF480301090002011904FF4A0605E
:101C500012900FA8FEF7BAFC0020139001208DF817
:101C600050008DF851000020159016901790042018
:101C70008DF8600013A920484C38FEF778FC062345
:101C800001220A211C484C38FEF7F7FC06230222E9
:101C90000B2119484C38FEF7F0FC062303220C21D7
:101CA00015484C38FEF7E9FC062304220D211248A2
:101CB0004C38FEF7E2FC01210F484C38FEF788FD56
:101CC00001210D484C38FEF778FD01210A484C38B7
:101CD000FEF793FC08484C38FEF72BFD1FB000BD03
:101CE0000F004000000002400008024000040240D3
:101CF00040420F00001001404C2001402400002011
:101D00001064024030B50146481EB0F1807F01D317
:101D1000012030BD481E4FF0E022506150170F22C5
:101D2000002804DB13071C0E634B1C5406E013074A
:101D30001D0E624B00F00F04241F1D5500BF002034
:101D40004FF0E0229061072010610020E1E708B524
:101D50004FF4A060FEF790FB25208DF800000120D5
:101D60008DF8010000208DF8020001208DF803009D
:101D70006846FEF786FB08BD10B5FFF7D1FEFFF7FA
:101D8000E6FF10BD70B504464D4800684FF47A7107
:101D9000B0FBF1F63046FFF7B5FF4FF0E0200069E9
:101DA00020F002004FF0E0210861002508E000BFAC
:101DB0004FF0E020006900F480300028F8D06D1C5E
:101DC000A542F4D34FF0E020006920F001004FF06D
:101DD000E021086170BD70B5044639480068394992
:101DE000B0FBF1F63046FFF78DFF4FF0E0200069C1
:101DF00020F002004FF0E0210861002508E000BF5C
:101E00004FF0E020006900F480300028F8D06D1C0D
:101E1000A542F4D34FF0E020006920F001004FF01C
:101E2000E021086170BD2DE9F0412DED028BB0EE8F
:101E3000408A9FED250A28EE000ABDEEC00A10EE8A
:101E4000104A4FF47A7094FBF0F694FBF0F100FB2B
:101E50001147002504E04FF47A70FFF793FF6D1CE3
:101E6000B542F8DB3846FFF78DFFBDEC028BBDE8CD
:101E7000F0812DE9F041ADF5007D04460E46174690
:101E80004FF400721149684600F033F900250BE069
:101E9000705D80EA242000F0FF083DF8180080EA19
:101EA000042084B2681C85B2BD42F1DB20460DF5EA
:101EB000007DBDE8F081000000E400E018ED00E0E6
:101EC0000000002040420F0000007A446C2200080D
:101ED0002DE9F04105460E46174600240CE0295D29
:101EE0003846FFF732FC00BF80213846FFF7DDFCA3
:101EF0000028F9D0601CC4B2B442F0DBBDE8F08128
:101F00002DE9F04706460C4637464FF00008C1461B
:101F100012205149087034204870A01D887008466E
:101F200090F8028022463946C01C00F09DF800253A
:101F300005E0785D40441FFA80F8681CC5B2A542F0
:101F4000F7DB08F0FF09E01C434901F800901F216E
:101F5000201D414A11542F21601D1154A01DC1B2F2
:101F60003E4A3D48FFF7B4FFBDE8F08770B5FF205B
:101F7000394908704870FD2088700020C870F12031
:101F800008710C204871002088715620C87100200B
:101F9000087233480078487231480088000A887215
:101FA0002F488078C8722E484088000A08732C4851
:101FB000007948732A488088000A88732848807905
:101FC000C8732748C088000A087411220020FFF750
:101FD00050FF054620494D74280A88741021214875
:101FE000FEF7AAFF0A20FFF7F6FE00240CE01A48CD
:101FF000015D1A48FFF7A9FB00BF80211748FFF7D2
:1020000054FC0028F9D0641C132CF0DB0A20FFF7E5
:10201000E2FE10211348FEF791FF70BD70B5044633
:102020000D46E1B20D48FFF790FB00BF80210B4841
:10203000FFF73BFC0028F9D0204670BD10B50446E0
:1020400000BF20210548FFF730FC0028F9D00348E5
:10205000FFF77FFB10BD0000FC02002000100140D4
:102060002400002000080240032A40F2308010F0D3
:10207000030C00F0158011F8013BBCF1020F624423
:1020800098BF11F801CB00F8013B38BF11F8013BB4
:10209000A2F1040298BF00F801CB38BF00F8013B61
:1020A00011F0030300F02580083AC0F0088051F8D1
:1020B000043B083A51F804CBA0E80810F5E7121DDC
:1020C0005CBF51F8043B40F8043BAFF30080D207FB
:1020D00024BF11F8013B11F801CB48BF11F8012BC7
:1020E00024BF00F8013B00F801CB48BF00F8012BEA
:1020F000704710B5203AC0F00B80B1E81850203A74
:10210000A0E81850B1E81850A0E81850BFF4F5AF97
:102110005FEA027C24BFB1E81850A0E8185044BF21
:1021200018C918C0BDE810405FEA827C24BF51F88E
:10213000043B40F8043B08BF7047D20728BF31F882
:10214000023B48BF11F8012B28BF20F8023B48BFD3
:1021500000F8012B70474FF000020429C0F01280F4
:1021600010F0030C00F01E80CCF1040CBCF1020F47
:1021700018BF00F8012BA8BF20F8022BA1EB0C011F
:1021800000F010B85FEAC17C24BF00F8012B00F812
:10219000012B48BF00F8012B70477047704770470C
:1021A0004FF0000200B5134694469646203922BFF0
:1021B000A0E80C50A0E80C50B1F12001BFF4F7AF3B
:1021C000090728BFA0E80C5048BF0CC05DF804EB1D
:1021D000890028BF40F8042B08BF704748BF20F88B
:1021E000022B11F0804F18BF00F8012B7047754685
:1021F00000F02CF8AE4605006946534620F0070073
:10220000854618B020B5FEF725F9BDE820404FF00F
:1022100000064FF000074FF000084FF0000B21F0D0
:102220000701AC46ACE8C009ACE8C009ACE8C0099D
:10223000ACE8C0098D46704710B50446AFF3008086
:102240002046BDE81040FDF7E8BF00000048704799
:10225000FC03002001491820ABBEFEE72600020067
:1022600070474FF04070E1EE100A704700000580A3
:102270000F800A001B801E0014001180338036007E
:102280003C00398028002D80278022006380660072
:102290006C00698078007D807780720050005580E6
:1022A0005F805A004B804E0044004180C380C600CE
:1022B000CC00C980D800DD80D780D200F000F58046
:1022C000FF80FA00EB80EE00E400E180A000A58032
:1022D000AF80AA00BB80BE00B400B180938096009E
:1022E0009C00998088008D80878082008381860190
:1022F0008C01898198019D8197819201B001B581FE
:10230000BF81BA01AB81AE01A401A181E001E581E9
:10231000EF81EA01FB81FE01F401F181D381D60155
:10232000DC01D981C801CD81C781C201400145814D
:102330004F814A015B815E015401518173817601B5
:102340007C01798168016D816781620123812601A9
:102350002C01298138013D8137813201100115811D
:102360001F811A010B810E01040101810383060301
:102370000C03098318031D8317831203300335836D
:102380003F833A032B832E03240321836003658359
:102390006F836A037B837E037403718353835603C5
:1023A0005C03598348034D8347834203C003C583BD
:1023B000CF83CA03DB83DE03D403D183F383F60325
:1023C000FC03F983E803ED83E783E203A383A60319
:1023D000AC03A983B803BD83B783B203900395838D
:1023E0009F839A038B838E0384038183800285827B
:1023F0008F828A029B829E0294029182B382B602ED
:10240000BC02B982A802AD82A782A202E382E602E0
:10241000EC02E982F802FD82F782F202D002D58254
:10242000DF82DA02CB82CE02C402C182438246023C
:102430004C02498258025D825782520270027582B4
:102440007F827A026B826E026402618220022582A0
:102450002F822A023B823E0234023182138216020C
:102460001C02198208020D82078202028C240008D5
:102470000000002030000000C4010008BC24000857
:1024800030000020300A0000E0010008007A030A52
:102490000000000000000000010203040607080914
:1024A00000000000010203040102030406070809FA
:0C24B00000000000000000000000000020
:040000050800018965
:00000001FF
