:020000040800F2
:10000000700C002011050008612800086328000812
:10001000672800086B2800086F280008000000000F
:10002000000000000000000000000000732800082D
:10003000752800080000000077280008DD2B000864
:100040002B0500082B0500082B0500082B050008D0
:100050002B0500082B0500087928000891280008C6
:100060002B0500082B0500082B0500082B050008B0
:100070002B0500082B0500082B0500082B050008A0
:100080002B050008854300082B0500082B050008F8
:100090002B0500082B0500082B0500082B05000880
:1000A0002B0500082B050008352A00082B05000841
:1000B000A9280008BF280008D92800082B05000837
:1000C0002B0500082B0500082B0500082B05000850
:1000D0002B05000855470008BB48000835490008B3
:1000E0002B0500082B0500082B050008792A0008BD
:1000F0000D2A00082B0500082B0500082B05000819
:100100002B0500082B050008932900082B05000883
:100110005B4A0008D54A0008CF290008ED290008ED
:100120002B0500082B0500082B0500082B050008EF
:100130002B0500082B0500082B0500082B050008DF
:100140002B0500082B0500082B0500082B050008CF
:100150002B0500082B0500082B050008A14C000802
:100160002B0500082B0500082B0500082B050008AF
:100170002B0500082B0500082B0500082B0500089F
:100180002B0500082B05000800F002F800F0B2F87B
:100190000AA090E8000C82448344AAF10107DA45E2
:1001A00001D100F0A7F8AFF2090EBAE80F0013F082
:1001B000010F18BFFB1A43F001031847646B0000DE
:1001C000846B00000A444FF0000C10F8013B13F060
:1001D000070408BF10F8014B1D1108BF10F8015BA0
:1001E000641E05D010F8016B641E01F8016BF9D193
:1001F00013F0080F1EBF10F8014BAD1C0C1B09D1EA
:100200006D1E58BF01F801CBFAD505E014F8016B5B
:1002100001F8016B6D1EF9D59142D6D370470000ED
:100220000023002400250026103A28BF78C1FBD8FF
:10023000520728BF30C148BF0B6070476E2904F0D9
:100240007B87702905F0D680662906F0FB84652936
:1002500006F0F884672906F0F5846129AFF3008081
:1002600003681B0A28BF41F08001692904F06C85EE
:10027000642904F06985752904F066856F2905F005
:100280006180782905F0A280E92904F0F987E42942
:1002900004F0F687F52904F0F387EF2905F05E8076
:1002A000F82905F0A1800368DB0928BF41F080012F
:1002B000632905F00A83732905F00F83E32905F00C
:1002C0001A83F32905F01F83002070471FB506F03D
:1002D000AFFC05F06DFB04000020002106F058F88B
:1002E000401C60600020002106F03CF8E0601FBD6B
:1002F00010B510BD05F02FFB1146FFF7E7FF02F028
:100300002BFA05F00BFC03B4FFF7F2FF03BC03F07C
:1003100062FF000000210020724A126842F480321D
:10032000704B1A6000BF6F4A126802F40030491C1B
:1003300010B9B1F5A06FF6D16A4A126812F4003F05
:1003400001D0012000E00020012845D1654A40325B
:10035000126842F08052634B40331A60624A12685E
:1003600042F48042604B1A605E4A083212685D4B6C
:1003700008331A601A46126842F400421A601A469C
:10038000126842F4A0521A60584A1B1F1A601A1FC2
:10039000126842F080721B1F1A6000BF514A126837
:1003A00012F0007FFAD040F20562514B1A604D4ABC
:1003B0000832126822F003024A4B08331A601A46C8
:1003C000126842F002021A6000BF464A0832126800
:1003D00002F00C02082AF8D1704710B545480068B1
:1003E00040F47000434908603E48006840F0010056
:1003F0003C49086000203B490831086039480068E2
:100400003D490840374908603C48091D0860081FFD
:10041000006820F48020091F0860002031490C3159
:100420000860FFF777FF4FF00060324980390860BD
:1004300010BD30B500200022022384460221294C41
:100440000834246804F00C0020B1042806D00828E1
:1004500036D107E02A4C2B4D2C6035E02A4C294D33
:100460002C6031E01F4C241D2468C4F3805C1D4CBB
:10047000241D246804F03F01BCF1000F0AD0224C77
:10048000B4FBF1F4174D2D1D2D68C5F3881504FB41
:1004900005F209E01A4CB4FBF1F4124D2D1D2D6844
:1004A000C5F3881504FB05F20E4C241D2468C4F323
:1004B0000144641C6300B2FBF3F4124D2C6003E0B2
:1004C0000F4C104D2C6000BF00BF064C0834246850
:1004D000C4F303140D4D285D0A4C2468C440094D33
:1004E0002C6030BD0038024000700040042A4004F7
:1004F000003C024088ED00E0FFFFF6FE10300024D3
:100500000024F4000000002000127A000400002003
:100510000948804709480047FEE7FEE7FEE7FEE797
:10052000FEE7FEE7FEE7FEE7FEE7FEE704480549D3
:10053000054A064B70470000DB03000889010008EC
:1005400070060020700C0020700800207008002049
:1005500033490143334A1160704770B500210023CD
:100560000F22C47824B32F4C246804F4E064C4F54B
:10057000E064C4F30721C1F10404E3B20A41447802
:100580009C40E1B28478144021430C07210E264C94
:1005900005786155047804F01F050124AC40057806
:1005A0006D114FF0E02606EB8505C5F8004109E026
:1005B000047804F01F050124AC401C4D0678761128
:1005C00045F8264070BD1A4A0A400243154B1B1FCE
:1005D0001A60704739B1134A121D12680243114B59
:1005E0001B1D1A6006E00F4A121D126882430D4B54
:1005F0001B1D1A607047042808D14FF0E0210969DB
:1006000041F004014FF0E022116107E04FF0E021DA
:10061000096921F004014FF0E022116170470000E8
:100620000000FA050CED00E000E400E080E100E0ED
:1006300080FFFF1F016821F00101016000210160BE
:1006400041608160C160016121214161DD498842D1
:1006500004D13D21DB4A103A91608CE0D949183130
:10066000884205D14FF47461D64A103A916082E015
:10067000D4493031884205D14FF47411D14A103A2F
:10068000916078E0CF494831884205D14FF07461DC
:10069000CC4A103A91606EE0CA496031884204D178
:1006A000C949C84A103AD16065E0C64978318842E4
:1006B00004D1C649C34A103AD1605CE0C1499031C7
:1006C000884204D1C249BF4A103AD16053E0BD49C3
:1006D000A831884205D14FF03D51BA4A103AD16055
:1006E00049E0BC49884204D13D21BA4A083A116028
:1006F00041E0B8491831884205D14FF47461B54AD8
:10070000083A116037E0B3493031884205D14FF4DF
:100710007411B04A083A11602DE0AE494831884260
:1007200005D14FF07461AB4A083A116023E0A94942
:100730006031884204D1A449A64A121F11601AE010
:10074000A4497831884204D1A049A24A121F1160FD
:1007500011E0A0499031884204D19D499D4A121F61
:10076000116008E09B49A831884204D14FF03D5107
:10077000984A121F1160704710B500220268964B0C
:100780001A40CC680B6823434C6923438C6923438C
:10079000CC6923430C6A23434C6A23438C6A23436A
:1007A0004C6B23438C6B23431A430260426922F053
:1007B0000702D1E90B3423431A4342610B694360BA
:1007C0004B6883608B68C36010BD0021016041608D
:1007D0008160C160016141618161C1610162416209
:1007E0008162C162016341638163704721B1026824
:1007F00042F00102026003E0026822F0010202609E
:10080000704721B1026842F40042026003E00268CE
:1008100022F400420260704721B1026842F02002D7
:10082000026003E0026822F020020260704741602B
:1008300070470146486880B2704722B1036843F4AC
:100840000023036003E0036823F4002303600161D5
:10085000704721B1026842F48022026003E002681E
:1008600022F48022026070470AB1016100E0C16099
:100870007047014600200A6812F4002F01D00120C1
:1008800000E000207047014600200A6812F0010FC6
:1008900001D0012000E000207047014600204A6995
:1008A00002F03800704710B503460A46002084461F
:1008B000484CA34202D24349103901E0454910395E
:1008C00012F0005F02D0D1F804C001E0D1F800C0FE
:1008D000424C0CEA040C1CEA020F01D0012000E09B
:1008E000002010BD02463B4B9A4202D235481038D8
:1008F00001E03848103811F0005F03D0374B0B404F
:10090000C36002E0354B0B408360704710B511F0B7
:10091000800F09D022B1436943F08003436103E0B3
:10092000436923F08003436180290BD02AB1036817
:1009300001F01E042343036004E0036801F01E0479
:10094000A343036010BD30B5024600200024844656
:10095000204DAA4202D21B4B103B01E01D4B103B25
:100960001F4D294206D01E2505EAD124156805EA47
:10097000040C02E0556905F0800C11F0005F01D015
:100980005C6800E01C68154D2C400C4204D0BCF1A2
:10099000000F01D0012000E0002030BD02460D4BC9
:1009A0009A4202D20748103801E00A48103811F084
:1009B000005F03D0094B0B40C36002E0074B0B40C4
:1009C00083607047106002403D000020400F00200F
:1009D00000003D20106402403F801CF07D0F7D0F21
:1009E0003C0F3C0F002044490860091D0860091DA8
:1009F0000860091D086041483F491431086070478C
:100A000000213D498279002A3AD00A4612680368DB
:100A10009A430B461A600A1D126803689A430B1D1D
:100A20001A60027911440A6803681A430A60324A5C
:100A30000832126803689A432F4B08331A601A1D54
:100A4000126803689A432C4B0C331A604279102ABF
:100A50000ED11A1F126803681A43274B08331A6015
:100A60001A1D126803681A43234B0C331A600DE0F9
:100A70002149427911440A6803681A430A6005E073
:100A8000027911440A6803689A430A60704700219A
:100A9000016001710C21417100218171704716497B
:100AA000103109680143144A103211607047014641
:100AB0000020114A143212680A4201D0012000E0DD
:100AC000002070470C49143108607047014600202F
:100AD0000022094B1B6803EA0102074B14331B6811
:100AE0000B4202D00AB1012000E000207047024909
:100AF0001431086070470000003C0140FFFF7F0098
:100B000010B504468848844208D10121084600F007
:100B1000F1FA0021012000F0EDFA5EE08348844202
:100B200008D10121022000F0E5FA0021022000F0A6
:100B3000E1FA52E07E48844208D10121042000F00D
:100B4000D9FA0021042000F0D5FA46E07948844221
:100B500008D10121082000F0CDFA0021082000F082
:100B6000C9FA3AE07448844208D10121102000F00B
:100B7000C1FA0021102000F0BDFA2EE06F48844237
:100B800008D10121202000F0B5FA0021202000F03A
:100B9000B1FA22E06A48844208D10121402000F0E5
:100BA000A9FA0021402000F0A5FA16E06548844229
:100BB00008D10121802000F09DFA0021802000F062
:100BC00099FA0AE06048844207D10121801500F0BB
:100BD00091FA0021A01500F08DFA10BD70B50A46FB
:100BE000002100238C4600BF3DE0012404FA01F3FC
:100BF000146804EA030C9C4534D104684E000325B4
:100C0000B540AC43046014794D00AC4005682C43FA
:100C100004601479012C02D01479022C16D1846856
:100C20004E000325B540AC43846054794D00AC4080
:100C300085682C438460446801258D40AC43446042
:100C4000446895798D40ADB22C434460C4684E0031
:100C50000325B540AC43C460D4794D00AC40C568B1
:100C60002C43C460491C1029BFD370BD4FF6FF71DF
:100C700001600021017141718171C17170474FF4B0
:100C800080320A43C261C161C261C269C2697047F0
:100C90000246002013690B4201D0012000E0002031
:100CA00070470146086980B27047024600205369C8
:100CB0000B4201D0012000E0002070470146486946
:100CC00080B2704701837047418370470AB1018346
:100CD00000E0418370474161704742694A40426188
:100CE000704770B500239C464C07E40E02FA04F3EB
:100CF000CD1000F1200454F825404D07EE0E0F25CD
:100D0000B540AC43CE1000F1200545F82640CD108B
:100D100000F1200454F8254044EA030CCD1000F102
:100D2000200444F825C070BD0000024000040240C9
:100D300000080240000C0240001002400014024073
:100D400000180240001C024000200240FA480068DF
:100D500040F00100F84908600020F74908310860B8
:100D6000F5480068F5490840F3490860F448091D52
:100D70000860081F006820F48020091F0860002018
:100D8000ED490C31086070470021EB4A921C11704C
:100D900011460870704710B501460022002300205C
:100DA0004A11012A02D1E44C236808E0022A03D147
:100DB000E14C7034236802E0DF4C7434236801F0A6
:100DC0001F02012494401C4201D0012000E00020B9
:100DD00010BD70B500240025002600BF3120FFF7AC
:100DE000DAFF0646641CB4F5A06F01D0002EF5D0E2
:100DF0003120FFF7D0FF08B1012500E0002528468B
:100E000070BD01460020CC4A106820F0F80040EA8E
:100E1000C10010607047CB49086070470021C64A86
:100E2000703211701170012802D004280AD104E038
:100E30000121C14A7032117005E00521BE4A7032AD
:100E4000117000E000BF00BF7047BF4908607047E5
:100E500030B5DDF80CC041EA82140125C5EB53051D
:100E600044EA0544044344EA0C64B34D2D1D2C6050
:100E700030BDB44908667047820142EA0172AE4B48
:100E800084331A607047AF4988667047AD49C864BB
:100E9000704702460020A84B0833186820F0EC6029
:100EA00042EA01031843A44B083318607047024616
:100EB0000020A14B0833186820F0784042EA010373
:100EC00018439D4B083318607047014600209A4A2A
:100ED0000832106820F003000843106070479648FD
:100EE0000830006800F00C00704701460020924A6C
:100EF0000832106820F0F000084310607047014687
:100F000000208D4A0832106820F4E0500843106039
:100F1000704701460020884A0832106820F460407B
:100F200040EAC10010607047F0B5002100220024A3
:100F300002258C460223804E0836366806F00C01E6
:100F400021B1042905D0082933D105E07F4E066080
:100F500032E07F4E06602FE0774E361D3668C6F3CE
:100F6000805C754E361D366806F03F03BCF1000FFD
:100F70000AD0774EB6FBF3F66F4F3F1D3F68C7F3BD
:100F8000881706FB07F409E0704EB6FBF3F66A4FCC
:100F90003F1D3F68C7F3881706FB07F4664E361DF2
:100FA0003668C6F30146761C7500B4FBF5F606609C
:100FB00002E0664E066000BF00BF5F4E083636682E
:100FC00006F0F0010909634E725C0668D64046607F
:100FD000594E0836366806F4E051890A5D4E725C57
:100FE0004668D6408660544E0836366806F460413E
:100FF000490B584E725C4668D640C660F0BD002171
:1010000000F44072B2F5407F0AD14B4A08321168B1
:1010100021F4F811504A02401143474A0832116046
:10102000454A70321268C0F30B031A43424B7033C7
:101030001A60704744494439086070474249403952
:101040000860704745490860704739B13A4A303204
:1010500012680243384B30331A6006E0364A3032A9
:1010600012688243344B30331A60704739B1324AC8
:10107000343212680243304B34331A6006E02E4A91
:101080003432126882432C4B34331A60704739B1C2
:10109000294A383212680243274B38331A6006E077
:1010A000254A383212688243234B38331A6070471E
:1010B00039B1214A4032126802431F4B40331A6053
:1010C00006E01D4A4032126882431B4B40331A60CF
:1010D000704739B1184A443212680243164B443300
:1010E0001A6006E0144A443212688243124B4433B9
:1010F0001A60704739B1104A1032126802430E4B21
:1011000010331A6006E00C4A1032126882430A4B10
:1011100010331A60704739B1074A1432126802431B
:10112000054B14331A6006E0034A143212688243F6
:10113000014B14331A60704700380240FFFFF6FE7F
:101140001030002400004742800E47420024F40083
:1011500000127A0014000020FFFCFF0F5C014742E0
:1011600029B1574A12680243554B1A6004E0544AA9
:1011700012688243524B1A60704739B1504A0832A4
:10118000126802434E4B08331A6006E04C4A08329C
:10119000126882434A4B08331A60704739B1484A93
:1011A0000C3212680243464B0C331A6006E0444A84
:1011B0000C3212688243424B0C331A60704739B1CB
:1011C0003F4A3832126802433D4B38331A6006E01A
:1011D0003B4A383212688243394B38331A607047C1
:1011E00039B1374A3C3212680243354B3C331A60FE
:1011F00006E0334A3C3212688243314B3C331A607A
:10120000704739B12E4A4032126802432C4B4033AA
:101210001A6006E02A4A403212688243284B403363
:101220001A60704739B1264A483212680243244B8B
:1012300048331A6006E0224A483212688243204B43
:1012400048331A60704739B11D4A4C321268024364
:101250001B4B4C331A6006E0194A4C321268824329
:10126000174B4C331A60704739B1154A0B3A127854
:101270000243134B0B3B1A7008E0114A0B3A1278E9
:10128000C343DBB21A400E4B0B3B1A7070470C483D
:101290005C30006840F0807009495C31086070473C
:1012A00001460020064A0C3A12680A4201D0012089
:1012B00000E00020704702490A39087070470000BA
:1012C0001838024010B50446F948844208D101217B
:1012D0008014FFF763FF0021A014FFF75FFF16E003
:1012E000F448844208D101210014FFF746FF002191
:1012F0002014FFF742FF0AE0EF48844207D10121A2
:10130000C013FFF73AFF0021E013FFF736FF10BDCF
:1013100010B50022028802F441520B884C88234306
:101320008C882343CC8823430C8923434C89234353
:101330008C892343CC8923431A430280838B4FF249
:10134000FF74234083830B8A038210BD2DE9F04F85
:1013500000250223002401270022002694469046FF
:101360009146B0F81CA04FF2400B0AEA0B0AA0F815
:101370001CA04FF0020AA0F820A0858BD1F808A08D
:10138000BAF1020F01D100BF67E0B1F804A0BAF1D1
:10139000000F01D1012700E00227DFF820A3DAF8CF
:1013A00000A01AF4000F09D0DFF810A3DAF800A0AB
:1013B0002AF4000ADFF804B3CBF800A0DFF8FCA29F
:1013C0000AF17C0ADAF800A0CAF38818DFF8ECA268
:1013D0000AF17C0ADAF800A0CAF30279DFF8DCA28D
:1013E000AAF1040ADAF800A00AF03F0CDFF8D0A254
:1013F000BAFBFCFA0AFB08FABAFBF9F6B1F806A048
:10140000BAF5007F0ED14FEA162A0AEB8A0A4FEA94
:101410004A0AD1F808B0BAFBFBFA0AF1050A1FFA2A
:101420008AF20FE04FEA471AB6FBFAFA0AEB8A0A89
:101430004FEA4A0AD1F808B0BAFBFBFA0AF1050AEA
:101440001FFA8AF24FF00A0AB2FBFAF202F0010424
:10145000A2EB040ACAF34F032402022B01DBFF2B89
:1014600001DD02230024B1F806A04AEA040A4AEA90
:10147000030AA0F820A0B1F804A0B1F80CB04AEA21
:101480000B0AB1F802B04AEA0B0AB1F800B04AEA16
:101490000B0A4AF4006A4AEA05058583BDE8F08F25
:1014A0000021018041808180C18001814181818151
:1014B000C181072101827047002101804180818024
:1014C000C1800221816000218181704721B10288A1
:1014D00042F04002028004E002884FF6BF731A40D7
:1014E0000280704721B1828B42F48062828304E0E3
:1014F000828B4FF6FF331A408283704702884FF287
:10150000FF731A40028002880A4302807047B1F5D7
:10151000804F04D1028842F48042028004E00288B5
:101520004BF6FF731A4002807047A1F57E42FF3AE6
:1015300004D0028842F48072028004E002884FF6F0
:10154000FF631A400280704721B1828842F0040292
:10155000828004E082884FF6FB731A4082807047D5
:1015600021B1828842F01002828004E082884FF626
:10157000EF731A408280704730B500220023848BBD
:101580004FF240052C40848302240484828B0C8813
:10159000B4F5007F01D00C8814B94FF4807308E0D3
:1015A0000C88B4F5407F03D00C88B4F5807F00D15F
:1015B00000238C888D892C434D882C431C4344F494
:1015C00000642243828330BD01468889704781814F
:1015D000704721B1028842F40052028004E0028880
:1015E0004DF6FF731A4002807047018841F4805124
:1015F0000180704702460020012901D0108B00E0D5
:10160000908A70470146088A704710B51AB18388DE
:101610000B43838004E08388CC43A4B223408380BF
:1016200010BD30B54FF0000C00234FEA211C0124FF
:1016300004FA0CF4A3B21AB184881C43848004E039
:101640008488DD43ADB22C40848030BD024600204A
:1016500013890B4201D0012000E000207047CA43EB
:101660000281704770B502460020002400238446A2
:1016700001F00F060125B540ACB20B1101259D40CC
:10168000ABB2958805EA030C1589254204D0BCF15C
:10169000000F01D0012000E0002070BD10B5002235
:1016A00001F00F040123A3409AB2D343038110BD7C
:1016B0000030014000380040003C00400838024043
:1016C00000127A0010B50446FE48844208D1012178
:1016D0000846FFF763FD00210120FFF75FFD9DE055
:1016E000B4F1804F08D101210846FFF746FD0021E3
:1016F0000120FFF742FD91E0F348844208D1012127
:101700000220FFF73AFD00210220FFF736FD85E0B9
:10171000EE48844208D101210420FFF72EFD00216C
:101720000420FFF72AFD79E0E948844208D101212D
:101730000820FFF722FD00210820FFF71EFD6DE0C5
:10174000E448844208D101211020FFF716FD002152
:101750001020FFF712FD61E0DF48844208D101212B
:101760002020FFF70AFD00212020FFF706FD55E0AD
:10177000DA48844208D101210220FFF70FFD002141
:101780000220FFF70BFD49E0D548844209D1012131
:101790000804FFF703FD00214FF48030FFF7FEFC43
:1017A0003CE0D048844209D101214804FFF7F6FC0F
:1017B00000214FF40030FFF7F1FC2FE0CA488442CB
:1017C00009D101218804FFF7E9FC00214FF48020B2
:1017D000FFF7E4FC22E0C548844208D10121402003
:1017E000FFF7CBFC00214020FFF7C7FC16E0C04804
:1017F000844208D101218020FFF7BFFC0021802016
:10180000FFF7BBFC0AE0BB48844207D101218015E9
:10181000FFF7B3FC0021A015FFF7AFFC10BD0022BD
:101820000288A84B98420ED0AC4B98420BD0B0F136
:10183000804F08D0A44B984205D0A44B984202D0C8
:10184000A34B984204D14FF68F731A404B881A432A
:10185000A04B984207D0A04B984204D04FF6FF43CC
:101860001A400B891A4302804B68C3620B880385B8
:10187000944B984202D0994B984201D18B7A0386BF
:101880000123838270474FF0FF31416000210180C6
:1018900001814180817270470185828270470A46CA
:1018A000002101884FF68F73194011430180704762
:1018B00041627047C16270470146486A70470146FD
:1018C000088D704721B1028842F00202028004E0D4
:1018D00002884FF6FD731A400280704721B10288DA
:1018E00042F00402028004E002884FF6FB731A40C3
:1018F0000280704721B1028842F08002028004E039
:1019000002884FF67F731A400280704702884FF6B4
:10191000F7731A40028002880A43028070470288E7
:101920004FF6FF431A40028002880A430280704744
:1019300021B1028842F00102028004E002884FF6E1
:10194000FE731A400280704730B54FF0000C002241
:101950000023048C4FF6FE752C400484028C83888F
:10196000B0F818C04FF68F740CEA040CAC1E0CEAE9
:10197000040C0C8844EA0C0C6C1E22408C89224317
:101980004C8822434F4CA04202D0544CA04213D169
:101990004FF6F7742240CC8922434FF6FB74224065
:1019A0008C8822434FF6FF6423404FF6FF542340B8
:1019B0000C8A23434C8A23438380A0F818C08C6888
:1019C0004463028430BD30B54FF0000C0022002388
:1019D000048C4FF6EF752C400484028C8388B0F899
:1019E00018C048F6FF740CEA040C4FF6FF440CEAEA
:1019F000040C0C8824064CEA144C4FF6DF74224089
:101A00008C89240542EA14424C88240542EA144297
:101A10002C4CA04202D0314CA0421BD14FF67F7417
:101A20002240CC89240542EA14424FF6BF7422407A
:101A30008C88240542EA14424FF6FF3423404FF2CB
:101A4000FF7423400C8AA40443EA14434C8AA40480
:101A500043EA14438380A0F818C08C68846302842E
:101A600030BD30B54FF0000C00220023048C4FF63F
:101A7000FF652C400484028C8388B0F81CC04FF6AC
:101A80008F740CEA040C4FF6FC740CEA040C0C88FE
:101A900044EA0C0C4FF6FF5422408C89240642EA9B
:101AA00014424C88240642EA1442064CA04202D05A
:101AB0000A4CA04237D14FF2FF742240CC89240651
:101AC0001AE000000000014000040040000800404F
:101AD000000C0040001000400014004000040140D1
:101AE000004001400044014000480140001800400F
:101AF000001C00400020004042EA14424FF6FF3430
:101B000022408C88240642EA14424EF6FF74234099
:101B10004DF6FF7423400C8A240543EA14434C8A93
:101B2000240543EA14438380A0F81CC08C68C46376
:101B3000028430BD30B5002200239446048C4EF65A
:101B4000FF752C400484038CB0F804C0828B48F6E7
:101B5000FF7422404FF6FF4422400C88240642EADC
:101B600014424DF6FF7423408C89240743EA144342
:101B70004C88240743EA1443FE4CA04202D0FE4C9A
:101B8000A04207D14BF6FF740CEA040C0C8AA405A2
:101B90004CEA144CA0F804C082838C68046403846B
:101BA00030BD002101804180818081608181C181BF
:101BB00001824182704730B50346002084461846B2
:101BC000183001248C401FFA84FC1C8C6FEA0C0531
:101BD000ADB22C401C8409B108290AD100EB610088
:101BE00004684FF68F752C40046004681443046049
:101BF0000DE00C1FA4B200EB6400046848F6FF750A
:101C00002C4004600468150644EA1544046030BDA5
:101C10004163704781637047C163704701647047D7
:101C20000A460021018B4FF68F731940114301833F
:101C300070470A460021018B48F6FF7319401306CE
:101C400041EA1341018370470A460021818B4FF618
:101C50008F7319401143818370470A460021818B9D
:101C600048F6FF731940130641EA13418183704718
:101C70000A460021018B4FF6F77319401143018387
:101C800070470A460021018B4FF2FF73194013067B
:101C900041EA1341018370470A460021818B4FF6C8
:101CA000F77319401143818370470A460021818BE5
:101CB0004FF2FF731940130641EA134181837047C5
:101CC0000A460021018B4FF6FB7319401143018333
:101CD00070470A460021018B4FF6FF331940130667
:101CE00041EA1341018370470A460021818B4FF678
:101CF000FB7319401143818370470A460021818B91
:101D00004FF6FF331940130641EA134181837047B0
:101D10000A460021018B4FF67F731940114301835E
:101D200070470A460021018BC1F30E01130641EAF8
:101D30001341018370470A460021818B4FF67F7360
:101D400019401143818370470A460021818BC1F3FA
:101D50000E01130641EA1341818370470A460021B0
:101D6000018C4FF6FD7319401143018470470A46F8
:101D70000021018C4FF6F77319401143018470471D
:101D80000A460021018C4FF6DF731940130541EA22
:101D90001341018470470A460021018C4FF67F737E
:101DA0001940130541EA1341018470470A46002196
:101DB000018C4FF6FF531940130641EA1341018489
:101DC00070470A460021018C4FF2FF731940130639
:101DD00041EA1341018470470A460021018C4DF607
:101DE000FF731940130741EA13410184704730B56E
:101DF000002301248C40A3B2048CDD43ADB22C40FF
:101E00000484048C02FA01F5ADB22C43048430BD85
:101E100030B5002304248C40A3B2048CDD43ADB262
:101E20002C400484048C02FA01F5ADB22C430484E6
:101E300030BD828B4FF2FF331A408283828B0B06B8
:101E400042EA134282837047F0B50C4615460021E2
:101E500000228C46068C4EF6FF773E400684818B2E
:101E6000028C26074FEA164C40F6FF4631402E06FC
:101E700041EA16411E0741EA164145F6FF76324017
:101E80004CF48056324381830284F0BD828B4FF63E
:101E9000F3731A408283828B0A4382837047F0B5C2
:101EA0000C461546002100228C46068C4FF6FF6733
:101EB0003E400684818B028C26064FEA164C4FF674
:101EC0000C7631401E0545EA164631434FF2FF5667
:101ED00032404CF48076324381830284F0BD028B21
:101EE0004FF2FF331A400283028B0B0642EA134281
:101EF00002837047F0B50C461546002100228C463F
:101F0000068C4FF6EF773E400684018B028C260547
:101F10004FEA164C40F6FF4631401E0741EA164193
:101F20002E0641EA16414FF65F7632404CF010061D
:101F3000324301830284F0BD028B4FF6F3731A40E3
:101F40000283028B0A430283704770B58C461446A5
:101F500000210022058C4FF6FE7635400584018B6A
:101F6000028C4FF60C7529401D0544EA154529439E
:101F700004E0000000000140000401404FF6F57548
:101F80002A404CF001052A430183028470BD70B5DC
:101F900005460C46208850B92389A28861882846C6
:101FA000FFF7D3FFE1882846FFF7C6FF25E020882A
:101FB00004280AD12389A28861882846FFF79AFF5E
:101FC000E1882846FFF78BFF17E0208808280AD110
:101FD0002389A28861882846FFF761FFE1882846A7
:101FE000FFF754FF09E02389A28861882846FFF79C
:101FF0002BFFE1882846FFF71CFF70BD0021018000
:102000004180012181800021C180018170472DE93B
:10201000F04105460C4600260127608808B90226D3
:1020200000E00026A088012801D1022700E0012756
:102030002088A0B92389A28861882846FFF785FFF8
:10204000E1882846FFF778FF23893A46314628463B
:10205000FFF750FFE1882846FFF741FF13E023898F
:10206000A28861882846FFF745FFE1882846FFF7E8
:1020700036FF23893A4631462846FFF766FFE18856
:102080002846FFF759FFBDE8F0810146486B7047CD
:102090000146886B70470146C86B70470146086C63
:1020A00070470A884B881A438B881A43CB881A4397
:1020B0000B891A434B891A438B891A43A0F8442091
:1020C00070470021018041808180C1800181418170
:1020D0008181704731B1B0F8442042F40042A0F849
:1020E000442005E0B0F84420C2F30E02A0F84420DA
:1020F000704721B1828842F00402828004E0828825
:102100004FF6FB731A408280704721B1828842F0FB
:102110000102828004E082884FF6FE731A408280BA
:10212000704710B51AB183890B43838104E083891A
:10213000CC43A4B22340838110BD81827047024604
:102140000020138A0B4201D0012000E000207047DC
:10215000CA430282704710B502460020002384461D
:10216000148A04EA0103948904EA010C23B1BCF146
:10217000000F01D0012000E0002010BDCA43028200
:10218000704741EA0203A0F84830704710B51AB111
:1021900083890B43838104E08389CC43A4B2234029
:1021A000838110BD21B1828842F00802828004E060
:1021B00082884FF6F7731A408280704701894FF684
:1021C000F8721140018170470A46002101894FF6DB
:1021D0008F73194011430181704730B504460D4695
:1021E00029462046FFF7F0FF208940F007002081B4
:1021F00030BD2DE9F04104460D4616461F46602DC0
:1022000006D13B46012231462046FFF773FE05E02A
:102210003B46012231462046FFF797FE29462046DD
:10222000FFF7D2FF208940F007002081BDE8F08150
:1022300010B58C4600210189C9B21C0642EA14443B
:1022400044EA0C042143018110BD2DE9F04105460B
:102250000E4617469846002443463A4631462846DD
:10226000FFF7E6FF2C894FF6F870044044F00704AE
:102270004FF68F70044044F070042C81BDE8F0816B
:10228000F0B504460D4616461F463B4632462946E3
:102290002046FFF7CDFF208940F480402081F0BD2B
:1022A00082884FF68F731A40828082880A43828028
:1022B000704702894FF6F8731A40028102890A4377
:1022C0000281704702894FF67F731A4002810289AA
:1022D0000A430281704770B58C4614461D460021A2
:1022E000002200230189028B038C4FF6F8763140DF
:1022F00041EA0C014FF6FC46324040F201163243EF
:102300004FF6DD7633402E0544EA1646334301810D
:102310000283038470BD21B1828842F080028280F2
:1023200004E082884FF67F731A4082807047A0F8DD
:102330005010704710B50446F848844208D1012176
:102340001020FEF72BFF00211020FEF727FF3EE0B4
:10235000F348844209D101214804FEF70EFF002111
:102360004FF40030FEF709FF31E0EE48844209D116
:1023700001218804FEF701FF00214FF48020FEF7C1
:10238000FCFE24E0E848844209D10121C804FEF79C
:10239000F4FE00214FF40020FEF7EFFE17E0E348C3
:1023A000844209D101210805FEF7E7FE00214FF420
:1023B0008010FEF7E2FE0AE0DD48844207D10121E9
:1023C0002020FEF7EBFE00212020FEF7E7FE10BDE7
:1023D0002DE9FF4705460E460024A14600BFA04652
:1023E000B08900B100BF2C8A24F44054F088044323
:1023F0002C82AC8941F20C608443B0883189084357
:10240000718908430443AC81AC8A24F44074B089D8
:102410000443AC826846FEF787FDC048854202D07F
:10242000C348854202D1DDF80C9001E0DDF8089048
:10243000A88910F4004F08D009EBC90000EB09107F
:1024400031684900B0FBF1F707E009EBC90000EB88
:10245000091031688900B0FBF1F76420B7FBF0F098
:1024600004012009642101FB1078A88910F4004FB1
:1024700008D0322000EBC800B0FBF1F000F00700FC
:10248000044308E0322000EB08106421B0FBF1F0B7
:1024900000F00F0004432C81BDE8FF874FF4165174
:1024A000016000218180C18001810C2141810021D6
:1024B0008181704710B502460020108A20F47060B8
:1024C0000B884C8823438C882343CC8823431843B0
:1024D000108210BD0021018041808180C180704741
:1024E00021B1828942F40052828104E082894DF652
:1024F000FF731A4082817047028B02F47F4202838D
:10250000028B0A430283704721B1828942F4004260
:10251000828103E08289C2F30E028281704721B179
:10252000828A42F40062828204E0828A4FF2FF7360
:102530001A4082827047C1F30802828070470146C8
:102540008888C0F308007047028A4FF6F0731A407B
:102550000282028A0A430282704721B1828942F0D4
:102560000202828104E082894FF6FD731A40828163
:10257000704782894FF2FF731A40828182890A4331
:1025800082817047028A4FF6DF731A400282028A04
:102590000A430282704721B1028A42F480420282D9
:1025A00004E0028A4BF6FF731A4002827047818969
:1025B00041F001018181704721B1828A42F0080215
:1025C000828204E0828A4FF6F7731A408282704753
:1025D000028BD2B20283028B42EA0122028370474D
:1025E00021B1828A42F02002828204E0828A4FF680
:1025F000DF731A408282704721B1828A42F0100252
:10260000828204E0828A4FF6EF731A40828270471A
:10261000828A4FF6FB731A408282828A0A43828240
:10262000704721B1828A42F00202828204E0828AEB
:102630004FF6FD731A408282704710B51AB1838A33
:102640000B43838204E0838ACC43A4B22340838279
:1026500010BD70B503460024A44600250020A1F556
:1026600010666A3E00D100BF1846C1F3421401F063
:102670001F0C012606FA0CF5012C01D10C3004E0E8
:10268000022C01D1103000E014301AB106682E433C
:10269000066002E00668AE43066070BD0246002098
:1026A000B1F5007F00D100BF13880B4201D001209B
:1026B00000E00020704701F40072B2F5007F00D105
:1026C00000BFCA430280704730B502460024002391
:1026D0009C460020A1F510656A3D00D100BFC1F302
:1026E000421C01F01F03012505FA03F3BCF1010FA1
:1026F00002D195892B4007E0BCF1020F02D1158A67
:102700002B4001E0958A2B400C12012505FA04F4B8
:1027100015882C4073B16CB101200CE00010014011
:102720000044004000480040004C00400050004081
:1027300000140140002030BD10B500220023A1F597
:1027400010646A3C00D100BF0A1201249440A3B275
:10275000DC43048010BD0000FDF73FFE00F01EFECC
:102760004FF4A060FDF7F4FE00F01EFEC82000F05C
:102770006CFA4FF47A3001F0E6FA01F02AFB4FF4DC
:102780007A3001F042FB01F085FB4FF4E13001F0BB
:102790009DFB01F0F2FB4FF47A3001F009FC01F0EF
:1027A000A3FE4FF4FA7000F0ACFD052000F08CFAA7
:1027B000022000F0BDFA4FF4FA7000F061FB0A202D
:1027C00000F064FC4FF47A7000F096FC0020214980
:1027D0000870642000F0D9FF40F2FF3000F0E1FF04
:1027E000012000F0BAFF4FF4E13001F0E9F901F007
:1027F0002DFA194801F045FA01F088FA29E0154848
:102800000078022802D1012000F0A7FF11480078CB
:10281000032803D14FF4AF7000F0B7FF0D480078E4
:10282000042806D1642000F0B0FF40F2FF3000F031
:10283000B8FF0848007806280BDB40F2FF3000F0B4
:10284000A4FF40F2FF3000F0ACFF00210348FFF787
:102850006FF8D4E72B00002040420F000014004026
:10286000704700BFFEE700BFFEE700BFFEE700BF06
:10287000FEE770477047704710B50120FEF726F954
:1028800028B10120FEF733F90120FEF71BF910BD36
:1028900010B50220FEF71AF928B10220FEF727F939
:1028A0000220FEF70FF910BD10B501218807FFF7D0
:1028B00052FC18B101218807FFF760FC10BD10B56C
:1028C0000121AB48FFF747FC28B10121A848FFF7D9
:1028D00055FC00F0C0FF10BD10B50121A548FFF761
:1028E0003AFC002854D00121A248FFF747FCA24936
:1028F000087800EBD0714910B0EB410103D1012001
:1029000000F021FE35E09C480078012803D1022028
:1029100000F019FE2DE098480078032802D100F05D
:1029200012FE26E094480078052803D1042000F028
:102930000AFE1EE090480078072803D1052000F029
:1029400002FE16E08C480078092803D1062000F02A
:10295000FAFD0EE0884800780B2803D1072000F02C
:10296000F2FD06E0844800780D2802D1082000F02E
:10297000EAFD814800780D2805DA7F480078401C80
:102980007D49087002E000207B49087000F03DFEA0
:1029900010BD10B501217948FFF7DDFBB0B1012171
:1029A0007648FFF7EBFB002407E0754830F8141079
:1029B00074A002F0BDF9601CC4B2142CF5DB72A047
:1029C00002F0B6F900F080FD00F0B8FD10BD10B5C2
:1029D00001216E48FFF7BFFB38B101216B48FFF7BB
:1029E000CDFB00F028FE00F07FFE10BD10B50121E8
:1029F0006748FFF7B0FB40B101216548FFF7BEFB18
:102A000064480078401C6349087010BD10B501216E
:102A10006148FFF7A0FB60B101215F48FFF7AEFB03
:102A200000215D48FEF784FF002201215A48FFF78C
:102A300078FB10BD10B501215848FFF78CFBD0B1D1
:102A400001215648FFF79AFB55480078012804D128
:102A50004FF47A7000F0E4FE02E0002000F0E0FEA7
:102A60004F480078401C4E490870084600780128FD
:102A700001DD0020087010BD10B52DED088B01217F
:102A80004848FFF768FB00286ED001214548FFF752
:102A900075FB45480088401C43490880084600886B
:102AA00001280BD101214148FEF70EF902213F48D0
:102AB000FEF70AF9002000F05CFE55E03A48008875
:102AC00002284ED101213948FEF7FCF8022137488F
:102AD000FEF7F8F8012000F04CFE00203249088093
:102AE0003348006803F09CFE41EC100BB0EE40AAA6
:102AF000F0EE60AA9FED2F0B53EC102B51EC1A0B4C
:102B000003F036FD41EC100BB0EE409AF0EE609A07
:102B10009FED2A0B53EC102B51EC190B03F094FE94
:102B200041EC100BB0EE408AF0EE608A9FED230B73
:102B300053EC102B51EC180B03F084FF41EC100BFD
:102B4000B0EE40BAF0EE60BA51EC1B0B03F036FC6D
:102B50001C49086001201C490870002014490860C5
:102B600002E0002010490880BDEC088B10BD000079
:102B7000000400400008004038000020000C004025
:102B800008030020256420000D0A0000001000400A
:102B9000001400402B0000200004014000480140C8
:102BA00039000020001800403600002000040240D8
:102BB000400000200000000079D8624100000000C1
:102BC0000000594048000020440000200246002137
:102BD00000E0491C9142FCD388B270470120FE49B5
:102BE0000870704770B503460020FB490870A820A4
:102BF00003FB00F1B1F1807F00D31DE021F07F40A5
:102C0000401E4FF0E022506150170F22002807DAD3
:102C10001407260EF14C00F00F052D1F665503E03A
:102C20001407250EEE4C255400BF00204FF0E02283
:102C300090610720106100BF00BFE74800780028BE
:102C4000FBD00020E449087070BD30B50446002573
:102C500000BF04E04FF47A70FFF7C4FF6D1CA5427B
:102C6000F8D330BD1FB504461C208DF80C000120A0
:102C70008DF80D008DF80E008DF80F0003A8FDF7FC
:102C80006CFC01210846FEF713FA4FF08040FEF776
:102C900019FD01940020ADF80000ADF80800ADF872
:102CA000020069464FF08040FEF7B9FD0121880718
:102CB000FFF74EFA012211469007FFF732FA012181
:102CC0008807FEF735FE1FBD1FB504461D208DF891
:102CD0000C0002208DF80D008DF80E0001208DF8FB
:102CE0000F0003A8FDF739FC01210220FEF7E0F9EF
:102CF000BC48FEF7E7FC600001904AF20F40ADF8D7
:102D000000000020ADF80800ADF802006946B548A3
:102D1000FEF785FD0121B348FFF71AFA012211469B
:102D2000B048FFF7FEF90121AE48FEF701FE1FBDD6
:102D30001FB504461E208DF80C0001208DF80D00F3
:102D40008DF80E008DF80F0003A8FDF706FC012199
:102D50000420FEF7ADF9A448FEF7B4FC04EB8400B0
:102D60004000019042F2CF00ADF800000020ADF825
:102D70000800ADF8020069469B48FEF750FD0121AE
:102D80009948FFF7E5F9012211469748FFF7C9F97D
:102D900001219548FEF7CCFD1FBD08B51E208DF81A
:102DA000000003208DF8010000208DF802000120B2
:102DB0008DF803006846FDF7D0FB012211468A48D2
:102DC000FFF7AFF901218848FEF7B2FD08BD30B525
:102DD0008BB004460D4601210420FEF769F98248B4
:102DE000FEF770FC0794681E80B2ADF81800002052
:102DF000ADF82000ADF81A0006A97B48FEF70FFDDC
:102E000001A8FEF7CEFE6020ADF804000120ADF869
:102E100006004FF4FA7003900020ADF8100001A9ED
:102E20007148FEF791FD08216F48FEF721FF01214F
:102E30006D48FEF75FFD01216B48FFF789F901221C
:102E400011466948FFF76DF901216748FEF770FDEB
:102E5000022206216548FDF744FF40200990022028
:102E60008DF8280000208DF829008DF82A00012017
:102E70008DF82B0009A95D48FDF7B0FE0BB030BD01
:102E80001FB5044632208DF80C0003208DF80D008C
:102E90008DF80E0001208DF80F0003A8FDF75DFBF3
:102EA00001210820FEF704F95148FEF70BFC6000F1
:102EB00001904AF20F40ADF800000020ADF8080084
:102EC000ADF8020069464A48FEF7A9FC01214848CE
:102ED000FFF73EF9012211464548FFF722F901218B
:102EE0004348FEF725FD002042490870424908701A
:102EF000424908701FBD08B532208DF8000003203C
:102F00008DF8010000208DF8020001208DF80300EB
:102F10006846FDF722FB012211463548FFF701F90B
:102F200001213348FEF704FD08BD30B58BB00446DF
:102F30000D4601210820FEF7BBF82D48FEF7C2FB25
:102F40000794681E80B2ADF818000020ADF820008C
:102F5000ADF81A0006A92648FEF761FC01A8FEF7A5
:102F600020FE6020ADF804000120ADF80600C82066
:102F700003900020ADF8100001A91D48FEF7E4FC05
:102F800008211B48FEF774FE01A91948FEF71BFD36
:102F900008211748FEF775FE01A91548FEF761FDE7
:102FA00008211348FEF778FE01A91148FEF7C2FD7B
:102FB00008210F48FEF779FE01210D48FEF79AFC23
:102FC00001210B48FFF7C4F8012211460848FFF71A
:102FD000A8F80121064813E03A00002018ED00E0AF
:102FE00000E400E00004004000080040000402404B
:102FF000000C00403B0000203C0000203D00002071
:10300000FEF796FC02220021D948FDF76AFE022253
:103010000121D748FDF765FE02221146D448FDF78D
:1030200060FE02220321D248FDF75BFE0F200990CB
:1030300002208DF8280000208DF829008DF82A0044
:1030400001208DF82B0009A9C948FDF7C7FD0BB079
:1030500030BDC8480078401CC64908700846007852
:103060003C2806D100200870C3480078401CC249A3
:103070000870C14800783C2807D10020BE4908707C
:10308000BE480078401CBD49087070471FB5044613
:1030900036208DF80C0002208DF80D008DF80E0002
:1030A00001208DF80F0003A8FDF757FA0121102029
:1030B000FDF7FEFFB248FEF705FB04EB840040007D
:1030C000019042F2CF00ADF800000020ADF80800FA
:1030D000ADF802006946AA48FEF7A1FB0121A84805
:1030E000FFF736F801221146A548FFF71AF801212B
:1030F000A348FEF71DFC1FBD1FB5044637208DF801
:103100000C0002208DF80D008DF80E0001208DF8C6
:103110000F0003A8FDF721FA01212020FDF7C8FFC9
:103120009848FEF7CFFA600001904AF20F40ADF8E0
:1031300000000020ADF80800ADF802006946914893
:10314000FEF76DFB01218F48FFF702F801221146BF
:103150008C48FEF7E6FF01218A48FEF7E9FB1FBD18
:103160001FB504462C208DF80C0001208DF80D00B1
:103170008DF80E008DF80F0003A8FDF7EEF9012180
:103180000220FDF7A6FF8048FEF79CFA0194A720D5
:10319000ADF800000020ADF80800ADF80200694667
:1031A0007948FEF73CFB01217748FEF7D1FF012269
:1031B00011467548FEF7B5FF00217348FEF7B8FBCE
:1031C0001FBD1FB5044618208DF80C0002208DF895
:1031D0000D008DF80E0001208DF80F0003A8FDF7FB
:1031E000BCF901210804FDF774FF6848FEF76AFA8C
:1031F00004EB84004000019044F29F10ADF8000001
:103200000020ADF80800ADF8020069465F48FEF7FF
:1032100006FB01215D48FEF79BFF012211465B483A
:10322000FEF77FFF01215948FEF782FB1FBD1FB546
:10323000044619208DF80C0001208DF80D008DF842
:103240000E008DF80F0003A8FDF787F9012148044F
:10325000FDF73FFF4E48FEF735FA04EB84004000CF
:10326000019044F29F10ADF800000020ADF8080076
:10327000ADF8020069464648FEF7D1FA01214448FC
:10328000FEF766FF012211464148FEF74AFF012181
:103290003F48FEF74DFB1FBD1FB504461A208DF8B1
:1032A0000C0001208DF80D008DF80E008DF80F0038
:1032B00003A8FDF752F901218804FDF70AFF3548FC
:1032C000FEF700FA04EB84004000019044F29F10E6
:1032D000ADF800000020ADF80800ADF80200694626
:1032E0002C48FEF79CFA01212A48FEF731FF012203
:1032F00011462848FEF715FF01212648FEF718FB66
:103300001FBD1FB504462B208DF80C0003208DF83F
:103310000D0001208DF80E008DF80F0003A8FDF7B9
:103320001CF901214020FDF7C3FE1B48FEF7CAF936
:1033300004EB84004000019042F2CF00ADF80000A1
:103340000020ADF80800ADF8020069461248FEF70B
:1033500066FA01211048FEF7FBFE012211460E48D5
:10336000FEF7DFFE01210C48FEF7E2FA1FBD000068
:10337000000002403B0000203C0000203D000020F7
:1033800000100040001400400004014000400140D3
:1033900000440140004801400018004010B50121E0
:1033A0007F20FDF752FE10BD1CB501210220FDF764
:1033B0004CFE01208DF8040000208DF806008DF8E9
:1033C00005008DF80700032000906946F748FDF7D7
:1033D00005FC0121F548FDF775FC0221F348FDF7D6
:1033E00071FC1CBD10B5F248007838B10020F049DE
:1033F00008700121ED48FDF767FC06E00120EC496B
:1034000008700121E948FDF75DFC10BD10B5E948E1
:10341000007838B10020E74908700221E348FDF741
:1034200053FC06E00120E34908700221DF48FDF764
:1034300049FC10BD10B502460023002000BF28E063
:10344000184621E002EB8004D4ED000A441C02EB94
:10345000840494ED001AF4EEC10AF1EE10FA11DDC5
:1034600002EB800494ED000A441C02EB8404D4EDCA
:10347000000A02EB8004C4ED000A441C02EB840441
:1034800084ED000A441CE0B24C1E8442DADC5C1C71
:10349000E3B28B42D4DB10BD70B504460D4600216B
:1034A0008C460020294603E0665CB4444E1CF1B211
:1034B0009142F9DD6FEA0C00060E1E70060C5E707C
:1034C000060A9E70D87070BD18B500241220BA4943
:1034D000087034204870562088707820C870B7482B
:1034E0000068000E0871B5480068000C4871B348C8
:1034F0000068000A8871B1480068C871082404E0B7
:103500000020AD490855601CC4B2182CF8DB6B468E
:1035100017220021A848FFF7BFFF9DF80000A64929
:1035200008769DF8010048769DF8020088769DF89F
:103530000300C8761C20A249087018BD9E48007878
:10354000A04908807047F8B50446002500271220DE
:103550009D49087034204870562088707820C870C3
:10356000200E0871200C4871200A8871CC71012C42
:1035700007D1002008724872887294480078C87297
:10358000934E022C00D1934E032C00D1924E042C6A
:1035900000D1924E052C00D1914E062C00D1914EB7
:1035A000072C00D1904E082C00D1904E00250C27FE
:1035B0000EE036F8150000128349C85536F815009C
:1035C000C1B2814A781C1154B81CC7B2681CC5B27C
:1035D000142DEEDB6B46352200217B48FFF75CFFA4
:1035E0009DF80000784981F836009DF8010081F8C7
:1035F00037009DF8020081F838009DF8030081F83B
:1036000039003A207A490870F8BD6F480078794946
:103610000880704710B503468C4600200CF0FF016F
:1036200004E05C5C0444E0B24C1CE1B29142F8DD81
:10363000C443E0B210BD00B5EE206F490870487079
:10364000502088706D480078C8706C4840780871C8
:103650006A48807848716948C078887167480079FD
:10366000C8716648407908726548007848726448B5
:103670004078887262488078C8726148C078087360
:103680005F48007948735E48407988730E220321B1
:103690005948FFF7BFFF5849C8735A480078087463
:1036A0005848407848745748807888745548C0789E
:1036B000C87454480079087552484079487500200C
:1036C00088751920C875172210214B48FFF7A2FFF3
:1036D00049490876412048764F2088760020C876F0
:1036E0001C204949087000BD43480078474988803C
:1036F000704730B503460C4600218C460020214619
:1037000003E05D5CAC444D1CE9B29142F9DD6FEA27
:103710000C0030BD1FB502460020535C1B06009311
:103720004B1CD35C1B0401938B1CD35C1B020293C8
:10373000CB1CD35C0393DDE900342343029C234379
:10374000039C43EA040004B010BD020E0A70020C90
:103750004A70020A8A70C87070470146002000BF94
:1037600004E01F4A22F81010421CD0B21428F8DBE3
:1037700070470146002000BF04E0184A22F81010EC
:10378000421CD0B21428F8DB70470146002000BF6D
:1037900004E0104A22F81010421CD0B21428F8DBC2
:1037A00070470146002000BF37E0000000040240DF
:1037B0004C0000204D000020780200202400002052
:1037C00028000020044C0040940200202C0000201F
:1037D000080300204403002080030020BC030020D5
:1037E000F80300203404002070040020AC04002002
:1037F0002900002004440040CE0200206C0000207C
:10380000660000204E0000202A0000200010014029
:10381000D74A22F81010421CD0B21428F8DB7047A7
:103820000146002000BF04E0D24A22F81010421CDA
:10383000D0B21428F8DB704730B50146C1F34033ED
:103840000BB9084606E08CB2641E43F6FF7525EA04
:103850000402504230BD10B58CB01822C6A106A893
:1038600001F074FB00241FE04FF48051C848FDF7BD
:103870002BFA4FF4FA70FFF7A9F906A9085D00F0DA
:10388000B3FE0DF80400641C06A9085D00F0ACFE50
:103890000DF804004FF48051BD48FDF713FA4FF4C2
:1038A000FA70FFF793F9641C152CDDDD9DF802001A
:1038B000000200B29DF803100843B64908809DF845
:1038C0000400000200B29DF805100843B149488089
:1038D0009DF80600000200B29DF807100843AD49AC
:1038E00088809DF80800000200B29DF80910084386
:1038F000A94908809DF80A00000200B29DF80B104B
:103900000843A54948809DF80C00000200B29DF8CC
:103910000D100843A04988809DF80E00000200B2F7
:103920009DF80F1008439D4908809DF81000000283
:1039300000B29DF811100843984948809DF8120084
:10394000000200B29DF81310084394498880924801
:103950000088C0F30D009049088008464088C0F3F5
:103960000D00488008468088C0F30D008880894893
:103970000088C0F30D008749088008464088C0F3DE
:103980000D00488008468088C0F30D008880834879
:103990000088C0F30D008149088008464088C0F3C4
:1039A0000D00488008468088C0F30D0088807A4961
:1039B000B1F90000FFF740FF77490880B1F9020034
:1039C000FFF73AFF74494880B1F90400FFF734FF6C
:1039D000714988806F49B1F90000FFF72DFF6D49EB
:1039E0000880B1F90200FFF727FF6A494880B1F962
:1039F0000400FFF721FF674988806849B1F900009A
:103A0000FFF71AFF65490880B1F90200FFF714FFBC
:103A100062494880B1F90400FFF70EFF5F498880D2
:103A20005D480088000A5E4908705B48008848705D
:103A300059484088000A887057484088C8705648DE
:103A40008088000A0871544880884871514800886D
:103A5000000A544908704F48008848704D48408813
:103A6000000A88704B484088C8704A488088000A1D
:103A7000087148488088487148480088000A4A49C7
:103A8000087046480088000A487044484088000A88
:103A9000887042484088000AC87040488088000A00
:103AA00008713E488088000A48713B48B0F9000020
:103AB00000EE100AB8EEC00ADFED3C0A80EE201AD4
:103AC0009FED3B0A21EE000A3A4880ED000A324899
:103AD000B0F9020000EE100AB8EEC00ADFED330ABA
:103AE00080EE201A9FED320A21EE000A314880ED67
:103AF000010A2948B0F9040000EE100AB8EEC00A25
:103B0000DFED2A0A80EE201A9FED290A21EE000A35
:103B1000284880ED020A1F48B0F9000000EE100AA4
:103B2000B8EEC00ADFED240A20EE200A234880ED1B
:103B3000000A1848B0F9020000EE100AB8EEC00AF8
:103B4000DFED1D0A20EE200A1C4880ED010A114815
:103B5000B0F9040000EE100AB8EEC00ADFED160A54
:103B600020EE200A154880ED020A0CB010BD0000BE
:103B700080030020080300200400060008000A005B
:103B80000C000E001000120014003C0000000000A9
:103B9000000402405A000020540000206000002071
:103BA000660000206C0000207200002000007A44B3
:103BB00073682140E80400205709963DF404002072
:103BC00010B586B0044601210846FDF73EFA0121F2
:103BD0001020FDF77EFA07220921FE48FDF781F843
:103BE00007220A21FB48FDF77CF84FF4C0600490DF
:103BF00000208DF8150001208DF816008DF81700B3
:103C000002208DF8140004A9F248FCF7E7FF0094A5
:103C10000020ADF80400ADF80600ADF80800ADF8DE
:103C20000C000C20ADF80A006946EB48FEF7D0FB0B
:103C30000121E948FEF754FC4021E748FEF73BFD2F
:103C40002021E548FEF737FD06B010BD08B5252058
:103C50008DF8000001208DF801008DF802008DF82C
:103C600003006846FCF779FC012240F22661DA483D
:103C7000FEF7EFFC012240F22551D748FEF7E9FCA0
:103C800008BD10B586B0044601210846FDF7DDF9F0
:103C900001214804FDF70CFA07220221CD48FDF767
:103CA00020F807220321CB48FDF71BF80C200490D5
:103CB00000208DF815008DF8160001208DF81700F2
:103CC00002208DF8140004A9C248FCF787FF009475
:103CD0000020ADF80400ADF80600ADF80800ADF81E
:103CE0000C000C20ADF80A006946BC48FEF770FBDA
:103CF0000121BA48FEF7F4FB4021B848FEF7DBFC8F
:103D00002021B648FEF7D7FC06B010BD08B5262026
:103D10008DF8000001208DF8010002208DF80200CE
:103D200001208DF803006846FCF717FC012240F2E1
:103D30002661AA48FEF78DFC002240F22551A748D3
:103D4000FEF787FC08BD10B586B004460121084681
:103D5000FDF77BF901218804FDF7AAF907220A2162
:103D60009F48FCF7BEFF07220B219D48FCF7B9FFD7
:103D70004FF44060049000208DF815008DF8160077
:103D800001208DF8170002208DF8140004A9944832
:103D9000FCF724FF00940020ADF80400ADF8060005
:103DA000ADF80800ADF80C000C20ADF80A0069462B
:103DB0008C48FEF70DFB01218A48FEF791FB40215C
:103DC0008848FEF778FC20218648FEF774FC06B090
:103DD00010BD08B527208DF8000002208DF80100E5
:103DE00001208DF802008DF803006846FCF7B5FB52
:103DF000002240F226617B48FEF72BFC012240F2B4
:103E000025517848FEF725FC08BD10B586B004465C
:103E100001210846FDF719F90121C804FDF748F909
:103E2000082200216B48FCF75CFF08220121694849
:103E3000FCF757FF0320049000208DF815008DF843
:103E4000160001208DF8170002208DF8140004A937
:103E50006048FCF7C3FE00940020ADF80400ADF804
:103E60000600ADF80800ADF80C000C20ADF80A0013
:103E700069465D48FEF7ACFA01215B48FEF730FB6E
:103E800040215948FEF717FC20215748FEF713FC44
:103E900006B010BD08B534208DF8000002208DF862
:103EA000010001208DF802008DF803006846FCF740
:103EB00054FB012240F226614B48FEF7CAFB002268
:103EC00040F225514848FEF7C4FB08BD10B586B046
:103ED000044601210846FDF7B8F801210805FDF761
:103EE000E7F808220C214148FCF7FBFE08220221DA
:103EF0003F48FCF7F6FE4FF48050049000208DF808
:103F000015008DF8160001208DF8170002208DF89D
:103F1000140004A93548FCF761FE04200490002039
:103F20008DF815008DF8160001208DF8170002207D
:103F30008DF8140004A92E48FCF750FE00940020D0
:103F4000ADF80400ADF80600ADF80800ADF80C00BF
:103F50000C20ADF80A0069462648FEF739FA01211F
:103F60002448FEF7BDFA40212248FEF7A4FB202199
:103F70002048FEF7A0FB06B010BD08B535208DF82F
:103F8000000001208DF801008DF802008DF803007B
:103F90006846FCF7E2FA012240F226611548FEF776
:103FA00058FB012240F225511248FEF752FB08BD92
:103FB00010B586B0044601210420FDF746F8012122
:103FC0002020FDF786F8082206210848FCF789FE24
:103FD000082211E0000002400010014000440040AF
:103FE0000004024000480040004C0040000802402D
:103FF000000C0240005000400721EA48FCF771FE27
:10400000C020049000208DF8150001208DF81600C6
:104010008DF8170002208DF8140004A9E148FCF780
:10402000DDFD00940020ADF80400ADF80600ADF809
:104030000800ADF80C000C20ADF80A006946DA481B
:10404000FEF7C6F90121D848FEF74AFA4021D648C2
:10405000FEF731FB2021D448FEF72DFB06B010BD42
:1040600008B547208DF8000001208DF801000320DD
:104070008DF8020001208DF803006846FCF76DFA08
:10408000002240F22661C848FEF7E3FA002240F21F
:104090002551C548FEF7DDFA08BD10B50446C348F2
:1040A000848000BF4021C148FEF7F8FA0028F9D00B
:1040B00010BD10B50446BE48048000BF4021BC4876
:1040C000001FFEF7EBFA0028F8D010BD10B504462B
:1040D000B848048000BF4021B648001FFEF7DEFA52
:1040E0000028F8D010BD10B50446B348048000BFC6
:1040F0004021B148001FFEF7D1FA0028F8D010BDCA
:1041000010B50446AD48848000BF4021AB48FEF79F
:10411000C5FA0028F9D010BD10B50446A248001D0C
:10412000048000BF4021A048FEF7B8FA0028F9D06B
:1041300010BD10B500BF20219C48FEF7AFFA002843
:10414000F9D09A488088C4B2204610BD10B500BF8F
:1041500020219748001FFEF7A1FA0028F8D09448C4
:104160000088C4B2204610BD10B500BF2021914880
:10417000001FFEF793FA0028F8D08E480088C4B2DA
:10418000204610BD10B500BF20218B48001FFEF750
:1041900085FA0028F8D088480088C4B2204610BDAF
:1041A00010B500BF20218548FEF778FA0028F9D025
:1041B00082488088C4B2204610BD10B500BF2021BF
:1041C0007948FEF76BFA0028F9D07748001D00887F
:1041D000C4B2204610BD014600BF704770B504460A
:1041E0000D4600BF40217048FEF758FA0028F9D06C
:1041F000E0B26D49091D0880204670BD70B50546C6
:104200000E46002400BF04E0285DFFF746FF601C57
:1042100084B2B442F8DB70BD70B505460E4600248A
:1042200000BF04E0285DFFF744FF601C84B2B44285
:10423000F8DB70BD70B505460E46002400BF04E0F3
:10424000285DFFF743FF601C84B2B442F8DB70BD09
:1042500070B505460E46002400BF04E0285DFFF758
:1042600042FF601C84B2B442F8DB70BD70B50546F5
:104270000E46002400BF04E0285DFFF741FF601CEC
:1042800084B2B442F8DB70BD70B505460E4600241A
:1042900000BF04E0285DFFF73FFF601C84B2B4421A
:1042A000F8DB70BD0FB410B59AB01DA8009001A83E
:1042B000009A1C9900F02AFD044600200090A1B24B
:1042C00001A8FFF7E1FF20461AB010BC5DF814FB0F
:1042D00000B591B001214805FCF7B7FE3848FCF75E
:1042E000A9F902A8FCF771FA4FF00060029030487B
:1042F000039034480490402005903220069000201E
:1043000007904FF480600890002009900A900B906D
:104310004FF400300C9000200D9001200E900020F2
:104320000F90109002A92648FCF726FA0121244894
:10433000FCF75CFA012210212148FCF7E7FA112072
:104340008DF8040002208DF8050000208DF806008D
:1043500001208DF8070001A8FCF7FFF802A9184812
:10436000FCF70AFA01211648FCF740FA01228021E5
:104370000F48001FFEF761F913491148FCF7B2FA24
:1043800011B000BD10B511490D48FCF7DCFA38B189
:104390000D490B48FCF7A6FA00210948FCF726FA5C
:1043A00010BD000000080240001401400010014050
:1043B0000444004004480040044C004000500040C9
:1043C000A060024078000020000020200080202013
:1043D00000B587B001210803FCF77BFE01210846E8
:1043E000FCF733FE05221146D448FCF77AFC05227F
:1043F0000621D248FCF775FC05220721CF48FCF7BF
:1044000070FC02208DF8180000208DF81A000120A1
:104410008DF81B0002208DF81900E020059005A9F9
:10442000C648FCF7DBFB01208DF8180000208DF852
:104430001A008DF81B0002208DF81900102005903D
:1044400005A9BE48FCF7CAFB1021BC48FCF73AFCA2
:10445000BB48FCF737FF0020ADF80000ADF80400C2
:104460000220ADF806000120ADF808004002ADF8CA
:104470000A001820ADF80C000020ADF80E0007204F
:10448000ADF810004FF48270ADF802006946AC48F8
:10449000FCF73EFF0121AA48FDF718F807B000BD60
:1044A00008B523208DF8000001208DF801000020C0
:1044B0008DF8020001208DF803006846FCF74DF8E6
:1044C00008BD014600BF9E48008910F0020FFAD0D7
:1044D0009B48818100BF9A48008910F0010FFAD0F3
:1044E00097488089C0B2704700B587B00121880322
:1044F000FCF7DEFD01210220FCF7A7FD05220D21BE
:104500009048FCF7EEFB05220E218E48FCF7E9FBF4
:1045100005220F218B48FCF7E4FB02208DF81800E0
:1045200000208DF81A0001208DF81B0002208DF864
:1045300019004FF46040059005A98248FCF74EFB36
:1045400001208DF8180000208DF81A0001208DF848
:104550001B0002208DF81900C002059005A97948BA
:10456000FCF73CFB4FF480517648FCF7ABFB7648F8
:10457000FCF7A8FE0020ADF80000ADF80400022012
:10458000ADF806000120ADF808004002ADF80A00C1
:104590002820ADF80C000020ADF80E000720ADF883
:1045A00010004FF48270ADF8020069466648FCF7CF
:1045B000AFFE01216448FCF789FF07B000BD08B5D4
:1045C00024208DF8000002208DF801008DF80200F3
:1045D00001208DF803006846FBF7BFFF0122602130
:1045E0005948FDF71EF808BD014600BF564808307F
:1045F000008810F0020FF9D053480C30018000BF42
:1046000051480830008810F0010FF9D04E480C30A6
:104610000088C0B2704700B587B00121C803FCF71D
:1046200047FD01210420FCF710FD06220A2147481E
:10463000FCF757FB06220B214448FCF752FB0622ED
:104640000C214248FCF74DFB02208DF81800002099
:104650008DF81A0001208DF81B0002208DF819003A
:104660004FF4E050059005A93848FCF7B7FA01204F
:104670008DF8180000208DF81A0001208DF81B001D
:1046800002208DF819000003059005A92F48FCF7BA
:10469000A5FA4FF400512D48FCF714FB2C48FCF709
:1046A00011FE0020ADF80000ADF80400ADF80600E2
:1046B000ADF808004FF40070ADF80A003820ADF8EE
:1046C0000C000020ADF80E000720ADF810004FF4EC
:1046D0008270ADF8020069461D48FCF719FE012101
:1046E0001B48FCF7F3FE07B000BD08B533208DF87A
:1046F000000000208DF8010002208DF8020001204A
:104700008DF803006846FBF728FF08BD014600BF8F
:104710000F480830008810F0020FF9D00C480C3018
:10472000018000BF0A480830008810F0010FF9D05E
:1047300007480C300088C0B27047000000000240FB
:1047400000300140000402400038004000080240F0
:10475000003C00402DE9F04100250024002640F2F5
:104760002661F748FDF7B0FF08B340F22661F44830
:10477000FDF7E2FF4021F248FDF79DFFF148007888
:10478000F149097888420ADAEE4801780078401C3D
:10479000EC4A1070ED48475CE948878007E001204B
:1047A000E8490870EA480088401CE949088040F25E
:1047B0002551E348FDF788FF002874D040F22551C9
:1047C000DF48FDF7B9FF2021DD48FDF774FFDC4825
:1047D0008088C5B2DF480078022809DADD48017810
:1047E0000078401CDB4A1070DB484554BDE8F0817E
:1047F000D848007802281CD1D7480078FF280ED16D
:10480000D5484078FF280AD1012D08D1D148017838
:104810000078401CCF4A1070CF48455408E0CE487D
:104820004078CD4908700846807848700846857001
:10483000DCE7C8480078022835DDC64800782D2816
:1048400031DAC44801780078401CC24A1070C2486E
:104850004554104600782D2825DB002404261DE051
:10486000122C09D0BC49701C085C895D40EA01200B
:10487000BA4921F814000AE0122C08D1B649701C7C
:10488000085C895D40EA0120B44921F81400B01C9D
:10489000C6B20120B2490870601CC4B2142CDFDB20
:1048A0000020AC4908700821A548FDF7F7FE10B1BB
:1048B000A348FDF744FE00BF98E710B540F226611B
:1048C000A848FDF701FFE8B140F22661A548FDF7D1
:1048D00033FF4021A348FDF7EEFEA3480078A3492B
:1048E000097888420BDAA04801780078401C9E4A7B
:1048F00010709F48445C9B48001D048002E001202A
:104900009949087040F225519648FDF7DDFE40B107
:1049100040F225519348FDF70FFF20219148FDF704
:10492000CAFE08218F48FDF7B9FE10B18D48FDF78A
:1049300006FE10BD70B500240025002640F2266159
:104940008C48FDF7C1FE48B140F226618948FDF769
:10495000F3FE40218748FDF7AEFE70BD40F22551C1
:104960008448FDF7B1FE00286DD040F22551814802
:10497000FDF7E2FE20217F48FDF79DFE7D48001DEA
:104980000088C4B27C480078042808DA7A480178A4
:104990000078401C784A107078484454DDE7764827
:1049A0000078042825D175480078122814D173485E
:1049B0004078342810D17148807856280CD16F483F
:1049C000C078782808D16C4801780078401C6A4A81
:1049D00010706A4844540BE0684840786749087092
:1049E0000846807848700846C07888700846C470C9
:1049F000B3E761480078042825DD5F4800781C286B
:104A000021DA5D4801780078401C5B4A10705B48F1
:104A10004454104600781C2815D11722002157480D
:104A2000FEF767FE054618215448FEF773FE06465A
:104A3000B54205D104215148FEF76CFE504908608B
:104A400000204D49087008214A48FDF727FE10B1A3
:104A50004848FDF774FD00BF7FE710B540F22661BE
:104A60004848FDF731FEE8B140F226614548FDF7C0
:104A700063FE40214348FDF71EFE4348007843494A
:104A8000097888420BDA404801780078401C3E4A99
:104A900010703F48405C3B49091D088002E001203E
:104AA0003949087040F225513648FDF70DFE40B1F6
:104AB00040F225513348FDF73FFE20213148FDF7F4
:104AC000FAFD08212F48FDF7E9FD10B12D48FDF74B
:104AD00036FD10BD2DE9F0410024002600270025F9
:104AE00040F226612B48FDF7EFFD40B140F2266110
:104AF0002848FDF721FE40212648FDF7DCFD40F265
:104B000025512448FDF7E0FD002874D040F22551DE
:104B10002048FDF711FE20211E48FDF7CCFD1D4861
:104B20008088C4B21C480078042839DA1A48017811
:104B30000078401C184A107018484454BDE8F081B1
:104B400000100140710200202A000020CE02002047
:104B50002E000020700200200C0500200803002019
:104B60002C00002000440040720200202900002098
:104B7000940200200048004073020020D405002069
:104B800024000020004C0040740200202800002077
:104B9000780200200050004075020020F00500203F
:104BA00053480078042827D152480078122814D19D
:104BB00050484078342810D14E48807856280CD17F
:104BC0004C48C078782808D1494801780078401CC2
:104BD000474A1070474844540BE0464840784549DE
:104BE00008700846807848700846C0788870084683
:104BF000C470BDE8F08149E03D480078042845DDF7
:104C00003B4800781C2841DA394801780078401C7C
:104C1000374A107037484454104600781C2835D164
:104C2000172200213348FEF764FD0646182131485B
:104C3000FEF770FD0746BE4225D1002506E0281D7F
:104C40002C49085C2C494855681CC5B2062DF6DB7A
:104C5000294840782849097840EA012000B22749CC
:104C600008802548C0782449897840EA012000B2AC
:104C700022494880204840791F49097940EA0120AB
:104C800000B21E49888000201949087008211C487C
:104C9000FDF704FD10B11A48FDF751FC00BFA8E76D
:104CA00010B540F226611748FDF70EFD40B140F205
:104CB00026611448FDF740FD40211248FDF7FBFC3A
:104CC00040F225510F48FDF7FFFC40B140F225515D
:104CD0000C48FDF731FD20210A48FDF7ECFC0821C6
:104CE0000848FDF7DBFC10B10648FDF728FC10BDB5
:104CF00075020020F00500204E000020600000201A
:104D00000050004000140140704700001CB50C46E4
:104D1000064B7B4469460090204600F028FA044682
:104D20000020694600F036FA20461CBD7F040000D2
:104D30000FB4044910B503AA029800F031FA10BC70
:104D40005DF814FB6C0200202DE9F04107460025B8
:104D500010687529394616A411D000F056F90028BC
:104D600003DAC0F1000013A407E039688A0701D50F
:104D700011A402E0490704D510A4012501E000F0C8
:104D80004DF900210A2307F1240607E0B0FBF3F2F6
:104D900003FB1200303070541046491C0028F5D136
:104DA0002B4622463846BDE8F04100F069B90000C4
:104DB000000000002D0000002B000000200000007B
:104DC0002DE9F05F044689464FF0000ADFF878B11C
:104DD000FB44C0F820A02046E1688847002875D031
:104DE000252806D0D4E901219047206A401C206282
:104DF000F1E700265F462046E168884720280546FF
:104E000008DB312D06D207EB050010F8200C08B1A5
:104E10000643F0E7B00701D526F00406C4F81CA04D
:104E20000027C4F818A02A2D09D0284601F093FACB
:104E300038B304EB8708303DC8F8185019E059F82A
:104E4000041B204604EB87029161E1688847012F2B
:104E5000054618D1E069002820DA26F020061DE07A
:104E6000D8F8180000EB800005EB40003038C8F897
:104E700018002046E1688847054601F06CFA0028D2
:104E8000EED1012F0AD02E2D08D12046E1688847A7
:104E90007F1C0546022F46F02006C4DBA0690028CF
:104EA00003DA404246F00106A061F00701D026F087
:104EB00010066C2D0BD0682D09D04C2D39D06A2DE1
:104EC00035D0742D35D07A2D33D016E038E0E16836
:104ED0002F4620468847B842054609D16C2F26D078
:104EE0004FF48060E168064320468847054604E0A9
:104EF0006C2F1AD04FF4807006430DB3A5F141001A
:104F0000192802D8203546F400664A46294620462C
:104F100026604E46FBF792F980B101280BD0F61DB2
:104F200026F0070000F1080955E74020E4E780205B
:104F3000D8E70020D6E706F104094CE7284651E7F8
:104F4000206ABDE8F09F0000741E000010B5203AF2
:104F5000C0F00B80B1E81850203AA0E81850B1E832
:104F60001850A0E81850BFF4F5AF5FEA027C24BFE8
:104F7000B1E81850A0E8185044BF18C918C0BDE8DF
:104F800010405FEA827C24BF51F8043B40F8043BA8
:104F900008BF7047D20728BF31F8023B48BF11F85D
:104FA000012B28BF20F8023B48BF00F8012B7047B7
:104FB000704770477047704770B504468569006850
:104FC000C10601D5302600E02026C00708D070BDFC
:104FD000D4E9012130469047206A00F101002062A7
:104FE0006D1EF5D570BD70B5044685690068C007B3
:104FF00008D170BDD4E9012120209047206A00F13A
:10500000010020626D1EF5D570BD09684A0501D505
:1050100040B27047C905FCD500B2704709684A051F
:1050200001D5C0B27047C905FCD580B2704770B5D4
:1050300005460C46012A05D02868800600D5EA6995
:10504000002302E0012305E05B1C934202D2E05CF6
:105050000028F9D1A869E618C01AA861286A18447E
:1050600028622846FFF7A8FF04E0D5E9012114F8DB
:10507000010B9047B442F8D32846FFF7B4FF70BD48
:105080002DE9F0470D4604469246994600F1240862
:105090000168880604D5E06921F01001216000E074
:1050A0000120A84202DDA0EB050700E00027A1696E
:1050B00007EB050202EB0900A1EB0000A0612068EC
:1050C000C00602D42046FFF777FF002608E0D4E9A7
:1050D00001211AF806009047206A401C761C2062C5
:1050E0004E45F4DB2068C0060AD52046FFF764FF72
:1050F00006E0D4E9012130209047206A401C20625C
:10510000381EA7F10107F4DC07E0D4E9012118F803
:1051100005009047206A401C2062281EA5F1010569
:10512000F3DC2046FFF75FFF2068000602D502206F
:10513000BDE8F0870120FBE711680268006A5305AB
:1051400001D508700BE0D30501D5088007E01306F0
:1051500003D5C217C1E9000201E052060860012030
:105160007047000001694A1C02610878704700B569
:105170008FB0CDE901310021059105497944CDE990
:10518000031011466846FFF71BFE0FB000BD00007C
:10519000E5FFFFFF0A6802F8010B0A607047000094
:1051A000074B70B50C467B44FFF7E1FF05462046F0
:1051B00000F0ADFB10B14FF0FF3070BD284670BD60
:1051C00033F0FFFF2DE9FF5F04468A461546DFF8FE
:1051D000AC80F8440027D8E900103E46CDE9001025
:1051E00011E03AF816106A4602A800F094FB411C40
:1051F00007D02168890603D5E269391891420ED893
:10520000074406F101062068800602D5E069B8422D
:1052100005DDAE42E5DB3AF816000028E1D1A069D1
:10522000C01BA0612046FFF7C7FED8E90010CDE9FA
:105230000010002016E03AF818106A4602A800F0A4
:105240006AFB8146401C0BD000250DF1080B05E0E0
:10525000D4E901211BF8050090476D1C4D45F7D39B
:1052600008F10100B0428046E5DB206A3844206244
:105270002046FFF7B8FEBDE8FF9F0000861A000039
:105280002DE9F0418046D21D22F007020026D2E926
:105290000002F52914A512D0002A06DA0023D0EB6B
:1052A000030063EB020211A508E0D8F800108B0799
:1052B00001D50FA502E0490701D50EA5012611462B
:1052C000002408F1240704E000F0A0F830323A5539
:1052D000641C50EA0102F7D133462A462146404673
:1052E000BDE8F041FFF7CCBE000000002D0000003B
:1052F0002B0000002000000030B4002100F1240445
:105300000CE002F0070505F130054FEAD20242EA4F
:105310004372655401F101014FEAD30352EA0305D8
:10532000EFD10468002310A2250708D504F020045B
:105330000C4304D0C46901230CA2641EC46130BCB8
:10534000FFF79EBE10B5044621461068FFF766FEC3
:1053500002462046BDE810400023CDE7D21D22F0D2
:105360000701D1E90023C7E700000000300000007A
:10537000F0B40F460168090502D5234C7C4402E0D5
:10538000214C7C440E34002100F124050BE002F096
:105390000F064FEA1212A65D42EA03724FEA131398
:1053A0006E5401F1010152EA0306F0D1224604686D
:1053B0000023240704D5702F05D009B11132022330
:1053C000F0BCFFF75DBE10320123F9E770B504466B
:1053D0000D4621461068FFF721FE02462946204669
:1053E000BDE870400023C3E7D21D22F00703D3E9D4
:1053F0000023BDE70368126843F02003036008231D
:10540000C3610023B4E70000E418000030B5B0F138
:105410000A024FEA900E71F100034EEA817EB0EB72
:105420000E0061EB91014FEA101E4EEA017E10EB77
:105430000E0041EB11114FEA102E4EEA016E10EBF7
:105440000E0041EB11214FEA104E4EEA014E10EBD7
:105450000E0041EB1141401841F100014FEAD0002C
:1054600040EA41704FEAD10110EB80054FEA810418
:1054700044EA907444EB01046D1944EB0404521B9C
:10548000A3414FF0000348BF0A3200D530BD401C95
:1054900041F1000130BD70472DE9FF4F0C461E461B
:1054A0004FF0FF378BB0D2E90001DDF860800A9041
:1054B0008A46C1F30A5505B93D46002108464FF01A
:1054C0000000BAF1000F00F4400005DA00EB8000A4
:1054D0004FF4400101EA50004FEA9059B9F1010F31
:1054E00000DDB9460A9850EA4A000FD044F6105041
:1054F000A5F2FF3545432F14B8F1000F1FD07542B8
:10550000291E1FDD4846C9F100021CE0B8F1010F59
:105510004FF0000001D1F24307E0302101E02154B7
:10552000401CB042FBDB30460022002121540B9985
:10553000C1F80880C1E900200FB0BDE8F08FBD1BA5
:105540006D1CDDE74A4600DA694206A800F074FAED
:1055500006AB07CB03AB07C350460A9900F028FB04
:105560008DE80700A0F500501F3800900398002D2B
:1055700009DD42F21F014A46084403A90390684628
:1055800000F087FD08E0A0F500504A461F3803A947
:105590000390684600F091FD8DE807000004000CC0
:1055A00003D04FF0FF30410800E01046B8F1000F83
:1055B00003D00022009215461FE0751E06D4FFF7A7
:1055C00025FF02F1300262556D1EF8D5B346012267
:1055D000084302D000227F1C04E02078302801D14B
:1055E00000227F1E002A099786D01DE0112D07DAC0
:1055F000FFF70CFF303262556D1C50EA0102F5D105
:1056000008430FD10021681E05E0235C625C6354EF
:10561000491C2254401E8142F7DBAB46A81B401EAA
:10562000099001E0009848B1002004F80B000B98A5
:10563000099AC0F80880C0E9002B7DE711264FF0D9
:10564000000859E72DE9F04F88460446D21D22F0A4
:10565000070191B0D1E90001CDE90A0100F063FE34
:1056600002460B98C00F01D02D2007E0206881076B
:1056700001D52B2002E0202101EAC000032A099075
:1056800001D0072A05DB03464146204600F094F985
:105690000EE12068800601D5E06900E00620B8F13F
:1056A000650F814606D0B8F1660F18D0B8F1670FC4
:1056B00072D132E00020B9F1110F009001DB11230B
:1056C00001E009F101030AAA01A90CA8FFF7E4FE11
:1056D000DDE90C70002609F10105834648E0012050
:1056E0004B4600904FF000470AAA01A90CA8FFF70B
:1056F000D3FEDDE90C050E990026AB4619B909F178
:10570000010100EB0105B9EB050003D4C0F1FF3640
:1057100009F10105A5EB09002BE0B9F1010F01DA50
:105720004FF001090020B9F1110F0090484601DD4A
:10573000112300E003460AAA01A90CA8FFF7ACFE5A
:10574000DDE90C704D4600268346206800070AD428
:10575000AB4500DA5D4601A8012D04DD411911F8C1
:10576000011C302907D04F4502DA17F1040F04DA83
:105770000120824610E06D1EEEE7002F02DCED1BDB
:105780003E4403E0781CA84200DD0546A7EB060076
:1057900000F1010A4FF000472068000703D4AA4532
:1057A00001DB4FF0FF3A0021B7F1004F0DF1430844
:1057B0008DF8431022D002202B23002F01DA7F42E4
:1057C0002D230A22011EA0F1010000DC4FB197FB3E
:1057D000F2F102FB117C0F460CF1300C08F801CD00
:1057E000F0E7A8F1010003702168090501D5452102
:1057F00000E06521A0F1010800F8011C09980FA93B
:10580000A1EB080707F1070700B1012000EB050134
:1058100001EBEA70A1693844A1EB0000A0F101009E
:10582000A0612068C00602D42046FFF7C5FB099896
:1058300030B1D4E901219047206A00F101002062D3
:105840002068C00620D52046FFF7B6FB1CE0002EDE
:1058500004DBB34502DD01A8805D00E03020D4E91F
:1058600001219047206A761C401CBAF1010A20628F
:105870000AD100F09DF8C0680168405CD4E90121BC
:105880009047206A401C2062281EA5F10105DEDC3D
:1058900007E0D4E9012118F8010B9047206A401C69
:1058A0002062381EA7F10107F3DC2046FFF79BFBBF
:1058B000022011B041E610B5436913B1AFF3008087
:1058C00001E0FFF7B4FB012010BD126800F12401D4
:1058D0000A7000224A700122EDE711684FF0FF3292
:1058E000E9E710B5436913B1AFF3008001E0FFF7BA
:1058F00069FC012010BD126800F12401828400229D
:10590000C2840122EDE711684FF0FF32E9E7C06879
:1059100000F08000704770B505460C46164600F052
:105920003FF8036893F80101012806D0FF2C0FD837
:10593000185D68B101202C7070BDD3F807013246A4
:10594000214603442846BDE8704003F20713184778
:105950004FF0FF3070BD754600F0E6F8AE4605002A
:105960006946534620F00700854618B020B5FAF77F
:10597000DDFDBDE820404FF000064FF000074FF07E
:1059800000084FF0000B21F00701AC46ACE8C0095D
:10599000ACE8C009ACE8C009ACE8C0098D46704766
:1059A00010B500F005F8001D10BD00BFE5090000AE
:1059B000004870472C0600202DE9F04104461F46A0
:1059C00003260168072A01F4006004DB08B116A56C
:1059D00005E016A503E008B115A500E015A521F026
:1059E00010002060A069C01EA0610FB1401EA06120
:1059F0002046FFF7E1FA4FB1D4E90121384690473C
:105A0000206A401C2062C01C206206E0206AFAE77F
:105A1000D4E9012115F8010B9047761EF8D22046F3
:105A2000FFF7E1FABDE8F0814E414E006E616E0075
:105A3000494E4600696E66002DE9F04781461646DC
:105A40008AB035487844D0E9002380680092CDE9D7
:105A50000130314878440C38D0E9022300690392C0
:105A60004FF03702CDE9043041F69B30014491FB01
:105A7000F2F0A0F1800502FB10141B3C02D5644239
:105A8000012000E00020DFF890A080460027FA44C3
:105A9000AAF1C60A0DE0E00709D03246684607EBD6
:105AA00047010AEB810100F008FB8DE80700641054
:105AB0007F1C002CEFD1184F7F44B43F17E0E8075C
:105AC00013D007EB04100DF1180A90E80E00AAE8B5
:105AD0000E00C068F04201D198190890324606A91C
