:020000040800F2
:10000000B007002039040008F52B0008F72B000882
:10001000FB2B0008FF2B0008032C00080000000049
:10002000000000000000000000000000072C000895
:10003000092C0008000000000B2C00080D2C000803
:100040005304000853040008530400085304000834
:100050005304000853040008530400085304000824
:100060005304000853040008530400085304000814
:100070005304000853040008530400085304000804
:1000800053040008530400085304000853040008F4
:1000900053040008530400085304000853040008E4
:1000A000CD2B000853040008530400085304000833
:1000B000352B0008530400085304000853040008BB
:1000C00053040008530400085304000853040008B4
:1000D00053040008032E00085304000853040008CA
:1000E0005304000853040008530400085304000894
:1000F0005304000853040008530400085304000884
:100100005304000853040008530400085304000873
:100110005304000853040008530400085304000863
:100120005304000853040008530400085304000853
:100130005304000853040008530400085304000843
:100140005304000853040008530400085304000833
:100150005304000853040008530400085304000823
:100160005304000853040008530400085304000813
:100170005304000853040008530400085304000803
:10018000530400085304000800F002F800F03CF8A3
:100190000AA090E8000C82448344AAF10107DA45E2
:1001A00001D100F031F8AFF2090EBAE80F0013F0F8
:1001B000010F18BFFB1A43F001031847483600002F
:1001C00068360000103A24BF78C878C1FAD85207C0
:1001D00024BF30C830C144BF04680C6070470000C1
:1001E0000023002400250026103A28BF78C1FBD840
:1001F000520728BF30C148BF0B6070471FB503F0DE
:10020000F7FA1FBD10B510BD02F095FE1146FFF7BD
:10021000F5FF02F004FB02F0B3FE03B4FFF7F2FFB8
:1002200003BC02F099FC00000CB500200190009086
:100230007648006840F480307449086000BF734815
:10024000006800F4003000900198401C0190009874
:1002500018B90198B0F5A06FF1D16C48006800F4AE
:10026000003010B10120009001E0002000900098C3
:10027000012846D165484030006840F0805063490D
:10028000403108606248006840F48040604908607E
:100290005E48083000685D4908310860084600681B
:1002A00040F4004008600846006840F4A050086030
:1002B0005848091F0860081F006840F08070091F37
:1002C000086000BF5148006800F000700028F9D0B5
:1002D00040F20570504908604C480830006820F032
:1002E00003004A49083108600846006840F00200EF
:1002F000086000BF45480830006800F00C0008287E
:10030000F8D10CBD10B54548006840F47000434971
:1003100008603E48006840F001003C490860002049
:100320003A4908310860394800683D490840374972
:1003300008603C48091D0860081F006820F4802000
:10034000091F0860002031490C310860FFF76CFF7D
:100350004FF0006031498039086010BD70B5002051
:100360000022022300240221284D08352D6805F0C3
:100370000C0020B1042806D0082834D107E02A4D0B
:100380002A4E356033E02A4D284E35602FE01F4D50
:100390002D1D2D68C5F380541C4D2D1D2D6805F0B5
:1003A0003F0154B1224DB5FBF1F5184E361D3668AC
:1003B000C6F3881605FB06F209E01B4DB5FBF1F507
:1003C000124E361D3668C6F3881605FB06F20F4D31
:1003D0002D1D2D68C5F301456D1C6B00B2FBF3F5B7
:1003E000124E356003E0104D104E356000BF00BF67
:1003F000064D08352D68C5F303150E4E705D0B4D87
:100400002D68C540094E356070BD000000380240BF
:100410000070004008544007003C024088ED00E0B6
:10042000FFFFF6FE103000240024F400000000203E
:1004300000127A000400002009488047094800475C
:10044000FEE7FEE7FEE7FEE7FEE7FEE7FEE7FEE784
:10045000FEE7FEE704480549054A064B70470000E1
:100460000503000889010008B0010020B007002042
:10047000B0030020B003002032490143324A11602A
:10048000704770B5002100230F22C4781CB32E4C96
:10049000246804F4E064C4F5E064C4F30721C1F106
:1004A0000404E3B20A4144789C40E1B284781440E9
:1004B00021430C07210E254C05786155047804F082
:1004C0001F050124AC4005786D11AD0005F1E02554
:1004D000C5F8004109E0047804F01F050124AC4090
:1004E0001B4D0678761145F8264070BD194A0A4022
:1004F0000243154B1B1F1A60704739B1124A121D77
:1005000012680243104B1B1D1A6006E00E4A121DB2
:10051000126882430C4B1B1D1A607047042808D1D7
:100520004FF0E021096941F004014FF0E022116130
:1005300007E04FF0E021096921F004014FF0E022CB
:10054000116170470000FA050CED00E000E400E0E6
:1005500080E100E080FFFF1F10B50121080200F0DC
:1005600061FF00214FF4807000F05CFF10BD30B5DA
:100570000246002000235068F84C20400D790C689A
:1005800044EA0524204350609068F54C2040D1E9AE
:1005900003542C438D682C434D7944EA4504204391
:1005A0009060D06A20F470000C7D641EE4B2234396
:1005B00040EA0350D06230BD0021016001714171F9
:1005C0008160C16001610121017570470021E54A28
:1005D0001168E54A1140D0E900231A4383681A43A1
:1005E000C3681A431143E14AC2F80413704700215B
:1005F000016041608160C160704721B1826842F052
:100600000102826003E0826822F00102826070478A
:100610000A4600214168D64B19401143416070479A
:100620004162826270470A460021416821F01F0141
:1006300011434160704738B1CA49096841F400016B
:10064000CA4AC2F8041306E0C649096821F4000149
:10065000C64AC2F80413704738B1C249096841F468
:100660008001C24AC2F8041306E0BE49096821F4B9
:100670008001BE4AC2F804137047F0B504460D4627
:1006800000200021092D11DDE068A5F10A0606EB26
:100690004607072606FA07F18843A5F10A0606EB86
:1006A000460603FA06F10843E0600CE0206905EB1A
:1006B0004507072606FA07F1884305EB450603FAC6
:1006C00006F108432061072A0FDA606B561E06EB1D
:1006D00086071F2606FA07F18843561E06EB860694
:1006E00005FA06F10843606322E00D2A0FDA206B59
:1006F000D61F06EB86071F2606FA07F18843D61F8A
:1007000006EB860605FA06F10843206310E0E06A6E
:10071000A2F10D0606EB86071F2606FA07F18843AD
:10072000A2F10D0606EB860605FA06F10843E06223
:10073000F0BD816841F08041816070470146002032
:100740008A6802F480020AB1012000E000207047AC
:1007500021B1826842F48062826003E0826822F400
:1007600080628260704721B1826842F0020282603A
:1007700003E0826822F002028260704710B50A46E8
:1007800000210023416821F46041531E41EA4331B6
:10079000416010BD21B1426842F40062426003E052
:1007A000426822F40062426070470146C86C80B221
:1007B00070476C48001D0068704721B1826842F4A0
:1007C0008072826003E0826822F4807282607047E7
:1007D00021B1826842F40072826003E0826822F4F0
:1007E00000728260704738B15E49096841F4005177
:1007F0005E4AC2F8041306E05A49096821F4005120
:100800005A4AC2F804137047F0B504461546002052
:1008100000220026092911DDE068A1F10A0707EB93
:10082000470C072707FA0CF29043A1F10A0707EBE0
:10083000470703FA07F21043E0600CE0206901EB80
:10084000410C072707FA0CF2904301EB410703FA2A
:1008500007F210432061A06BC0F30156EF1C06F1B4
:10086000010CA7EB0C0707EB870C1F2707FA0CF20C
:100870009043EF1C06F1010CA7EB0C0707EB870771
:1008800001FA07F21043A063F0BD10B50A4600213B
:100890000023816B21F44011531E41EA035181630F
:1008A00010BD08B5002300930090009B0B440093FB
:1008B000009B1A6008BD0A460021816821F470215E
:1008C0001143816070470A460021816821F440117C
:1008D000114381607047816841F4800181607047F5
:1008E000014600208A6802F480020AB1012000E07B
:1008F0000020704721B1426842F48062426003E008
:10090000426822F480624260704721B1426842F43A
:100910008052426003E0426822F480524260704795
:1009200008B5024600200090009201F12800009BCB
:10093000184400900098006880B208BD10B50B46BE
:100940000021D9B2012404FA01F11AB144680C4320
:10095000446002E044688C43446010BDFFFEFFFC2D
:10096000FDF7FFC004230140E030FCFF0020014000
:10097000FFFD3FFF0246002013680B400BB1012032
:1009800000E000207047CA430260704770B502461D
:100990000020002300240B12556801268E4005EA32
:1009A000060415681D4015B10CB1012000E00020BF
:1009B00070BD00220A12D34303607047016821F022
:1009C000010101600021016041608160C16001613D
:1009D00021214161DB49884204D13D21D94A103AA5
:1009E00091608CE0D7491831884205D14FF4746189
:1009F000D44A103A916082E0D2493031884205D120
:100A00004FF47411CF4A103A916078E0CD494831E3
:100A1000884205D14FF07461CA4A103A91606EE085
:100A2000C8496031884204D1C749C64A103AD160EA
:100A300065E0C4497831884204D1C449C14A103ABA
:100A4000D1605CE0BF499031884204D1C049BD4AC1
:100A5000103AD16053E0BB49A831884205D14FF02C
:100A60003D51B84A103AD16049E0BA49884204D1B0
:100A70003D21B84A083A116041E0B6491831884230
:100A800005D14FF47461B34A083A116037E0B149B7
:100A90003031884205D14FF47411AE4A083A1160E2
:100AA0002DE0AC494831884205D14FF07461A94A24
:100AB000083A116023E0A7496031884204D1A24975
:100AC000A44A121F11601AE0A2497831884204D169
:100AD0009E49A04A121F116011E09E499031884240
:100AE00004D19B499B4A121F116008E09949A83123
:100AF000884204D14FF03D51964A121F1160704751
:100B000010B500220268944B1A40CC680B6823434E
:100B10004C6923438C692343CC6923430C6A2343E8
:100B20004C6A23438C6A23434C6B23438C6B2343D3
:100B30001A430260426922F00702D1E90B342343D1
:100B40001A4342610B6943604B6883608B68C360E2
:100B500010BD0021016041608160C160016141619F
:100B60008161C161016241628162C162016341636D
:100B70008163704721B1026842F00102026003E024
:100B8000026822F001020260704721B1026842F45B
:100B90000042026003E0026822F4004202607047F3
:100BA00021B1026842F02002026003E0026822F0F4
:100BB000200202607047416070470146486880B279
:100BC000704722B1036843F40023036003E0036825
:100BD00023F4002303600161704721B1026842F4ED
:100BE0008022026003E0026822F4802202607047E3
:100BF0000AB1016100E0C1607047014600200A6847
:100C000002F400220AB1012000E0002070470146F2
:100C100000200A6802F001020AB1012000E0002071
:100C20007047014600204A6902F03800704730B52D
:100C300003460A4600200024464DAB4202D24149F9
:100C4000103901E04349103902F000550DB14C68EC
:100C500000E00C68414D2C4004EA02050DB1012072
:100C600000E0002030BD02463A4B9A4202D235489D
:100C7000103801E03748103801F000531BB1374BF2
:100C80000B40C36002E0354B0B408360704710B5EA
:100C900001F080034BB122B1436943F0800343610B
:100CA00003E0436923F08003436180290BD02AB11C
:100CB000036801F01E042343036004E0036801F0AD
:100CC0001E04A343036010BD70B50246002000243B
:100CD0000025204EB24202D21A4B103B01E01D4BC0
:100CE000103B1F4E0E4036B11E2606EAD124166870
:100CF00006EA040502E0566906F0800501F0005698
:100D00000EB15C6800E01C68144E344004EA010631
:100D100016B10DB1012000E0002070BD02460D4B60
:100D20009A4202D20748103801E00A48103801F010
:100D300000531BB1094B0B40C36002E0074B0B4053
:100D400083607047106002403D000020400F00208B
:100D500000003D20106402403F801CF07D0F7D0F9D
:100D60003C0F3C0F10B504468C48844208D1012149
:100D7000084600F000FB0021012000F0FCFA5EE0D4
:100D80008748844208D10121022000F0F4FA0021B2
:100D9000022000F0F0FA52E08248844208D101219A
:100DA000042000F0E8FA0021042000F0E4FA46E014
:100DB0007D48844208D10121082000F0DCFA00219E
:100DC000082000F0D8FA3AE07848844208D101219E
:100DD000102000F0D0FA0021102000F0CCFA2EE014
:100DE0007348844208D10121202000F0C4FA002178
:100DF000202000F0C0FA22E06E48844208D1012190
:100E0000402000F0B8FA0021402000F0B4FA16E0CB
:100E10006948844208D10121802000F0ACFA002109
:100E2000802000F0A8FA0AE06448844207D101213A
:100E3000801500F0A0FA0021A01500F09CFA10BD6A
:100E4000F0B50A4600210023002400BF3DE0012543
:100E500005FA01F3156805EA03049C4234D10568DC
:100E60004F000326BE40B543056015794E00B540DE
:100E70000668354305601579012D02D01579022DDC
:100E800016D185684F000326BE40B543856055796D
:100E90004E00B540866835438560456801268E4022
:100EA000B5434560456896798E40B6B23543456096
:100EB000C5684F000326BE40B543C560D5794E00D6
:100EC000B540C6683543C560491C1029BFD3F0BD85
:100ED0004FF6FF7101600021017141718171C17193
:100EE000704708B54FF480320092009A0A4300928E
:100EF000009AC261C161009AC261C2690092C2696E
:100F0000009208BD0246002013690B400BB101207E
:100F100000E0002070470146086980B27047024631
:100F2000002053690B400BB1012000E00020704706
:100F30000146486980B2704701837047418370471A
:100F40000AB1018300E04183704741617047426903
:100F50004A4042617047F0B5002300244D07ED0E72
:100F600002FA05F3CE1000F1200555F826504E0781
:100F7000F70E0F26BE40B543CF1000F1200646F80D
:100F80002750CE1000F1200555F8265045EA0304FD
:100F9000CE1000F1200545F82640F0BD00000240CB
:100FA0000004024000080240000C02400010024011
:100FB0000014024000180240001C024000200240C1
:100FC000FA48006840F00100F84908600020F7493D
:100FD00008310860F5480068F5490840F3490860A1
:100FE000F448091D0860081F006820F48020091FCC
:100FF00008600020ED490C31086070470021EB4A81
:10100000921C117011460870704710B501460022FD
:10101000002300204A11012A02D1E44C236808E091
:10102000022A03D1E14C7034236802E0DF4C7434AF
:10103000236801F01F02012494401C400CB10120E0
:1010400000E0002010BD38B50020009000240025ED
:1010500000BF3120FFF7D9FF05460098401C0090E3
:101060000098B0F5A06F01D0002DF2D03120FFF72D
:10107000CCFF08B1012400E00024204638BD014621
:101080000020CA4A106820F0F80040EAC100106051
:101090007047C949086070470021C44A7032117016
:1010A0001170012802D004280AD104E00121BF4AAE
:1010B0007032117005E00521BC4A7032117000E0F9
:1010C00000BF00BF7047BD490860704770B5049C01
:1010D00041EA82150126C6EB530645EA064505435B
:1010E00045EA0465B14E361D356070BDB2490866EB
:1010F0007047820142EA0172AC4B84331A60704738
:10110000AD4988667047AC49C86470470246002004
:10111000A64B0833186820F0EC6042EA010318433C
:10112000A24B083318607047024600209F4B0833DB
:10113000186820F0784042EA010318439B4B0833BB
:101140001860704701460020984A0832106820F065
:10115000030008431060704794480830006800F0AE
:101160000C00704701460020904A0832106820F0B9
:10117000F000084310607047014600208B4A083297
:10118000106820F4E05008431060704701460020CA
:10119000864A0832106820F4604040EAC1001060BE
:1011A0007047F0B50021002200240225002602230A
:1011B0007E4F08373F6807F00C0121B1042905D0A4
:1011C000082937D105E07E4F076036E07D4F076084
:1011D00033E0764F3F1D3F68C7F38056734F3F1D86
:1011E0003F6807F03F036EB1764FB7FBF3F7DFF8C8
:1011F000BCC10CF1040CDCF800C0CCF3881C07FB6C
:101200000CF40CE06E4FB7FBF3F7DFF8A0C10CF164
:10121000040CDCF800C0CCF3881C07FB0CF4634F13
:101220003F1D3F68C7F301477F1C7D00B4FBF5F706
:10123000076002E0624F076000BF00BF5B4F0837E6
:101240003F6807F0F00109095F4F7A5C0768D740F3
:101250004760564F08373F6807F4E051890A5A4FF4
:101260007A5C4768D7408760504F08373F6807F47B
:101270006041490B544F7A5C4768D740C760F0BD66
:10128000002100F44072B2F5407F0AD1474A08328B
:10129000116821F4F8114D4A02401143434A0832C3
:1012A0001160424A70321268C0F30B031A433F4B7D
:1012B00070331A60704741494439086070473F49AC
:1012C00040390860704742490860704739B1374A71
:1012D000303212680243354B30331A6006E0334A2D
:1012E000303212688243314B30331A60704739B163
:1012F0002E4A3432126802432C4B34331A6006E013
:101300002A4A343212688243284B34331A607047B9
:1013100039B1264A383212680243244B38331A60F6
:1013200006E0224A383212688243204B38331A6072
:10133000704739B11D4A4032126802431B4B40339B
:101340001A6006E0194A403212688243174B403354
:101350001A60704739B1154A443212680243134B80
:1013600044331A6006E0114A4432126882430F4B3C
:1013700044331A60704739B10C4A10321268024384
:101380000A4B10331A6006E0084A10321268824392
:10139000064B10331A607047E1B1044A14321268E8
:1013A0000243024B14331A6019E000000038024077
:1013B000FFFFF6FE1030002400004742800E474237
:1013C0000024F40000127A0014000020FFFCFF0F3C
:1013D0005C0147425B4A126882435A4B1A6070476D
:1013E00039B1584A121D12680243564B1B1D1A6030
:1013F00006E0544A121D12688243524B1B1D1A60AC
:10140000704739B14F4A0C32126802434D4B0C33CE
:101410001A6006E04B4A0C3212688243494B0C3387
:101420001A60704739B1474A103212680243454B7F
:1014300010331A6006E0434A103212688243414B6F
:1014400010331A60704739B13E4A3C321268024389
:101450003C4B3C331A6006E03A4A3C321268824305
:10146000384B3C331A60704739B1364A4032126803
:101470000243344B40331A6006E0324A403212686D
:101480008243304B40331A60704739B12D4A4432A1
:10149000126802432B4B44331A6006E0294A443257
:1014A00012688243274B44331A60704739B1254A8A
:1014B0004C3212680243234B4C331A6006E0214A37
:1014C0004C32126882431F4B4C331A60704739B15B
:1014D0001C4A5032126802431A4B50331A6006E01D
:1014E000184A503212688243164B50331A607047C4
:1014F00039B1144AD21F12780243124BDB1F1A7003
:1015000006E0104AD21F127882430E4BDB1F1A707E
:1015100070470C486030006840F0807009496031C5
:101520000860704701460020064A083A12680A40DF
:101530000AB1012000E0002070470249891F0870AD
:10154000704700001438024010B50446FE4884423B
:1015500008D101210846FFF765FF00210120FFF7B0
:1015600061FF9DE0B4F1804F08D101210846FFF7EB
:1015700048FF00210120FFF744FF91E0F348844237
:1015800008D101210220FFF73CFF00210220FFF7D4
:1015900038FF85E0EE48844208D101210420FFF79E
:1015A00030FF00210420FFF72CFF79E0E948844256
:1015B00008D101210820FFF724FF00210820FFF7B0
:1015C00020FF6DE0E448844208D101211020FFF79C
:1015D00018FF00211020FFF714FF61E0DF4884426C
:1015E00008D101212020FFF70CFF00212020FFF768
:1015F00008FF55E0DA48844208D101210220FFF7B4
:1016000011FF00210220FFF70DFF49E0D548844279
:1016100009D101210804FFF705FF00214FF48030B4
:10162000FFF700FF3CE0D048844209D10121480483
:10163000FFF7F8FE00214FF40030FFF7F3FE2FE034
:10164000CA48844209D101218804FFF7EBFE00213A
:101650004FF48020FFF7E6FE22E0C548844208D11F
:1016600001214020FFF7CDFE00214020FFF7C9FEF9
:1016700016E0C048844208D101218020FFF7C1FE56
:1016800000218020FFF7BDFE0AE0BB48844207D15D
:1016900001218015FFF7B5FE0021A015FFF7B1FE6F
:1016A00010BD00220288A84B98420ED0AC4B984245
:1016B0000BD0B0F1804F08D0A44B984205D0A44B7A
:1016C000984202D0A34B984204D14FF68F731A4030
:1016D0004B881A43A04B984207D0A04B984204D0A5
:1016E0004FF6FF431A400B891A4302804B68C362CE
:1016F0000B880385944B984202D0994B984201D1B4
:101700008B7A03860123838270474FF0FF3141605B
:1017100000210180018141808172704701858282B0
:1017200070470A46002101884FF68F731940114314
:101730000180704741627047C16270470146486A44
:1017400070470146088D704721B1028842F00202BD
:10175000028004E002884FF6FD731A400280704751
:1017600021B1028842F00402028004E002884FF6B0
:10177000FB731A400280704721B1028842F0800258
:10178000028004E002884FF67F731A40028070479F
:1017900002884FF6F7731A40028002880A430280DB
:1017A000704702884FF6FF431A40028002880A43BE
:1017B0000280704721B1028842F00102028004E0F9
:1017C00002884FF6FE731A400280704770B50024FD
:1017D00000220023058C4FF6FE7635400584028CEE
:1017E0008388048B4FF68F752C40B51E2C400D88D6
:1017F0002C43751E2A408D892A434D882A43524D19
:10180000A84202D0564DA84213D14FF6F7752A4090
:10181000CD892A434FF6FB752A408D882A434FF61F
:10182000FF652B404FF6FF552B400D8A2B434D8A09
:101830002B43838004838D684563028470BD70B53B
:10184000002400220023058C4FF6EF7635400584F6
:10185000028C8388048B48F6FF752C404FF6FF45B9
:101860002C400D884FF6FF7606EA05252C434FF6EF
:10187000DF752A408D8906EA05152A434D8806EA58
:1018800005152A43304DA84202D0354DA8421DD13E
:101890004FF67F752A40CD894FF6FF7606EA05158B
:1018A0002A434FF6BF752A408D8806EA05152A435C
:1018B0004FF6FF352B404FF2FF752B400D8A06EA9D
:1018C00085052B434D8A06EA85052B4383800483D7
:1018D0008D688563028470BD70B5002400220023EA
:1018E000058C4FF6FF6635400584028C8388848B17
:1018F0004FF68F752C404FF6FC752C400D882C430D
:101900004FF6FF552A408D894FF6FF7606EA0525EA
:101910002A434D8806EA05252A430B4DA84202D0EA
:101920000F4DA84238D14FF2FF752A40CD894FF6AE
:10193000FF7606EA05252A434FF6FF352A408D88B3
:1019400006EA05252A4319E0000001400004004092
:1019500000080040000C004000100040001400404F
:1019600000040140004001400044014000480140A3
:1019700000180040001C0040002000404EF6FF759B
:101980002B404DF6FF752B400D8A06EA05152B43BB
:101990004D8A06EA05152B43838084838D68C563D1
:1019A000028470BD70B5002200230024058C4EF621
:1019B000FF7635400584038C8488828B48F6FF755A
:1019C0002A404FF6FF452A400D884FF6FF7606EA7B
:1019D00005252A434DF6FF752B408D8906EA05350E
:1019E0002B434D8806EA05352B43FE4DA84202D015
:1019F000FD4DA84208D14BF6FF752C400D8A4FF6DD
:101A0000FF7606EA85152C43848082838D68056401
:101A1000038470BD002101804180818081608181CB
:101A2000C18101824182704770B5034600200024C5
:101A30001846183001258D40ACB21D8CA5431D847D
:101A400009B108290AD100EB610005684FF68F76CD
:101A5000354005600568154305600FE00D1FC5F3AF
:101A60004E052844056848F6FF7635400560056850
:101A70004FF6FF7606EA02263543056070BD4163E6
:101A8000704781637047C1637047016470470A46BD
:101A90000021018B4FF68F7319401143018370476A
:101AA0000A460021018B48F6FF7319404FF6FF7379
:101AB00003EA02231943018370470A460021818B00
:101AC0004FF68F7319401143818370470A460021F6
:101AD000818B48F6FF7319404FF6FF7303EA022328
:101AE0001943818370470A460021018B4FF6F77333
:101AF00019401143018370470A460021018B4FF2C0
:101B0000FF7319404FF6FF7303EA02231943018361
:101B100070470A460021818B4FF6F7731940114335
:101B2000818370470A460021818B4FF2FF73194071
:101B30004FF6FF7303EA02231943818370470A4675
:101B40000021018B4FF6FB7319401143018370474D
:101B50000A460021018B4FF6FF3319404FF6FF7301
:101B600003EA02231943018370470A460021818B4F
:101B70004FF6FB7319401143818370470A460021D9
:101B8000818B4FF6FF3319404FF6FF7303EA0223B0
:101B90001943818370470A460021018B4FF67F73FA
:101BA00019401143018370470A460021018BC1F39C
:101BB0000E014FF6FF7303EA0223194301837047B6
:101BC0000A460021818B4FF67F73194011438183B0
:101BD00070470A460021818BC1F30E014FF6FF7357
:101BE00003EA02231943818370470A460021018CCE
:101BF0004FF6FD7319401143018470470A460021D6
:101C0000018C4FF6F77319401143018470470A465F
:101C10000021018C4FF6DF7319404FF6FF7303EA82
:101C200002131943018470470A460021018C4FF6C4
:101C30007F7319404FF6FF7303EA021319430184BF
:101C400070470A460021018C4FF6FF5319404FF6AA
:101C5000FF7303EA02231943018470470A460021F7
:101C6000018C4FF2FF7319404FF6FF7303EA022312
:101C70001943018470470A460021018C4DF6FF7319
:101C800019404FF6FF7303EA02331943018470478A
:101C900030B5002301248C40A3B2048C9C430484FF
:101CA000048C02FA01F5ADB22C43048430BD30B58A
:101CB000002304248C40A3B2048C9C430484048C31
:101CC00002FA01F5ADB22C43048430BD828B4FF291
:101CD000FF331A408283828B4FF6FF7303EA01239E
:101CE0001A4382837047F0B50C4615460021002246
:101CF0000026078C4EF6FF7C07EA0C070784818BD1
:101D0000028C4FF6FF7707EA043640F6FF4739406A
:101D10004FF6FF7707EA052739434FF6FF7707EAC3
:101D20000337394345F6FF773A4046F480573A4344
:101D300081830284F0BD828B4FF6F3731A40828355
:101D4000828B0A4382837047F0B50C46154600210A
:101D500000220026078C4FF6FF6C07EA0C07078469
:101D6000818B028C4FF6FF7707EA04264FF60C773B
:101D700039404FF6FF7707EA03172F4339434FF2F5
:101D8000FF573A4046F480773A4381830284F0BD9E
:101D9000028B4FF2FF331A400283028B4FF6FF7320
:101DA00003EA01231A4302837047F0B50C46154637
:101DB000002100220026078C4FF6EF7C07EA0C0773
:101DC0000784018B028C4FF6FF7707EA041640F672
:101DD000FF4739404FF6FF7707EA033739434FF69D
:101DE000FF7703E0000001400004014007EA0527F7
:101DF00039434FF65F773A4046F010073A43018384
:101E00000284F0BD028B4FF6F3731A400283028BFB
:101E10000A4302837047F0B50C46154600210022A4
:101E2000068C4FF6FE773E400684018B028C4FF6FF
:101E30000C7631407E1C06EA03162E4331434FF6E2
:101E4000F576324044F00106324301830284F0BD4E
:101E500070B505460C46208850B92389A288618850
:101E60002846FFF7D8FFE1882846FFF7CBFF25E09B
:101E7000208804280AD12389A28861882846FFF790
:101E800094FFE1882846FFF783FF17E020880828A1
:101E90000AD12389A28861882846FFF755FFE18887
:101EA0002846FFF748FF09E02389A2886188284671
:101EB000FFF719FFE1882846FFF708FF70BD0021F2
:101EC00001804180012181800021C1800181704712
:101ED0002DE9F04105460C4600260127608808B927
:101EE000022600E00026A088012801D1022700E098
:101EF00001272088A0B92389A28861882846FFF796
:101F00008AFFE1882846FFF77DFF23893A4631465C
:101F10002846FFF74AFFE1882846FFF739FF13E01C
:101F20002389A28861882846FFF73FFFE188284679
:101F3000FFF72EFF23893A4631462846FFF76BFF0D
:101F4000E1882846FFF75EFFBDE8F0810146486B57
:101F500070470146886B70470146C86B7047014661
:101F6000086C70470A884B881A438B881A43CB88C1
:101F70001A430B891A434B891A438B891A43A0F8D9
:101F8000442070470021018041808180C18001810F
:101F900041818181704731B1B0F8442042F4004260
:101FA000A0F8442005E0B0F84420C2F30E02A0F8E7
:101FB0004420704721B1828842F00402828004E00C
:101FC00082884FF6FB731A408280704721B1828865
:101FD00042F00102828004E082884FF6FE731A40CC
:101FE000828070471AB183890B43838102E0838921
:101FF0008B43838170478182704702460020138A99
:102000000B400BB1012000E000207047CA43028260
:10201000704730B50246002000230024158A05EAE7
:102020000103958905EA010413B10CB1012000E018
:10203000002030BDCA430282704741EA0203A0F883
:10204000483070471AB183890B43838102E083894A
:102050008B438381704721B1828842F008028280DD
:1020600004E082884FF6F7731A4082807047018936
:102070004FF6F8721140018170470A46002101892C
:102080004FF68F73194011430181704730B50446F4
:102090000D4629462046FFF7F0FF208940F0070053
:1020A000208130BD2DE9F04104460D4616461F46FD
:1020B000602D06D13B46012231462046FFF775FED2
:1020C00005E03B46012231462046FFF7A4FE2946A3
:1020D0002046FFF7D2FF208940F007002081BDE8AD
:1020E000F08130B50C4600210189C9B24FF6FF7569
:1020F00005EA0325154325432943018130BD2DE918
:10210000F04105460E4617469846002443463A4697
:1021100031462846FFF7E5FF2C894FF6F87004405A
:1021200044F007044FF68F70044044F070042C8193
:10213000BDE8F081F0B504460D4616461F463B4605
:10214000324629462046FFF7CCFF208940F48040E4
:102150002081F0BD82884FF68F731A40828082887A
:102160000A438280704702894FF6F8731A40028151
:1021700002890A430281704702894FF67F731A4031
:10218000028102890A4302817047F0B50C46154668
:102190001E460021002200230189028B038C4FF68A
:1021A000F877394021434FF6FC473A4040F2011797
:1021B0003A434FF6DD773B404FF6FF7707EA0617C5
:1021C0002F433B43018102830384F0BD21B1828808
:1021D00042F08002828004E082884FF67F731A40CA
:1021E00082807047A0F850107047000010B5044678
:1021F000F748844208D101211020FFF713F900218C
:102200001020FFF70FF93EE0F248844209D1012186
:102210004804FFF7F6F800214FF40030FFF7F1F81B
:1022200031E0ED48844209D101218804FFF7E9F843
:1022300000214FF48020FFF7E4F824E0E7488442CF
:1022400009D10121C804FFF7DCF800214FF4002078
:10225000FFF7D7F817E0E248844209D101210805C9
:10226000FFF7CFF800214FF48010FFF7CAF80AE01B
:10227000DC48844207D101212020FFF7D3F8002158
:102280002020FFF7CFF810BD2DE9FF4705460E4689
:102290000024A14600BFA046B08900B100BF2C8A2F
:1022A00024F44054F08804432C82AC8941F20C6041
:1022B0008443B08831890843718908430443AC8161
:1022C000AC8A24F44074B0890443AC826846FEF7BB
:1022D00068FFBF48854202D0C248854202D1DDF87E
:1022E0000C9001E0DDF80890A88900F4004040B1AE
:1022F00009EBC90000EB091031684900B0FBF1F7A8
:1023000007E009EBC90000EB091031688900B0FB58
:10231000F1F76420B7FBF0F004012009642101FB10
:102320001078A88900F4004040B1322000EBC800CA
:10233000B0FBF1F000F00700044308E0322000EBAE
:1023400008106421B0FBF1F000F00F0004432C8171
:10235000BDE8FF874FF41651016000218180C180E4
:1023600001810C21418100218181704710B5024615
:102370000020108A20F470600B884C8823438C88DE
:102380002343CC8823431843108210BD00210180D1
:1023900041808180C180704721B1828942F400521E
:1023A000828104E082894DF6FF731A408281704772
:1023B000028B02F47F420283028B0A43028370473E
:1023C00021B1828942F40042828103E08289C2F312
:1023D0000E028281704721B1828A42F400628282B9
:1023E00004E0828A4FF2FF731A4082827047C1F381
:1023F00008028280704701468888C0F30800704751
:10240000028A4FF6F0731A400282028A0A4302825D
:10241000704721B1828942F00202828104E0828900
:102420004FF6FD731A408281704782894FF2FF7325
:102430001A40828182890A4382817047028A4FF65C
:10244000DF731A400282028A0A430282704721B176
:10245000028A42F48042028204E0028A4BF6FF7351
:102460001A4002827047818941F0010181817047E1
:1024700021B1828A42F00802828204E0828A4FF609
:10248000F7731A4082827047028BD2B20283028BAA
:1024900042EA01220283704721B1828A42F020027F
:1024A000828204E0828A4FF6DF731A40828270478C
:1024B00021B1828A42F01002828204E0828A4FF6C1
:1024C000EF731A4082827047828A4FF6FB731A407C
:1024D0008282828A0A438282704721B1828A42F0D4
:1024E0000202828204E0828A4FF6FD731A408282E1
:1024F00070471AB1838A0B43838202E0838A8B433D
:1025000083827047F0B50346002400260025002092
:1025100040F66A17B94200D100BF1846C1F3421411
:1025200001F01F06012707FA06F5012C01D10C3036
:1025300004E0022C01D1103000E014301AB1076819
:102540002F43076002E00768AF430760F0BD024613
:102550000020B1F5007F00D100BF13880B400BB104
:10256000012000E00020704701F40072B2F5007F06
:1025700000D100BFCA430280704770B502460024F4
:1025800000230025002040F66A16B14200D100BFAA
:10259000C1F3421501F01F03012606FA03F3012DD2
:1025A00002D19689334006E0022D02D1168A3340CB
:1025B00001E0968A33400C12012606FA04F41688CC
:1025C000344013B10CB1012000E0002070BD0000C8
:1025D000001001400044004000480040004C004012
:1025E000005000400014014010B50022002340F6C6
:1025F0006A14A14200D100BF0A1201249440A3B280
:10260000DC43048010BD000010B50446FA2060438E
:102610004FF08041C86201218807FFF7CBF800BF67
:10262000FE4800780028FBD00020FC49087010BD4F
:102630001FB51C208DF80C0001208DF80D00022024
:102640008DF80E0001208DF80F0003A8FDF719FF8B
:1026500001210846FEF76DFE4FF08040FEF774FF43
:102660004FF4FA6001905320ADF800000020ADF85F
:102670000800ADF8020069464FF08040FFF711F8FE
:1026800001218807FFF7C2FC012211469007FFF7DE
:10269000A9FC00214FF08040FFF78CF81FBD1CB54E
:1026A00001210420FEF712FE1020009001208DF879
:1026B000040000208DF805008DF8060001208DF83B
:1026C00007006946D648FEF7BBFB1021D448FEF749
:1026D00035FC1CBD00B59BB001218805FEF7F6FD59
:1026E00001210420FEF7F2FD01210220FEF7EEFD9C
:1026F00001210802FEF72EFE00200290C948039037
:10270000C9480490002005900420069000200790FE
:102710004FF4806008904000099080000A904011BA
:102720000B9040020C9000200D9001200E90002094
:102730000F90109002A9BD48FEF7E2F90121BB48B5
:10274000FEF718FA0F20009003208DF804000020F7
:102750008DF8070003208DF805006946B048FEF7A4
:102760006FFB0220009001208DF8040000208DF8FE
:1027700007006946AE48FEF763FB0221AC48FEF74E
:10278000DBFB002011904FF4403012904FF480405A
:1027900013904FF47060149011A8FDF717FF0020FC
:1027A000159001208DF858008DF8590000201790E1
:1027B0001890199004208DF8680015A999484C3894
:1027C000FDF7D5FE062301220A2196484C38FDF775
:1027D00054FF062302220B2192484C38FDF74DFF8F
:1027E000062303220C218F484C38FDF746FF0623B1
:1027F00004220D218B484C38FDF73FFF0121894809
:102800004C38FDF7E5FF012186484C38FDF7D5FF30
:10281000012184484C38FDF7F0FE1BB000BD2DEDC2
:10282000088BFFF757FF4FF4E13000F0F1F9FFF7A5
:1028300036FF7C484C38FDF77CFFFFF7F9FE78E166
:1028400000207C490860BAE077497A4A126831F87A
:10285000120000F0D1FD41EC1B0B9FED770B53EC08
:10286000102B00F0DDFD41EC190B9FED750B53ECC7
:10287000102B00F069FC41EC180B9FED730B53EC2F
:10288000102B00F061FC724A6A4B1B6802EBC3021A
:1028900003C270486749096800EB011090ED021B04
:1028A000B0EE410AF0EE610A9FED6B1B53EC112B69
:1028B00051EC100B00F048FC41EC190B68485D49E5
:1028C000096800EBC10090ED001BB0EE410AF0EE8C
:1028D000610A53EC102B51EC190B00F09FFE41ECF8
:1028E000180B60485349096800EBC10090ED001BCC
:1028F000B0EE410AF0EE610A53EC102B51EC180BCC
:1029000000F022FC584A4B4B1B6802EBC30203C287
:102910004F484849096800EBC10090ED000B4D4855
:102920004449096800EB01105049096800EBC100F7
:1029300080ED000B9FED4E0B46483E49096800EBC9
:10294000011080ED020B00204B4908602BE041484C
:102950003849096800EB01104749096800EBC100DC
:1029600090ED002BB0EE420AF0EE620A3948314990
:10297000096800EB011090ED022BB0EE421AF0EE68
:10298000621A53EC102B51EC110B00F035FB314A5D
:10299000284B1B6802EB0312C2E9020136480068AB
:1029A000401C35490860344800680128CFDB01200D
:1029B000FFF72AFE1F480068401C1E4908601D489A
:1029C00000680428FFF640AF28480068401C2749EB
:1029D000086008460068022801D1002008609FEDC9
:1029E000240BB0EE40AAF0EE60AA00201149086066
:1029F00048E01D480F49096800EBC10090ED001B3D
:102A0000B0EE410AF0EE610A53EC102B51EC1A0BB8
:102A100000F0F2FA41EC1A0B06482FE05C000020AF
:102A2000000802404C2001402800002010640240B1
:102A300000040240500000200000000000C8A9402F
:102A40000000000000FEAF400000000000408F408A
:102A500070000020B0000020000000000000F03FE7
:102A6000F0000020300000209000002054000020E2
:102A70000000000000000000580000200068401C1A
:102A800055490860544800680428B2DB5348007870
:102A900003284ED1012000F0D4F902215048FEF75E
:102AA0004DFA01204D4908704E4890ED061BB0EEDE
:102AB000410AF0EE610A51EC100B00F06BFA08EEDF
:102AC000100A484890ED041BB0EE410AF0EE610A8E
:102AD00051EC100B00F05EFA08EE900A414890EDC0
:102AE000021BB0EE410AF0EE610A51EC100B00F04F
:102AF00051FA09EE100A3B4890ED001BB0EE410A76
:102B0000F0EE610A51EC100B00F044FA09EE900A65
:102B1000F0EE481AB0EE681AF0EE490AB0EE690A13
:102B200000F0B8F9002000F08CF902212C48FEF7E3
:102B300003FA85E610B501218807FFF76AFA50B15C
:102B400001218807FFF776FA012027490870002144
:102B50008007FEF72FFE10BD014600BF704700BF83
:102B6000224A128802F04002002AF9D0C2B21F4B5A
:102B70009A8070477FB505460C4601210804FEF790
:102B8000E9FB0295ADF804400020ADF80600ADF871
:102B90000C0001A91648FEF784FD012211461448D5
:102BA000FFF720FA01211248FEF704FE18208DF8E5
:102BB000000002208DF8010003208DF802000120A2
:102BC0008DF803006846FDF75CFC7FBD10B5012160
:102BD0000748FFF71EFA10BD5000002064000020D7
:102BE00000040240900000205C0000200010014022
:102BF00000400140704700BFFEE700BFFEE700BF96
:102C0000FEE700BFFEE7704770477047704700005F
:102C100010B588B0044601211020FEF79BFB01216E
:102C20000846FEF753FB07220A21B848FEF793F93E
:102C300007220921B548FEF78EF94FF4806006900F
:102C400002208DF81C0000208DF81D008DF81E005C
:102C500001208DF81F0006A9AC48FEF7F1F84FF4EB
:102C60000070069006A9A948FEF7EAF80294002031
:102C7000ADF80C00ADF80E00ADF81000ADF8140082
:102C80000C20ADF8120002A9A148FFF7FDFA0121BE
:102C90009F48FFF781FB40219D48FFF765FC00221C
:102CA00040F226619A48FFF72DFC012240F225519F
:102CB0009748FFF727FC80219548FFF755FC202116
:102CC0009348FFF751FC25208DF8040001208DF872
:102CD000070000208DF8050003208DF8060001A8EC
:102CE000FDF7CFFB08B010BD30B503460C46002001
:102CF000E1B204E05D5C0544E8B24D1CE9B29142EA
:102D0000F8DDC543E8B230BD70B50446182C29D1B2
:102D100080480078012825D17F480078401E7F49EF
:102D2000085CFF281ED17C480078801E085CFF28C4
:102D300018D1032503E00020784948556D1C142D57
:102D4000F9DD022073490870734908707348847074
:102D5000FF207249487008706F480078401C6E4927
:102D600008704DE0AA2C39D16C486B49097844545D
:102D700069480078401C6849087008460078C01E01
:102D800082B202216548FFF7AFFF0646624800782D
:102D9000801E6249085CB04211D10846C1785E4885
:102DA0000078401F81420AD15C488078182806D1FB
:102DB00003205849087000205749087002E001209C
:102DC0005449087055484078AA2819D1534880784A
:102DD000552815D104204F49087011E04F484E493D
:102DE000097844544C480078401C4B490870084608
:102DF0000078142190FBF1F201FB120046490870A3
:102E000070BD10B5002440F225514148FFF7B5FBD5
:102E100058B140F225513E48FFF7E6FB3C48FFF72A
:102E2000EAFAC4B22046FFF76FFF40F22661384845
:102E3000FFF7A3FB20B140F226613548FFF7D4FB32
:102E400010BD10B50446012C04D110213448FEF702
:102E500073F803E010213248FEF770F810BD70B52A
:102E60000546002413E02F48015D2948FFF7BFFA0B
:102E700000BF80212648FFF76AFB0028F9D000BF79
:102E800040212348FFF763FB0028F9D0641CAC42C3
:102E9000E9DB70BD10B52DED048BB0EE408AF0EE8D
:102EA000609AF0EE418AB0EE619A00BF194800784E
:102EB0000128FBD11C4880ED008AC0ED019AC0EDCD
:102EC000028A80ED039AFF20164908704870182086
:102ED00088701220C87000200871052405E0601F6A
:102EE0001149085C0F490855641C152CF7DB1222A8
:102EF00003210C48FFF7F8FE0A494875AA20887597
:102F00001720FFF7ACFFBDEC048B10BD00000240A2
:102F10000010014064000020650000201001002026
:102F200000080240240100203C0100207047704747
:102F3000704770477047754600F028F8AE460500A8
:102F40006946534620F00700854618B020B5FDF7C6
:102F500081FABDE820404FF000064FF000074FF027
:102F600000084FF0000B21F00701AC46ACE8C009A7
:102F7000ACE8C009ACE8C009ACE8C0098D467047B0
:102F80000446AFF300802046FDF747F9004870473C
:102F90004C01002021F00042A2F16052B2F5801FE6
:102FA00001F0004328BFD2F17F6C0BD95FEA001C0F
:102FB00043EAC20242EB507018BF704728BF20F0AE
:102FC00001007047B2F5801FBCBF184670474FEA3A
:102FD000410C1CF5001F02D2084600F00EBC70B573
:102FE00000F0C8FA00000089FFF7F6BF4FF000407C
:102FF000A0F580007047000010B591EA030F48BFAC
:1030000083F0004300F11283841A71EB030C05D2A4
:10301000121943EB0C03001B61EB0C01DFF824E1F8
:103020004FEA1154A4EB135C1EEA430F18BF9EEA4B
:10303000445F73D023EA0E03DCF1200E21EA045131
:1030400043F4801332D322FA0CFE10EB0E0023FA65
:103050000CFE41EB0E01CCF1200E03FA0EFE10EB3C
:103060000E0051F10001B1F5801FCCF1200E32D2DB
:1030700001EB045112FA0EF2BDE8104058BF704740
:10308000401C38BF5FEA420218BF7047002814BFD7
:1030900020F0010041F100014FEA410313F5001F48
:1030A00038BF7047A1F1C04100F0B2BA012A43EB2A
:1030B0000302ACF1200CDCF11F0E32BF4FF0000E0A
:1030C00023FA0CF310EB030041EB0451B4EB115F56
:1030D000D0D0A1EB045101F5801149085FEA30001E
:1030E00001EB04510ED350F1000038BF12FA0EFE6E
:1030F00008D1BDE81040C9E7401C38BF5FEA420272
:10310000CAD1C3E7BDE810404FEA410313F5001FE1
:1031100038BF7047A1F1C04100F07ABA9EEA445F1F
:1031200008D011EA5E0FBDE8104004BF01F0004175
:1031300000207047BDE8104070B500F01BFA00BFDA
:1031400064FBBE3E0000E0FF2DE9C04130B4DFF873
:10315000A0C23CEA111418BF3CEA131400F0EC8042
:1031600081EA03051CEA111444EAD57418BF1CEA6D
:10317000131500F0C780A4EB05044FF0004545EAA5
:10318000C12145EAC32341EA505143EA525304F1B5
:103190007F74994204F500344FEAC0204FEAC222FE
:1031A00008BF904200F09C804FEA13650FF2401672
:1031B000765D4FEA134506FB05F7C7F1807706FBFE
:1031C00007F74FEAD737A7FB03687642C8F5803880
:1031D000A7FB06CE38BFA8F1010807FB08E64FF0B1
:1031E000000EA6FB028CE6FB03CEDCF1000CCEF158
:1031F000004E38BFAEF1010EA6FB0C584FF0000791
:103200004FF00005E6FB0E87A1FB08C6A0FB07CE2A
:1032100016EB0E0645F10005E1FB076515F1E04EE2
:103220007EBFA4F580345FEA46066D4116F1800743
:1032300045F100054FEA17274FEA066647EA05679A
:10324000A6F1DE46B6F1805F4FEA15251FD9384654
:1032500024F0010C05EBC471BCF1FE6F01EB0C1105
:1032600002D8F0BCBDE8008124425CBF01F5801E9D
:103270009EEAC47F02D4F0BCBDE80081244238D469
:10328000F0BCA1F1C041BDE8004100F0C1B94FEA76
:10329000D22242EA43524FEAD323A7FB02864FEAE7
:1032A000D02040EA415007FB03661EEA0E0F4FEAAA
:1032B000D12105FB026658BFA6EB0056B6EB0056BF
:1032C0004FEA520E4EEAC37E18EB0E0E56EB530E2B
:1032D000BDD518EB02085E417F1C55F10005B6E72D
:1032E0004FF480154FF000074FF000064FF0000834
:1032F000ADE7F0BC4FF0000001F1C04101F000412A
:10330000BDE8008111EA0C1F0CEA131500D00CE097
:1033100013EA0C1F00F025804FF00000F0BC81EA9A
:10332000030101F00041BDE80081F0BCBDE80041AF
:1033300081EA030100F06CB9F0BCBDE8004170B552
:1033400000F018F9097EFC3E00F007B881EA03019D
:103350004FF0000001F00041704781EA030100F0E6
:1033600057B9F0BCBDE800414FF00000214970475B
:10337000FFFDFBF9F7F5F4F2F0EEEDEBE9E8E6E43A
:10338000E3E1E0DEDDDBDAD8D7D5D4D3D1D0CFCDC1
:10339000CCCBCAC8C7C6C5C4C2C1C0BFBEBDBCBBFA
:1033A000BAB9B8B7B6B5B4B3B2B1B0AFAEADACABF5
:1033B000AAA9A8A8A7A6A5A4A3A3A2A1A09F9F9ECF
:1033C0009D9C9C9B9A999998979796959594939381
:1033D000929191908F8F8E8E8D8C8C8B8B8A898918
:1033E000888887878685858484838382828181809B
:1033F0000000FF070000F87FB0FA80F310FA03F135
:103400000AD0C3F11D0303F580634FEA41504FEA30
:10341000035202EBD12170474FF0000070470000CB
:10342000DFF848C170B51CEA111E1EBF1CEA131557
:103430009EEA0C0F95EA0C0F00F06F8081EA0304FE
:1034400023EA4C134EEAD47E21EA4C1141F4801158
:1034500043F48013AE44A1FB024CA0FB0365AEF124
:103460007F7E361955EB0C05A1FB034C4CF1000394
:10347000A0FB021C16EB0C06654153F10003094248
:1034800018BF46F0010613F4007F0BD14FEA033159
:103490004FEA0530340341EA155140EA16506FF007
:1034A00003020AE04FEAC3214FEAC520F40241EAD1
:1034B000555140EA56506FF0020202EB2E4201EBEA
:1034C000025585EACE710AD05FEA440C18BF24F099
:1034D000004450F1000041F1000120EAD47040F2B4
:1034E000FE7C624500D270BDA84214BF4FF08044FC
:1034F0004FF04044002E08BF0024BEF1806FA8BFEB
:10350000A1F1C041BDE8704080F282804FF0000020
:1035100001F1C04101F0004170479EEA0C0F0CEA36
:10352000131518BF95EA0C0F06D04FF0000081EA82
:10353000030E0EF0004170BD00F01CF88900013E42
:1035400000F007B800F009B84FEA430C5FEA5C5C92
:1035500008D081EA030100F05BB84FEA410C5FEA52
:103560005C5CF6D14FF00000014970470000FF0796
:103570000000F87F0EF1020E2EF0030E5EF8046BD1
:10358000364205D4012A43EB030515F5001F12D876
:10359000012841EB010C1CF5001F0CD80ED14FEA9D
:1035A000D17C15F5001F0CEB4C0C0CF1020C08BF84
:1035B0004CEBD37C04E04FF0080C01E04FEAD37CE5
:1035C0000CEB4C0526FA05F606F00706B6F1040CDE
:1035D00006D20EEB860CBDE870404CF0010C604743
:1035E000DFE80CF0090B02024FF000414FF0000041
:1035F000A1F5002170BD19461046012851EB0104C8
:1036000018BFD4F5001484BF002001F0004170BD44
:103610000808A0F500114FEA3101704710B591EA92
:10362000030F48BF83F000433FF5EEAC841A71EB03
:10363000030C07D212198CF0004C43EB0C03001B57
:1036400061EB0C01DFF8A4E14FEA1154A4EB135C29
:103650001EEA430F18BF9EEA445F00F0B08023EAE1
:103660006E03524221EA0451C3EB6E0338BF5B1E66
:10367000DCF1200E25D322FA0CFE10EB0E0043FAEB
:103680000CFE41EB0E01CCF1200E03FA0EFE10EB06
:103690000E0051F10001CCF1200E29D412FA0EF2E5
:1036A00001EB0451BDE8104058BF7047401C1CBFDF
:1036B000B2F1004F704700280CBF491C20F00100F8
:1036C000704712EB020E43EB030218BF4FF0010EDE
:1036D0004EEA4202ACF1200CDCF11E0E54D943FA42
:1036E0000CFE10EB0E0051F1FF31CCF11E0ED5D5C2
:1036F0000EF1010E12FA0EFE404141EB010101EB09
:10370000445C5FEA5C5C10D910EBDE7001EB0451A5
:1037100038BFBEF1004FBDE8104018BF7047002809
:103720000CBF491C20F00100704730D24FEAD42C66
:1037300011F5001124F400641BD0B1FA81F20B3AA8
:10374000A41AA41ED2F12003914030FA03F31943C6
:10375000904001EBCC71002C01EB0451BDE810400E
:10376000A8BF704701F1C0414FF0000001F00041D7
:103770007047B0FA80F310FA03F100D110BDE41ADB
:10378000173C4805C90AE4E701EB045110BD491094
:1037900001EB0451BDE810404FEA300002E04FF069
:1037A000000170474A0008BF0042F8D0B2F5001F80
:1037B00028BF704701F000414FF0000070479EEABB
:1037C000445F07D011EA5E0FBDE8104004BF00213E
:1037D00000207047BDE8104070B5FFF7CBFE00BF7A
:1037E00040DFF63E83F00041104670470000E0FFE6
:1037F0004FF04070E1EE100A7047FF2141EAD050CF
:10380000C005704724380008000000206C0000004C
:10381000C4010008903800086C0000204407000034
:10382000E0010008007A030A000000000000000028
:103830000102030406070809000000000102030456
:103840000102030406070809000000000000000050
:1038500000000000000000000000F03F0000000039
:103860000000F03F000000000000F03F00000000FA
:103870000000F03F00000000000000000000000019
:103880000000000000000000010000000000000037
:040000050800018965
:00000001FF
