:020000040800F2
:10000000A007002025040008A12B0008A32B00084E
:10001000A72B0008AB2B0008AF2B00080000000046
:10002000000000000000000000000000B32B0008EA
:10003000B52B000800000000B72B0008B92B000802
:100040003F0400083F0400083F0400083F04000884
:100050003F0400083F0400083F0400083F04000874
:100060003F0400083F0400083F0400083F04000864
:100070003F0400083F0400083F0400083F04000854
:100080003F0400083F0400083F0400083F04000844
:100090003F0400083F0400083F0400083F04000834
:1000A000772B00083F0400083F0400083F040008C5
:1000B000E12A00083F0400083F0400083F0400084C
:1000C0003F0400083F0400083F0400083F04000804
:1000D0003F0400084F2D00083F0400083F040008BB
:1000E0003F0400083F0400083F0400083F040008E4
:1000F0003F0400083F0400083F0400083F040008D4
:100100003F0400083F0400083F0400083F040008C3
:100110003F0400083F0400083F0400083F040008B3
:100120003F0400083F0400083F0400083F040008A3
:100130003F0400083F0400083F0400083F04000893
:100140003F0400083F0400083F0400083F04000883
:100150003F0400083F0400083F0400083F04000873
:100160003F0400083F0400083F0400083F04000863
:100170003F0400083F0400083F0400083F04000853
:100180003F0400083F04000800F002F800F03CF8CB
:100190000AA090E8000C82448344AAF10107DA45E2
:1001A00001D100F031F8AFF2090EBAE80F0013F0F8
:1001B000010F18BFFB1A43F001031847D8350000A0
:1001C000F8350000103A24BF78C878C1FAD8520731
:1001D00024BF30C830C144BF04680C6070470000C1
:1001E0000023002400250026103A28BF78C1FBD840
:1001F000520728BF30C148BF0B6070471FB503F0DE
:10020000BFFA1FBD10B510BD02F05DFE1146FFF72D
:10021000F5FF02F0DBFA02F07BFE03B4FFF7F2FF1A
:1002200003BC02F06FFC000000210020724A12683B
:1002300042F48032704B1A6000BF6F4A126802F4B9
:100240000030491C10B9B1F5A06FF6D16A4A1268A6
:1002500012F4003F01D0012000E00020012845D128
:10026000654A4032126842F08052634B40331A6054
:10027000624A126842F48042604B1A605E4A083259
:1002800012685D4B08331A601A46126842F4004245
:100290001A601A46126842F4A0521A60584A1B1F8C
:1002A0001A601A1F126842F080721B1F1A6000BF8A
:1002B000514A126812F0007FFAD040F20572514B99
:1002C0001A604D4A0832126822F003024A4B083382
:1002D0001A601A46126842F002021A6000BF464ACB
:1002E0000832126802F00C02082AF8D1704710B5E3
:1002F0004548006840F47000434908603E48006883
:1003000040F001003C49086000203B49083108608A
:10031000394800683D490840374908603C48091D94
:100320000860081F006820F48020091F0860002072
:1003300031490C310860FFF777FF4FF00060324918
:100340008039086010BD30B50020002202238446A9
:100350000221294C0834246804F00C0020B1042840
:1003600006D0082836D107E02A4C2B4D2C6035E00A
:100370002A4C294D2C6031E01F4C241D2468C4F305
:10038000805C1D4C241D246804F03F01BCF1000F6B
:100390000AD0224CB4FBF1F4174D2D1D2D68C5F386
:1003A000881504FB05F209E01A4CB4FBF1F4124D78
:1003B0002D1D2D68C5F3881504FB05F20E4C241D78
:1003C0002468C4F30144641C6300B2FBF3F4124DCF
:1003D0002C6003E00F4C104D2C6000BF00BF064C9A
:1003E00008342468C4F303140D4D285D0A4C2468B6
:1003F000C440094D2C6030BD003802400070004000
:1004000008544007003C024088ED00E0FFFFF6FE84
:10041000103000240024F4000000002000127A00B4
:10042000040000200948804709480047FEE7FEE72E
:10043000FEE7FEE7FEE7FEE7FEE7FEE7FEE7FEE794
:1004400004480549054A064B70470000EF020008C2
:1004500089010008A0010020A0070020A0030020BF
:10046000A003002033490143334A1160704770B53F
:10047000002100230F22C47824B32F4C246804F4F5
:10048000E064C4F5E064C4F30721C1F10404E3B2FD
:100490000A4144789C40E1B28478144021430C071F
:1004A000210E264C05786155047804F01F050124BF
:1004B000AC4005786D114FF0E02606EB8505C5F8D8
:1004C000004109E0047804F01F050124AC401C4DF4
:1004D0000678761145F8264070BD1A4A0A40024354
:1004E000154B1B1F1A60704739B1134A121D126851
:1004F0000243114B1B1D1A6006E00F4A121D1268C1
:1005000082430D4B1B1D1A607047042808D14FF021
:10051000E021096941F004014FF0E022116107E098
:100520004FF0E021096921F004014FF0E022116150
:10053000704700000000FA050CED00E000E400E068
:1005400080E100E080FFFF1F10B50121080200F0EC
:1005500053FF00214FF4807000F04EFF10BD30B506
:100560000246002000235068F94C20400D790C68A9
:1005700044EA0524204350609068F64C2040D1E9BD
:1005800003542C438D682C434D7944EA45042043A1
:100590009060D06A20F470000C7D641EE4B22343A6
:1005A00040EA0350D06230BD002101600171417109
:1005B0008160C16001610121017570470021E64A37
:1005C0001168E64A01EA0201D0E9002342EA030287
:1005D000836842EA0302C36842EA030242EA010175
:1005E000DF4AC2F804137047002101604160816056
:1005F000C160704721B1826842F00102826003E06D
:10060000826822F00102826070470A460021416838
:10061000D44B194011434160704741628262704778
:100620000A460021416821F01F01114341607047D3
:1006300038B1C949096841F40001C94AC2F8041334
:1006400006E0C549096821F40001C54AC2F804134F
:10065000704738B1C049096841F48001C04AC2F806
:10066000041306E0BC49096821F48001BC4AC2F8C1
:100670000413704770B504468C4600200021BCF17D
:10068000090F11DDE068ACF10A0505EB4506072509
:1006900005FA06F18843ACF10A0505EB450503FAB6
:1006A00005F10843E0600CE020690CEB4C060725DF
:1006B00005FA06F188430CEB4C0503FA05F10843F3
:1006C0002061072A0FDA606B551E05EB85061F2592
:1006D00005FA06F18843551E05EB85050CFA05F170
:1006E0000843606322E00D2A0FDA206BD51F05EB6B
:1006F00085061F2505FA06F18843D51F05EB8505FC
:100700000CFA05F10843206310E0E06AA2F10D0540
:1007100005EB85061F2505FA06F18843A2F10D05B4
:1007200005EB85050CFA05F10843E06270BD8168B0
:1007300041F0804181607047014600208A6812F4D0
:10074000800F01D0012000E00020704721B18268B5
:1007500042F48062826003E0826822F480628260F8
:10076000704721B1826842F00202826003E0826831
:1007700022F002028260704710B50A460021002371
:10078000416821F46041531E41EA4331416010BD8C
:1007900021B1426842F40062426003E0426822F400
:1007A0000062426070470146C86C80B270476E4874
:1007B0000068704721B1826842F48072826003E071
:1007C000826822F480728260704721B1826842F4AC
:1007D0000072826003E0826822F4007282607047D7
:1007E00038B15D49096841F400515D4AC2F804130B
:1007F00006E05949096821F40051594AC2F8041326
:100800007047F0B5044615460020002284460929A9
:1008100011DDE068A1F10A0606EB4607072606FA95
:1008200007F29043A1F10A0606EB460603FA06F228
:100830001043E0600CE0206901EB4107072606FA4F
:1008400007F2904301EB410603FA06F210432061E0
:10085000A06BC0F3015CEE1C0CF10107F61B06EB6C
:1008600086071F2606FA07F29043EE1C0CF10107DB
:10087000F61B06EB860601FA06F21043A063F0BDF4
:1008800010B50A4600210023816B21F44011531E4C
:1008900041EA0351816310BD10B5002303460B44A8
:1008A0001A6010BD0A460021816821F470211143AD
:1008B000816070470A460021816821F4401111438C
:1008C00081607047816841F4800181607047014612
:1008D00000208A6812F4800F01D0012000E000207F
:1008E000704721B1426842F48062426003E042688E
:1008F00022F480624260704721B1426842F4805223
:10090000426003E0426822F480524260704702462F
:100910000023134601F128000344186880B2704791
:1009200010B50B460021D9B2012404FA01F11AB125
:1009300044680C43446002E044688C43446010BD4A
:100940000246002013680B4210D001200FE0000087
:10095000FFFEFFFCFDF7FFC004230140E030FCFF79
:1009600000200140FFFD3FFF0823014000207047A9
:10097000CA430260704730B5024600200023844617
:100980000B12546801258D4004EA050C14681C42C2
:1009900004D0BCF1000F01D0012000E0002030BDE8
:1009A00000220A12D343036070470000016821F05F
:1009B000010101600021016041608160C16001614D
:1009C00021214161DD49884204D13D21DB4A103AB1
:1009D00091608CE0D9491831884205D14FF4746197
:1009E000D64A103A916082E0D4493031884205D12C
:1009F0004FF47411D14A103A916078E0CF494831F0
:100A0000884205D14FF07461CC4A103A91606EE093
:100A1000CA496031884204D1C949C84A103AD160F4
:100A200065E0C6497831884204D1C649C34A103AC4
:100A3000D1605CE0C1499031884204D1C249BF4ACB
:100A4000103AD16053E0BD49A831884205D14FF03A
:100A50003D51BA4A103AD16049E0BC49884204D1BC
:100A60003D21BA4A083A116041E0B849183188423C
:100A700005D14FF47461B54A083A116037E0B349C3
:100A80003031884205D14FF47411B04A083A1160F0
:100A90002DE0AE494831884205D14FF07461AB4A30
:100AA000083A116023E0A9496031884204D1A44981
:100AB000A64A121F11601AE0A4497831884204D175
:100AC000A049A24A121F116011E0A049903188424A
:100AD00004D19D499D4A121F116008E09B49A8312D
:100AE000884204D14FF03D51984A121F116070475F
:100AF00010B500220268964B1A40CC680B6823435D
:100B00004C6923438C692343CC6923430C6A2343F8
:100B10004C6A23438C6A23434C6B23438C6B2343E3
:100B20001A430260426922F00702D1E90B342343E1
:100B30001A4342610B6943604B6883608B68C360F2
:100B400010BD0021016041608160C16001614161AF
:100B50008161C161016241628162C162016341637D
:100B60008163704721B1026842F00102026003E034
:100B7000026822F001020260704721B1026842F46B
:100B80000042026003E0026822F400420260704703
:100B900021B1026842F02002026003E0026822F004
:100BA000200202607047416070470146486880B289
:100BB000704722B1036843F40023036003E0036835
:100BC00023F4002303600161704721B1026842F4FD
:100BD0008022026003E0026822F4802202607047F3
:100BE0000AB1016100E0C1607047014600200A6857
:100BF00012F4002F01D0012000E0002070470146D0
:100C000000200A6812F0010F01D0012000E000204E
:100C10007047014600204A6902F03800704710B55D
:100C200003460A4600208446484CA34202D2434968
:100C3000103901E04549103912F0005F02D0D1F8B7
:100C400004C001E0D1F800C0424C0CEA040C1CEADC
:100C5000020F01D0012000E0002010BD02463B4BF6
:100C60009A4202D23548103801E03848103811F065
:100C7000005F03D0374B0B40C36002E0354B0B40A5
:100C80008360704710B511F0800F09D022B143691D
:100C900043F08003436103E0436923F08003436131
:100CA00080290BD02AB1036801F01E04234303609E
:100CB00004E0036801F01E04A343036010BD30B5D7
:100CC0000246002000248446204DAA4202D21B4B3B
:100CD000103B01E01D4B103B1F4D294206D01E2545
:100CE00005EAD124156805EA040C02E0556905F00F
:100CF000800C11F0005F01D05C6800E01C68154DAD
:100D00002C400C4204D0BCF1000F01D0012000E0C7
:100D1000002030BD02460D4B9A4202D207481038DF
:100D200001E00A48103811F0005F03D0094B0B4076
:100D3000C36002E0074B0B408360704710600240C5
:100D40003D000020400F002000003D2010640240C4
:100D50003F801CF07D0F7D0F3C0F3C0F10B504460B
:100D60008848844208D10121084600F0F1FA0021A8
:100D7000012000F0EDFA5EE08348844208D10121B1
:100D8000022000F0E5FA0021022000F0E1FA52E032
:100D90007E48844208D10121042000F0D9FA0021C4
:100DA000042000F0D5FA46E07948844208D10121B8
:100DB000082000F0CDFA0021082000F0C9FA3AE03E
:100DC0007448844208D10121102000F0C1FA0021AA
:100DD000102000F0BDFA2EE06F48844208D10121B6
:100DE000202000F0B5FA0021202000F0B1FA22E026
:100DF0006A48844208D10121402000F0A9FA00216C
:100E0000402000F0A5FA16E06548844208D101218F
:100E1000802000F09DFA0021802000F099FA0AE07D
:100E20006048844207D10121801500F091FA002129
:100E3000A01500F08DFA10BD70B50A460021002300
:100E40008C4600BF3DE0012404FA01F3146804EA73
:100E5000030C9C4534D104684E000325B540AC43D7
:100E6000046014794D00AC4005682C43046014798B
:100E7000012C02D01479022C16D184684E0003256F
:100E8000B540AC43846054794D00AC4085682C4338
:100E90008460446801258D40AC4344604468957982
:100EA0008D40ADB22C434460C4684E000325B5406C
:100EB000AC43C460D4794D00AC40C5682C43C460D9
:100EC000491C1029BFD370BD4FF6FF71016000218E
:100ED000017141718171C17170474FF480320A43D1
:100EE000C261C161C261C269C26970470246002025
:100EF00013690B4201D0012000E000207047014639
:100F0000086980B270470246002053690B4201D045
:100F1000012000E0002070470146486980B2704718
:100F200001837047418370470AB1018300E0418328
:100F300070474161704742694A404261704770B5ED
:100F400000239C464C07E40E02FA04F3CD1000F196
:100F5000200454F825404D07EE0E0F25B540AC4354
:100F6000CE1000F1200545F82640CD1000F12004F8
:100F700054F8254044EA030CCD1000F1200444F855
:100F800025C070BD0000024000040240000802407D
:100F9000000C024000100240001402400018024001
:100FA000001C024000200240FA48006840F00100A6
:100FB000F84908600020F74908310860F5480068E2
:100FC000F5490840F3490860F448091D0860081F06
:100FD000006820F48020091F08600020ED490C31D2
:100FE000086070470021EB4A921C1170114608708E
:100FF000704710B501460022002300204A11012A43
:1010000002D1E44C236808E0022A03D1E14C703499
:10101000236802E0DF4C7434236801F01F020124CE
:1010200094401C4201D0012000E0002010BD70B5AA
:1010300000240025002600BF3120FFF7DAFF064616
:10104000641CB4F5A06F01D0002EF5D03120FFF75D
:10105000D0FF08B1012500E00025284670BD0146FB
:101060000020CC4A106820F0F80040EAC10010606F
:101070007047CB49086070470021C64A7032117032
:101080001170012802D004280AD104E00121C14ACC
:101090007032117005E00521BE4A7032117000E017
:1010A00000BF00BF7047BF490860704730B5DDF82A
:1010B0000CC041EA82140125C5EB530544EA0544FE
:1010C000044344EA0C64B34D2D1D2C6030BDB4497B
:1010D00008667047820142EA0172AE4B84331A609F
:1010E0007047AF4988667047AD49C864704702468B
:1010F0000020A84B0833186820F0EC6042EA010396
:101100001843A44B08331860704702460020A14BD7
:101110000833186820F0784042EA010318439D4BD9
:10112000083318607047014600209A4A0832106858
:1011300020F00300084310607047964808300068AC
:1011400000F00C00704701460020924A08321068F7
:1011500020F0F000084310607047014600208D4ADF
:101160000832106820F4E0500843106070470146D0
:101170000020884A0832106820F4604040EAC1002C
:1011800010607047F0B500210022002402258C4633
:101190000223804E0836366806F00C0121B104297E
:1011A00005D0082933D105E07F4E066032E07F4E3E
:1011B00006602FE0774E361D3668C6F3805C754EAC
:1011C000361D366806F03F03BCF1000F0AD0774E9B
:1011D000B6FBF3F66F4F3F1D3F68C7F3881706FB5A
:1011E00007F409E0704EB6FBF3F66A4F3F1D3F6807
:1011F000C7F3881706FB07F4664E361D3668C6F33C
:101200000146761C7500B4FBF5F6066002E0664EFA
:10121000066000BF00BF5F4E0836366806F0F0017A
:101220000909634E725C0668D6404660594E08361E
:10123000366806F4E051890A5D4E725C4668D64015
:101240008660544E0836366806F46041490B584EA5
:10125000725C4668D640C660F0BD002100F4407262
:10126000B2F5407F0AD14B4A0832116821F4F811D7
:10127000504A02401143474A08321160454A7032D1
:101280001268C0F30B031A43424B70331A60704765
:101290004449443908607047424940390860704702
:1012A00045490860704739B13A4A30321268024302
:1012B000384B30331A6006E0364A303212688243C7
:1012C000344B30331A60704739B1324A34321268C5
:1012D0000243304B34331A6006E02E4A343212682F
:1012E00082432C4B34331A60704739B1294A383263
:1012F00012680243274B38331A6006E0254A383219
:1013000012688243234B38331A60704739B1214A3F
:101310004032126802431F4B40331A6006E01D4AF8
:101320004032126882431B4B40331A60704739B118
:10133000184A443212680243164B44331A6006E0DE
:10134000144A443212688243124B44331A60704785
:1013500039B1104A1032126802430E4B10331A6032
:1013600006E00C4A1032126882430A4B10331A60AE
:10137000704739B1074A143212680243054B1433DF
:101380001A6006E0034A143212688243014B143398
:101390001A60704700380240FFFFF6FE103000244C
:1013A00000004742800E47420024F40000127A00F9
:1013B00014000020FFFCFF0F5C01474229B1574A8F
:1013C00012680243554B1A6004E0544A1268824383
:1013D000524B1A60704739B1504A083212680243C2
:1013E0004E4B08331A6006E04C4A083212688243BA
:1013F0004A4B08331A60704739B1484A0C321268B8
:101400000243464B0C331A6006E0444A0C32126821
:101410008243424B0C331A60704739B13F4A38322D
:10142000126802433D4B38331A6006E03B4A3832BB
:1014300012688243394B38331A60704739B1374AE2
:101440003C3212680243354B3C331A6006E0334AA3
:101450003C3212688243314B3C331A60704739B1D9
:101460002E4A4032126802432C4B40331A6006E089
:101470002A4A403212688243284B40331A60704730
:1014800039B1264A483212680243244B48331A6065
:1014900006E0224A483212688243204B48331A60E1
:1014A000704739B11D4A4C32126802431B4B4C3312
:1014B0001A6006E0194A4C3212688243174B4C33CB
:1014C0001A60704739B1154A0B3A12780243134B30
:1014D0000B3B1A7008E0114A0B3A1278C343DBB297
:1014E0001A400E4B0B3B1A7070470C485C3000687A
:1014F00040F0807009495C31086070470146002067
:10150000064A0C3A12680A4201D0012000E000208D
:10151000704702490A3908707047000018380240C5
:1015200010B50446FE48844208D101210846FFF761
:1015300063FF00210120FFF75FFF9DE0B4F1804FC2
:1015400008D101210846FFF746FF00210120FFF7DF
:1015500042FF91E0F348844208D101210220FFF7C5
:101560003AFF00210220FFF736FF85E0EE48844273
:1015700008D101210420FFF72EFF00210420FFF7EE
:101580002AFF79E0E948844208D101210820FFF7C9
:1015900022FF00210820FFF71EFF6DE0E44884428F
:1015A00008D101211020FFF716FF00211020FFF7BE
:1015B00012FF61E0DF48844208D101212020FFF7BB
:1015C0000AFF00212020FFF706FF55E0DA48844299
:1015D00008D101210220FFF70FFF00210220FFF7B1
:1015E0000BFF49E0D548844209D101210804FFF7E7
:1015F00003FF00214FF48030FFF7FEFE3CE0D048AF
:10160000844209D101214804FFF7F6FE00214FF47E
:101610000030FFF7F1FE2FE0CA48844209D10121D2
:101620008804FFF7E9FE00214FF48020FFF7E4FE75
:1016300022E0C548844208D101214020FFF7CBFEBB
:1016400000214020FFF7C7FE16E0C048844208D1C1
:1016500001218020FFF7BFFE00218020FFF7BBFEA5
:101660000AE0BB48844207D101218015FFF7B3FE91
:101670000021A015FFF7AFFE10BD00220288A84B85
:1016800098420ED0AC4B98420BD0B0F1804F08D0AE
:10169000A44B984205D0A44B984202D0A34B984249
:1016A00004D14FF68F731A404B881A43A04B9842CF
:1016B00007D0A04B984204D04FF6FF431A400B8945
:1016C0001A4302804B68C3620B880385944B98428F
:1016D00002D0994B984201D18B7A038601238382F1
:1016E00070474FF0FF31416000210180018141804E
:1016F000817270470185828270470A460021018805
:101700004FF68F7319401143018070474162704753
:10171000C16270470146486A70470146088D7047AC
:1017200021B1028842F00202028004E002884FF6F2
:10173000FD731A400280704721B1028842F0040212
:10174000028004E002884FF6FB731A400280704763
:1017500021B1028842F08002028004E002884FF644
:101760007F731A400280704702884FF6F7731A4061
:10177000028002880A430280704702884FF6FF43C6
:101780001A40028002880A430280704721B1028811
:1017900042F00102028004E002884FF6FE731A4014
:1017A0000280704730B54FF0000C00220023048CFB
:1017B0004FF6FE752C400484028C8388B0F818C064
:1017C0004FF68F740CEA040CAC1E0CEA040C0C8867
:1017D00044EA0C0C6C1E22408C8922434C88224324
:1017E0004F4CA04202D0544CA04213D14FF6F77494
:1017F0002240CC8922434FF6FB7422408C8822433E
:101800004FF6FF6423404FF6FF5423400C8A2343D6
:101810004C8A23438380A0F818C08C6844630284F8
:1018200030BD30B54FF0000C00220023048C4FF681
:10183000EF752C400484028C8388B0F818C048F6F9
:10184000FF740CEA040C4FF6FF440CEA040C0C88FD
:1018500024064CEA144C4FF6DF7422408C89240590
:1018600042EA14424C88240542EA14422C4CA0421D
:1018700002D0314CA0421BD14FF67F742240CC895C
:10188000240542EA14424FF6BF7422408C88240596
:1018900042EA14424FF6FF3423404FF2FF742340D4
:1018A0000C8AA40443EA14434C8AA40443EA144374
:1018B0008380A0F818C08C688463028430BD30B582
:1018C0004FF0000C00220023048C4FF6FF652C40E3
:1018D0000484028C8388B0F81CC04FF68F740CEA25
:1018E000040C4FF6FC740CEA040C0C8844EA0C0C53
:1018F0004FF6FF5422408C89240642EA14424C8859
:10190000240642EA1442064CA04202D00A4CA042ED
:1019100037D14FF2FF742240CC8924061AE0000030
:10192000000001400004004000080040000C00409E
:10193000001000400014004000040140004001403D
:10194000004401400048014000180040001C0040D5
:101950000020004042EA14424FF6FF3422408C88B7
:10196000240642EA14424EF6FF7423404DF6FF74FB
:1019700023400C8A240543EA14434C8A240543EA95
:1019800014438380A0F81CC08C68C463028430BDFB
:1019900030B5002200239446048C4EF6FF752C408F
:1019A0000484038CB0F804C0828B48F6FF74224094
:1019B0004FF6FF4422400C88240642EA14424DF6BA
:1019C000FF7423408C89240743EA14434C8824077E
:1019D00043EA1443FE4CA04202D0FE4CA04207D181
:1019E0004BF6FF740CEA040C0C8AA4054CEA144C68
:1019F000A0F804C082838C680464038430BD002195
:101A000001804180818081608181C1810182418228
:101A1000704730B50346002084461846183001242C
:101A20008C401FFA84FC1C8C6FEA0C05ADB22C4074
:101A30001C8409B108290AD100EB610004684FF643
:101A40008F752C4004600468144304600DE00C1F83
:101A5000A4B200EB6400046848F6FF752C400460F3
:101A60000468150644EA1544046030BD41637047BC
:101A700081637047C1637047016470470A46002163
:101A8000018B4FF68F7319401143018370470A464B
:101A90000021018B48F6FF731940130641EA1341F8
:101AA000018370470A460021818B4FF68F731940DE
:101AB0001143818370470A460021818B48F6FF73EA
:101AC0001940130641EA1341818370470A460021F9
:101AD000018B4FF6F77319401143018370470A4693
:101AE0000021018B4FF2FF731940130641EA1341A5
:101AF000018370470A460021818B4FF6F773194026
:101B00001143818370470A460021818B4FF2FF7396
:101B10001940130641EA1341818370470A460021A8
:101B2000018B4FF6FB7319401143018370470A463E
:101B30000021018B4FF6FF331940130641EA134190
:101B4000018370470A460021818B4FF6FB731940D1
:101B50001143818370470A460021818B4FF6FF3382
:101B60001940130641EA1341818370470A46002158
:101B7000018B4FF67F7319401143018370470A466A
:101B80000021018BC1F30E01130641EA13410183C9
:101B900070470A460021818B4FF67F73194011432D
:101BA000818370470A460021818BC1F30E01130621
:101BB00041EA1341818370470A460021018C4FF6A8
:101BC000FD7319401143018470470A460021018CBE
:101BD0004FF6F77319401143018470470A460021FC
:101BE000018C4FF6DF731940130541EA134101845C
:101BF00070470A460021018C4FF67F731940130588
:101C000041EA1341018470470A460021018C4FF6D6
:101C1000FF531940130641EA1341018470470A46F5
:101C20000021018C4FF2FF731940130641EA134162
:101C3000018470470A460021018C4DF6FF7319405C
:101C4000130741EA13410184704730B50023012492
:101C50008C40A3B2048CDD43ADB22C400484048CD0
:101C600002FA01F5ADB22C43048430BD30B5002337
:101C700004248C40A3B2048CDD43ADB22C40048418
:101C8000048C02FA01F5ADB22C43048430BD828B82
:101C90004FF2FF331A408283828B0B0642EA1342D3
:101CA00082837047F0B50C461546002100228C4611
:101CB000068C4EF6FF773E400684818B028C260709
:101CC0004FEA164C40F6FF4631402E0641EA1641D7
:101CD0001E0741EA164145F6FF7632404CF4805625
:101CE000324381830284F0BD828B4FF6F3731A4036
:101CF0008283828B0A4382837047F0B50C46154677
:101D0000002100228C46068C4FF6FF673E40068479
:101D1000818B028C26064FEA164C4FF60C7631402A
:101D20001E0545EA164631434FF2FF5632404CF449
:101D30008076324381830284F0BD028B4FF2FF3301
:101D40001A400283028B0B0642EA13420283704759
:101D5000F0B50C461546002100228C46068C4FF645
:101D6000EF773E400684018B028C26054FEA164C25
:101D700040F6FF4631401E0741EA16412E0641EA71
:101D800016414FF65F7632404CF010063243018325
:101D90000284F0BD028B4FF6F3731A400283028B6C
:101DA0000A430283704770B58C4614460021002216
:101DB000058C4FF6FE7635400584018B028C4FF67C
:101DC0000C7529401D0544EA1545294304E000002F
:101DD00000000140000401404FF6F5752A404CF028
:101DE00001052A430183028470BD70B505460C4687
:101DF000208850B92389A28861882846FFF7D3FF3D
:101E0000E1882846FFF7C6FF25E0208804280AD18C
:101E10002389A28861882846FFF79AFFE18828462F
:101E2000FFF78BFF17E0208808280AD12389A288B2
:101E300061882846FFF761FFE1882846FFF754FFD5
:101E400009E02389A28861882846FFF72BFFE188F3
:101E50002846FFF71CFF70BD002101804180012151
:101E600081800021C180018170472DE9F041054644
:101E70000C4600260127608808B9022600E00026EB
:101E8000A088012801D1022700E001272088A0B9FD
:101E90002389A28861882846FFF785FFE1882846C4
:101EA000FFF778FF23893A4631462846FFF750FF6F
:101EB000E1882846FFF741FF13E02389A288618863
:101EC0002846FFF745FFE1882846FFF736FF2389BC
:101ED0003A4631462846FFF766FFE1882846FFF775
:101EE00059FFBDE8F0810146486B70470146886B99
:101EF00070470146C86B70470146086C70470A88F6
:101F00004B881A438B881A43CB881A430B891A4390
:101F10004B891A438B891A43A0F84420704700214B
:101F2000018041808180C180018141818181704730
:101F300031B1B0F8442042F40042A0F8442005E05A
:101F4000B0F84420C2F30E02A0F84420704721B13B
:101F5000828842F00402828004E082884FF6FB739C
:101F60001A408280704721B1828842F0010282804B
:101F700004E082884FF6FE731A408280704710B5E5
:101F80001AB183890B43838104E08389CC43A4B2D3
:101F90002340838110BD8182704702460020138A4E
:101FA0000B4201D0012000E000207047CA430282AA
:101FB000704710B50246002000238446148A04EAC4
:101FC0000103948904EA010C23B1BCF1000F01D094
:101FD000012000E0002010BDCA430282704741EAA0
:101FE0000203A0F84830704710B51AB183890B433B
:101FF000838104E08389CC43A4B22340838110BD54
:1020000021B1828842F00802828004E082884FF683
:10201000F7731A408280704701894FF6F8721140B9
:10202000018170470A46002101894FF68F731940DC
:1020300011430181704730B504460D4629462046BC
:10204000FFF7F0FF208940F00700208130BD2DE927
:10205000F04104460D4616461F46602D06D13B460C
:10206000012231462046FFF773FE05E03B46012280
:1020700031462046FFF797FE29462046FFF7D2FF5C
:10208000208940F007002081BDE8F08110B58C4622
:1020900000210189C9B21C0642EA144444EA0C0436
:1020A0002143018110BD2DE9F04105460E4617463A
:1020B0009846002443463A4631462846FFF7E6FF55
:1020C0002C894FF6F870044044F007044FF68F70E7
:1020D000044044F070042C81BDE8F081F0B5044662
:1020E0000D4616461F463B46324629462046FFF718
:1020F000CDFF208940F480402081F0BD82884FF6DA
:102100008F731A40828082880A43828070470289D6
:102110004FF6F8731A40028102890A430281704720
:1021200002894FF67F731A40028102890A430281B5
:10213000704770B58C4614461D46002100220023CE
:102140000189028B038C4FF6F876314041EA0C018D
:102150004FF6FC46324040F2011632434FF6DD7630
:1021600033402E0544EA164633430181028303843B
:1021700070BD21B1828842F08002828004E08288B2
:102180004FF67F731A4082807047A0F85010704756
:1021900010B50446F848844208D101211020FFF709
:1021A0002BF900211020FFF727F93EE0F348844285
:1021B00009D101214804FFF70EF900214FF4003046
:1021C000FFF709F931E0EE48844209D10121880482
:1021D000FFF701F900214FF48020FFF7FCF824E01D
:1021E000E848844209D10121C804FFF7F4F800212E
:1021F0004FF40020FFF7EFF817E0E348844209D1DD
:1022000001210805FFF7E7F800214FF48010FFF7E0
:10221000E2F80AE0DD48844207D101212020FFF7DF
:10222000EBF800212020FFF7E7F810BD2DE9FF476C
:1022300005460E460024A14600BFA046B08900B165
:1022400000BF2C8A24F44054F08804432C82AC89CB
:1022500041F20C608443B088318908437189084396
:102260000443AC81AC8A24F44074B0890443AC824A
:102270006846FEF787FFC048854202D0C3488542C2
:1022800002D1DDF80C9001E0DDF80890A88910F487
:10229000004F08D009EBC90000EB09103168490074
:1022A000B0FBF1F707E009EBC90000EB091031685A
:1022B0008900B0FBF1F76420B7FBF0F004012009BE
:1022C000642101FB1078A88910F4004F08D0322057
:1022D00000EBC800B0FBF1F000F00700044308E099
:1022E000322000EB08106421B0FBF1F000F00F0089
:1022F00004432C81BDE8FF874FF416510160002193
:102300008180C18001810C21418100218181704740
:1023100010B502460020108A20F470600B884C88AB
:1023200023438C882343CC8823431843108210BD59
:102330000021018041808180C180704721B1828964
:1023400042F40052828104E082894DF6FF731A4004
:1023500082817047028B02F47F420283028B0A4320
:102360000283704721B1828942F40042828103E0F6
:102370008289C2F30E028281704721B1828A42F4BF
:102380000062828204E0828A4FF2FF731A408282E6
:102390007047C1F308028280704701468888C0F305
:1023A00008007047028A4FF6F0731A400282028AD0
:1023B0000A430282704721B1828942F0020282817F
:1023C00004E082894FF6FD731A408281704782894A
:1023D0004FF2FF731A40828182890A4382817047DB
:1023E000028A4FF6DF731A400282028A0A4302828F
:1023F000704721B1028A42F48042028204E0028ADC
:102400004BF6FF731A4002827047818941F0010147
:102410008181704721B1828A42F00802828204E001
:10242000828A4FF6F7731A4082827047028BD2B2CB
:102430000283028B42EA01220283704721B1828A21
:1024400042F02002828204E0828A4FF6DF731A4053
:102450008282704721B1828A42F01002828204E0B7
:10246000828A4FF6EF731A4082827047828A4FF653
:10247000FB731A408282828A0A438282704721B1AA
:10248000828A42F00202828204E0828A4FF6FD7361
:102490001A408282704710B51AB1838A0B43838237
:1024A00004E0838ACC43A4B22340838210BD70B57C
:1024B00003460024A44600250020A1F510666A3ECC
:1024C00000D100BF1846C1F3421401F01F0C0126D1
:1024D00006FA0CF5012C01D10C3004E0022C01D1DC
:1024E000103000E014301AB106682E43066002E096
:1024F0000668AE43066070BD02460020B1F5007F5D
:1025000000D100BF13880B4201D0012000E0002061
:10251000704701F40072B2F5007F00D100BFCA43DA
:102520000280704730B50246002400239C460020FC
:10253000A1F510656A3D00D100BFC1F3421C01F056
:102540001F03012505FA03F3BCF1010F02D19589A0
:102550002B4007E0BCF1020F02D1158A2B4001E0AD
:10256000958A2B400C12012505FA04F415882C409D
:1025700073B16CB101200CE0001001400044004038
:1025800000480040004C0040005000400014014052
:10259000002030BD10B500220023A1F510646A3C74
:1025A00000D100BF0A1201249440A3B2DC4304808E
:1025B00010BD000010B504464FF47A7060434FF030
:1025C0008041C86201218807FFF7E0F800BFFC489E
:1025D00000780028FBD00020F949087010BD1FB515
:1025E0001C208DF80C0000208DF80D0002208DF8C5
:1025F0000E0001208DF80F0003A8FDF738FF012120
:102600000846FEF783FE4FF08040FEF789FF4FF447
:10261000FA6001905320ADF800000020ADF80800EA
:10262000ADF8020069464FF08040FFF726F801211F
:102630008807FFF7BBFC012211469007FFF79FFCBC
:1026400000214FF08040FFF7A1F81FBD1CB501210C
:102650000420FEF728FE1020009001208DF80400D1
:1026600000208DF805008DF8060001208DF8070088
:102670006946D448FEF7E0FB1021D248FEF752FC31
:102680001CBD00B59BB001218805FEF70CFE0121A1
:102690000420FEF708FE01210220FEF704FE0121BE
:1026A0000802FEF744FE00200290C7480390C74886
:1026B00004900020059004200690002007904FF41D
:1026C000806008904000099080000A9040110B90B3
:1026D00040020C9000200D9001200E9000200F90E1
:1026E000109002A9BA48FEF703FA0121B848FEF794
:1026F00039FA0F20009003208DF8040000208DF897
:10270000070003208DF805006946AE48FEF794FBEC
:102710000220009001208DF8040000208DF80700B1
:102720006946AC48FEF788FB0221AA48FEF7F8FB91
:10273000002011904FF4403012904FF480401390DD
:102740004FF47060149011A8FDF738FF0020159029
:1027500001208DF858008DF859000020179018902E
:10276000199004208DF8680015A997484C38FDF79A
:10277000F6FE062301220A2193484C38FDF77AFF22
:10278000062302220B2190484C38FDF773FF0623E5
:1027900003220C218C484C38FDF76CFF06230422E1
:1027A0000D2189484C38FDF765FF012186484C38DA
:1027B000FEF70BF8012184484C38FDF7FBFF01219F
:1027C00081484C38FDF716FF1BB000BD2DED088B7E
:1027D000FFF757FF4FF4E13000F0F0F9FFF736FF55
:1027E00079484C38FDF7A3FFFFF7F9FE77E10020A9
:1027F00079490860C9E07549774A126831F81200D2
:1028000000F0C2FD41EC100BB0EE40AAF0EE60AA61
:102810009FED720B53EC102B51EC1A0B00F0C8FD1E
:1028200041EC100BB0EE409AF0EE609A9FED6D0B0C
:1028300053EC102B51EC190B00F04EFC41EC100B3B
:10284000B0EE408AF0EE608A9FED680B53EC102BDF
:1028500051EC180B00F040FC41EC100B65485E4950
:10286000096800EBC10080ED000B63485A49096814
:1028700000EB0110C168806841EC100B9FED5F1BFD
:1028800053EC112B00F028FC41EC100BB0EE409AF9
:10289000F0EE609A5B485049096800EBC10003C83C
:1028A00041EC100B53EC102B51EC190B00F07EFE99
:1028B00041EC100BB0EE408AF0EE608A5248464977
:1028C000096800EBC10003C841EC100B53EC102B5E
:1028D00051EC180B00F000FC41EC100B4B483E494A
:1028E000096800EBC10080ED000B42483A490968D5
:1028F00000EBC10003C8404A374B1B6802EB0312D0
:10290000434B1B6802EBC30203C29FED420B3A48E4
:102910003149096800EB011080ED020B00203F49AE
:10292000086026E034482C49096800EB01103B4957
:10293000096800EBC10003C841EC100B2E48264982
:10294000096800EB0110C168806841EC110B53EC81
:10295000102B00F019FB41EC100B27481E490968A9
:1029600000EB011080ED020B2C480068401C2B4945
:1029700008602A4800680128D4DB0A20FFF71AFE05
:1029800015480068401C1449086013480068042872
:10299000FFF631AF1E480068401C1D49086008461C
:1029A0000068022801D1002008609FED1A0BB0EEEC
:1029B00040BAF0EE60BA00200749086049E0000024
:1029C00074000020000802404C2001402800002034
:1029D0001064024000040240780000200000000063
:1029E00000C8A9400000000000FEAF400000000049
:1029F00000408F4088000020C80000200000000038
:102A00000000F03F5000002030000020A80000200F
:102A10007000002000000000000000007C0000208A
:102A200058485949096800EBC10003C841EC100B34
:102A300053EC102B51EC1B0B00F0A6FA41EC100BE1
:102A4000B0EE40BAF0EE60BA4F480068401C4E4904
:102A500008604D4800680428E2DB4C4800780328F1
:102A60003DD1012000F093F902214948FEF75AFABE
:102A70000120464908704348C169806941EC100B48
:102A800000F050FA08EE100A3E484169006941EC36
:102A9000100B00F047FA08EE900A3A48C1688068C7
:102AA00041EC100B00F03EFA09EE100A354803C85D
:102AB00041EC100B00F036FA09EE900AF0EE481ADD
:102AC000B0EE681AF0EE490AB0EE690A00F0B1F90A
:102AD000002000F05CF902212D48FEF721FA86E67D
:102AE00010B501218807FFF764FA50B1012188076A
:102AF000FFF772FA01202749087000218007FEF7CE
:102B000045FE10BD014600BF704700BF224A128833
:102B100012F0400FFAD0C2B21F4B9A8070477FB5B7
:102B200004460D4601210804FEF701FC0294ADF8AD
:102B300004500020ADF80600ADF80C0001A91748BC
:102B4000FEF79BFD012211461448FFF718FA0121F8
:102B50001248FEF71BFE18208DF8000002208DF8A9
:102B6000010003208DF8020001208DF80300684663
:102B7000FDF77DFC7FBD10B501210848FFF719FA6C
:102B800010BD0000A8000020780000208400002074
:102B90000004024074000020001001400040014089
:102BA000704700BFFEE700BFFEE700BFFEE700BFC3
:102BB000FEE77047704770477047000010B588B057
:102BC000044601211020FEF7B2FB01210846FEF762
:102BD0006AFB07220A21B148FEF7B1F90722092151
:102BE000AE48FEF7ACF94FF48060069002208DF8F5
:102BF0001C008DF81D0000208DF81E0001208DF8AE
:102C00001F0006A9A548FEF717F94FF400700690BB
:102C100006A9A248FEF710F902940020ADF80C00B6
:102C2000ADF80E00ADF81000ADF814000C20ADF8B2
:102C3000120002A99A48FFF7F9FA01219848FFF714
:102C40007DFB40219648FFF764FC002240F226619C
:102C50009348FFF72CFC012240F225519048FFF7E2
:102C600026FC80218E48FFF754FC20218C48FFF77A
:102C700050FC25208DF8040001208DF807008DF808
:102C8000050003208DF8060001A8FDF7F0FB08B051
:102C900010BD10B503468C4600200CF0FF0104E087
:102CA0005C5C0444E0B24C1CE1B29142F8DDC443E8
:102CB000E0B210BD70B504465A2C15D179480078A1
:102CC000012811D1002503E00020774948556D1CEB
:102CD000142DF9DB02207349087000207349087035
:102CE00071480978445431E0A52C27D16F48007809
:102CF000401C6E4908706C480978445400206B49A8
:102D00000870102201216848FFF7C3FF0646664895
:102D1000417CB14203D103206249087002E00120E6
:102D20006049087060484078AA280FD15E488078D2
:102D300055280BD104205B49087007E05B480078F8
:102D4000401C5A49087058480978445470BD10B561
:102D5000002440F225515248FFF7E4FB58B140F2FD
:102D600025514F48FFF716FC4D48FFF716FBC4B23C
:102D70002046FFF79FFF40F226614948FFF7D2FB4C
:102D800020B140F226614648FFF704FC10BD10B5A3
:102D90000446012C04D110214548FEF7C1F803E098
:102DA00010214348FEF7BEF810BD3F4800785A286E
:102DB0000FD13C48007803280BD1002105E03A4AA6
:102DC000481C105C3B4A5054491C1029F7DB012079
:102DD00070470020FCE770B50546002413E0364834
:102DE000015D2F48FFF7D5FA00BF80212C48FFF77F
:102DF00083FB0028F9D000BF40212948FFF77CFB66
:102E00000028F9D0641CAC42E9DB70BD10B500BFEE
:102E1000244800780128FBD15A2027490870AA20AD
:102E2000487055208870A520C8700420FFF7D3FF94
:102E300010BD10B52DED048BB0EE408AF0EE608A27
:102E4000B0EE419AF0EE619A00BF16480078012872
:102E5000FBD1184880ED008AC0ED018A80ED029A0E
:102E6000C0ED039A5A2014490870012405E0601E41
:102E70001049085C10490855641C112CF7DB10221E
:102E800001210D48FFF705FF0B494874A520887400
:102E90001320FFF7A0FFBDEC048B10BD0000024023
:102EA000001001408400002008010020850000205F
:102EB00000080240300100201C01002070477047CC
:102EC000704770477047754600F028F8AE46050019
:102ED0006946534620F00700854618B020B5FDF737
:102EE000AFFABDE820404FF000064FF000074FF06A
:102EF00000084FF0000B21F00701AC46ACE8C00918
:102F0000ACE8C009ACE8C009ACE8C0098D46704720
:102F10000446AFF300802046FDF77FF90048704774
:102F20004001002021F00042A2F16052B2F5801F62
:102F300001F0004328BFD2F17F6C0BD95FEA001C7F
:102F400043EAC20242EB507018BF704728BF20F01E
:102F500001007047B2F5801FBCBF184670474FEAAA
:102F6000410C1CF5001F02D2084600F00EBC70B5E3
:102F700000F0C8FA00000089FFF7F6BF4FF00040EC
:102F8000A0F580007047000010B591EA030F48BF1C
:102F900083F0004300F11283841A71EB030C05D215
:102FA000121943EB0C03001B61EB0C01DFF824E169
:102FB0004FEA1154A4EB135C1EEA430F18BF9EEABC
:102FC000445F73D023EA0E03DCF1200E21EA0451A2
:102FD00043F4801332D322FA0CFE10EB0E0023FAD6
:102FE0000CFE41EB0E01CCF1200E03FA0EFE10EBAD
:102FF0000E0051F10001B1F5801FCCF1200E32D24C
:1030000001EB045112FA0EF2BDE8104058BF7047B0
:10301000401C38BF5FEA420218BF7047002814BF47
:1030200020F0010041F100014FEA410313F5001FB8
:1030300038BF7047A1F1C04100F0B2BA012A43EB9A
:103040000302ACF1200CDCF11F0E32BF4FF0000E7A
:1030500023FA0CF310EB030041EB0451B4EB115FC6
:10306000D0D0A1EB045101F5801149085FEA30008E
:1030700001EB04510ED350F1000038BF12FA0EFEDE
:1030800008D1BDE81040C9E7401C38BF5FEA4202E2
:10309000CAD1C3E7BDE810404FEA410313F5001F52
:1030A00038BF7047A1F1C04100F07ABA9EEA445F90
:1030B00008D011EA5E0FBDE8104004BF01F00041E6
:1030C00000207047BDE8104070B500F01BFA00BF4B
:1030D00064FBBE3E0000E0FF2DE9C04130B4DFF8E4
:1030E000A0C23CEA111418BF3CEA131400F0EC80B3
:1030F00081EA03051CEA111444EAD57418BF1CEADE
:10310000131500F0C780A4EB05044FF0004545EA15
:10311000C12145EAC32341EA505143EA525304F125
:103120007F74994204F500344FEAC0204FEAC2226E
:1031300008BF904200F09C804FEA13650FF24016E2
:10314000765D4FEA134506FB05F7C7F1807706FB6E
:1031500007F74FEAD737A7FB03687642C8F58038F0
:10316000A7FB06CE38BFA8F1010807FB08E64FF021
:10317000000EA6FB028CE6FB03CEDCF1000CCEF1C8
:10318000004E38BFAEF1010EA6FB0C584FF0000701
:103190004FF00005E6FB0E87A1FB08C6A0FB07CE9B
:1031A00016EB0E0645F10005E1FB076515F1E04E53
:1031B0007EBFA4F580345FEA46066D4116F18007B4
:1031C00045F100054FEA17274FEA066647EA05670B
:1031D000A6F1DE46B6F1805F4FEA15251FD93846C5
:1031E00024F0010C05EBC471BCF1FE6F01EB0C1176
:1031F00002D8F0BCBDE8008124425CBF01F5801E0E
:103200009EEAC47F02D4F0BCBDE80081244238D4D9
:10321000F0BCA1F1C041BDE8004100F0C1B94FEAE6
:10322000D22242EA43524FEAD323A7FB02864FEA57
:10323000D02040EA415007FB03661EEA0E0F4FEA1A
:10324000D12105FB026658BFA6EB0056B6EB00562F
:103250004FEA520E4EEAC37E18EB0E0E56EB530E9B
:10326000BDD518EB02085E417F1C55F10005B6E79D
:103270004FF480154FF000074FF000064FF00008A4
:10328000ADE7F0BC4FF0000001F1C04101F000419A
:10329000BDE8008111EA0C1F0CEA131500D00CE008
:1032A00013EA0C1F00F025804FF00000F0BC81EA0B
:1032B000030101F00041BDE80081F0BCBDE8004120
:1032C00081EA030100F06CB9F0BCBDE8004170B5C3
:1032D00000F018F9097EFC3E00F007B881EA03010E
:1032E0004FF0000001F00041704781EA030100F057
:1032F00057B9F0BCBDE800414FF0000021497047CC
:10330000FFFDFBF9F7F5F4F2F0EEEDEBE9E8E6E4AA
:10331000E3E1E0DEDDDBDAD8D7D5D4D3D1D0CFCD31
:10332000CCCBCAC8C7C6C5C4C2C1C0BFBEBDBCBB6A
:10333000BAB9B8B7B6B5B4B3B2B1B0AFAEADACAB65
:10334000AAA9A8A8A7A6A5A4A3A3A2A1A09F9F9E3F
:103350009D9C9C9B9A9999989797969595949393F1
:10336000929191908F8F8E8E8D8C8C8B8B8A898988
:10337000888887878685858484838382828181800B
:103380000000FF070000F87FB0FA80F310FA03F1A5
:103390000AD0C3F11D0303F580634FEA41504FEAA1
:1033A000035202EBD12170474FF00000704700003C
:1033B000DFF848C170B51CEA111E1EBF1CEA1315C8
:1033C0009EEA0C0F95EA0C0F00F06F8081EA03046F
:1033D00023EA4C134EEAD47E21EA4C1141F48011C9
:1033E00043F48013AE44A1FB024CA0FB0365AEF195
:1033F0007F7E361955EB0C05A1FB034C4CF1000305
:10340000A0FB021C16EB0C06654153F100030942B8
:1034100018BF46F0010613F4007F0BD14FEA0331C9
:103420004FEA0530340341EA155140EA16506FF077
:1034300003020AE04FEAC3214FEAC520F40241EA41
:10344000555140EA56506FF0020202EB2E4201EB5A
:10345000025585EACE710AD05FEA440C18BF24F009
:10346000004450F1000041F1000120EAD47040F224
:10347000FE7C624500D270BDA84214BF4FF080446C
:103480004FF04044002E08BF0024BEF1806FA8BF5B
:10349000A1F1C041BDE8704080F282804FF0000091
:1034A00001F1C04101F0004170479EEA0C0F0CEAA7
:1034B000131518BF95EA0C0F06D04FF0000081EAF3
:1034C000030E0EF0004170BD00F01CF88900013EB3
:1034D00000F007B800F009B84FEA430C5FEA5C5C03
:1034E00008D081EA030100F05BB84FEA410C5FEAC3
:1034F0005C5CF6D14FF00000014970470000FF0707
:103500000000F87F0EF1020E2EF0030E5EF8046B41
:10351000364205D4012A43EB030515F5001F12D8E6
:10352000012841EB010C1CF5001F0CD80ED14FEA0D
:10353000D17C15F5001F0CEB4C0C0CF1020C08BFF4
:103540004CEBD37C04E04FF0080C01E04FEAD37C55
:103550000CEB4C0526FA05F606F00706B6F1040C4E
:1035600006D20EEB860CBDE870404CF0010C6047B3
:10357000DFE80CF0090B02024FF000414FF00000B1
:10358000A1F5002170BD19461046012851EB010438
:1035900018BFD4F5001484BF002001F0004170BDB5
:1035A0000808A0F500114FEA3101704710B591EA03
:1035B000030F48BF83F000433FF5EEAC841A71EB74
:1035C000030C07D212198CF0004C43EB0C03001BC8
:1035D00061EB0C01DFF8A4E14FEA1154A4EB135C9A
:1035E0001EEA430F18BF9EEA445F00F0B08023EA52
:1035F0006E03524221EA0451C3EB6E0338BF5B1ED7
:10360000DCF1200E25D322FA0CFE10EB0E0043FA5B
:103610000CFE41EB0E01CCF1200E03FA0EFE10EB76
:103620000E0051F10001CCF1200E29D412FA0EF255
:1036300001EB0451BDE8104058BF7047401C1CBF4F
:10364000B2F1004F704700280CBF491C20F0010068
:10365000704712EB020E43EB030218BF4FF0010E4E
:103660004EEA4202ACF1200CDCF11E0E54D943FAB2
:103670000CFE10EB0E0051F1FF31CCF11E0ED5D532
:103680000EF1010E12FA0EFE404141EB010101EB79
:10369000445C5FEA5C5C10D910EBDE7001EB045116
:1036A00038BFBEF1004FBDE8104018BF704700287A
:1036B0000CBF491C20F00100704730D24FEAD42CD7
:1036C00011F5001124F400641BD0B1FA81F20B3A19
:1036D000A41AA41ED2F12003914030FA03F3194337
:1036E000904001EBCC71002C01EB0451BDE810407F
:1036F000A8BF704701F1C0414FF0000001F0004148
:103700007047B0FA80F310FA03F100D110BDE41A4B
:10371000173C4805C90AE4E701EB045110BD491004
:1037200001EB0451BDE810404FEA300002E04FF0D9
:10373000000170474A0008BF0042F8D0B2F5001FF0
:1037400028BF704701F000414FF0000070479EEA2B
:10375000445F07D011EA5E0FBDE8104004BF0021AE
:1037600000207047BDE8104070B5FFF7CBFE00BFEA
:1037700040DFF63E83F00041104670470000E0FF56
:103780004FF04070E1EE100A7047FF2141EAD0503F
:10379000C0057047B4370008000000208800000012
:1037A000C40100083C380008880000201807000009
:1037B000E0010008007A030A000000000000000099
:1037C00001020304060708090000000001020304C7
:1037D00001020304060708090000000000000000C1
:1037E00000000000CDCCCCCCCCCCEC3F7B14AE4761
:1037F000E17AEC3FCDCCCCCCCCCCEC3FB81E85EB09
:1038000051B8EE3F0AD7A3703D0AB73F0000000051
:10381000000000007B14AE47E17AD43F00000000B6
:103820000000000000000000000000000000000098
:0C3830000000000000000000010000008B
:040000050800018965
:00000001FF
